{
	"src/Contract_1.sol": {
		"NZFToken": {
			"abi": [
				{
					"inputs": [
						{
							"internalType": "address",
							"name": "_developerWallet",
							"type": "address"
						},
						{
							"internalType": "address",
							"name": "_USDTAddress",
							"type": "address"
						}
					],
					"stateMutability": "nonpayable",
					"type": "constructor"
				},
				{
					"inputs": [
						{
							"internalType": "address",
							"name": "target",
							"type": "address"
						}
					],
					"name": "AddressEmptyCode",
					"type": "error"
				},
				{
					"inputs": [
						{
							"internalType": "address",
							"name": "account",
							"type": "address"
						}
					],
					"name": "AddressInsufficientBalance",
					"type": "error"
				},
				{
					"inputs": [
						{
							"internalType": "address",
							"name": "spender",
							"type": "address"
						},
						{
							"internalType": "uint256",
							"name": "allowance",
							"type": "uint256"
						},
						{
							"internalType": "uint256",
							"name": "needed",
							"type": "uint256"
						}
					],
					"name": "ERC20InsufficientAllowance",
					"type": "error"
				},
				{
					"inputs": [
						{
							"internalType": "address",
							"name": "sender",
							"type": "address"
						},
						{
							"internalType": "uint256",
							"name": "balance",
							"type": "uint256"
						},
						{
							"internalType": "uint256",
							"name": "needed",
							"type": "uint256"
						}
					],
					"name": "ERC20InsufficientBalance",
					"type": "error"
				},
				{
					"inputs": [
						{
							"internalType": "address",
							"name": "approver",
							"type": "address"
						}
					],
					"name": "ERC20InvalidApprover",
					"type": "error"
				},
				{
					"inputs": [
						{
							"internalType": "address",
							"name": "receiver",
							"type": "address"
						}
					],
					"name": "ERC20InvalidReceiver",
					"type": "error"
				},
				{
					"inputs": [
						{
							"internalType": "address",
							"name": "sender",
							"type": "address"
						}
					],
					"name": "ERC20InvalidSender",
					"type": "error"
				},
				{
					"inputs": [
						{
							"internalType": "address",
							"name": "spender",
							"type": "address"
						}
					],
					"name": "ERC20InvalidSpender",
					"type": "error"
				},
				{
					"inputs": [],
					"name": "FailedInnerCall",
					"type": "error"
				},
				{
					"inputs": [
						{
							"internalType": "address",
							"name": "owner",
							"type": "address"
						}
					],
					"name": "OwnableInvalidOwner",
					"type": "error"
				},
				{
					"inputs": [
						{
							"internalType": "address",
							"name": "account",
							"type": "address"
						}
					],
					"name": "OwnableUnauthorizedAccount",
					"type": "error"
				},
				{
					"inputs": [
						{
							"internalType": "address",
							"name": "token",
							"type": "address"
						}
					],
					"name": "SafeERC20FailedOperation",
					"type": "error"
				},
				{
					"anonymous": false,
					"inputs": [
						{
							"indexed": true,
							"internalType": "address",
							"name": "owner",
							"type": "address"
						},
						{
							"indexed": true,
							"internalType": "address",
							"name": "spender",
							"type": "address"
						},
						{
							"indexed": false,
							"internalType": "uint256",
							"name": "value",
							"type": "uint256"
						}
					],
					"name": "Approval",
					"type": "event"
				},
				{
					"anonymous": false,
					"inputs": [
						{
							"indexed": true,
							"internalType": "address",
							"name": "to",
							"type": "address"
						},
						{
							"indexed": false,
							"internalType": "uint256",
							"name": "amount",
							"type": "uint256"
						}
					],
					"name": "DeveloperMint",
					"type": "event"
				},
				{
					"anonymous": false,
					"inputs": [
						{
							"indexed": true,
							"internalType": "address",
							"name": "to",
							"type": "address"
						},
						{
							"indexed": false,
							"internalType": "uint256",
							"name": "amount",
							"type": "uint256"
						}
					],
					"name": "InvestorMint",
					"type": "event"
				},
				{
					"anonymous": false,
					"inputs": [
						{
							"indexed": true,
							"internalType": "address",
							"name": "previousOwner",
							"type": "address"
						},
						{
							"indexed": true,
							"internalType": "address",
							"name": "newOwner",
							"type": "address"
						}
					],
					"name": "OwnershipTransferred",
					"type": "event"
				},
				{
					"anonymous": false,
					"inputs": [
						{
							"indexed": true,
							"internalType": "address",
							"name": "from",
							"type": "address"
						},
						{
							"indexed": true,
							"internalType": "address",
							"name": "to",
							"type": "address"
						},
						{
							"indexed": false,
							"internalType": "uint256",
							"name": "value",
							"type": "uint256"
						}
					],
					"name": "Transfer",
					"type": "event"
				},
				{
					"inputs": [],
					"name": "DEVELOPER_SUPPLY",
					"outputs": [
						{
							"internalType": "uint256",
							"name": "",
							"type": "uint256"
						}
					],
					"stateMutability": "view",
					"type": "function"
				},
				{
					"inputs": [],
					"name": "INVESTOR_SUPPLY",
					"outputs": [
						{
							"internalType": "uint256",
							"name": "",
							"type": "uint256"
						}
					],
					"stateMutability": "view",
					"type": "function"
				},
				{
					"inputs": [],
					"name": "MINT_LIMIT_PER_INVESTOR",
					"outputs": [
						{
							"internalType": "uint256",
							"name": "",
							"type": "uint256"
						}
					],
					"stateMutability": "view",
					"type": "function"
				},
				{
					"inputs": [],
					"name": "TOTAL_SUPPLY",
					"outputs": [
						{
							"internalType": "uint256",
							"name": "",
							"type": "uint256"
						}
					],
					"stateMutability": "view",
					"type": "function"
				},
				{
					"inputs": [],
					"name": "USDTAddress",
					"outputs": [
						{
							"internalType": "address",
							"name": "",
							"type": "address"
						}
					],
					"stateMutability": "view",
					"type": "function"
				},
				{
					"inputs": [
						{
							"internalType": "address",
							"name": "owner",
							"type": "address"
						},
						{
							"internalType": "address",
							"name": "spender",
							"type": "address"
						}
					],
					"name": "allowance",
					"outputs": [
						{
							"internalType": "uint256",
							"name": "",
							"type": "uint256"
						}
					],
					"stateMutability": "view",
					"type": "function"
				},
				{
					"inputs": [
						{
							"internalType": "address",
							"name": "spender",
							"type": "address"
						},
						{
							"internalType": "uint256",
							"name": "value",
							"type": "uint256"
						}
					],
					"name": "approve",
					"outputs": [
						{
							"internalType": "bool",
							"name": "",
							"type": "bool"
						}
					],
					"stateMutability": "nonpayable",
					"type": "function"
				},
				{
					"inputs": [
						{
							"internalType": "address",
							"name": "account",
							"type": "address"
						}
					],
					"name": "balanceOf",
					"outputs": [
						{
							"internalType": "uint256",
							"name": "",
							"type": "uint256"
						}
					],
					"stateMutability": "view",
					"type": "function"
				},
				{
					"inputs": [
						{
							"internalType": "address",
							"name": "pool",
							"type": "address"
						},
						{
							"internalType": "uint256",
							"name": "amount",
							"type": "uint256"
						}
					],
					"name": "buyBack",
					"outputs": [],
					"stateMutability": "nonpayable",
					"type": "function"
				},
				{
					"inputs": [],
					"name": "currentSupply",
					"outputs": [
						{
							"internalType": "uint256",
							"name": "",
							"type": "uint256"
						}
					],
					"stateMutability": "view",
					"type": "function"
				},
				{
					"inputs": [],
					"name": "decimals",
					"outputs": [
						{
							"internalType": "uint8",
							"name": "",
							"type": "uint8"
						}
					],
					"stateMutability": "view",
					"type": "function"
				},
				{
					"inputs": [],
					"name": "developerWallet",
					"outputs": [
						{
							"internalType": "address",
							"name": "",
							"type": "address"
						}
					],
					"stateMutability": "view",
					"type": "function"
				},
				{
					"inputs": [
						{
							"internalType": "uint256",
							"name": "amount",
							"type": "uint256"
						}
					],
					"name": "mintInvestor",
					"outputs": [],
					"stateMutability": "nonpayable",
					"type": "function"
				},
				{
					"inputs": [
						{
							"internalType": "address",
							"name": "",
							"type": "address"
						}
					],
					"name": "mintedTokens",
					"outputs": [
						{
							"internalType": "uint256",
							"name": "",
							"type": "uint256"
						}
					],
					"stateMutability": "view",
					"type": "function"
				},
				{
					"inputs": [],
					"name": "name",
					"outputs": [
						{
							"internalType": "string",
							"name": "",
							"type": "string"
						}
					],
					"stateMutability": "view",
					"type": "function"
				},
				{
					"inputs": [],
					"name": "owner",
					"outputs": [
						{
							"internalType": "address",
							"name": "",
							"type": "address"
						}
					],
					"stateMutability": "view",
					"type": "function"
				},
				{
					"inputs": [],
					"name": "renounceOwnership",
					"outputs": [],
					"stateMutability": "nonpayable",
					"type": "function"
				},
				{
					"inputs": [],
					"name": "symbol",
					"outputs": [
						{
							"internalType": "string",
							"name": "",
							"type": "string"
						}
					],
					"stateMutability": "view",
					"type": "function"
				},
				{
					"inputs": [],
					"name": "totalSupply",
					"outputs": [
						{
							"internalType": "uint256",
							"name": "",
							"type": "uint256"
						}
					],
					"stateMutability": "view",
					"type": "function"
				},
				{
					"inputs": [
						{
							"internalType": "address",
							"name": "to",
							"type": "address"
						},
						{
							"internalType": "uint256",
							"name": "value",
							"type": "uint256"
						}
					],
					"name": "transfer",
					"outputs": [
						{
							"internalType": "bool",
							"name": "",
							"type": "bool"
						}
					],
					"stateMutability": "nonpayable",
					"type": "function"
				},
				{
					"inputs": [
						{
							"internalType": "address",
							"name": "from",
							"type": "address"
						},
						{
							"internalType": "address",
							"name": "to",
							"type": "address"
						},
						{
							"internalType": "uint256",
							"name": "value",
							"type": "uint256"
						}
					],
					"name": "transferFrom",
					"outputs": [
						{
							"internalType": "bool",
							"name": "",
							"type": "bool"
						}
					],
					"stateMutability": "nonpayable",
					"type": "function"
				},
				{
					"inputs": [
						{
							"internalType": "address",
							"name": "newOwner",
							"type": "address"
						}
					],
					"name": "transferOwnership",
					"outputs": [],
					"stateMutability": "nonpayable",
					"type": "function"
				},
				{
					"inputs": [],
					"name": "withdraw",
					"outputs": [],
					"stateMutability": "nonpayable",
					"type": "function"
				}
			],
			"devdoc": {
				"errors": {
					"AddressEmptyCode(address)": [
						{
							"details": "There's no code at `target` (it is not a contract)."
						}
					],
					"AddressInsufficientBalance(address)": [
						{
							"details": "The ETH balance of the account is not enough to perform the operation."
						}
					],
					"ERC20InsufficientAllowance(address,uint256,uint256)": [
						{
							"details": "Indicates a failure with the `spender`’s `allowance`. Used in transfers.",
							"params": {
								"allowance": "Amount of tokens a `spender` is allowed to operate with.",
								"needed": "Minimum amount required to perform a transfer.",
								"spender": "Address that may be allowed to operate on tokens without being their owner."
							}
						}
					],
					"ERC20InsufficientBalance(address,uint256,uint256)": [
						{
							"details": "Indicates an error related to the current `balance` of a `sender`. Used in transfers.",
							"params": {
								"balance": "Current balance for the interacting account.",
								"needed": "Minimum amount required to perform a transfer.",
								"sender": "Address whose tokens are being transferred."
							}
						}
					],
					"ERC20InvalidApprover(address)": [
						{
							"details": "Indicates a failure with the `approver` of a token to be approved. Used in approvals.",
							"params": {
								"approver": "Address initiating an approval operation."
							}
						}
					],
					"ERC20InvalidReceiver(address)": [
						{
							"details": "Indicates a failure with the token `receiver`. Used in transfers.",
							"params": {
								"receiver": "Address to which tokens are being transferred."
							}
						}
					],
					"ERC20InvalidSender(address)": [
						{
							"details": "Indicates a failure with the token `sender`. Used in transfers.",
							"params": {
								"sender": "Address whose tokens are being transferred."
							}
						}
					],
					"ERC20InvalidSpender(address)": [
						{
							"details": "Indicates a failure with the `spender` to be approved. Used in approvals.",
							"params": {
								"spender": "Address that may be allowed to operate on tokens without being their owner."
							}
						}
					],
					"FailedInnerCall()": [
						{
							"details": "A call to an address target failed. The target may have reverted."
						}
					],
					"OwnableInvalidOwner(address)": [
						{
							"details": "The owner is not a valid owner account. (eg. `address(0)`)"
						}
					],
					"OwnableUnauthorizedAccount(address)": [
						{
							"details": "The caller account is not authorized to perform an operation."
						}
					],
					"SafeERC20FailedOperation(address)": [
						{
							"details": "An operation with an ERC20 token failed."
						}
					]
				},
				"events": {
					"Approval(address,address,uint256)": {
						"details": "Emitted when the allowance of a `spender` for an `owner` is set by a call to {approve}. `value` is the new allowance."
					},
					"Transfer(address,address,uint256)": {
						"details": "Emitted when `value` tokens are moved from one account (`from`) to another (`to`). Note that `value` may be zero."
					}
				},
				"kind": "dev",
				"methods": {
					"allowance(address,address)": {
						"details": "See {IERC20-allowance}."
					},
					"approve(address,uint256)": {
						"details": "See {IERC20-approve}. NOTE: If `value` is the maximum `uint256`, the allowance is not updated on `transferFrom`. This is semantically equivalent to an infinite approval. Requirements: - `spender` cannot be the zero address."
					},
					"balanceOf(address)": {
						"details": "See {IERC20-balanceOf}."
					},
					"decimals()": {
						"details": "Returns the number of decimals used to get its user representation. For example, if `decimals` equals `2`, a balance of `505` tokens should be displayed to a user as `5.05` (`505 / 10 ** 2`). Tokens usually opt for a value of 18, imitating the relationship between Ether and Wei. This is the default value returned by this function, unless it's overridden. NOTE: This information is only used for _display_ purposes: it in no way affects any of the arithmetic of the contract, including {IERC20-balanceOf} and {IERC20-transfer}."
					},
					"name()": {
						"details": "Returns the name of the token."
					},
					"owner()": {
						"details": "Returns the address of the current owner."
					},
					"renounceOwnership()": {
						"details": "Leaves the contract without owner. It will not be possible to call `onlyOwner` functions. Can only be called by the current owner. NOTE: Renouncing ownership will leave the contract without an owner, thereby disabling any functionality that is only available to the owner."
					},
					"symbol()": {
						"details": "Returns the symbol of the token, usually a shorter version of the name."
					},
					"totalSupply()": {
						"details": "See {IERC20-totalSupply}."
					},
					"transfer(address,uint256)": {
						"details": "See {IERC20-transfer}. Requirements: - `to` cannot be the zero address. - the caller must have a balance of at least `value`."
					},
					"transferFrom(address,address,uint256)": {
						"details": "See {IERC20-transferFrom}. Emits an {Approval} event indicating the updated allowance. This is not required by the EIP. See the note at the beginning of {ERC20}. NOTE: Does not update the allowance if the current allowance is the maximum `uint256`. Requirements: - `from` and `to` cannot be the zero address. - `from` must have a balance of at least `value`. - the caller must have allowance for ``from``'s tokens of at least `value`."
					},
					"transferOwnership(address)": {
						"details": "Transfers ownership of the contract to a new account (`newOwner`). Can only be called by the current owner."
					}
				},
				"version": 1
			},
			"evm": {
				"assembly": "    /* \"src/Contract_1.sol\":291:5414  contract NZFToken is ERC20, Ownable {... */\n  mstore(0x40, 0x80)\n    /* \"src/Contract_1.sol\":1657:1926  constructor(address _developerWallet, address _USDTAddress)... */\n  callvalue\n  dup1\n  iszero\n  tag_1\n  jumpi\n  0x00\n  dup1\n  revert\ntag_1:\n  pop\n  mload(0x40)\n  sub(codesize, bytecodeSize)\n  dup1\n  bytecodeSize\n  dup4\n  codecopy\n  dup2\n  dup2\n  add\n  0x40\n  mstore\n  dup2\n  add\n  swap1\n  tag_2\n  swap2\n  swap1\n  tag_3\n  jump\t// in\ntag_2:\n    /* \"src/Contract_1.sol\":1767:1783  _developerWallet */\n  dup2\n    /* \"@openzeppelin/contracts/token/ERC20/ERC20.sol\":1896:2009  constructor(string memory name_, string memory symbol_) {... */\n  mload(0x40)\n  dup1\n  0x40\n  add\n  0x40\n  mstore\n  dup1\n  0x09\n  dup2\n  mstore\n  0x20\n  add\n  0x4e5a4620546f6b656e0000000000000000000000000000000000000000000000\n  dup2\n  mstore\n  pop\n  mload(0x40)\n  dup1\n  0x40\n  add\n  0x40\n  mstore\n  dup1\n  0x03\n  dup2\n  mstore\n  0x20\n  add\n  0x4e5a460000000000000000000000000000000000000000000000000000000000\n  dup2\n  mstore\n  pop\n    /* \"@openzeppelin/contracts/token/ERC20/ERC20.sol\":1970:1975  name_ */\n  dup2\n    /* \"@openzeppelin/contracts/token/ERC20/ERC20.sol\":1962:1967  _name */\n  0x03\n    /* \"@openzeppelin/contracts/token/ERC20/ERC20.sol\":1962:1975  _name = name_ */\n  swap1\n  dup2\n  tag_8\n  swap2\n  swap1\n  tag_9\n  jump\t// in\ntag_8:\n  pop\n    /* \"@openzeppelin/contracts/token/ERC20/ERC20.sol\":1995:2002  symbol_ */\n  dup1\n    /* \"@openzeppelin/contracts/token/ERC20/ERC20.sol\":1985:1992  _symbol */\n  0x04\n    /* \"@openzeppelin/contracts/token/ERC20/ERC20.sol\":1985:2002  _symbol = symbol_ */\n  swap1\n  dup2\n  tag_10\n  swap2\n  swap1\n  tag_9\n  jump\t// in\ntag_10:\n  pop\n    /* \"@openzeppelin/contracts/token/ERC20/ERC20.sol\":1896:2009  constructor(string memory name_, string memory symbol_) {... */\n  pop\n  pop\n    /* \"@openzeppelin/contracts/access/Ownable.sol\":1297:1298  0 */\n  0x00\n    /* \"@openzeppelin/contracts/access/Ownable.sol\":1273:1299  initialOwner == address(0) */\n  0xffffffffffffffffffffffffffffffffffffffff\n  and\n    /* \"@openzeppelin/contracts/access/Ownable.sol\":1273:1285  initialOwner */\n  dup2\n    /* \"@openzeppelin/contracts/access/Ownable.sol\":1273:1299  initialOwner == address(0) */\n  0xffffffffffffffffffffffffffffffffffffffff\n  and\n  sub\n    /* \"@openzeppelin/contracts/access/Ownable.sol\":1269:1364  if (initialOwner == address(0)) {... */\n  tag_12\n  jumpi\n    /* \"@openzeppelin/contracts/access/Ownable.sol\":1350:1351  0 */\n  0x00\n    /* \"@openzeppelin/contracts/access/Ownable.sol\":1322:1353  OwnableInvalidOwner(address(0)) */\n  mload(0x40)\n  0x1e4fbdf700000000000000000000000000000000000000000000000000000000\n  dup2\n  mstore\n  0x04\n  add\n  tag_13\n  swap2\n  swap1\n  tag_14\n  jump\t// in\ntag_13:\n  mload(0x40)\n  dup1\n  swap2\n  sub\n  swap1\n  revert\n    /* \"@openzeppelin/contracts/access/Ownable.sol\":1269:1364  if (initialOwner == address(0)) {... */\ntag_12:\n    /* \"@openzeppelin/contracts/access/Ownable.sol\":1373:1405  _transferOwnership(initialOwner) */\n  tag_15\n    /* \"@openzeppelin/contracts/access/Ownable.sol\":1392:1404  initialOwner */\n  dup2\n    /* \"@openzeppelin/contracts/access/Ownable.sol\":1373:1391  _transferOwnership */\n  shl(0x20, tag_16)\n    /* \"@openzeppelin/contracts/access/Ownable.sol\":1373:1405  _transferOwnership(initialOwner) */\n  0x20\n  shr\n  jump\t// in\ntag_15:\n    /* \"@openzeppelin/contracts/access/Ownable.sol\":1225:1412  constructor(address initialOwner) {... */\n  pop\n    /* \"src/Contract_1.sol\":1817:1833  _developerWallet */\n  dup2\n    /* \"src/Contract_1.sol\":1799:1814  developerWallet */\n  0x06\n  0x00\n    /* \"src/Contract_1.sol\":1799:1833  developerWallet = _developerWallet */\n  0x0100\n  exp\n  dup2\n  sload\n  dup2\n  0xffffffffffffffffffffffffffffffffffffffff\n  mul\n  not\n  and\n  swap1\n  dup4\n  0xffffffffffffffffffffffffffffffffffffffff\n  and\n  mul\n  or\n  swap1\n  sstore\n  pop\n    /* \"src/Contract_1.sol\":1857:1869  _USDTAddress */\n  dup1\n    /* \"src/Contract_1.sol\":1843:1854  USDTAddress */\n  0x08\n  0x00\n    /* \"src/Contract_1.sol\":1843:1869  USDTAddress = _USDTAddress */\n  0x0100\n  exp\n  dup2\n  sload\n  dup2\n  0xffffffffffffffffffffffffffffffffffffffff\n  mul\n  not\n  and\n  swap1\n  dup4\n  0xffffffffffffffffffffffffffffffffffffffff\n  and\n  mul\n  or\n  swap1\n  sstore\n  pop\n    /* \"src/Contract_1.sol\":1879:1919  _mint(developerWallet, DEVELOPER_SUPPLY) */\n  tag_18\n    /* \"src/Contract_1.sol\":1885:1900  developerWallet */\n  0x06\n  0x00\n  swap1\n  sload\n  swap1\n  0x0100\n  exp\n  swap1\n  div\n  0xffffffffffffffffffffffffffffffffffffffff\n  and\n    /* \"src/Contract_1.sol\":744:764  1_000_000 * (10**18) */\n  0xd3c21bcecceda1000000\n    /* \"src/Contract_1.sol\":1879:1884  _mint */\n  shl(0x20, tag_19)\n    /* \"src/Contract_1.sol\":1879:1919  _mint(developerWallet, DEVELOPER_SUPPLY) */\n  0x20\n  shr\n  jump\t// in\ntag_18:\n    /* \"src/Contract_1.sol\":1657:1926  constructor(address _developerWallet, address _USDTAddress)... */\n  pop\n  pop\n    /* \"src/Contract_1.sol\":291:5414  contract NZFToken is ERC20, Ownable {... */\n  jump(tag_20)\n    /* \"@openzeppelin/contracts/access/Ownable.sol\":2912:3099  function _transferOwnership(address newOwner) internal virtual {... */\ntag_16:\n    /* \"@openzeppelin/contracts/access/Ownable.sol\":2985:3001  address oldOwner */\n  0x00\n    /* \"@openzeppelin/contracts/access/Ownable.sol\":3004:3010  _owner */\n  0x05\n  0x00\n  swap1\n  sload\n  swap1\n  0x0100\n  exp\n  swap1\n  div\n  0xffffffffffffffffffffffffffffffffffffffff\n  and\n    /* \"@openzeppelin/contracts/access/Ownable.sol\":2985:3010  address oldOwner = _owner */\n  swap1\n  pop\n    /* \"@openzeppelin/contracts/access/Ownable.sol\":3029:3037  newOwner */\n  dup2\n    /* \"@openzeppelin/contracts/access/Ownable.sol\":3020:3026  _owner */\n  0x05\n  0x00\n    /* \"@openzeppelin/contracts/access/Ownable.sol\":3020:3037  _owner = newOwner */\n  0x0100\n  exp\n  dup2\n  sload\n  dup2\n  0xffffffffffffffffffffffffffffffffffffffff\n  mul\n  not\n  and\n  swap1\n  dup4\n  0xffffffffffffffffffffffffffffffffffffffff\n  and\n  mul\n  or\n  swap1\n  sstore\n  pop\n    /* \"@openzeppelin/contracts/access/Ownable.sol\":3083:3091  newOwner */\n  dup2\n    /* \"@openzeppelin/contracts/access/Ownable.sol\":3052:3092  OwnershipTransferred(oldOwner, newOwner) */\n  0xffffffffffffffffffffffffffffffffffffffff\n  and\n    /* \"@openzeppelin/contracts/access/Ownable.sol\":3073:3081  oldOwner */\n  dup2\n    /* \"@openzeppelin/contracts/access/Ownable.sol\":3052:3092  OwnershipTransferred(oldOwner, newOwner) */\n  0xffffffffffffffffffffffffffffffffffffffff\n  and\n  0x8be0079c531659141344cd1fd0a4f28419497f9722a3daafe3b4186f6b6457e0\n  mload(0x40)\n  mload(0x40)\n  dup1\n  swap2\n  sub\n  swap1\n  log3\n    /* \"@openzeppelin/contracts/access/Ownable.sol\":2975:3099  {... */\n  pop\n    /* \"@openzeppelin/contracts/access/Ownable.sol\":2912:3099  function _transferOwnership(address newOwner) internal virtual {... */\n  pop\n  jump\t// out\n    /* \"@openzeppelin/contracts/token/ERC20/ERC20.sol\":7721:7929  function _mint(address account, uint256 value) internal {... */\ntag_19:\n    /* \"@openzeppelin/contracts/token/ERC20/ERC20.sol\":7810:7811  0 */\n  0x00\n    /* \"@openzeppelin/contracts/token/ERC20/ERC20.sol\":7791:7812  account == address(0) */\n  0xffffffffffffffffffffffffffffffffffffffff\n  and\n    /* \"@openzeppelin/contracts/token/ERC20/ERC20.sol\":7791:7798  account */\n  dup3\n    /* \"@openzeppelin/contracts/token/ERC20/ERC20.sol\":7791:7812  account == address(0) */\n  0xffffffffffffffffffffffffffffffffffffffff\n  and\n  sub\n    /* \"@openzeppelin/contracts/token/ERC20/ERC20.sol\":7787:7878  if (account == address(0)) {... */\n  tag_23\n  jumpi\n    /* \"@openzeppelin/contracts/token/ERC20/ERC20.sol\":7864:7865  0 */\n  0x00\n    /* \"@openzeppelin/contracts/token/ERC20/ERC20.sol\":7835:7867  ERC20InvalidReceiver(address(0)) */\n  mload(0x40)\n  0xec442f0500000000000000000000000000000000000000000000000000000000\n  dup2\n  mstore\n  0x04\n  add\n  tag_24\n  swap2\n  swap1\n  tag_14\n  jump\t// in\ntag_24:\n  mload(0x40)\n  dup1\n  swap2\n  sub\n  swap1\n  revert\n    /* \"@openzeppelin/contracts/token/ERC20/ERC20.sol\":7787:7878  if (account == address(0)) {... */\ntag_23:\n    /* \"@openzeppelin/contracts/token/ERC20/ERC20.sol\":7887:7922  _update(address(0), account, value) */\n  tag_25\n    /* \"@openzeppelin/contracts/token/ERC20/ERC20.sol\":7903:7904  0 */\n  0x00\n    /* \"@openzeppelin/contracts/token/ERC20/ERC20.sol\":7907:7914  account */\n  dup4\n    /* \"@openzeppelin/contracts/token/ERC20/ERC20.sol\":7916:7921  value */\n  dup4\n    /* \"@openzeppelin/contracts/token/ERC20/ERC20.sol\":7887:7894  _update */\n  shl(0x20, tag_26)\n    /* \"@openzeppelin/contracts/token/ERC20/ERC20.sol\":7887:7922  _update(address(0), account, value) */\n  0x20\n  shr\n  jump\t// in\ntag_25:\n    /* \"@openzeppelin/contracts/token/ERC20/ERC20.sol\":7721:7929  function _mint(address account, uint256 value) internal {... */\n  pop\n  pop\n  jump\t// out\n    /* \"@openzeppelin/contracts/token/ERC20/ERC20.sol\":6271:7378  function _update(address from, address to, uint256 value) internal virtual {... */\ntag_26:\n    /* \"@openzeppelin/contracts/token/ERC20/ERC20.sol\":6376:6377  0 */\n  0x00\n    /* \"@openzeppelin/contracts/token/ERC20/ERC20.sol\":6360:6378  from == address(0) */\n  0xffffffffffffffffffffffffffffffffffffffff\n  and\n    /* \"@openzeppelin/contracts/token/ERC20/ERC20.sol\":6360:6364  from */\n  dup4\n    /* \"@openzeppelin/contracts/token/ERC20/ERC20.sol\":6360:6378  from == address(0) */\n  0xffffffffffffffffffffffffffffffffffffffff\n  and\n  sub\n    /* \"@openzeppelin/contracts/token/ERC20/ERC20.sol\":6356:6896  if (from == address(0)) {... */\n  tag_28\n  jumpi\n    /* \"@openzeppelin/contracts/token/ERC20/ERC20.sol\":6512:6517  value */\n  dup1\n    /* \"@openzeppelin/contracts/token/ERC20/ERC20.sol\":6496:6508  _totalSupply */\n  0x02\n  0x00\n    /* \"@openzeppelin/contracts/token/ERC20/ERC20.sol\":6496:6517  _totalSupply += value */\n  dup3\n  dup3\n  sload\n  tag_29\n  swap2\n  swap1\n  tag_30\n  jump\t// in\ntag_29:\n  swap3\n  pop\n  pop\n  dup2\n  swap1\n  sstore\n  pop\n    /* \"@openzeppelin/contracts/token/ERC20/ERC20.sol\":6356:6896  if (from == address(0)) {... */\n  jump(tag_31)\ntag_28:\n    /* \"@openzeppelin/contracts/token/ERC20/ERC20.sol\":6548:6567  uint256 fromBalance */\n  0x00\n    /* \"@openzeppelin/contracts/token/ERC20/ERC20.sol\":6570:6579  _balances */\n  dup1\n    /* \"@openzeppelin/contracts/token/ERC20/ERC20.sol\":6570:6585  _balances[from] */\n  0x00\n    /* \"@openzeppelin/contracts/token/ERC20/ERC20.sol\":6580:6584  from */\n  dup6\n    /* \"@openzeppelin/contracts/token/ERC20/ERC20.sol\":6570:6585  _balances[from] */\n  0xffffffffffffffffffffffffffffffffffffffff\n  and\n  0xffffffffffffffffffffffffffffffffffffffff\n  and\n  dup2\n  mstore\n  0x20\n  add\n  swap1\n  dup2\n  mstore\n  0x20\n  add\n  0x00\n  keccak256\n  sload\n    /* \"@openzeppelin/contracts/token/ERC20/ERC20.sol\":6548:6585  uint256 fromBalance = _balances[from] */\n  swap1\n  pop\n    /* \"@openzeppelin/contracts/token/ERC20/ERC20.sol\":6617:6622  value */\n  dup2\n    /* \"@openzeppelin/contracts/token/ERC20/ERC20.sol\":6603:6614  fromBalance */\n  dup2\n    /* \"@openzeppelin/contracts/token/ERC20/ERC20.sol\":6603:6622  fromBalance < value */\n  lt\n    /* \"@openzeppelin/contracts/token/ERC20/ERC20.sol\":6599:6714  if (fromBalance < value) {... */\n  iszero\n  tag_32\n  jumpi\n    /* \"@openzeppelin/contracts/token/ERC20/ERC20.sol\":6674:6678  from */\n  dup4\n    /* \"@openzeppelin/contracts/token/ERC20/ERC20.sol\":6680:6691  fromBalance */\n  dup2\n    /* \"@openzeppelin/contracts/token/ERC20/ERC20.sol\":6693:6698  value */\n  dup4\n    /* \"@openzeppelin/contracts/token/ERC20/ERC20.sol\":6649:6699  ERC20InsufficientBalance(from, fromBalance, value) */\n  mload(0x40)\n  0xe450d38c00000000000000000000000000000000000000000000000000000000\n  dup2\n  mstore\n  0x04\n  add\n  tag_33\n  swap4\n  swap3\n  swap2\n  swap1\n  tag_34\n  jump\t// in\ntag_33:\n  mload(0x40)\n  dup1\n  swap2\n  sub\n  swap1\n  revert\n    /* \"@openzeppelin/contracts/token/ERC20/ERC20.sol\":6599:6714  if (fromBalance < value) {... */\ntag_32:\n    /* \"@openzeppelin/contracts/token/ERC20/ERC20.sol\":6866:6871  value */\n  dup2\n    /* \"@openzeppelin/contracts/token/ERC20/ERC20.sol\":6852:6863  fromBalance */\n  dup2\n    /* \"@openzeppelin/contracts/token/ERC20/ERC20.sol\":6852:6871  fromBalance - value */\n  sub\n    /* \"@openzeppelin/contracts/token/ERC20/ERC20.sol\":6834:6843  _balances */\n  0x00\n    /* \"@openzeppelin/contracts/token/ERC20/ERC20.sol\":6834:6849  _balances[from] */\n  dup1\n    /* \"@openzeppelin/contracts/token/ERC20/ERC20.sol\":6844:6848  from */\n  dup7\n    /* \"@openzeppelin/contracts/token/ERC20/ERC20.sol\":6834:6849  _balances[from] */\n  0xffffffffffffffffffffffffffffffffffffffff\n  and\n  0xffffffffffffffffffffffffffffffffffffffff\n  and\n  dup2\n  mstore\n  0x20\n  add\n  swap1\n  dup2\n  mstore\n  0x20\n  add\n  0x00\n  keccak256\n    /* \"@openzeppelin/contracts/token/ERC20/ERC20.sol\":6834:6871  _balances[from] = fromBalance - value */\n  dup2\n  swap1\n  sstore\n  pop\n    /* \"@openzeppelin/contracts/token/ERC20/ERC20.sol\":6534:6896  {... */\n  pop\n    /* \"@openzeppelin/contracts/token/ERC20/ERC20.sol\":6356:6896  if (from == address(0)) {... */\ntag_31:\n    /* \"@openzeppelin/contracts/token/ERC20/ERC20.sol\":6924:6925  0 */\n  0x00\n    /* \"@openzeppelin/contracts/token/ERC20/ERC20.sol\":6910:6926  to == address(0) */\n  0xffffffffffffffffffffffffffffffffffffffff\n  and\n    /* \"@openzeppelin/contracts/token/ERC20/ERC20.sol\":6910:6912  to */\n  dup3\n    /* \"@openzeppelin/contracts/token/ERC20/ERC20.sol\":6910:6926  to == address(0) */\n  0xffffffffffffffffffffffffffffffffffffffff\n  and\n  sub\n    /* \"@openzeppelin/contracts/token/ERC20/ERC20.sol\":6906:7331  if (to == address(0)) {... */\n  tag_35\n  jumpi\n    /* \"@openzeppelin/contracts/token/ERC20/ERC20.sol\":7089:7094  value */\n  dup1\n    /* \"@openzeppelin/contracts/token/ERC20/ERC20.sol\":7073:7085  _totalSupply */\n  0x02\n  0x00\n    /* \"@openzeppelin/contracts/token/ERC20/ERC20.sol\":7073:7094  _totalSupply -= value */\n  dup3\n  dup3\n  sload\n  sub\n  swap3\n  pop\n  pop\n  dup2\n  swap1\n  sstore\n  pop\n    /* \"@openzeppelin/contracts/token/ERC20/ERC20.sol\":6906:7331  if (to == address(0)) {... */\n  jump(tag_36)\ntag_35:\n    /* \"@openzeppelin/contracts/token/ERC20/ERC20.sol\":7301:7306  value */\n  dup1\n    /* \"@openzeppelin/contracts/token/ERC20/ERC20.sol\":7284:7293  _balances */\n  0x00\n    /* \"@openzeppelin/contracts/token/ERC20/ERC20.sol\":7284:7297  _balances[to] */\n  dup1\n    /* \"@openzeppelin/contracts/token/ERC20/ERC20.sol\":7294:7296  to */\n  dup5\n    /* \"@openzeppelin/contracts/token/ERC20/ERC20.sol\":7284:7297  _balances[to] */\n  0xffffffffffffffffffffffffffffffffffffffff\n  and\n  0xffffffffffffffffffffffffffffffffffffffff\n  and\n  dup2\n  mstore\n  0x20\n  add\n  swap1\n  dup2\n  mstore\n  0x20\n  add\n  0x00\n  keccak256\n  0x00\n    /* \"@openzeppelin/contracts/token/ERC20/ERC20.sol\":7284:7306  _balances[to] += value */\n  dup3\n  dup3\n  sload\n  add\n  swap3\n  pop\n  pop\n  dup2\n  swap1\n  sstore\n  pop\n    /* \"@openzeppelin/contracts/token/ERC20/ERC20.sol\":6906:7331  if (to == address(0)) {... */\ntag_36:\n    /* \"@openzeppelin/contracts/token/ERC20/ERC20.sol\":7361:7363  to */\n  dup2\n    /* \"@openzeppelin/contracts/token/ERC20/ERC20.sol\":7346:7371  Transfer(from, to, value) */\n  0xffffffffffffffffffffffffffffffffffffffff\n  and\n    /* \"@openzeppelin/contracts/token/ERC20/ERC20.sol\":7355:7359  from */\n  dup4\n    /* \"@openzeppelin/contracts/token/ERC20/ERC20.sol\":7346:7371  Transfer(from, to, value) */\n  0xffffffffffffffffffffffffffffffffffffffff\n  and\n  0xddf252ad1be2c89b69c2b068fc378daa952ba7f163c4a11628f55a4df523b3ef\n    /* \"@openzeppelin/contracts/token/ERC20/ERC20.sol\":7365:7370  value */\n  dup4\n    /* \"@openzeppelin/contracts/token/ERC20/ERC20.sol\":7346:7371  Transfer(from, to, value) */\n  mload(0x40)\n  tag_37\n  swap2\n  swap1\n  tag_38\n  jump\t// in\ntag_37:\n  mload(0x40)\n  dup1\n  swap2\n  sub\n  swap1\n  log3\n    /* \"@openzeppelin/contracts/token/ERC20/ERC20.sol\":6271:7378  function _update(address from, address to, uint256 value) internal virtual {... */\n  pop\n  pop\n  pop\n  jump\t// out\n    /* \"#utility.yul\":88:205   */\ntag_40:\n    /* \"#utility.yul\":197:198   */\n  0x00\n    /* \"#utility.yul\":194:195   */\n  dup1\n    /* \"#utility.yul\":187:199   */\n  revert\n    /* \"#utility.yul\":334:460   */\ntag_42:\n    /* \"#utility.yul\":371:378   */\n  0x00\n    /* \"#utility.yul\":411:453   */\n  0xffffffffffffffffffffffffffffffffffffffff\n    /* \"#utility.yul\":404:409   */\n  dup3\n    /* \"#utility.yul\":400:454   */\n  and\n    /* \"#utility.yul\":389:454   */\n  swap1\n  pop\n    /* \"#utility.yul\":334:460   */\n  swap2\n  swap1\n  pop\n  jump\t// out\n    /* \"#utility.yul\":466:562   */\ntag_43:\n    /* \"#utility.yul\":503:510   */\n  0x00\n    /* \"#utility.yul\":532:556   */\n  tag_75\n    /* \"#utility.yul\":550:555   */\n  dup3\n    /* \"#utility.yul\":532:556   */\n  tag_42\n  jump\t// in\ntag_75:\n    /* \"#utility.yul\":521:556   */\n  swap1\n  pop\n    /* \"#utility.yul\":466:562   */\n  swap2\n  swap1\n  pop\n  jump\t// out\n    /* \"#utility.yul\":568:690   */\ntag_44:\n    /* \"#utility.yul\":641:665   */\n  tag_77\n    /* \"#utility.yul\":659:664   */\n  dup2\n    /* \"#utility.yul\":641:665   */\n  tag_43\n  jump\t// in\ntag_77:\n    /* \"#utility.yul\":634:639   */\n  dup2\n    /* \"#utility.yul\":631:666   */\n  eq\n    /* \"#utility.yul\":621:684   */\n  tag_78\n  jumpi\n    /* \"#utility.yul\":680:681   */\n  0x00\n    /* \"#utility.yul\":677:678   */\n  dup1\n    /* \"#utility.yul\":670:682   */\n  revert\n    /* \"#utility.yul\":621:684   */\ntag_78:\n    /* \"#utility.yul\":568:690   */\n  pop\n  jump\t// out\n    /* \"#utility.yul\":696:839   */\ntag_45:\n    /* \"#utility.yul\":753:758   */\n  0x00\n    /* \"#utility.yul\":784:790   */\n  dup2\n    /* \"#utility.yul\":778:791   */\n  mload\n    /* \"#utility.yul\":769:791   */\n  swap1\n  pop\n    /* \"#utility.yul\":800:833   */\n  tag_80\n    /* \"#utility.yul\":827:832   */\n  dup2\n    /* \"#utility.yul\":800:833   */\n  tag_44\n  jump\t// in\ntag_80:\n    /* \"#utility.yul\":696:839   */\n  swap3\n  swap2\n  pop\n  pop\n  jump\t// out\n    /* \"#utility.yul\":845:1352   */\ntag_3:\n    /* \"#utility.yul\":924:930   */\n  0x00\n    /* \"#utility.yul\":932:938   */\n  dup1\n    /* \"#utility.yul\":981:983   */\n  0x40\n    /* \"#utility.yul\":969:978   */\n  dup4\n    /* \"#utility.yul\":960:967   */\n  dup6\n    /* \"#utility.yul\":956:979   */\n  sub\n    /* \"#utility.yul\":952:984   */\n  slt\n    /* \"#utility.yul\":949:1068   */\n  iszero\n  tag_82\n  jumpi\n    /* \"#utility.yul\":987:1066   */\n  tag_83\n  tag_40\n  jump\t// in\ntag_83:\n    /* \"#utility.yul\":949:1068   */\ntag_82:\n    /* \"#utility.yul\":1107:1108   */\n  0x00\n    /* \"#utility.yul\":1132:1196   */\n  tag_84\n    /* \"#utility.yul\":1188:1195   */\n  dup6\n    /* \"#utility.yul\":1179:1185   */\n  dup3\n    /* \"#utility.yul\":1168:1177   */\n  dup7\n    /* \"#utility.yul\":1164:1186   */\n  add\n    /* \"#utility.yul\":1132:1196   */\n  tag_45\n  jump\t// in\ntag_84:\n    /* \"#utility.yul\":1122:1196   */\n  swap3\n  pop\n    /* \"#utility.yul\":1078:1206   */\n  pop\n    /* \"#utility.yul\":1245:1247   */\n  0x20\n    /* \"#utility.yul\":1271:1335   */\n  tag_85\n    /* \"#utility.yul\":1327:1334   */\n  dup6\n    /* \"#utility.yul\":1318:1324   */\n  dup3\n    /* \"#utility.yul\":1307:1316   */\n  dup7\n    /* \"#utility.yul\":1303:1325   */\n  add\n    /* \"#utility.yul\":1271:1335   */\n  tag_45\n  jump\t// in\ntag_85:\n    /* \"#utility.yul\":1261:1335   */\n  swap2\n  pop\n    /* \"#utility.yul\":1216:1345   */\n  pop\n    /* \"#utility.yul\":845:1352   */\n  swap3\n  pop\n  swap3\n  swap1\n  pop\n  jump\t// out\n    /* \"#utility.yul\":1358:1457   */\ntag_46:\n    /* \"#utility.yul\":1410:1416   */\n  0x00\n    /* \"#utility.yul\":1444:1449   */\n  dup2\n    /* \"#utility.yul\":1438:1450   */\n  mload\n    /* \"#utility.yul\":1428:1450   */\n  swap1\n  pop\n    /* \"#utility.yul\":1358:1457   */\n  swap2\n  swap1\n  pop\n  jump\t// out\n    /* \"#utility.yul\":1463:1643   */\ntag_47:\n    /* \"#utility.yul\":1511:1588   */\n  0x4e487b7100000000000000000000000000000000000000000000000000000000\n    /* \"#utility.yul\":1508:1509   */\n  0x00\n    /* \"#utility.yul\":1501:1589   */\n  mstore\n    /* \"#utility.yul\":1608:1612   */\n  0x41\n    /* \"#utility.yul\":1605:1606   */\n  0x04\n    /* \"#utility.yul\":1598:1613   */\n  mstore\n    /* \"#utility.yul\":1632:1636   */\n  0x24\n    /* \"#utility.yul\":1629:1630   */\n  0x00\n    /* \"#utility.yul\":1622:1637   */\n  revert\n    /* \"#utility.yul\":1649:1829   */\ntag_48:\n    /* \"#utility.yul\":1697:1774   */\n  0x4e487b7100000000000000000000000000000000000000000000000000000000\n    /* \"#utility.yul\":1694:1695   */\n  0x00\n    /* \"#utility.yul\":1687:1775   */\n  mstore\n    /* \"#utility.yul\":1794:1798   */\n  0x22\n    /* \"#utility.yul\":1791:1792   */\n  0x04\n    /* \"#utility.yul\":1784:1799   */\n  mstore\n    /* \"#utility.yul\":1818:1822   */\n  0x24\n    /* \"#utility.yul\":1815:1816   */\n  0x00\n    /* \"#utility.yul\":1808:1823   */\n  revert\n    /* \"#utility.yul\":1835:2155   */\ntag_49:\n    /* \"#utility.yul\":1879:1885   */\n  0x00\n    /* \"#utility.yul\":1916:1917   */\n  0x02\n    /* \"#utility.yul\":1910:1914   */\n  dup3\n    /* \"#utility.yul\":1906:1918   */\n  div\n    /* \"#utility.yul\":1896:1918   */\n  swap1\n  pop\n    /* \"#utility.yul\":1963:1964   */\n  0x01\n    /* \"#utility.yul\":1957:1961   */\n  dup3\n    /* \"#utility.yul\":1953:1965   */\n  and\n    /* \"#utility.yul\":1984:2002   */\n  dup1\n    /* \"#utility.yul\":1974:2055   */\n  tag_90\n  jumpi\n    /* \"#utility.yul\":2040:2044   */\n  0x7f\n    /* \"#utility.yul\":2032:2038   */\n  dup3\n    /* \"#utility.yul\":2028:2045   */\n  and\n    /* \"#utility.yul\":2018:2045   */\n  swap2\n  pop\n    /* \"#utility.yul\":1974:2055   */\ntag_90:\n    /* \"#utility.yul\":2102:2104   */\n  0x20\n    /* \"#utility.yul\":2094:2100   */\n  dup3\n    /* \"#utility.yul\":2091:2105   */\n  lt\n    /* \"#utility.yul\":2071:2089   */\n  dup2\n    /* \"#utility.yul\":2068:2106   */\n  sub\n    /* \"#utility.yul\":2065:2149   */\n  tag_91\n  jumpi\n    /* \"#utility.yul\":2121:2139   */\n  tag_92\n  tag_48\n  jump\t// in\ntag_92:\n    /* \"#utility.yul\":2065:2149   */\ntag_91:\n    /* \"#utility.yul\":1886:2155   */\n  pop\n    /* \"#utility.yul\":1835:2155   */\n  swap2\n  swap1\n  pop\n  jump\t// out\n    /* \"#utility.yul\":2161:2302   */\ntag_50:\n    /* \"#utility.yul\":2210:2214   */\n  0x00\n    /* \"#utility.yul\":2233:2236   */\n  dup2\n    /* \"#utility.yul\":2225:2236   */\n  swap1\n  pop\n    /* \"#utility.yul\":2256:2259   */\n  dup2\n    /* \"#utility.yul\":2253:2254   */\n  0x00\n    /* \"#utility.yul\":2246:2260   */\n  mstore\n    /* \"#utility.yul\":2290:2294   */\n  0x20\n    /* \"#utility.yul\":2287:2288   */\n  0x00\n    /* \"#utility.yul\":2277:2295   */\n  keccak256\n    /* \"#utility.yul\":2269:2295   */\n  swap1\n  pop\n    /* \"#utility.yul\":2161:2302   */\n  swap2\n  swap1\n  pop\n  jump\t// out\n    /* \"#utility.yul\":2308:2401   */\ntag_51:\n    /* \"#utility.yul\":2345:2351   */\n  0x00\n    /* \"#utility.yul\":2392:2394   */\n  0x20\n    /* \"#utility.yul\":2387:2389   */\n  0x1f\n    /* \"#utility.yul\":2380:2385   */\n  dup4\n    /* \"#utility.yul\":2376:2390   */\n  add\n    /* \"#utility.yul\":2372:2395   */\n  div\n    /* \"#utility.yul\":2362:2395   */\n  swap1\n  pop\n    /* \"#utility.yul\":2308:2401   */\n  swap2\n  swap1\n  pop\n  jump\t// out\n    /* \"#utility.yul\":2407:2514   */\ntag_52:\n    /* \"#utility.yul\":2451:2459   */\n  0x00\n    /* \"#utility.yul\":2501:2506   */\n  dup3\n    /* \"#utility.yul\":2495:2499   */\n  dup3\n    /* \"#utility.yul\":2491:2507   */\n  shl\n    /* \"#utility.yul\":2470:2507   */\n  swap1\n  pop\n    /* \"#utility.yul\":2407:2514   */\n  swap3\n  swap2\n  pop\n  pop\n  jump\t// out\n    /* \"#utility.yul\":2520:2913   */\ntag_53:\n    /* \"#utility.yul\":2589:2595   */\n  0x00\n    /* \"#utility.yul\":2639:2640   */\n  0x08\n    /* \"#utility.yul\":2627:2637   */\n  dup4\n    /* \"#utility.yul\":2623:2641   */\n  mul\n    /* \"#utility.yul\":2662:2759   */\n  tag_97\n    /* \"#utility.yul\":2692:2758   */\n  0xffffffffffffffffffffffffffffffffffffffffffffffffffffffffffffffff\n    /* \"#utility.yul\":2681:2690   */\n  dup3\n    /* \"#utility.yul\":2662:2759   */\n  tag_52\n  jump\t// in\ntag_97:\n    /* \"#utility.yul\":2780:2819   */\n  tag_98\n    /* \"#utility.yul\":2810:2818   */\n  dup7\n    /* \"#utility.yul\":2799:2808   */\n  dup4\n    /* \"#utility.yul\":2780:2819   */\n  tag_52\n  jump\t// in\ntag_98:\n    /* \"#utility.yul\":2768:2819   */\n  swap6\n  pop\n    /* \"#utility.yul\":2852:2856   */\n  dup1\n    /* \"#utility.yul\":2848:2857   */\n  not\n    /* \"#utility.yul\":2841:2846   */\n  dup5\n    /* \"#utility.yul\":2837:2858   */\n  and\n    /* \"#utility.yul\":2828:2858   */\n  swap4\n  pop\n    /* \"#utility.yul\":2901:2905   */\n  dup1\n    /* \"#utility.yul\":2891:2899   */\n  dup7\n    /* \"#utility.yul\":2887:2906   */\n  and\n    /* \"#utility.yul\":2880:2885   */\n  dup5\n    /* \"#utility.yul\":2877:2907   */\n  or\n    /* \"#utility.yul\":2867:2907   */\n  swap3\n  pop\n    /* \"#utility.yul\":2596:2913   */\n  pop\n  pop\n    /* \"#utility.yul\":2520:2913   */\n  swap4\n  swap3\n  pop\n  pop\n  pop\n  jump\t// out\n    /* \"#utility.yul\":2919:2996   */\ntag_54:\n    /* \"#utility.yul\":2956:2963   */\n  0x00\n    /* \"#utility.yul\":2985:2990   */\n  dup2\n    /* \"#utility.yul\":2974:2990   */\n  swap1\n  pop\n    /* \"#utility.yul\":2919:2996   */\n  swap2\n  swap1\n  pop\n  jump\t// out\n    /* \"#utility.yul\":3002:3062   */\ntag_55:\n    /* \"#utility.yul\":3030:3033   */\n  0x00\n    /* \"#utility.yul\":3051:3056   */\n  dup2\n    /* \"#utility.yul\":3044:3056   */\n  swap1\n  pop\n    /* \"#utility.yul\":3002:3062   */\n  swap2\n  swap1\n  pop\n  jump\t// out\n    /* \"#utility.yul\":3068:3210   */\ntag_56:\n    /* \"#utility.yul\":3118:3127   */\n  0x00\n    /* \"#utility.yul\":3151:3204   */\n  tag_102\n    /* \"#utility.yul\":3169:3203   */\n  tag_103\n    /* \"#utility.yul\":3178:3202   */\n  tag_104\n    /* \"#utility.yul\":3196:3201   */\n  dup5\n    /* \"#utility.yul\":3178:3202   */\n  tag_54\n  jump\t// in\ntag_104:\n    /* \"#utility.yul\":3169:3203   */\n  tag_55\n  jump\t// in\ntag_103:\n    /* \"#utility.yul\":3151:3204   */\n  tag_54\n  jump\t// in\ntag_102:\n    /* \"#utility.yul\":3138:3204   */\n  swap1\n  pop\n    /* \"#utility.yul\":3068:3210   */\n  swap2\n  swap1\n  pop\n  jump\t// out\n    /* \"#utility.yul\":3216:3291   */\ntag_57:\n    /* \"#utility.yul\":3259:3262   */\n  0x00\n    /* \"#utility.yul\":3280:3285   */\n  dup2\n    /* \"#utility.yul\":3273:3285   */\n  swap1\n  pop\n    /* \"#utility.yul\":3216:3291   */\n  swap2\n  swap1\n  pop\n  jump\t// out\n    /* \"#utility.yul\":3297:3566   */\ntag_58:\n    /* \"#utility.yul\":3407:3446   */\n  tag_107\n    /* \"#utility.yul\":3438:3445   */\n  dup4\n    /* \"#utility.yul\":3407:3446   */\n  tag_56\n  jump\t// in\ntag_107:\n    /* \"#utility.yul\":3468:3559   */\n  tag_108\n    /* \"#utility.yul\":3517:3558   */\n  tag_109\n    /* \"#utility.yul\":3541:3557   */\n  dup3\n    /* \"#utility.yul\":3517:3558   */\n  tag_57\n  jump\t// in\ntag_109:\n    /* \"#utility.yul\":3509:3515   */\n  dup5\n    /* \"#utility.yul\":3502:3506   */\n  dup5\n    /* \"#utility.yul\":3496:3507   */\n  sload\n    /* \"#utility.yul\":3468:3559   */\n  tag_53\n  jump\t// in\ntag_108:\n    /* \"#utility.yul\":3462:3466   */\n  dup3\n    /* \"#utility.yul\":3455:3560   */\n  sstore\n    /* \"#utility.yul\":3373:3566   */\n  pop\n    /* \"#utility.yul\":3297:3566   */\n  pop\n  pop\n  pop\n  jump\t// out\n    /* \"#utility.yul\":3572:3645   */\ntag_59:\n    /* \"#utility.yul\":3617:3620   */\n  0x00\n    /* \"#utility.yul\":3572:3645   */\n  swap1\n  jump\t// out\n    /* \"#utility.yul\":3651:3840   */\ntag_60:\n    /* \"#utility.yul\":3728:3760   */\n  tag_112\n  tag_59\n  jump\t// in\ntag_112:\n    /* \"#utility.yul\":3769:3834   */\n  tag_113\n    /* \"#utility.yul\":3827:3833   */\n  dup2\n    /* \"#utility.yul\":3819:3825   */\n  dup5\n    /* \"#utility.yul\":3813:3817   */\n  dup5\n    /* \"#utility.yul\":3769:3834   */\n  tag_58\n  jump\t// in\ntag_113:\n    /* \"#utility.yul\":3704:3840   */\n  pop\n    /* \"#utility.yul\":3651:3840   */\n  pop\n  pop\n  jump\t// out\n    /* \"#utility.yul\":3846:4032   */\ntag_61:\n    /* \"#utility.yul\":3906:4026   */\ntag_115:\n    /* \"#utility.yul\":3923:3926   */\n  dup2\n    /* \"#utility.yul\":3916:3921   */\n  dup2\n    /* \"#utility.yul\":3913:3927   */\n  lt\n    /* \"#utility.yul\":3906:4026   */\n  iszero\n  tag_117\n  jumpi\n    /* \"#utility.yul\":3977:4016   */\n  tag_118\n    /* \"#utility.yul\":4014:4015   */\n  0x00\n    /* \"#utility.yul\":4007:4012   */\n  dup3\n    /* \"#utility.yul\":3977:4016   */\n  tag_60\n  jump\t// in\ntag_118:\n    /* \"#utility.yul\":3950:3951   */\n  0x01\n    /* \"#utility.yul\":3943:3948   */\n  dup2\n    /* \"#utility.yul\":3939:3952   */\n  add\n    /* \"#utility.yul\":3930:3952   */\n  swap1\n  pop\n    /* \"#utility.yul\":3906:4026   */\n  jump(tag_115)\ntag_117:\n    /* \"#utility.yul\":3846:4032   */\n  pop\n  pop\n  jump\t// out\n    /* \"#utility.yul\":4038:4581   */\ntag_62:\n    /* \"#utility.yul\":4139:4141   */\n  0x1f\n    /* \"#utility.yul\":4134:4137   */\n  dup3\n    /* \"#utility.yul\":4131:4142   */\n  gt\n    /* \"#utility.yul\":4128:4574   */\n  iszero\n  tag_120\n  jumpi\n    /* \"#utility.yul\":4173:4211   */\n  tag_121\n    /* \"#utility.yul\":4205:4210   */\n  dup2\n    /* \"#utility.yul\":4173:4211   */\n  tag_50\n  jump\t// in\ntag_121:\n    /* \"#utility.yul\":4257:4286   */\n  tag_122\n    /* \"#utility.yul\":4275:4285   */\n  dup5\n    /* \"#utility.yul\":4257:4286   */\n  tag_51\n  jump\t// in\ntag_122:\n    /* \"#utility.yul\":4247:4255   */\n  dup2\n    /* \"#utility.yul\":4243:4287   */\n  add\n    /* \"#utility.yul\":4440:4442   */\n  0x20\n    /* \"#utility.yul\":4428:4438   */\n  dup6\n    /* \"#utility.yul\":4425:4443   */\n  lt\n    /* \"#utility.yul\":4422:4471   */\n  iszero\n  tag_123\n  jumpi\n    /* \"#utility.yul\":4461:4469   */\n  dup2\n    /* \"#utility.yul\":4446:4469   */\n  swap1\n  pop\n    /* \"#utility.yul\":4422:4471   */\ntag_123:\n    /* \"#utility.yul\":4484:4564   */\n  tag_124\n    /* \"#utility.yul\":4540:4562   */\n  tag_125\n    /* \"#utility.yul\":4558:4561   */\n  dup6\n    /* \"#utility.yul\":4540:4562   */\n  tag_51\n  jump\t// in\ntag_125:\n    /* \"#utility.yul\":4530:4538   */\n  dup4\n    /* \"#utility.yul\":4526:4563   */\n  add\n    /* \"#utility.yul\":4513:4524   */\n  dup3\n    /* \"#utility.yul\":4484:4564   */\n  tag_61\n  jump\t// in\ntag_124:\n    /* \"#utility.yul\":4143:4574   */\n  pop\n  pop\n    /* \"#utility.yul\":4128:4574   */\ntag_120:\n    /* \"#utility.yul\":4038:4581   */\n  pop\n  pop\n  pop\n  jump\t// out\n    /* \"#utility.yul\":4587:4704   */\ntag_63:\n    /* \"#utility.yul\":4641:4649   */\n  0x00\n    /* \"#utility.yul\":4691:4696   */\n  dup3\n    /* \"#utility.yul\":4685:4689   */\n  dup3\n    /* \"#utility.yul\":4681:4697   */\n  shr\n    /* \"#utility.yul\":4660:4697   */\n  swap1\n  pop\n    /* \"#utility.yul\":4587:4704   */\n  swap3\n  swap2\n  pop\n  pop\n  jump\t// out\n    /* \"#utility.yul\":4710:4879   */\ntag_64:\n    /* \"#utility.yul\":4754:4760   */\n  0x00\n    /* \"#utility.yul\":4787:4838   */\n  tag_128\n    /* \"#utility.yul\":4835:4836   */\n  0x00\n    /* \"#utility.yul\":4831:4837   */\n  not\n    /* \"#utility.yul\":4823:4828   */\n  dup5\n    /* \"#utility.yul\":4820:4821   */\n  0x08\n    /* \"#utility.yul\":4816:4829   */\n  mul\n    /* \"#utility.yul\":4787:4838   */\n  tag_63\n  jump\t// in\ntag_128:\n    /* \"#utility.yul\":4783:4839   */\n  not\n    /* \"#utility.yul\":4868:4872   */\n  dup1\n    /* \"#utility.yul\":4862:4866   */\n  dup4\n    /* \"#utility.yul\":4858:4873   */\n  and\n    /* \"#utility.yul\":4848:4873   */\n  swap2\n  pop\n    /* \"#utility.yul\":4761:4879   */\n  pop\n    /* \"#utility.yul\":4710:4879   */\n  swap3\n  swap2\n  pop\n  pop\n  jump\t// out\n    /* \"#utility.yul\":4884:5179   */\ntag_65:\n    /* \"#utility.yul\":4960:4964   */\n  0x00\n    /* \"#utility.yul\":5106:5135   */\n  tag_130\n    /* \"#utility.yul\":5131:5134   */\n  dup4\n    /* \"#utility.yul\":5125:5129   */\n  dup4\n    /* \"#utility.yul\":5106:5135   */\n  tag_64\n  jump\t// in\ntag_130:\n    /* \"#utility.yul\":5098:5135   */\n  swap2\n  pop\n    /* \"#utility.yul\":5168:5171   */\n  dup3\n    /* \"#utility.yul\":5165:5166   */\n  0x02\n    /* \"#utility.yul\":5161:5172   */\n  mul\n    /* \"#utility.yul\":5155:5159   */\n  dup3\n    /* \"#utility.yul\":5152:5173   */\n  or\n    /* \"#utility.yul\":5144:5173   */\n  swap1\n  pop\n    /* \"#utility.yul\":4884:5179   */\n  swap3\n  swap2\n  pop\n  pop\n  jump\t// out\n    /* \"#utility.yul\":5184:6579   */\ntag_9:\n    /* \"#utility.yul\":5301:5338   */\n  tag_132\n    /* \"#utility.yul\":5334:5337   */\n  dup3\n    /* \"#utility.yul\":5301:5338   */\n  tag_46\n  jump\t// in\ntag_132:\n    /* \"#utility.yul\":5403:5421   */\n  0xffffffffffffffff\n    /* \"#utility.yul\":5395:5401   */\n  dup2\n    /* \"#utility.yul\":5392:5422   */\n  gt\n    /* \"#utility.yul\":5389:5445   */\n  iszero\n  tag_133\n  jumpi\n    /* \"#utility.yul\":5425:5443   */\n  tag_134\n  tag_47\n  jump\t// in\ntag_134:\n    /* \"#utility.yul\":5389:5445   */\ntag_133:\n    /* \"#utility.yul\":5469:5507   */\n  tag_135\n    /* \"#utility.yul\":5501:5505   */\n  dup3\n    /* \"#utility.yul\":5495:5506   */\n  sload\n    /* \"#utility.yul\":5469:5507   */\n  tag_49\n  jump\t// in\ntag_135:\n    /* \"#utility.yul\":5554:5621   */\n  tag_136\n    /* \"#utility.yul\":5614:5620   */\n  dup3\n    /* \"#utility.yul\":5606:5612   */\n  dup3\n    /* \"#utility.yul\":5600:5604   */\n  dup6\n    /* \"#utility.yul\":5554:5621   */\n  tag_62\n  jump\t// in\ntag_136:\n    /* \"#utility.yul\":5648:5649   */\n  0x00\n    /* \"#utility.yul\":5672:5676   */\n  0x20\n    /* \"#utility.yul\":5659:5676   */\n  swap1\n  pop\n    /* \"#utility.yul\":5704:5706   */\n  0x1f\n    /* \"#utility.yul\":5696:5702   */\n  dup4\n    /* \"#utility.yul\":5693:5707   */\n  gt\n    /* \"#utility.yul\":5721:5722   */\n  0x01\n    /* \"#utility.yul\":5716:6334   */\n  dup2\n  eq\n  tag_138\n  jumpi\n    /* \"#utility.yul\":6378:6379   */\n  0x00\n    /* \"#utility.yul\":6395:6401   */\n  dup5\n    /* \"#utility.yul\":6392:6469   */\n  iszero\n  tag_139\n  jumpi\n    /* \"#utility.yul\":6444:6453   */\n  dup3\n    /* \"#utility.yul\":6439:6442   */\n  dup8\n    /* \"#utility.yul\":6435:6454   */\n  add\n    /* \"#utility.yul\":6429:6455   */\n  mload\n    /* \"#utility.yul\":6420:6455   */\n  swap1\n  pop\n    /* \"#utility.yul\":6392:6469   */\ntag_139:\n    /* \"#utility.yul\":6495:6562   */\n  tag_140\n    /* \"#utility.yul\":6555:6561   */\n  dup6\n    /* \"#utility.yul\":6548:6553   */\n  dup3\n    /* \"#utility.yul\":6495:6562   */\n  tag_65\n  jump\t// in\ntag_140:\n    /* \"#utility.yul\":6489:6493   */\n  dup7\n    /* \"#utility.yul\":6482:6563   */\n  sstore\n    /* \"#utility.yul\":6351:6573   */\n  pop\n    /* \"#utility.yul\":5686:6573   */\n  jump(tag_137)\n    /* \"#utility.yul\":5716:6334   */\ntag_138:\n    /* \"#utility.yul\":5768:5772   */\n  0x1f\n    /* \"#utility.yul\":5764:5773   */\n  not\n    /* \"#utility.yul\":5756:5762   */\n  dup5\n    /* \"#utility.yul\":5752:5774   */\n  and\n    /* \"#utility.yul\":5802:5839   */\n  tag_141\n    /* \"#utility.yul\":5834:5838   */\n  dup7\n    /* \"#utility.yul\":5802:5839   */\n  tag_50\n  jump\t// in\ntag_141:\n    /* \"#utility.yul\":5861:5862   */\n  0x00\n    /* \"#utility.yul\":5875:6083   */\ntag_142:\n    /* \"#utility.yul\":5889:5896   */\n  dup3\n    /* \"#utility.yul\":5886:5887   */\n  dup2\n    /* \"#utility.yul\":5883:5897   */\n  lt\n    /* \"#utility.yul\":5875:6083   */\n  iszero\n  tag_144\n  jumpi\n    /* \"#utility.yul\":5968:5977   */\n  dup5\n    /* \"#utility.yul\":5963:5966   */\n  dup10\n    /* \"#utility.yul\":5959:5978   */\n  add\n    /* \"#utility.yul\":5953:5979   */\n  mload\n    /* \"#utility.yul\":5945:5951   */\n  dup3\n    /* \"#utility.yul\":5938:5980   */\n  sstore\n    /* \"#utility.yul\":6019:6020   */\n  0x01\n    /* \"#utility.yul\":6011:6017   */\n  dup3\n    /* \"#utility.yul\":6007:6021   */\n  add\n    /* \"#utility.yul\":5997:6021   */\n  swap2\n  pop\n    /* \"#utility.yul\":6066:6068   */\n  0x20\n    /* \"#utility.yul\":6055:6064   */\n  dup6\n    /* \"#utility.yul\":6051:6069   */\n  add\n    /* \"#utility.yul\":6038:6069   */\n  swap5\n  pop\n    /* \"#utility.yul\":5912:5916   */\n  0x20\n    /* \"#utility.yul\":5909:5910   */\n  dup2\n    /* \"#utility.yul\":5905:5917   */\n  add\n    /* \"#utility.yul\":5900:5917   */\n  swap1\n  pop\n    /* \"#utility.yul\":5875:6083   */\n  jump(tag_142)\ntag_144:\n    /* \"#utility.yul\":6111:6117   */\n  dup7\n    /* \"#utility.yul\":6102:6109   */\n  dup4\n    /* \"#utility.yul\":6099:6118   */\n  lt\n    /* \"#utility.yul\":6096:6275   */\n  iszero\n  tag_145\n  jumpi\n    /* \"#utility.yul\":6169:6178   */\n  dup5\n    /* \"#utility.yul\":6164:6167   */\n  dup10\n    /* \"#utility.yul\":6160:6179   */\n  add\n    /* \"#utility.yul\":6154:6180   */\n  mload\n    /* \"#utility.yul\":6212:6260   */\n  tag_146\n    /* \"#utility.yul\":6254:6258   */\n  0x1f\n    /* \"#utility.yul\":6246:6252   */\n  dup10\n    /* \"#utility.yul\":6242:6259   */\n  and\n    /* \"#utility.yul\":6231:6240   */\n  dup3\n    /* \"#utility.yul\":6212:6260   */\n  tag_64\n  jump\t// in\ntag_146:\n    /* \"#utility.yul\":6204:6210   */\n  dup4\n    /* \"#utility.yul\":6197:6261   */\n  sstore\n    /* \"#utility.yul\":6119:6275   */\n  pop\n    /* \"#utility.yul\":6096:6275   */\ntag_145:\n    /* \"#utility.yul\":6321:6322   */\n  0x01\n    /* \"#utility.yul\":6317:6318   */\n  0x02\n    /* \"#utility.yul\":6309:6315   */\n  dup9\n    /* \"#utility.yul\":6305:6319   */\n  mul\n    /* \"#utility.yul\":6301:6323   */\n  add\n    /* \"#utility.yul\":6295:6299   */\n  dup9\n    /* \"#utility.yul\":6288:6324   */\n  sstore\n    /* \"#utility.yul\":5723:6334   */\n  pop\n  pop\n  pop\n    /* \"#utility.yul\":5686:6573   */\ntag_137:\n  pop\n    /* \"#utility.yul\":5276:6579   */\n  pop\n  pop\n  pop\n    /* \"#utility.yul\":5184:6579   */\n  pop\n  pop\n  jump\t// out\n    /* \"#utility.yul\":6585:6703   */\ntag_66:\n    /* \"#utility.yul\":6672:6696   */\n  tag_148\n    /* \"#utility.yul\":6690:6695   */\n  dup2\n    /* \"#utility.yul\":6672:6696   */\n  tag_43\n  jump\t// in\ntag_148:\n    /* \"#utility.yul\":6667:6670   */\n  dup3\n    /* \"#utility.yul\":6660:6697   */\n  mstore\n    /* \"#utility.yul\":6585:6703   */\n  pop\n  pop\n  jump\t// out\n    /* \"#utility.yul\":6709:6931   */\ntag_14:\n    /* \"#utility.yul\":6802:6806   */\n  0x00\n    /* \"#utility.yul\":6840:6842   */\n  0x20\n    /* \"#utility.yul\":6829:6838   */\n  dup3\n    /* \"#utility.yul\":6825:6843   */\n  add\n    /* \"#utility.yul\":6817:6843   */\n  swap1\n  pop\n    /* \"#utility.yul\":6853:6924   */\n  tag_150\n    /* \"#utility.yul\":6921:6922   */\n  0x00\n    /* \"#utility.yul\":6910:6919   */\n  dup4\n    /* \"#utility.yul\":6906:6923   */\n  add\n    /* \"#utility.yul\":6897:6903   */\n  dup5\n    /* \"#utility.yul\":6853:6924   */\n  tag_66\n  jump\t// in\ntag_150:\n    /* \"#utility.yul\":6709:6931   */\n  swap3\n  swap2\n  pop\n  pop\n  jump\t// out\n    /* \"#utility.yul\":6937:7117   */\ntag_67:\n    /* \"#utility.yul\":6985:7062   */\n  0x4e487b7100000000000000000000000000000000000000000000000000000000\n    /* \"#utility.yul\":6982:6983   */\n  0x00\n    /* \"#utility.yul\":6975:7063   */\n  mstore\n    /* \"#utility.yul\":7082:7086   */\n  0x11\n    /* \"#utility.yul\":7079:7080   */\n  0x04\n    /* \"#utility.yul\":7072:7087   */\n  mstore\n    /* \"#utility.yul\":7106:7110   */\n  0x24\n    /* \"#utility.yul\":7103:7104   */\n  0x00\n    /* \"#utility.yul\":7096:7111   */\n  revert\n    /* \"#utility.yul\":7123:7314   */\ntag_30:\n    /* \"#utility.yul\":7163:7166   */\n  0x00\n    /* \"#utility.yul\":7182:7202   */\n  tag_153\n    /* \"#utility.yul\":7200:7201   */\n  dup3\n    /* \"#utility.yul\":7182:7202   */\n  tag_54\n  jump\t// in\ntag_153:\n    /* \"#utility.yul\":7177:7202   */\n  swap2\n  pop\n    /* \"#utility.yul\":7216:7236   */\n  tag_154\n    /* \"#utility.yul\":7234:7235   */\n  dup4\n    /* \"#utility.yul\":7216:7236   */\n  tag_54\n  jump\t// in\ntag_154:\n    /* \"#utility.yul\":7211:7236   */\n  swap3\n  pop\n    /* \"#utility.yul\":7259:7260   */\n  dup3\n    /* \"#utility.yul\":7256:7257   */\n  dup3\n    /* \"#utility.yul\":7252:7261   */\n  add\n    /* \"#utility.yul\":7245:7261   */\n  swap1\n  pop\n    /* \"#utility.yul\":7280:7283   */\n  dup1\n    /* \"#utility.yul\":7277:7278   */\n  dup3\n    /* \"#utility.yul\":7274:7284   */\n  gt\n    /* \"#utility.yul\":7271:7307   */\n  iszero\n  tag_155\n  jumpi\n    /* \"#utility.yul\":7287:7305   */\n  tag_156\n  tag_67\n  jump\t// in\ntag_156:\n    /* \"#utility.yul\":7271:7307   */\ntag_155:\n    /* \"#utility.yul\":7123:7314   */\n  swap3\n  swap2\n  pop\n  pop\n  jump\t// out\n    /* \"#utility.yul\":7320:7438   */\ntag_68:\n    /* \"#utility.yul\":7407:7431   */\n  tag_158\n    /* \"#utility.yul\":7425:7430   */\n  dup2\n    /* \"#utility.yul\":7407:7431   */\n  tag_54\n  jump\t// in\ntag_158:\n    /* \"#utility.yul\":7402:7405   */\n  dup3\n    /* \"#utility.yul\":7395:7432   */\n  mstore\n    /* \"#utility.yul\":7320:7438   */\n  pop\n  pop\n  jump\t// out\n    /* \"#utility.yul\":7444:7886   */\ntag_34:\n    /* \"#utility.yul\":7593:7597   */\n  0x00\n    /* \"#utility.yul\":7631:7633   */\n  0x60\n    /* \"#utility.yul\":7620:7629   */\n  dup3\n    /* \"#utility.yul\":7616:7634   */\n  add\n    /* \"#utility.yul\":7608:7634   */\n  swap1\n  pop\n    /* \"#utility.yul\":7644:7715   */\n  tag_160\n    /* \"#utility.yul\":7712:7713   */\n  0x00\n    /* \"#utility.yul\":7701:7710   */\n  dup4\n    /* \"#utility.yul\":7697:7714   */\n  add\n    /* \"#utility.yul\":7688:7694   */\n  dup7\n    /* \"#utility.yul\":7644:7715   */\n  tag_66\n  jump\t// in\ntag_160:\n    /* \"#utility.yul\":7725:7797   */\n  tag_161\n    /* \"#utility.yul\":7793:7795   */\n  0x20\n    /* \"#utility.yul\":7782:7791   */\n  dup4\n    /* \"#utility.yul\":7778:7796   */\n  add\n    /* \"#utility.yul\":7769:7775   */\n  dup6\n    /* \"#utility.yul\":7725:7797   */\n  tag_68\n  jump\t// in\ntag_161:\n    /* \"#utility.yul\":7807:7879   */\n  tag_162\n    /* \"#utility.yul\":7875:7877   */\n  0x40\n    /* \"#utility.yul\":7864:7873   */\n  dup4\n    /* \"#utility.yul\":7860:7878   */\n  add\n    /* \"#utility.yul\":7851:7857   */\n  dup5\n    /* \"#utility.yul\":7807:7879   */\n  tag_68\n  jump\t// in\ntag_162:\n    /* \"#utility.yul\":7444:7886   */\n  swap5\n  swap4\n  pop\n  pop\n  pop\n  pop\n  jump\t// out\n    /* \"#utility.yul\":7892:8114   */\ntag_38:\n    /* \"#utility.yul\":7985:7989   */\n  0x00\n    /* \"#utility.yul\":8023:8025   */\n  0x20\n    /* \"#utility.yul\":8012:8021   */\n  dup3\n    /* \"#utility.yul\":8008:8026   */\n  add\n    /* \"#utility.yul\":8000:8026   */\n  swap1\n  pop\n    /* \"#utility.yul\":8036:8107   */\n  tag_164\n    /* \"#utility.yul\":8104:8105   */\n  0x00\n    /* \"#utility.yul\":8093:8102   */\n  dup4\n    /* \"#utility.yul\":8089:8106   */\n  add\n    /* \"#utility.yul\":8080:8086   */\n  dup5\n    /* \"#utility.yul\":8036:8107   */\n  tag_68\n  jump\t// in\ntag_164:\n    /* \"#utility.yul\":7892:8114   */\n  swap3\n  swap2\n  pop\n  pop\n  jump\t// out\n    /* \"src/Contract_1.sol\":291:5414  contract NZFToken is ERC20, Ownable {... */\ntag_20:\n  dataSize(sub_0)\n  dup1\n  dataOffset(sub_0)\n  0x00\n  codecopy\n  0x00\n  return\nstop\n\nsub_0: assembly {\n        /* \"src/Contract_1.sol\":291:5414  contract NZFToken is ERC20, Ownable {... */\n      mstore(0x40, 0x80)\n      callvalue\n      dup1\n      iszero\n      tag_1\n      jumpi\n      0x00\n      dup1\n      revert\n    tag_1:\n      pop\n      jumpi(tag_2, lt(calldatasize, 0x04))\n      shr(0xe0, calldataload(0x00))\n      dup1\n      0x715018a6\n      gt\n      tag_26\n      jumpi\n      dup1\n      0xa9059cbb\n      gt\n      tag_27\n      jumpi\n      dup1\n      0xa9059cbb\n      eq\n      tag_20\n      jumpi\n      dup1\n      0xd1b8df22\n      eq\n      tag_21\n      jumpi\n      dup1\n      0xdd62ed3e\n      eq\n      tag_22\n      jumpi\n      dup1\n      0xe5a7eb75\n      eq\n      tag_23\n      jumpi\n      dup1\n      0xf2fde38b\n      eq\n      tag_24\n      jumpi\n      dup1\n      0xff920c74\n      eq\n      tag_25\n      jumpi\n      jump(tag_2)\n    tag_27:\n      dup1\n      0x715018a6\n      eq\n      tag_14\n      jumpi\n      dup1\n      0x7241dfa0\n      eq\n      tag_15\n      jumpi\n      dup1\n      0x771282f6\n      eq\n      tag_16\n      jumpi\n      dup1\n      0x8da5cb5b\n      eq\n      tag_17\n      jumpi\n      dup1\n      0x902d55a5\n      eq\n      tag_18\n      jumpi\n      dup1\n      0x95d89b41\n      eq\n      tag_19\n      jumpi\n      jump(tag_2)\n    tag_26:\n      dup1\n      0x23b872dd\n      gt\n      tag_28\n      jumpi\n      dup1\n      0x23b872dd\n      eq\n      tag_8\n      jumpi\n      dup1\n      0x313ce567\n      eq\n      tag_9\n      jumpi\n      dup1\n      0x329927a7\n      eq\n      tag_10\n      jumpi\n      dup1\n      0x3ccfd60b\n      eq\n      tag_11\n      jumpi\n      dup1\n      0x4fe72439\n      eq\n      tag_12\n      jumpi\n      dup1\n      0x70a08231\n      eq\n      tag_13\n      jumpi\n      jump(tag_2)\n    tag_28:\n      dup1\n      0x039600d2\n      eq\n      tag_3\n      jumpi\n      dup1\n      0x06fdde03\n      eq\n      tag_4\n      jumpi\n      dup1\n      0x095ea7b3\n      eq\n      tag_5\n      jumpi\n      dup1\n      0x18160ddd\n      eq\n      tag_6\n      jumpi\n      dup1\n      0x185870f9\n      eq\n      tag_7\n      jumpi\n    tag_2:\n      0x00\n      dup1\n      revert\n        /* \"src/Contract_1.sol\":838:905  uint256 public constant MINT_LIMIT_PER_INVESTOR = 20_000 * (10**18) */\n    tag_3:\n      tag_29\n      tag_30\n      jump\t// in\n    tag_29:\n      mload(0x40)\n      tag_31\n      swap2\n      swap1\n      tag_32\n      jump\t// in\n    tag_31:\n      mload(0x40)\n      dup1\n      swap2\n      sub\n      swap1\n      return\n        /* \"@openzeppelin/contracts/token/ERC20/ERC20.sol\":2074:2163  function name() public view virtual returns (string memory) {... */\n    tag_4:\n      tag_33\n      tag_34\n      jump\t// in\n    tag_33:\n      mload(0x40)\n      tag_35\n      swap2\n      swap1\n      tag_36\n      jump\t// in\n    tag_35:\n      mload(0x40)\n      dup1\n      swap2\n      sub\n      swap1\n      return\n        /* \"@openzeppelin/contracts/token/ERC20/ERC20.sol\":4293:4479  function approve(address spender, uint256 value) public virtual returns (bool) {... */\n    tag_5:\n      tag_37\n      0x04\n      dup1\n      calldatasize\n      sub\n      dup2\n      add\n      swap1\n      tag_38\n      swap2\n      swap1\n      tag_39\n      jump\t// in\n    tag_38:\n      tag_40\n      jump\t// in\n    tag_37:\n      mload(0x40)\n      tag_41\n      swap2\n      swap1\n      tag_42\n      jump\t// in\n    tag_41:\n      mload(0x40)\n      dup1\n      swap2\n      sub\n      swap1\n      return\n        /* \"@openzeppelin/contracts/token/ERC20/ERC20.sol\":3144:3241  function totalSupply() public view virtual returns (uint256) {... */\n    tag_6:\n      tag_43\n      tag_44\n      jump\t// in\n    tag_43:\n      mload(0x40)\n      tag_45\n      swap2\n      swap1\n      tag_32\n      jump\t// in\n    tag_45:\n      mload(0x40)\n      dup1\n      swap2\n      sub\n      swap1\n      return\n        /* \"src/Contract_1.sol\":1020:1050  address public developerWallet */\n    tag_7:\n      tag_46\n      tag_47\n      jump\t// in\n    tag_46:\n      mload(0x40)\n      tag_48\n      swap2\n      swap1\n      tag_49\n      jump\t// in\n    tag_48:\n      mload(0x40)\n      dup1\n      swap2\n      sub\n      swap1\n      return\n        /* \"@openzeppelin/contracts/token/ERC20/ERC20.sol\":5039:5283  function transferFrom(address from, address to, uint256 value) public virtual returns (bool) {... */\n    tag_8:\n      tag_50\n      0x04\n      dup1\n      calldatasize\n      sub\n      dup2\n      add\n      swap1\n      tag_51\n      swap2\n      swap1\n      tag_52\n      jump\t// in\n    tag_51:\n      tag_53\n      jump\t// in\n    tag_50:\n      mload(0x40)\n      tag_54\n      swap2\n      swap1\n      tag_42\n      jump\t// in\n    tag_54:\n      mload(0x40)\n      dup1\n      swap2\n      sub\n      swap1\n      return\n        /* \"@openzeppelin/contracts/token/ERC20/ERC20.sol\":3002:3084  function decimals() public view virtual returns (uint8) {... */\n    tag_9:\n      tag_55\n      tag_56\n      jump\t// in\n    tag_55:\n      mload(0x40)\n      tag_57\n      swap2\n      swap1\n      tag_58\n      jump\t// in\n    tag_57:\n      mload(0x40)\n      dup1\n      swap2\n      sub\n      swap1\n      return\n        /* \"src/Contract_1.sol\":770:832  uint256 public constant INVESTOR_SUPPLY = 9_000_000 * (10**18) */\n    tag_10:\n      tag_59\n      tag_60\n      jump\t// in\n    tag_59:\n      mload(0x40)\n      tag_61\n      swap2\n      swap1\n      tag_32\n      jump\t// in\n    tag_61:\n      mload(0x40)\n      dup1\n      swap2\n      sub\n      swap1\n      return\n        /* \"src/Contract_1.sol\":2763:3463  function withdraw() external onlyDeveloper {... */\n    tag_11:\n      tag_62\n      tag_63\n      jump\t// in\n    tag_62:\n      stop\n        /* \"src/Contract_1.sol\":701:764  uint256 public constant DEVELOPER_SUPPLY = 1_000_000 * (10**18) */\n    tag_12:\n      tag_64\n      tag_65\n      jump\t// in\n    tag_64:\n      mload(0x40)\n      tag_66\n      swap2\n      swap1\n      tag_32\n      jump\t// in\n    tag_66:\n      mload(0x40)\n      dup1\n      swap2\n      sub\n      swap1\n      return\n        /* \"@openzeppelin/contracts/token/ERC20/ERC20.sol\":3299:3415  function balanceOf(address account) public view virtual returns (uint256) {... */\n    tag_13:\n      tag_67\n      0x04\n      dup1\n      calldatasize\n      sub\n      dup2\n      add\n      swap1\n      tag_68\n      swap2\n      swap1\n      tag_69\n      jump\t// in\n    tag_68:\n      tag_70\n      jump\t// in\n    tag_67:\n      mload(0x40)\n      tag_71\n      swap2\n      swap1\n      tag_32\n      jump\t// in\n    tag_71:\n      mload(0x40)\n      dup1\n      swap2\n      sub\n      swap1\n      return\n        /* \"@openzeppelin/contracts/access/Ownable.sol\":2293:2394  function renounceOwnership() public virtual onlyOwner {... */\n    tag_14:\n      tag_72\n      tag_73\n      jump\t// in\n    tag_72:\n      stop\n        /* \"src/Contract_1.sol\":1164:1211  mapping(address => uint256) public mintedTokens */\n    tag_15:\n      tag_74\n      0x04\n      dup1\n      calldatasize\n      sub\n      dup2\n      add\n      swap1\n      tag_75\n      swap2\n      swap1\n      tag_69\n      jump\t// in\n    tag_75:\n      tag_76\n      jump\t// in\n    tag_74:\n      mload(0x40)\n      tag_77\n      swap2\n      swap1\n      tag_32\n      jump\t// in\n    tag_77:\n      mload(0x40)\n      dup1\n      swap2\n      sub\n      swap1\n      return\n        /* \"src/Contract_1.sol\":1056:1084  uint256 public currentSupply */\n    tag_16:\n      tag_78\n      tag_79\n      jump\t// in\n    tag_78:\n      mload(0x40)\n      tag_80\n      swap2\n      swap1\n      tag_32\n      jump\t// in\n    tag_80:\n      mload(0x40)\n      dup1\n      swap2\n      sub\n      swap1\n      return\n        /* \"@openzeppelin/contracts/access/Ownable.sol\":1638:1723  function owner() public view virtual returns (address) {... */\n    tag_17:\n      tag_81\n      tag_82\n      jump\t// in\n    tag_81:\n      mload(0x40)\n      tag_83\n      swap2\n      swap1\n      tag_49\n      jump\t// in\n    tag_83:\n      mload(0x40)\n      dup1\n      swap2\n      sub\n      swap1\n      return\n        /* \"src/Contract_1.sol\":635:695  uint256 public constant TOTAL_SUPPLY = 10_000_000 * (10**18) */\n    tag_18:\n      tag_84\n      tag_85\n      jump\t// in\n    tag_84:\n      mload(0x40)\n      tag_86\n      swap2\n      swap1\n      tag_32\n      jump\t// in\n    tag_86:\n      mload(0x40)\n      dup1\n      swap2\n      sub\n      swap1\n      return\n        /* \"@openzeppelin/contracts/token/ERC20/ERC20.sol\":2276:2369  function symbol() public view virtual returns (string memory) {... */\n    tag_19:\n      tag_87\n      tag_88\n      jump\t// in\n    tag_87:\n      mload(0x40)\n      tag_89\n      swap2\n      swap1\n      tag_36\n      jump\t// in\n    tag_89:\n      mload(0x40)\n      dup1\n      swap2\n      sub\n      swap1\n      return\n        /* \"@openzeppelin/contracts/token/ERC20/ERC20.sol\":3610:3788  function transfer(address to, uint256 value) public virtual returns (bool) {... */\n    tag_20:\n      tag_90\n      0x04\n      dup1\n      calldatasize\n      sub\n      dup2\n      add\n      swap1\n      tag_91\n      swap2\n      swap1\n      tag_39\n      jump\t// in\n    tag_91:\n      tag_92\n      jump\t// in\n    tag_90:\n      mload(0x40)\n      tag_93\n      swap2\n      swap1\n      tag_42\n      jump\t// in\n    tag_93:\n      mload(0x40)\n      dup1\n      swap2\n      sub\n      swap1\n      return\n        /* \"src/Contract_1.sol\":4998:5411  function buyBack(address pool, uint256 amount) public onlyDeveloper {... */\n    tag_21:\n      tag_94\n      0x04\n      dup1\n      calldatasize\n      sub\n      dup2\n      add\n      swap1\n      tag_95\n      swap2\n      swap1\n      tag_39\n      jump\t// in\n    tag_95:\n      tag_96\n      jump\t// in\n    tag_94:\n      stop\n        /* \"@openzeppelin/contracts/token/ERC20/ERC20.sol\":3846:3986  function allowance(address owner, address spender) public view virtual returns (uint256) {... */\n    tag_22:\n      tag_97\n      0x04\n      dup1\n      calldatasize\n      sub\n      dup2\n      add\n      swap1\n      tag_98\n      swap2\n      swap1\n      tag_99\n      jump\t// in\n    tag_98:\n      tag_100\n      jump\t// in\n    tag_97:\n      mload(0x40)\n      tag_101\n      swap2\n      swap1\n      tag_32\n      jump\t// in\n    tag_101:\n      mload(0x40)\n      dup1\n      swap2\n      sub\n      swap1\n      return\n        /* \"src/Contract_1.sol\":1963:2721  function mintInvestor(uint256 amount) external canMint(amount) {... */\n    tag_23:\n      tag_102\n      0x04\n      dup1\n      calldatasize\n      sub\n      dup2\n      add\n      swap1\n      tag_103\n      swap2\n      swap1\n      tag_104\n      jump\t// in\n    tag_103:\n      tag_105\n      jump\t// in\n    tag_102:\n      stop\n        /* \"@openzeppelin/contracts/access/Ownable.sol\":2543:2758  function transferOwnership(address newOwner) public virtual onlyOwner {... */\n    tag_24:\n      tag_106\n      0x04\n      dup1\n      calldatasize\n      sub\n      dup2\n      add\n      swap1\n      tag_107\n      swap2\n      swap1\n      tag_69\n      jump\t// in\n    tag_107:\n      tag_108\n      jump\t// in\n    tag_106:\n      stop\n        /* \"src/Contract_1.sol\":1090:1116  address public USDTAddress */\n    tag_25:\n      tag_109\n      tag_110\n      jump\t// in\n    tag_109:\n      mload(0x40)\n      tag_111\n      swap2\n      swap1\n      tag_49\n      jump\t// in\n    tag_111:\n      mload(0x40)\n      dup1\n      swap2\n      sub\n      swap1\n      return\n        /* \"src/Contract_1.sol\":838:905  uint256 public constant MINT_LIMIT_PER_INVESTOR = 20_000 * (10**18) */\n    tag_30:\n        /* \"src/Contract_1.sol\":888:905  20_000 * (10**18) */\n      0x043c33c1937564800000\n        /* \"src/Contract_1.sol\":838:905  uint256 public constant MINT_LIMIT_PER_INVESTOR = 20_000 * (10**18) */\n      dup2\n      jump\t// out\n        /* \"@openzeppelin/contracts/token/ERC20/ERC20.sol\":2074:2163  function name() public view virtual returns (string memory) {... */\n    tag_34:\n        /* \"@openzeppelin/contracts/token/ERC20/ERC20.sol\":2119:2132  string memory */\n      0x60\n        /* \"@openzeppelin/contracts/token/ERC20/ERC20.sol\":2151:2156  _name */\n      0x03\n        /* \"@openzeppelin/contracts/token/ERC20/ERC20.sol\":2144:2156  return _name */\n      dup1\n      sload\n      tag_113\n      swap1\n      tag_114\n      jump\t// in\n    tag_113:\n      dup1\n      0x1f\n      add\n      0x20\n      dup1\n      swap2\n      div\n      mul\n      0x20\n      add\n      mload(0x40)\n      swap1\n      dup2\n      add\n      0x40\n      mstore\n      dup1\n      swap3\n      swap2\n      swap1\n      dup2\n      dup2\n      mstore\n      0x20\n      add\n      dup3\n      dup1\n      sload\n      tag_115\n      swap1\n      tag_114\n      jump\t// in\n    tag_115:\n      dup1\n      iszero\n      tag_116\n      jumpi\n      dup1\n      0x1f\n      lt\n      tag_117\n      jumpi\n      0x0100\n      dup1\n      dup4\n      sload\n      div\n      mul\n      dup4\n      mstore\n      swap2\n      0x20\n      add\n      swap2\n      jump(tag_116)\n    tag_117:\n      dup3\n      add\n      swap2\n      swap1\n      0x00\n      mstore\n      keccak256(0x00, 0x20)\n      swap1\n    tag_118:\n      dup2\n      sload\n      dup2\n      mstore\n      swap1\n      0x01\n      add\n      swap1\n      0x20\n      add\n      dup1\n      dup4\n      gt\n      tag_118\n      jumpi\n      dup3\n      swap1\n      sub\n      0x1f\n      and\n      dup3\n      add\n      swap2\n    tag_116:\n      pop\n      pop\n      pop\n      pop\n      pop\n      swap1\n      pop\n        /* \"@openzeppelin/contracts/token/ERC20/ERC20.sol\":2074:2163  function name() public view virtual returns (string memory) {... */\n      swap1\n      jump\t// out\n        /* \"@openzeppelin/contracts/token/ERC20/ERC20.sol\":4293:4479  function approve(address spender, uint256 value) public virtual returns (bool) {... */\n    tag_40:\n        /* \"@openzeppelin/contracts/token/ERC20/ERC20.sol\":4366:4370  bool */\n      0x00\n        /* \"@openzeppelin/contracts/token/ERC20/ERC20.sol\":4382:4395  address owner */\n      dup1\n        /* \"@openzeppelin/contracts/token/ERC20/ERC20.sol\":4398:4410  _msgSender() */\n      tag_120\n        /* \"@openzeppelin/contracts/token/ERC20/ERC20.sol\":4398:4408  _msgSender */\n      tag_121\n        /* \"@openzeppelin/contracts/token/ERC20/ERC20.sol\":4398:4410  _msgSender() */\n      jump\t// in\n    tag_120:\n        /* \"@openzeppelin/contracts/token/ERC20/ERC20.sol\":4382:4410  address owner = _msgSender() */\n      swap1\n      pop\n        /* \"@openzeppelin/contracts/token/ERC20/ERC20.sol\":4420:4451  _approve(owner, spender, value) */\n      tag_122\n        /* \"@openzeppelin/contracts/token/ERC20/ERC20.sol\":4429:4434  owner */\n      dup2\n        /* \"@openzeppelin/contracts/token/ERC20/ERC20.sol\":4436:4443  spender */\n      dup6\n        /* \"@openzeppelin/contracts/token/ERC20/ERC20.sol\":4445:4450  value */\n      dup6\n        /* \"@openzeppelin/contracts/token/ERC20/ERC20.sol\":4420:4428  _approve */\n      tag_123\n        /* \"@openzeppelin/contracts/token/ERC20/ERC20.sol\":4420:4451  _approve(owner, spender, value) */\n      jump\t// in\n    tag_122:\n        /* \"@openzeppelin/contracts/token/ERC20/ERC20.sol\":4468:4472  true */\n      0x01\n        /* \"@openzeppelin/contracts/token/ERC20/ERC20.sol\":4461:4472  return true */\n      swap2\n      pop\n      pop\n        /* \"@openzeppelin/contracts/token/ERC20/ERC20.sol\":4293:4479  function approve(address spender, uint256 value) public virtual returns (bool) {... */\n      swap3\n      swap2\n      pop\n      pop\n      jump\t// out\n        /* \"@openzeppelin/contracts/token/ERC20/ERC20.sol\":3144:3241  function totalSupply() public view virtual returns (uint256) {... */\n    tag_44:\n        /* \"@openzeppelin/contracts/token/ERC20/ERC20.sol\":3196:3203  uint256 */\n      0x00\n        /* \"@openzeppelin/contracts/token/ERC20/ERC20.sol\":3222:3234  _totalSupply */\n      sload(0x02)\n        /* \"@openzeppelin/contracts/token/ERC20/ERC20.sol\":3215:3234  return _totalSupply */\n      swap1\n      pop\n        /* \"@openzeppelin/contracts/token/ERC20/ERC20.sol\":3144:3241  function totalSupply() public view virtual returns (uint256) {... */\n      swap1\n      jump\t// out\n        /* \"src/Contract_1.sol\":1020:1050  address public developerWallet */\n    tag_47:\n      0x06\n      0x00\n      swap1\n      sload\n      swap1\n      0x0100\n      exp\n      swap1\n      div\n      0xffffffffffffffffffffffffffffffffffffffff\n      and\n      dup2\n      jump\t// out\n        /* \"@openzeppelin/contracts/token/ERC20/ERC20.sol\":5039:5283  function transferFrom(address from, address to, uint256 value) public virtual returns (bool) {... */\n    tag_53:\n        /* \"@openzeppelin/contracts/token/ERC20/ERC20.sol\":5126:5130  bool */\n      0x00\n        /* \"@openzeppelin/contracts/token/ERC20/ERC20.sol\":5142:5157  address spender */\n      dup1\n        /* \"@openzeppelin/contracts/token/ERC20/ERC20.sol\":5160:5172  _msgSender() */\n      tag_126\n        /* \"@openzeppelin/contracts/token/ERC20/ERC20.sol\":5160:5170  _msgSender */\n      tag_121\n        /* \"@openzeppelin/contracts/token/ERC20/ERC20.sol\":5160:5172  _msgSender() */\n      jump\t// in\n    tag_126:\n        /* \"@openzeppelin/contracts/token/ERC20/ERC20.sol\":5142:5172  address spender = _msgSender() */\n      swap1\n      pop\n        /* \"@openzeppelin/contracts/token/ERC20/ERC20.sol\":5182:5219  _spendAllowance(from, spender, value) */\n      tag_127\n        /* \"@openzeppelin/contracts/token/ERC20/ERC20.sol\":5198:5202  from */\n      dup6\n        /* \"@openzeppelin/contracts/token/ERC20/ERC20.sol\":5204:5211  spender */\n      dup3\n        /* \"@openzeppelin/contracts/token/ERC20/ERC20.sol\":5213:5218  value */\n      dup6\n        /* \"@openzeppelin/contracts/token/ERC20/ERC20.sol\":5182:5197  _spendAllowance */\n      tag_128\n        /* \"@openzeppelin/contracts/token/ERC20/ERC20.sol\":5182:5219  _spendAllowance(from, spender, value) */\n      jump\t// in\n    tag_127:\n        /* \"@openzeppelin/contracts/token/ERC20/ERC20.sol\":5229:5255  _transfer(from, to, value) */\n      tag_129\n        /* \"@openzeppelin/contracts/token/ERC20/ERC20.sol\":5239:5243  from */\n      dup6\n        /* \"@openzeppelin/contracts/token/ERC20/ERC20.sol\":5245:5247  to */\n      dup6\n        /* \"@openzeppelin/contracts/token/ERC20/ERC20.sol\":5249:5254  value */\n      dup6\n        /* \"@openzeppelin/contracts/token/ERC20/ERC20.sol\":5229:5238  _transfer */\n      tag_130\n        /* \"@openzeppelin/contracts/token/ERC20/ERC20.sol\":5229:5255  _transfer(from, to, value) */\n      jump\t// in\n    tag_129:\n        /* \"@openzeppelin/contracts/token/ERC20/ERC20.sol\":5272:5276  true */\n      0x01\n        /* \"@openzeppelin/contracts/token/ERC20/ERC20.sol\":5265:5276  return true */\n      swap2\n      pop\n      pop\n        /* \"@openzeppelin/contracts/token/ERC20/ERC20.sol\":5039:5283  function transferFrom(address from, address to, uint256 value) public virtual returns (bool) {... */\n      swap4\n      swap3\n      pop\n      pop\n      pop\n      jump\t// out\n        /* \"@openzeppelin/contracts/token/ERC20/ERC20.sol\":3002:3084  function decimals() public view virtual returns (uint8) {... */\n    tag_56:\n        /* \"@openzeppelin/contracts/token/ERC20/ERC20.sol\":3051:3056  uint8 */\n      0x00\n        /* \"@openzeppelin/contracts/token/ERC20/ERC20.sol\":3075:3077  18 */\n      0x12\n        /* \"@openzeppelin/contracts/token/ERC20/ERC20.sol\":3068:3077  return 18 */\n      swap1\n      pop\n        /* \"@openzeppelin/contracts/token/ERC20/ERC20.sol\":3002:3084  function decimals() public view virtual returns (uint8) {... */\n      swap1\n      jump\t// out\n        /* \"src/Contract_1.sol\":770:832  uint256 public constant INVESTOR_SUPPLY = 9_000_000 * (10**18) */\n    tag_60:\n        /* \"src/Contract_1.sol\":812:832  9_000_000 * (10**18) */\n      0x0771d2fa45345aa9000000\n        /* \"src/Contract_1.sol\":770:832  uint256 public constant INVESTOR_SUPPLY = 9_000_000 * (10**18) */\n      dup2\n      jump\t// out\n        /* \"src/Contract_1.sol\":2763:3463  function withdraw() external onlyDeveloper {... */\n    tag_63:\n        /* \"src/Contract_1.sol\":1397:1412  developerWallet */\n      0x06\n      0x00\n      swap1\n      sload\n      swap1\n      0x0100\n      exp\n      swap1\n      div\n      0xffffffffffffffffffffffffffffffffffffffff\n      and\n        /* \"src/Contract_1.sol\":1383:1412  msg.sender == developerWallet */\n      0xffffffffffffffffffffffffffffffffffffffff\n      and\n        /* \"src/Contract_1.sol\":1383:1393  msg.sender */\n      caller\n        /* \"src/Contract_1.sol\":1383:1412  msg.sender == developerWallet */\n      0xffffffffffffffffffffffffffffffffffffffff\n      and\n      eq\n        /* \"src/Contract_1.sol\":1375:1431  require(msg.sender == developerWallet, \"Not authorized\") */\n      tag_133\n      jumpi\n      mload(0x40)\n      0x08c379a000000000000000000000000000000000000000000000000000000000\n      dup2\n      mstore\n      0x04\n      add\n      tag_134\n      swap1\n      tag_135\n      jump\t// in\n    tag_134:\n      mload(0x40)\n      dup1\n      swap2\n      sub\n      swap1\n      revert\n    tag_133:\n        /* \"src/Contract_1.sol\":2816:2839  uint256 contractBalance */\n      0x00\n        /* \"src/Contract_1.sol\":2849:2860  USDTAddress */\n      0x08\n      0x00\n      swap1\n      sload\n      swap1\n      0x0100\n      exp\n      swap1\n      div\n      0xffffffffffffffffffffffffffffffffffffffff\n      and\n        /* \"src/Contract_1.sol\":2842:2871  IERC20(USDTAddress).balanceOf */\n      0xffffffffffffffffffffffffffffffffffffffff\n      and\n      0x70a08231\n        /* \"src/Contract_1.sol\":2880:2884  this */\n      address\n        /* \"src/Contract_1.sol\":2842:2886  IERC20(USDTAddress).balanceOf(address(this)) */\n      mload(0x40)\n      dup3\n      0xffffffff\n      and\n      0xe0\n      shl\n      dup2\n      mstore\n      0x04\n      add\n      tag_137\n      swap2\n      swap1\n      tag_49\n      jump\t// in\n    tag_137:\n      0x20\n      mload(0x40)\n      dup1\n      dup4\n      sub\n      dup2\n      dup7\n      gas\n      staticcall\n      iszero\n      dup1\n      iszero\n      tag_139\n      jumpi\n      returndatasize\n      0x00\n      dup1\n      returndatacopy\n      revert(0x00, returndatasize)\n    tag_139:\n      pop\n      pop\n      pop\n      pop\n      mload(0x40)\n      returndatasize\n      not(0x1f)\n      0x1f\n      dup3\n      add\n      and\n      dup3\n      add\n      dup1\n      0x40\n      mstore\n      pop\n      dup2\n      add\n      swap1\n      tag_140\n      swap2\n      swap1\n      tag_141\n      jump\t// in\n    tag_140:\n        /* \"src/Contract_1.sol\":2816:2886  uint256 contractBalance = IERC20(USDTAddress).balanceOf(address(this)) */\n      swap1\n      pop\n        /* \"src/Contract_1.sol\":2922:2923  0 */\n      0x00\n        /* \"src/Contract_1.sol\":2904:2919  contractBalance */\n      dup2\n        /* \"src/Contract_1.sol\":2904:2923  contractBalance > 0 */\n      gt\n        /* \"src/Contract_1.sol\":2896:2949  require(contractBalance > 0, \"No tokens to withdraw\") */\n      tag_142\n      jumpi\n      mload(0x40)\n      0x08c379a000000000000000000000000000000000000000000000000000000000\n      dup2\n      mstore\n      0x04\n      add\n      tag_143\n      swap1\n      tag_144\n      jump\t// in\n    tag_143:\n      mload(0x40)\n      dup1\n      swap2\n      sub\n      swap1\n      revert\n    tag_142:\n        /* \"src/Contract_1.sol\":674:695  10_000_000 * (10**18) */\n      0x084595161401484a000000\n        /* \"src/Contract_1.sol\":2967:2980  currentSupply */\n      sload(0x07)\n        /* \"src/Contract_1.sol\":2967:2995  currentSupply > TOTAL_SUPPLY */\n      gt\n        /* \"src/Contract_1.sol\":2959:3017  require(currentSupply > TOTAL_SUPPLY, \"Not Enough Supply\") */\n      tag_145\n      jumpi\n      mload(0x40)\n      0x08c379a000000000000000000000000000000000000000000000000000000000\n      dup2\n      mstore\n      0x04\n      add\n      tag_146\n      swap1\n      tag_147\n      jump\t// in\n    tag_146:\n      mload(0x40)\n      dup1\n      swap2\n      sub\n      swap1\n      revert\n    tag_145:\n        /* \"src/Contract_1.sol\":3210:3384  poolInit(... */\n      tag_148\n        /* \"src/Contract_1.sol\":3232:3274  0x0227628f3F023bb0B980b67D528571c95c6DaC1c */\n      0x0227628f3f023bb0b980b67d528571c95c6dac1c\n        /* \"src/Contract_1.sol\":3296:3300  this */\n      address\n        /* \"src/Contract_1.sol\":3315:3357  0xf7ADDb930777E11b83A5E7494421Ec4C589d0317 */\n      0xf7addb930777e11b83a5e7494421ec4c589d0317\n        /* \"src/Contract_1.sol\":3371:3374  500 */\n      0x01f4\n        /* \"src/Contract_1.sol\":3210:3218  poolInit */\n      tag_149\n        /* \"src/Contract_1.sol\":3210:3384  poolInit(... */\n      jump\t// in\n    tag_148:\n        /* \"src/Contract_1.sol\":3401:3412  USDTAddress */\n      0x08\n      0x00\n      swap1\n      sload\n      swap1\n      0x0100\n      exp\n      swap1\n      div\n      0xffffffffffffffffffffffffffffffffffffffff\n      and\n        /* \"src/Contract_1.sol\":3394:3422  IERC20(USDTAddress).transfer */\n      0xffffffffffffffffffffffffffffffffffffffff\n      and\n      0xa9059cbb\n        /* \"src/Contract_1.sol\":3423:3438  developerWallet */\n      0x06\n      0x00\n      swap1\n      sload\n      swap1\n      0x0100\n      exp\n      swap1\n      div\n      0xffffffffffffffffffffffffffffffffffffffff\n      and\n        /* \"src/Contract_1.sol\":3440:3455  contractBalance */\n      dup4\n        /* \"src/Contract_1.sol\":3394:3456  IERC20(USDTAddress).transfer(developerWallet, contractBalance) */\n      mload(0x40)\n      dup4\n      0xffffffff\n      and\n      0xe0\n      shl\n      dup2\n      mstore\n      0x04\n      add\n      tag_150\n      swap3\n      swap2\n      swap1\n      tag_151\n      jump\t// in\n    tag_150:\n      0x20\n      mload(0x40)\n      dup1\n      dup4\n      sub\n      dup2\n      0x00\n      dup8\n      gas\n      call\n      iszero\n      dup1\n      iszero\n      tag_153\n      jumpi\n      returndatasize\n      0x00\n      dup1\n      returndatacopy\n      revert(0x00, returndatasize)\n    tag_153:\n      pop\n      pop\n      pop\n      pop\n      mload(0x40)\n      returndatasize\n      not(0x1f)\n      0x1f\n      dup3\n      add\n      and\n      dup3\n      add\n      dup1\n      0x40\n      mstore\n      pop\n      dup2\n      add\n      swap1\n      tag_154\n      swap2\n      swap1\n      tag_155\n      jump\t// in\n    tag_154:\n      pop\n        /* \"src/Contract_1.sol\":2806:3463  {... */\n      pop\n        /* \"src/Contract_1.sol\":2763:3463  function withdraw() external onlyDeveloper {... */\n      jump\t// out\n        /* \"src/Contract_1.sol\":701:764  uint256 public constant DEVELOPER_SUPPLY = 1_000_000 * (10**18) */\n    tag_65:\n        /* \"src/Contract_1.sol\":744:764  1_000_000 * (10**18) */\n      0xd3c21bcecceda1000000\n        /* \"src/Contract_1.sol\":701:764  uint256 public constant DEVELOPER_SUPPLY = 1_000_000 * (10**18) */\n      dup2\n      jump\t// out\n        /* \"@openzeppelin/contracts/token/ERC20/ERC20.sol\":3299:3415  function balanceOf(address account) public view virtual returns (uint256) {... */\n    tag_70:\n        /* \"@openzeppelin/contracts/token/ERC20/ERC20.sol\":3364:3371  uint256 */\n      0x00\n        /* \"@openzeppelin/contracts/token/ERC20/ERC20.sol\":3390:3399  _balances */\n      dup1\n        /* \"@openzeppelin/contracts/token/ERC20/ERC20.sol\":3390:3408  _balances[account] */\n      0x00\n        /* \"@openzeppelin/contracts/token/ERC20/ERC20.sol\":3400:3407  account */\n      dup4\n        /* \"@openzeppelin/contracts/token/ERC20/ERC20.sol\":3390:3408  _balances[account] */\n      0xffffffffffffffffffffffffffffffffffffffff\n      and\n      0xffffffffffffffffffffffffffffffffffffffff\n      and\n      dup2\n      mstore\n      0x20\n      add\n      swap1\n      dup2\n      mstore\n      0x20\n      add\n      0x00\n      keccak256\n      sload\n        /* \"@openzeppelin/contracts/token/ERC20/ERC20.sol\":3383:3408  return _balances[account] */\n      swap1\n      pop\n        /* \"@openzeppelin/contracts/token/ERC20/ERC20.sol\":3299:3415  function balanceOf(address account) public view virtual returns (uint256) {... */\n      swap2\n      swap1\n      pop\n      jump\t// out\n        /* \"@openzeppelin/contracts/access/Ownable.sol\":2293:2394  function renounceOwnership() public virtual onlyOwner {... */\n    tag_73:\n        /* \"@openzeppelin/contracts/access/Ownable.sol\":1531:1544  _checkOwner() */\n      tag_158\n        /* \"@openzeppelin/contracts/access/Ownable.sol\":1531:1542  _checkOwner */\n      tag_159\n        /* \"@openzeppelin/contracts/access/Ownable.sol\":1531:1544  _checkOwner() */\n      jump\t// in\n    tag_158:\n        /* \"@openzeppelin/contracts/access/Ownable.sol\":2357:2387  _transferOwnership(address(0)) */\n      tag_161\n        /* \"@openzeppelin/contracts/access/Ownable.sol\":2384:2385  0 */\n      0x00\n        /* \"@openzeppelin/contracts/access/Ownable.sol\":2357:2375  _transferOwnership */\n      tag_162\n        /* \"@openzeppelin/contracts/access/Ownable.sol\":2357:2387  _transferOwnership(address(0)) */\n      jump\t// in\n    tag_161:\n        /* \"@openzeppelin/contracts/access/Ownable.sol\":2293:2394  function renounceOwnership() public virtual onlyOwner {... */\n      jump\t// out\n        /* \"src/Contract_1.sol\":1164:1211  mapping(address => uint256) public mintedTokens */\n    tag_76:\n      mstore(0x20, 0x09)\n      dup1\n      0x00\n      mstore\n      keccak256(0x00, 0x40)\n      0x00\n      swap2\n      pop\n      swap1\n      pop\n      sload\n      dup2\n      jump\t// out\n        /* \"src/Contract_1.sol\":1056:1084  uint256 public currentSupply */\n    tag_79:\n      sload(0x07)\n      dup2\n      jump\t// out\n        /* \"@openzeppelin/contracts/access/Ownable.sol\":1638:1723  function owner() public view virtual returns (address) {... */\n    tag_82:\n        /* \"@openzeppelin/contracts/access/Ownable.sol\":1684:1691  address */\n      0x00\n        /* \"@openzeppelin/contracts/access/Ownable.sol\":1710:1716  _owner */\n      0x05\n      0x00\n      swap1\n      sload\n      swap1\n      0x0100\n      exp\n      swap1\n      div\n      0xffffffffffffffffffffffffffffffffffffffff\n      and\n        /* \"@openzeppelin/contracts/access/Ownable.sol\":1703:1716  return _owner */\n      swap1\n      pop\n        /* \"@openzeppelin/contracts/access/Ownable.sol\":1638:1723  function owner() public view virtual returns (address) {... */\n      swap1\n      jump\t// out\n        /* \"src/Contract_1.sol\":635:695  uint256 public constant TOTAL_SUPPLY = 10_000_000 * (10**18) */\n    tag_85:\n        /* \"src/Contract_1.sol\":674:695  10_000_000 * (10**18) */\n      0x084595161401484a000000\n        /* \"src/Contract_1.sol\":635:695  uint256 public constant TOTAL_SUPPLY = 10_000_000 * (10**18) */\n      dup2\n      jump\t// out\n        /* \"@openzeppelin/contracts/token/ERC20/ERC20.sol\":2276:2369  function symbol() public view virtual returns (string memory) {... */\n    tag_88:\n        /* \"@openzeppelin/contracts/token/ERC20/ERC20.sol\":2323:2336  string memory */\n      0x60\n        /* \"@openzeppelin/contracts/token/ERC20/ERC20.sol\":2355:2362  _symbol */\n      0x04\n        /* \"@openzeppelin/contracts/token/ERC20/ERC20.sol\":2348:2362  return _symbol */\n      dup1\n      sload\n      tag_165\n      swap1\n      tag_114\n      jump\t// in\n    tag_165:\n      dup1\n      0x1f\n      add\n      0x20\n      dup1\n      swap2\n      div\n      mul\n      0x20\n      add\n      mload(0x40)\n      swap1\n      dup2\n      add\n      0x40\n      mstore\n      dup1\n      swap3\n      swap2\n      swap1\n      dup2\n      dup2\n      mstore\n      0x20\n      add\n      dup3\n      dup1\n      sload\n      tag_166\n      swap1\n      tag_114\n      jump\t// in\n    tag_166:\n      dup1\n      iszero\n      tag_167\n      jumpi\n      dup1\n      0x1f\n      lt\n      tag_168\n      jumpi\n      0x0100\n      dup1\n      dup4\n      sload\n      div\n      mul\n      dup4\n      mstore\n      swap2\n      0x20\n      add\n      swap2\n      jump(tag_167)\n    tag_168:\n      dup3\n      add\n      swap2\n      swap1\n      0x00\n      mstore\n      keccak256(0x00, 0x20)\n      swap1\n    tag_169:\n      dup2\n      sload\n      dup2\n      mstore\n      swap1\n      0x01\n      add\n      swap1\n      0x20\n      add\n      dup1\n      dup4\n      gt\n      tag_169\n      jumpi\n      dup3\n      swap1\n      sub\n      0x1f\n      and\n      dup3\n      add\n      swap2\n    tag_167:\n      pop\n      pop\n      pop\n      pop\n      pop\n      swap1\n      pop\n        /* \"@openzeppelin/contracts/token/ERC20/ERC20.sol\":2276:2369  function symbol() public view virtual returns (string memory) {... */\n      swap1\n      jump\t// out\n        /* \"@openzeppelin/contracts/token/ERC20/ERC20.sol\":3610:3788  function transfer(address to, uint256 value) public virtual returns (bool) {... */\n    tag_92:\n        /* \"@openzeppelin/contracts/token/ERC20/ERC20.sol\":3679:3683  bool */\n      0x00\n        /* \"@openzeppelin/contracts/token/ERC20/ERC20.sol\":3695:3708  address owner */\n      dup1\n        /* \"@openzeppelin/contracts/token/ERC20/ERC20.sol\":3711:3723  _msgSender() */\n      tag_171\n        /* \"@openzeppelin/contracts/token/ERC20/ERC20.sol\":3711:3721  _msgSender */\n      tag_121\n        /* \"@openzeppelin/contracts/token/ERC20/ERC20.sol\":3711:3723  _msgSender() */\n      jump\t// in\n    tag_171:\n        /* \"@openzeppelin/contracts/token/ERC20/ERC20.sol\":3695:3723  address owner = _msgSender() */\n      swap1\n      pop\n        /* \"@openzeppelin/contracts/token/ERC20/ERC20.sol\":3733:3760  _transfer(owner, to, value) */\n      tag_172\n        /* \"@openzeppelin/contracts/token/ERC20/ERC20.sol\":3743:3748  owner */\n      dup2\n        /* \"@openzeppelin/contracts/token/ERC20/ERC20.sol\":3750:3752  to */\n      dup6\n        /* \"@openzeppelin/contracts/token/ERC20/ERC20.sol\":3754:3759  value */\n      dup6\n        /* \"@openzeppelin/contracts/token/ERC20/ERC20.sol\":3733:3742  _transfer */\n      tag_130\n        /* \"@openzeppelin/contracts/token/ERC20/ERC20.sol\":3733:3760  _transfer(owner, to, value) */\n      jump\t// in\n    tag_172:\n        /* \"@openzeppelin/contracts/token/ERC20/ERC20.sol\":3777:3781  true */\n      0x01\n        /* \"@openzeppelin/contracts/token/ERC20/ERC20.sol\":3770:3781  return true */\n      swap2\n      pop\n      pop\n        /* \"@openzeppelin/contracts/token/ERC20/ERC20.sol\":3610:3788  function transfer(address to, uint256 value) public virtual returns (bool) {... */\n      swap3\n      swap2\n      pop\n      pop\n      jump\t// out\n        /* \"src/Contract_1.sol\":4998:5411  function buyBack(address pool, uint256 amount) public onlyDeveloper {... */\n    tag_96:\n        /* \"src/Contract_1.sol\":1397:1412  developerWallet */\n      0x06\n      0x00\n      swap1\n      sload\n      swap1\n      0x0100\n      exp\n      swap1\n      div\n      0xffffffffffffffffffffffffffffffffffffffff\n      and\n        /* \"src/Contract_1.sol\":1383:1412  msg.sender == developerWallet */\n      0xffffffffffffffffffffffffffffffffffffffff\n      and\n        /* \"src/Contract_1.sol\":1383:1393  msg.sender */\n      caller\n        /* \"src/Contract_1.sol\":1383:1412  msg.sender == developerWallet */\n      0xffffffffffffffffffffffffffffffffffffffff\n      and\n      eq\n        /* \"src/Contract_1.sol\":1375:1431  require(msg.sender == developerWallet, \"Not authorized\") */\n      tag_174\n      jumpi\n      mload(0x40)\n      0x08c379a000000000000000000000000000000000000000000000000000000000\n      dup2\n      mstore\n      0x04\n      add\n      tag_175\n      swap1\n      tag_135\n      jump\t// in\n    tag_175:\n      mload(0x40)\n      dup1\n      swap2\n      sub\n      swap1\n      revert\n    tag_174:\n        /* \"src/Contract_1.sol\":5093:5094  0 */\n      0x00\n        /* \"src/Contract_1.sol\":5084:5090  amount */\n      dup2\n        /* \"src/Contract_1.sol\":5084:5094  amount > 0 */\n      gt\n        /* \"src/Contract_1.sol\":5076:5131  require(amount > 0, \"Amount must be greater than zero\") */\n      tag_177\n      jumpi\n      mload(0x40)\n      0x08c379a000000000000000000000000000000000000000000000000000000000\n      dup2\n      mstore\n      0x04\n      add\n      tag_178\n      swap1\n      tag_179\n      jump\t// in\n    tag_178:\n      mload(0x40)\n      dup1\n      swap2\n      sub\n      swap1\n      revert\n    tag_177:\n        /* \"src/Contract_1.sol\":5143:5155  bool success */\n      0x00\n        /* \"src/Contract_1.sol\":5161:5165  pool */\n      dup3\n        /* \"src/Contract_1.sol\":5161:5170  pool.call */\n      0xffffffffffffffffffffffffffffffffffffffff\n      and\n        /* \"src/Contract_1.sol\":5264:5274  msg.sender */\n      caller\n        /* \"src/Contract_1.sol\":5288:5293  false */\n      0x00\n        /* \"src/Contract_1.sol\":5307:5308  0 */\n      dup1\n        /* \"src/Contract_1.sol\":5322:5323  0 */\n      0x00\n        /* \"src/Contract_1.sol\":5347:5348  0 */\n      dup1\n        /* \"src/Contract_1.sol\":5337:5349  new bytes(0) */\n      0xffffffffffffffff\n      dup2\n      gt\n      iszero\n      tag_180\n      jumpi\n      tag_181\n      tag_182\n      jump\t// in\n    tag_181:\n    tag_180:\n      mload(0x40)\n      swap1\n      dup1\n      dup3\n      mstore\n      dup1\n      0x1f\n      add\n      not(0x1f)\n      and\n      0x20\n      add\n      dup3\n      add\n      0x40\n      mstore\n      dup1\n      iszero\n      tag_183\n      jumpi\n      dup2\n      0x20\n      add\n      0x01\n      dup3\n      mul\n      dup1\n      calldatasize\n      dup4\n      calldatacopy\n      dup1\n      dup3\n      add\n      swap2\n      pop\n      pop\n      swap1\n      pop\n    tag_183:\n      pop\n        /* \"src/Contract_1.sol\":5171:5350  abi.encodeWithSignature(... */\n      add(0x24, mload(0x40))\n      tag_184\n      swap6\n      swap5\n      swap4\n      swap3\n      swap2\n      swap1\n      tag_185\n      jump\t// in\n    tag_184:\n      mload(0x40)\n      0x20\n      dup2\n      dup4\n      sub\n      sub\n      dup2\n      mstore\n      swap1\n      0x40\n      mstore\n      and(not(0xffffffffffffffffffffffffffffffffffffffffffffffffffffffff), 0xdd5a12d800000000000000000000000000000000000000000000000000000000)\n      0x20\n      dup3\n      add\n      dup1\n      mload\n      0xffffffffffffffffffffffffffffffffffffffffffffffffffffffff\n      dup4\n      dup2\n      dup4\n      and\n      or\n      dup4\n      mstore\n      pop\n      pop\n      pop\n      pop\n        /* \"src/Contract_1.sol\":5161:5360  pool.call(abi.encodeWithSignature(... */\n      mload(0x40)\n      tag_186\n      swap2\n      swap1\n      tag_187\n      jump\t// in\n    tag_186:\n      0x00\n      mload(0x40)\n      dup1\n      dup4\n      sub\n      dup2\n      0x00\n      dup7\n      gas\n      call\n      swap2\n      pop\n      pop\n      returndatasize\n      dup1\n      0x00\n      dup2\n      eq\n      tag_190\n      jumpi\n      mload(0x40)\n      swap2\n      pop\n      and(add(returndatasize, 0x3f), not(0x1f))\n      dup3\n      add\n      0x40\n      mstore\n      returndatasize\n      dup3\n      mstore\n      returndatasize\n      0x00\n      0x20\n      dup5\n      add\n      returndatacopy\n      jump(tag_189)\n    tag_190:\n      0x60\n      swap2\n      pop\n    tag_189:\n      pop\n        /* \"src/Contract_1.sol\":5142:5360  (bool success, ) = pool.call(abi.encodeWithSignature(... */\n      pop\n      swap1\n      pop\n        /* \"src/Contract_1.sol\":5378:5385  success */\n      dup1\n        /* \"src/Contract_1.sol\":5370:5404  require(success, \"Failed to Mint\") */\n      tag_191\n      jumpi\n      mload(0x40)\n      0x08c379a000000000000000000000000000000000000000000000000000000000\n      dup2\n      mstore\n      0x04\n      add\n      tag_192\n      swap1\n      tag_193\n      jump\t// in\n    tag_192:\n      mload(0x40)\n      dup1\n      swap2\n      sub\n      swap1\n      revert\n    tag_191:\n        /* \"src/Contract_1.sol\":5066:5411  {... */\n      pop\n        /* \"src/Contract_1.sol\":4998:5411  function buyBack(address pool, uint256 amount) public onlyDeveloper {... */\n      pop\n      pop\n      jump\t// out\n        /* \"@openzeppelin/contracts/token/ERC20/ERC20.sol\":3846:3986  function allowance(address owner, address spender) public view virtual returns (uint256) {... */\n    tag_100:\n        /* \"@openzeppelin/contracts/token/ERC20/ERC20.sol\":3926:3933  uint256 */\n      0x00\n        /* \"@openzeppelin/contracts/token/ERC20/ERC20.sol\":3952:3963  _allowances */\n      0x01\n        /* \"@openzeppelin/contracts/token/ERC20/ERC20.sol\":3952:3970  _allowances[owner] */\n      0x00\n        /* \"@openzeppelin/contracts/token/ERC20/ERC20.sol\":3964:3969  owner */\n      dup5\n        /* \"@openzeppelin/contracts/token/ERC20/ERC20.sol\":3952:3970  _allowances[owner] */\n      0xffffffffffffffffffffffffffffffffffffffff\n      and\n      0xffffffffffffffffffffffffffffffffffffffff\n      and\n      dup2\n      mstore\n      0x20\n      add\n      swap1\n      dup2\n      mstore\n      0x20\n      add\n      0x00\n      keccak256\n        /* \"@openzeppelin/contracts/token/ERC20/ERC20.sol\":3952:3979  _allowances[owner][spender] */\n      0x00\n        /* \"@openzeppelin/contracts/token/ERC20/ERC20.sol\":3971:3978  spender */\n      dup4\n        /* \"@openzeppelin/contracts/token/ERC20/ERC20.sol\":3952:3979  _allowances[owner][spender] */\n      0xffffffffffffffffffffffffffffffffffffffff\n      and\n      0xffffffffffffffffffffffffffffffffffffffff\n      and\n      dup2\n      mstore\n      0x20\n      add\n      swap1\n      dup2\n      mstore\n      0x20\n      add\n      0x00\n      keccak256\n      sload\n        /* \"@openzeppelin/contracts/token/ERC20/ERC20.sol\":3945:3979  return _allowances[owner][spender] */\n      swap1\n      pop\n        /* \"@openzeppelin/contracts/token/ERC20/ERC20.sol\":3846:3986  function allowance(address owner, address spender) public view virtual returns (uint256) {... */\n      swap3\n      swap2\n      pop\n      pop\n      jump\t// out\n        /* \"src/Contract_1.sol\":1963:2721  function mintInvestor(uint256 amount) external canMint(amount) {... */\n    tag_105:\n        /* \"src/Contract_1.sol\":2018:2024  amount */\n      dup1\n        /* \"src/Contract_1.sol\":674:695  10_000_000 * (10**18) */\n      0x084595161401484a000000\n        /* \"src/Contract_1.sol\":1522:1528  amount */\n      dup2\n        /* \"src/Contract_1.sol\":1506:1519  totalSupply() */\n      tag_196\n        /* \"src/Contract_1.sol\":1506:1517  totalSupply */\n      tag_44\n        /* \"src/Contract_1.sol\":1506:1519  totalSupply() */\n      jump\t// in\n    tag_196:\n        /* \"src/Contract_1.sol\":1506:1528  totalSupply() + amount */\n      tag_197\n      swap2\n      swap1\n      tag_198\n      jump\t// in\n    tag_197:\n        /* \"src/Contract_1.sol\":1506:1544  totalSupply() + amount <= TOTAL_SUPPLY */\n      gt\n      iszero\n        /* \"src/Contract_1.sol\":1498:1569  require(totalSupply() + amount <= TOTAL_SUPPLY, \"Exceeds total supply\") */\n      tag_199\n      jumpi\n      mload(0x40)\n      0x08c379a000000000000000000000000000000000000000000000000000000000\n      dup2\n      mstore\n      0x04\n      add\n      tag_200\n      swap1\n      tag_201\n      jump\t// in\n    tag_200:\n      mload(0x40)\n      dup1\n      swap2\n      sub\n      swap1\n      revert\n    tag_199:\n        /* \"src/Contract_1.sol\":888:905  20_000 * (10**18) */\n      0x043c33c1937564800000\n        /* \"src/Contract_1.sol\":2057:2063  amount */\n      dup3\n        /* \"src/Contract_1.sol\":2057:2090  amount <= MINT_LIMIT_PER_INVESTOR */\n      gt\n      iszero\n        /* \"src/Contract_1.sol\":2036:2147  require(... */\n      tag_203\n      jumpi\n      mload(0x40)\n      0x08c379a000000000000000000000000000000000000000000000000000000000\n      dup2\n      mstore\n      0x04\n      add\n      tag_204\n      swap1\n      tag_205\n      jump\t// in\n    tag_204:\n      mload(0x40)\n      dup1\n      swap2\n      sub\n      swap1\n      revert\n    tag_203:\n        /* \"src/Contract_1.sol\":888:905  20_000 * (10**18) */\n      0x043c33c1937564800000\n        /* \"src/Contract_1.sol\":2205:2211  amount */\n      dup3\n        /* \"src/Contract_1.sol\":2178:2190  mintedTokens */\n      0x09\n        /* \"src/Contract_1.sol\":2178:2202  mintedTokens[msg.sender] */\n      0x00\n        /* \"src/Contract_1.sol\":2191:2201  msg.sender */\n      caller\n        /* \"src/Contract_1.sol\":2178:2202  mintedTokens[msg.sender] */\n      0xffffffffffffffffffffffffffffffffffffffff\n      and\n      0xffffffffffffffffffffffffffffffffffffffff\n      and\n      dup2\n      mstore\n      0x20\n      add\n      swap1\n      dup2\n      mstore\n      0x20\n      add\n      0x00\n      keccak256\n      sload\n        /* \"src/Contract_1.sol\":2178:2211  mintedTokens[msg.sender] + amount */\n      tag_206\n      swap2\n      swap1\n      tag_198\n      jump\t// in\n    tag_206:\n        /* \"src/Contract_1.sol\":2178:2238  mintedTokens[msg.sender] + amount <= MINT_LIMIT_PER_INVESTOR */\n      gt\n      iszero\n        /* \"src/Contract_1.sol\":2157:2299  require(... */\n      tag_207\n      jumpi\n      mload(0x40)\n      0x08c379a000000000000000000000000000000000000000000000000000000000\n      dup2\n      mstore\n      0x04\n      add\n      tag_208\n      swap1\n      tag_209\n      jump\t// in\n    tag_208:\n      mload(0x40)\n      dup1\n      swap2\n      sub\n      swap1\n      revert\n    tag_207:\n        /* \"src/Contract_1.sol\":2390:2396  amount */\n      dup2\n        /* \"src/Contract_1.sol\":2337:2348  USDTAddress */\n      0x08\n      0x00\n      swap1\n      sload\n      swap1\n      0x0100\n      exp\n      swap1\n      div\n      0xffffffffffffffffffffffffffffffffffffffff\n      and\n        /* \"src/Contract_1.sol\":2330:2359  IERC20(USDTAddress).allowance */\n      0xffffffffffffffffffffffffffffffffffffffff\n      and\n      0xdd62ed3e\n        /* \"src/Contract_1.sol\":2360:2370  msg.sender */\n      caller\n        /* \"src/Contract_1.sol\":2380:2384  this */\n      address\n        /* \"src/Contract_1.sol\":2330:2386  IERC20(USDTAddress).allowance(msg.sender, address(this)) */\n      mload(0x40)\n      dup4\n      0xffffffff\n      and\n      0xe0\n      shl\n      dup2\n      mstore\n      0x04\n      add\n      tag_210\n      swap3\n      swap2\n      swap1\n      tag_211\n      jump\t// in\n    tag_210:\n      0x20\n      mload(0x40)\n      dup1\n      dup4\n      sub\n      dup2\n      dup7\n      gas\n      staticcall\n      iszero\n      dup1\n      iszero\n      tag_213\n      jumpi\n      returndatasize\n      0x00\n      dup1\n      returndatacopy\n      revert(0x00, returndatasize)\n    tag_213:\n      pop\n      pop\n      pop\n      pop\n      mload(0x40)\n      returndatasize\n      not(0x1f)\n      0x1f\n      dup3\n      add\n      and\n      dup3\n      add\n      dup1\n      0x40\n      mstore\n      pop\n      dup2\n      add\n      swap1\n      tag_214\n      swap2\n      swap1\n      tag_141\n      jump\t// in\n    tag_214:\n        /* \"src/Contract_1.sol\":2330:2396  IERC20(USDTAddress).allowance(msg.sender, address(this)) >= amount */\n      lt\n      iszero\n        /* \"src/Contract_1.sol\":2309:2471  require(... */\n      tag_215\n      jumpi\n      mload(0x40)\n      0x08c379a000000000000000000000000000000000000000000000000000000000\n      dup2\n      mstore\n      0x04\n      add\n      tag_216\n      swap1\n      tag_217\n      jump\t// in\n    tag_216:\n      mload(0x40)\n      dup1\n      swap2\n      sub\n      swap1\n      revert\n    tag_215:\n        /* \"src/Contract_1.sol\":2482:2553  IERC20(USDTAddress).safeTransferFrom(msg.sender, address(this), amount) */\n      tag_218\n        /* \"src/Contract_1.sol\":2519:2529  msg.sender */\n      caller\n        /* \"src/Contract_1.sol\":2539:2543  this */\n      address\n        /* \"src/Contract_1.sol\":2546:2552  amount */\n      dup5\n        /* \"src/Contract_1.sol\":2489:2500  USDTAddress */\n      0x08\n      0x00\n      swap1\n      sload\n      swap1\n      0x0100\n      exp\n      swap1\n      div\n      0xffffffffffffffffffffffffffffffffffffffff\n      and\n        /* \"src/Contract_1.sol\":2482:2518  IERC20(USDTAddress).safeTransferFrom */\n      0xffffffffffffffffffffffffffffffffffffffff\n      and\n      tag_219\n      swap1\n        /* \"src/Contract_1.sol\":2482:2553  IERC20(USDTAddress).safeTransferFrom(msg.sender, address(this), amount) */\n      swap4\n      swap3\n      swap2\n      swap1\n      0xffffffff\n      and\n      jump\t// in\n    tag_218:\n        /* \"src/Contract_1.sol\":2564:2589  _mint(msg.sender, amount) */\n      tag_220\n        /* \"src/Contract_1.sol\":2570:2580  msg.sender */\n      caller\n        /* \"src/Contract_1.sol\":2582:2588  amount */\n      dup4\n        /* \"src/Contract_1.sol\":2564:2569  _mint */\n      tag_221\n        /* \"src/Contract_1.sol\":2564:2589  _mint(msg.sender, amount) */\n      jump\t// in\n    tag_220:\n        /* \"src/Contract_1.sol\":2627:2633  amount */\n      dup2\n        /* \"src/Contract_1.sol\":2599:2611  mintedTokens */\n      0x09\n        /* \"src/Contract_1.sol\":2599:2623  mintedTokens[msg.sender] */\n      0x00\n        /* \"src/Contract_1.sol\":2612:2622  msg.sender */\n      caller\n        /* \"src/Contract_1.sol\":2599:2623  mintedTokens[msg.sender] */\n      0xffffffffffffffffffffffffffffffffffffffff\n      and\n      0xffffffffffffffffffffffffffffffffffffffff\n      and\n      dup2\n      mstore\n      0x20\n      add\n      swap1\n      dup2\n      mstore\n      0x20\n      add\n      0x00\n      keccak256\n      0x00\n        /* \"src/Contract_1.sol\":2599:2633  mintedTokens[msg.sender] += amount */\n      dup3\n      dup3\n      sload\n      tag_222\n      swap2\n      swap1\n      tag_198\n      jump\t// in\n    tag_222:\n      swap3\n      pop\n      pop\n      dup2\n      swap1\n      sstore\n      pop\n        /* \"src/Contract_1.sol\":2660:2666  amount */\n      dup2\n        /* \"src/Contract_1.sol\":2643:2656  currentSupply */\n      0x07\n      0x00\n        /* \"src/Contract_1.sol\":2643:2666  currentSupply += amount */\n      dup3\n      dup3\n      sload\n      tag_223\n      swap2\n      swap1\n      tag_198\n      jump\t// in\n    tag_223:\n      swap3\n      pop\n      pop\n      dup2\n      swap1\n      sstore\n      pop\n        /* \"src/Contract_1.sol\":2695:2705  msg.sender */\n      caller\n        /* \"src/Contract_1.sol\":2682:2714  InvestorMint(msg.sender, amount) */\n      0xffffffffffffffffffffffffffffffffffffffff\n      and\n      0x8936d06b61ad023525017d83cb2cec9d7a688f71eb45e3ed02a9ba311c17b51b\n        /* \"src/Contract_1.sol\":2707:2713  amount */\n      dup4\n        /* \"src/Contract_1.sol\":2682:2714  InvestorMint(msg.sender, amount) */\n      mload(0x40)\n      tag_224\n      swap2\n      swap1\n      tag_32\n      jump\t// in\n    tag_224:\n      mload(0x40)\n      dup1\n      swap2\n      sub\n      swap1\n      log2\n        /* \"src/Contract_1.sol\":1963:2721  function mintInvestor(uint256 amount) external canMint(amount) {... */\n      pop\n      pop\n      jump\t// out\n        /* \"@openzeppelin/contracts/access/Ownable.sol\":2543:2758  function transferOwnership(address newOwner) public virtual onlyOwner {... */\n    tag_108:\n        /* \"@openzeppelin/contracts/access/Ownable.sol\":1531:1544  _checkOwner() */\n      tag_226\n        /* \"@openzeppelin/contracts/access/Ownable.sol\":1531:1542  _checkOwner */\n      tag_159\n        /* \"@openzeppelin/contracts/access/Ownable.sol\":1531:1544  _checkOwner() */\n      jump\t// in\n    tag_226:\n        /* \"@openzeppelin/contracts/access/Ownable.sol\":2647:2648  0 */\n      0x00\n        /* \"@openzeppelin/contracts/access/Ownable.sol\":2627:2649  newOwner == address(0) */\n      0xffffffffffffffffffffffffffffffffffffffff\n      and\n        /* \"@openzeppelin/contracts/access/Ownable.sol\":2627:2635  newOwner */\n      dup2\n        /* \"@openzeppelin/contracts/access/Ownable.sol\":2627:2649  newOwner == address(0) */\n      0xffffffffffffffffffffffffffffffffffffffff\n      and\n      sub\n        /* \"@openzeppelin/contracts/access/Ownable.sol\":2623:2714  if (newOwner == address(0)) {... */\n      tag_228\n      jumpi\n        /* \"@openzeppelin/contracts/access/Ownable.sol\":2700:2701  0 */\n      0x00\n        /* \"@openzeppelin/contracts/access/Ownable.sol\":2672:2703  OwnableInvalidOwner(address(0)) */\n      mload(0x40)\n      0x1e4fbdf700000000000000000000000000000000000000000000000000000000\n      dup2\n      mstore\n      0x04\n      add\n      tag_229\n      swap2\n      swap1\n      tag_49\n      jump\t// in\n    tag_229:\n      mload(0x40)\n      dup1\n      swap2\n      sub\n      swap1\n      revert\n        /* \"@openzeppelin/contracts/access/Ownable.sol\":2623:2714  if (newOwner == address(0)) {... */\n    tag_228:\n        /* \"@openzeppelin/contracts/access/Ownable.sol\":2723:2751  _transferOwnership(newOwner) */\n      tag_230\n        /* \"@openzeppelin/contracts/access/Ownable.sol\":2742:2750  newOwner */\n      dup2\n        /* \"@openzeppelin/contracts/access/Ownable.sol\":2723:2741  _transferOwnership */\n      tag_162\n        /* \"@openzeppelin/contracts/access/Ownable.sol\":2723:2751  _transferOwnership(newOwner) */\n      jump\t// in\n    tag_230:\n        /* \"@openzeppelin/contracts/access/Ownable.sol\":2543:2758  function transferOwnership(address newOwner) public virtual onlyOwner {... */\n      pop\n      jump\t// out\n        /* \"src/Contract_1.sol\":1090:1116  address public USDTAddress */\n    tag_110:\n      0x08\n      0x00\n      swap1\n      sload\n      swap1\n      0x0100\n      exp\n      swap1\n      div\n      0xffffffffffffffffffffffffffffffffffffffff\n      and\n      dup2\n      jump\t// out\n        /* \"@openzeppelin/contracts/utils/Context.sol\":656:752  function _msgSender() internal view virtual returns (address) {... */\n    tag_121:\n        /* \"@openzeppelin/contracts/utils/Context.sol\":709:716  address */\n      0x00\n        /* \"@openzeppelin/contracts/utils/Context.sol\":735:745  msg.sender */\n      caller\n        /* \"@openzeppelin/contracts/utils/Context.sol\":728:745  return msg.sender */\n      swap1\n      pop\n        /* \"@openzeppelin/contracts/utils/Context.sol\":656:752  function _msgSender() internal view virtual returns (address) {... */\n      swap1\n      jump\t// out\n        /* \"@openzeppelin/contracts/token/ERC20/ERC20.sol\":8989:9117  function _approve(address owner, address spender, uint256 value) internal {... */\n    tag_123:\n        /* \"@openzeppelin/contracts/token/ERC20/ERC20.sol\":9073:9110  _approve(owner, spender, value, true) */\n      tag_233\n        /* \"@openzeppelin/contracts/token/ERC20/ERC20.sol\":9082:9087  owner */\n      dup4\n        /* \"@openzeppelin/contracts/token/ERC20/ERC20.sol\":9089:9096  spender */\n      dup4\n        /* \"@openzeppelin/contracts/token/ERC20/ERC20.sol\":9098:9103  value */\n      dup4\n        /* \"@openzeppelin/contracts/token/ERC20/ERC20.sol\":9105:9109  true */\n      0x01\n        /* \"@openzeppelin/contracts/token/ERC20/ERC20.sol\":9073:9081  _approve */\n      tag_234\n        /* \"@openzeppelin/contracts/token/ERC20/ERC20.sol\":9073:9110  _approve(owner, spender, value, true) */\n      jump\t// in\n    tag_233:\n        /* \"@openzeppelin/contracts/token/ERC20/ERC20.sol\":8989:9117  function _approve(address owner, address spender, uint256 value) internal {... */\n      pop\n      pop\n      pop\n      jump\t// out\n        /* \"@openzeppelin/contracts/token/ERC20/ERC20.sol\":10663:11140  function _spendAllowance(address owner, address spender, uint256 value) internal virtual {... */\n    tag_128:\n        /* \"@openzeppelin/contracts/token/ERC20/ERC20.sol\":10762:10786  uint256 currentAllowance */\n      0x00\n        /* \"@openzeppelin/contracts/token/ERC20/ERC20.sol\":10789:10814  allowance(owner, spender) */\n      tag_236\n        /* \"@openzeppelin/contracts/token/ERC20/ERC20.sol\":10799:10804  owner */\n      dup5\n        /* \"@openzeppelin/contracts/token/ERC20/ERC20.sol\":10806:10813  spender */\n      dup5\n        /* \"@openzeppelin/contracts/token/ERC20/ERC20.sol\":10789:10798  allowance */\n      tag_100\n        /* \"@openzeppelin/contracts/token/ERC20/ERC20.sol\":10789:10814  allowance(owner, spender) */\n      jump\t// in\n    tag_236:\n        /* \"@openzeppelin/contracts/token/ERC20/ERC20.sol\":10762:10814  uint256 currentAllowance = allowance(owner, spender) */\n      swap1\n      pop\n        /* \"@openzeppelin/contracts/token/ERC20/ERC20.sol\":10848:10865  type(uint256).max */\n      0xffffffffffffffffffffffffffffffffffffffffffffffffffffffffffffffff\n        /* \"@openzeppelin/contracts/token/ERC20/ERC20.sol\":10828:10844  currentAllowance */\n      dup2\n        /* \"@openzeppelin/contracts/token/ERC20/ERC20.sol\":10828:10865  currentAllowance != type(uint256).max */\n      eq\n        /* \"@openzeppelin/contracts/token/ERC20/ERC20.sol\":10824:11134  if (currentAllowance != type(uint256).max) {... */\n      tag_237\n      jumpi\n        /* \"@openzeppelin/contracts/token/ERC20/ERC20.sol\":10904:10909  value */\n      dup2\n        /* \"@openzeppelin/contracts/token/ERC20/ERC20.sol\":10885:10901  currentAllowance */\n      dup2\n        /* \"@openzeppelin/contracts/token/ERC20/ERC20.sol\":10885:10909  currentAllowance < value */\n      lt\n        /* \"@openzeppelin/contracts/token/ERC20/ERC20.sol\":10881:11011  if (currentAllowance < value) {... */\n      iszero\n      tag_238\n      jumpi\n        /* \"@openzeppelin/contracts/token/ERC20/ERC20.sol\":10963:10970  spender */\n      dup3\n        /* \"@openzeppelin/contracts/token/ERC20/ERC20.sol\":10972:10988  currentAllowance */\n      dup2\n        /* \"@openzeppelin/contracts/token/ERC20/ERC20.sol\":10990:10995  value */\n      dup4\n        /* \"@openzeppelin/contracts/token/ERC20/ERC20.sol\":10936:10996  ERC20InsufficientAllowance(spender, currentAllowance, value) */\n      mload(0x40)\n      0xfb8f41b200000000000000000000000000000000000000000000000000000000\n      dup2\n      mstore\n      0x04\n      add\n      tag_239\n      swap4\n      swap3\n      swap2\n      swap1\n      tag_240\n      jump\t// in\n    tag_239:\n      mload(0x40)\n      dup1\n      swap2\n      sub\n      swap1\n      revert\n        /* \"@openzeppelin/contracts/token/ERC20/ERC20.sol\":10881:11011  if (currentAllowance < value) {... */\n    tag_238:\n        /* \"@openzeppelin/contracts/token/ERC20/ERC20.sol\":11052:11109  _approve(owner, spender, currentAllowance - value, false) */\n      tag_241\n        /* \"@openzeppelin/contracts/token/ERC20/ERC20.sol\":11061:11066  owner */\n      dup5\n        /* \"@openzeppelin/contracts/token/ERC20/ERC20.sol\":11068:11075  spender */\n      dup5\n        /* \"@openzeppelin/contracts/token/ERC20/ERC20.sol\":11096:11101  value */\n      dup5\n        /* \"@openzeppelin/contracts/token/ERC20/ERC20.sol\":11077:11093  currentAllowance */\n      dup5\n        /* \"@openzeppelin/contracts/token/ERC20/ERC20.sol\":11077:11101  currentAllowance - value */\n      sub\n        /* \"@openzeppelin/contracts/token/ERC20/ERC20.sol\":11103:11108  false */\n      0x00\n        /* \"@openzeppelin/contracts/token/ERC20/ERC20.sol\":11052:11060  _approve */\n      tag_234\n        /* \"@openzeppelin/contracts/token/ERC20/ERC20.sol\":11052:11109  _approve(owner, spender, currentAllowance - value, false) */\n      jump\t// in\n    tag_241:\n        /* \"@openzeppelin/contracts/token/ERC20/ERC20.sol\":10824:11134  if (currentAllowance != type(uint256).max) {... */\n    tag_237:\n        /* \"@openzeppelin/contracts/token/ERC20/ERC20.sol\":10752:11140  {... */\n      pop\n        /* \"@openzeppelin/contracts/token/ERC20/ERC20.sol\":10663:11140  function _spendAllowance(address owner, address spender, uint256 value) internal virtual {... */\n      pop\n      pop\n      pop\n      jump\t// out\n        /* \"@openzeppelin/contracts/token/ERC20/ERC20.sol\":5656:5956  function _transfer(address from, address to, uint256 value) internal {... */\n    tag_130:\n        /* \"@openzeppelin/contracts/token/ERC20/ERC20.sol\":5755:5756  0 */\n      0x00\n        /* \"@openzeppelin/contracts/token/ERC20/ERC20.sol\":5739:5757  from == address(0) */\n      0xffffffffffffffffffffffffffffffffffffffff\n      and\n        /* \"@openzeppelin/contracts/token/ERC20/ERC20.sol\":5739:5743  from */\n      dup4\n        /* \"@openzeppelin/contracts/token/ERC20/ERC20.sol\":5739:5757  from == address(0) */\n      0xffffffffffffffffffffffffffffffffffffffff\n      and\n      sub\n        /* \"@openzeppelin/contracts/token/ERC20/ERC20.sol\":5735:5821  if (from == address(0)) {... */\n      tag_243\n      jumpi\n        /* \"@openzeppelin/contracts/token/ERC20/ERC20.sol\":5807:5808  0 */\n      0x00\n        /* \"@openzeppelin/contracts/token/ERC20/ERC20.sol\":5780:5810  ERC20InvalidSender(address(0)) */\n      mload(0x40)\n      0x96c6fd1e00000000000000000000000000000000000000000000000000000000\n      dup2\n      mstore\n      0x04\n      add\n      tag_244\n      swap2\n      swap1\n      tag_49\n      jump\t// in\n    tag_244:\n      mload(0x40)\n      dup1\n      swap2\n      sub\n      swap1\n      revert\n        /* \"@openzeppelin/contracts/token/ERC20/ERC20.sol\":5735:5821  if (from == address(0)) {... */\n    tag_243:\n        /* \"@openzeppelin/contracts/token/ERC20/ERC20.sol\":5848:5849  0 */\n      0x00\n        /* \"@openzeppelin/contracts/token/ERC20/ERC20.sol\":5834:5850  to == address(0) */\n      0xffffffffffffffffffffffffffffffffffffffff\n      and\n        /* \"@openzeppelin/contracts/token/ERC20/ERC20.sol\":5834:5836  to */\n      dup3\n        /* \"@openzeppelin/contracts/token/ERC20/ERC20.sol\":5834:5850  to == address(0) */\n      0xffffffffffffffffffffffffffffffffffffffff\n      and\n      sub\n        /* \"@openzeppelin/contracts/token/ERC20/ERC20.sol\":5830:5916  if (to == address(0)) {... */\n      tag_245\n      jumpi\n        /* \"@openzeppelin/contracts/token/ERC20/ERC20.sol\":5902:5903  0 */\n      0x00\n        /* \"@openzeppelin/contracts/token/ERC20/ERC20.sol\":5873:5905  ERC20InvalidReceiver(address(0)) */\n      mload(0x40)\n      0xec442f0500000000000000000000000000000000000000000000000000000000\n      dup2\n      mstore\n      0x04\n      add\n      tag_246\n      swap2\n      swap1\n      tag_49\n      jump\t// in\n    tag_246:\n      mload(0x40)\n      dup1\n      swap2\n      sub\n      swap1\n      revert\n        /* \"@openzeppelin/contracts/token/ERC20/ERC20.sol\":5830:5916  if (to == address(0)) {... */\n    tag_245:\n        /* \"@openzeppelin/contracts/token/ERC20/ERC20.sol\":5925:5949  _update(from, to, value) */\n      tag_247\n        /* \"@openzeppelin/contracts/token/ERC20/ERC20.sol\":5933:5937  from */\n      dup4\n        /* \"@openzeppelin/contracts/token/ERC20/ERC20.sol\":5939:5941  to */\n      dup4\n        /* \"@openzeppelin/contracts/token/ERC20/ERC20.sol\":5943:5948  value */\n      dup4\n        /* \"@openzeppelin/contracts/token/ERC20/ERC20.sol\":5925:5932  _update */\n      tag_248\n        /* \"@openzeppelin/contracts/token/ERC20/ERC20.sol\":5925:5949  _update(from, to, value) */\n      jump\t// in\n    tag_247:\n        /* \"@openzeppelin/contracts/token/ERC20/ERC20.sol\":5656:5956  function _transfer(address from, address to, uint256 value) internal {... */\n      pop\n      pop\n      pop\n      jump\t// out\n        /* \"src/Contract_1.sol\":3506:4827  function poolInit(... */\n    tag_149:\n        /* \"src/Contract_1.sol\":3648:3660  bool success */\n      0x00\n        /* \"src/Contract_1.sol\":3662:3686  bytes memory poolAddress */\n      dup1\n        /* \"src/Contract_1.sol\":3690:3702  factory_addr */\n      dup6\n        /* \"src/Contract_1.sol\":3690:3707  factory_addr.call */\n      0xffffffffffffffffffffffffffffffffffffffff\n      and\n        /* \"src/Contract_1.sol\":3816:3822  token0 */\n      dup6\n        /* \"src/Contract_1.sol\":3840:3846  token1 */\n      dup6\n        /* \"src/Contract_1.sol\":3864:3867  fee */\n      dup6\n        /* \"src/Contract_1.sol\":3721:3881  abi.encodeWithSignature(... */\n      add(0x24, mload(0x40))\n      tag_250\n      swap4\n      swap3\n      swap2\n      swap1\n      tag_251\n      jump\t// in\n    tag_250:\n      mload(0x40)\n      0x20\n      dup2\n      dup4\n      sub\n      sub\n      dup2\n      mstore\n      swap1\n      0x40\n      mstore\n      and(not(0xffffffffffffffffffffffffffffffffffffffffffffffffffffffff), 0xa167129500000000000000000000000000000000000000000000000000000000)\n      0x20\n      dup3\n      add\n      dup1\n      mload\n      0xffffffffffffffffffffffffffffffffffffffffffffffffffffffff\n      dup4\n      dup2\n      dup4\n      and\n      or\n      dup4\n      mstore\n      pop\n      pop\n      pop\n      pop\n        /* \"src/Contract_1.sol\":3690:3891  factory_addr.call(... */\n      mload(0x40)\n      tag_252\n      swap2\n      swap1\n      tag_187\n      jump\t// in\n    tag_252:\n      0x00\n      mload(0x40)\n      dup1\n      dup4\n      sub\n      dup2\n      0x00\n      dup7\n      gas\n      call\n      swap2\n      pop\n      pop\n      returndatasize\n      dup1\n      0x00\n      dup2\n      eq\n      tag_255\n      jumpi\n      mload(0x40)\n      swap2\n      pop\n      and(add(returndatasize, 0x3f), not(0x1f))\n      dup3\n      add\n      0x40\n      mstore\n      returndatasize\n      dup3\n      mstore\n      returndatasize\n      0x00\n      0x20\n      dup5\n      add\n      returndatacopy\n      jump(tag_254)\n    tag_255:\n      0x60\n      swap2\n      pop\n    tag_254:\n      pop\n        /* \"src/Contract_1.sol\":3647:3891  (bool success, bytes memory poolAddress) = factory_addr.call(... */\n      swap2\n      pop\n      swap2\n      pop\n        /* \"src/Contract_1.sol\":3909:3916  success */\n      dup2\n        /* \"src/Contract_1.sol\":3901:3943  require(success, \"Failed to find Factory\") */\n      tag_256\n      jumpi\n      mload(0x40)\n      0x08c379a000000000000000000000000000000000000000000000000000000000\n      dup2\n      mstore\n      0x04\n      add\n      tag_257\n      swap1\n      tag_258\n      jump\t// in\n    tag_257:\n      mload(0x40)\n      dup1\n      swap2\n      sub\n      swap1\n      revert\n    tag_256:\n        /* \"src/Contract_1.sol\":3953:3973  address poolAddress_ */\n      0x00\n        /* \"src/Contract_1.sol\":3976:4003  bytesToAddress(poolAddress) */\n      tag_259\n        /* \"src/Contract_1.sol\":3991:4002  poolAddress */\n      dup3\n        /* \"src/Contract_1.sol\":3976:3990  bytesToAddress */\n      tag_260\n        /* \"src/Contract_1.sol\":3976:4003  bytesToAddress(poolAddress) */\n      jump\t// in\n    tag_259:\n        /* \"src/Contract_1.sol\":3953:4003  address poolAddress_ = bytesToAddress(poolAddress) */\n      swap1\n      pop\n        /* \"src/Contract_1.sol\":4035:4047  poolAddress_ */\n      dup1\n        /* \"src/Contract_1.sol\":4027:4053  address(poolAddress_).call */\n      0xffffffffffffffffffffffffffffffffffffffff\n      and\n        /* \"src/Contract_1.sol\":4114:4120  500000 */\n      0x07a120\n        /* \"src/Contract_1.sol\":4067:4121  abi.encodeWithSignature(\"initailize(uint160)\", 500000) */\n      add(0x24, mload(0x40))\n      tag_261\n      swap2\n      swap1\n      tag_262\n      jump\t// in\n    tag_261:\n      mload(0x40)\n      0x20\n      dup2\n      dup4\n      sub\n      sub\n      dup2\n      mstore\n      swap1\n      0x40\n      mstore\n      and(not(0xffffffffffffffffffffffffffffffffffffffffffffffffffffffff), 0x9a26bd8100000000000000000000000000000000000000000000000000000000)\n      0x20\n      dup3\n      add\n      dup1\n      mload\n      0xffffffffffffffffffffffffffffffffffffffffffffffffffffffff\n      dup4\n      dup2\n      dup4\n      and\n      or\n      dup4\n      mstore\n      pop\n      pop\n      pop\n      pop\n        /* \"src/Contract_1.sol\":4027:4131  address(poolAddress_).call(... */\n      mload(0x40)\n      tag_263\n      swap2\n      swap1\n      tag_187\n      jump\t// in\n    tag_263:\n      0x00\n      mload(0x40)\n      dup1\n      dup4\n      sub\n      dup2\n      0x00\n      dup7\n      gas\n      call\n      swap2\n      pop\n      pop\n      returndatasize\n      dup1\n      0x00\n      dup2\n      eq\n      tag_266\n      jumpi\n      mload(0x40)\n      swap2\n      pop\n      and(add(returndatasize, 0x3f), not(0x1f))\n      dup3\n      add\n      0x40\n      mstore\n      returndatasize\n      dup3\n      mstore\n      returndatasize\n      0x00\n      0x20\n      dup5\n      add\n      returndatacopy\n      jump(tag_265)\n    tag_266:\n      0x60\n      swap2\n      pop\n    tag_265:\n      pop\n        /* \"src/Contract_1.sol\":4013:4131  (success, ) = address(poolAddress_).call(... */\n      pop\n      dup1\n      swap4\n      pop\n      pop\n        /* \"src/Contract_1.sol\":4149:4156  success */\n      dup3\n        /* \"src/Contract_1.sol\":4141:4186  require(success, \"Failed to Pool initialize\") */\n      tag_267\n      jumpi\n      mload(0x40)\n      0x08c379a000000000000000000000000000000000000000000000000000000000\n      dup2\n      mstore\n      0x04\n      add\n      tag_268\n      swap1\n      tag_269\n      jump\t// in\n    tag_268:\n      mload(0x40)\n      dup1\n      swap2\n      sub\n      swap1\n      revert\n    tag_267:\n        /* \"src/Contract_1.sol\":4197:4221  MintParams memory params */\n      tag_270\n      tag_271\n      jump\t// in\n    tag_270:\n        /* \"src/Contract_1.sol\":4247:4253  token0 */\n      dup7\n        /* \"src/Contract_1.sol\":4231:4237  params */\n      dup2\n        /* \"src/Contract_1.sol\":4231:4244  params.token0 */\n      0x00\n      add\n        /* \"src/Contract_1.sol\":4231:4253  params.token0 = token0 */\n      swap1\n      0xffffffffffffffffffffffffffffffffffffffff\n      and\n      swap1\n      dup2\n      0xffffffffffffffffffffffffffffffffffffffff\n      and\n      dup2\n      mstore\n      pop\n      pop\n        /* \"src/Contract_1.sol\":4279:4285  token1 */\n      dup6\n        /* \"src/Contract_1.sol\":4263:4269  params */\n      dup2\n        /* \"src/Contract_1.sol\":4263:4276  params.token1 */\n      0x20\n      add\n        /* \"src/Contract_1.sol\":4263:4285  params.token1 = token1 */\n      swap1\n      0xffffffffffffffffffffffffffffffffffffffff\n      and\n      swap1\n      dup2\n      0xffffffffffffffffffffffffffffffffffffffff\n      and\n      dup2\n      mstore\n      pop\n      pop\n        /* \"src/Contract_1.sol\":4308:4311  fee */\n      dup5\n        /* \"src/Contract_1.sol\":4295:4301  params */\n      dup2\n        /* \"src/Contract_1.sol\":4295:4305  params.fee */\n      0x40\n      add\n        /* \"src/Contract_1.sol\":4295:4311  params.fee = fee */\n      swap1\n      0xffffff\n      and\n      swap1\n      dup2\n      0xffffff\n      and\n      dup2\n      mstore\n      pop\n      pop\n        /* \"src/Contract_1.sol\":4340:4347  -887220 */\n      0xfffffffffffffffffffffffffffffffffffffffffffffffffffffffffff2764c\n        /* \"src/Contract_1.sol\":4321:4327  params */\n      dup2\n        /* \"src/Contract_1.sol\":4321:4337  params.lowerTick */\n      0x60\n      add\n        /* \"src/Contract_1.sol\":4321:4347  params.lowerTick = -887220 */\n      swap1\n      0x02\n      signextend\n      swap1\n      dup2\n      0x02\n      signextend\n      dup2\n      mstore\n      pop\n      pop\n        /* \"src/Contract_1.sol\":4376:4382  887220 */\n      0x0d89b4\n        /* \"src/Contract_1.sol\":4357:4363  params */\n      dup2\n        /* \"src/Contract_1.sol\":4357:4373  params.upperTick */\n      0x80\n      add\n        /* \"src/Contract_1.sol\":4357:4382  params.upperTick = 887220 */\n      swap1\n      0x02\n      signextend\n      swap1\n      dup2\n      0x02\n      signextend\n      dup2\n      mstore\n      pop\n      pop\n        /* \"src/Contract_1.sol\":4416:4433  500000 * (10**18) */\n      0x69e10de76676d0800000\n        /* \"src/Contract_1.sol\":4392:4398  params */\n      dup2\n        /* \"src/Contract_1.sol\":4392:4413  params.amount0Desired */\n      0xa0\n      add\n        /* \"src/Contract_1.sol\":4392:4433  params.amount0Desired = 500000 * (10**18) */\n      dup2\n      dup2\n      mstore\n      pop\n      pop\n        /* \"src/Contract_1.sol\":4467:4484  500000 * (10**18) */\n      0x69e10de76676d0800000\n        /* \"src/Contract_1.sol\":4443:4449  params */\n      dup2\n        /* \"src/Contract_1.sol\":4443:4464  params.amount1Desired */\n      0xc0\n      add\n        /* \"src/Contract_1.sol\":4443:4484  params.amount1Desired = 500000 * (10**18) */\n      dup2\n      dup2\n      mstore\n      pop\n      pop\n        /* \"src/Contract_1.sol\":4514:4515  0 */\n      0x00\n        /* \"src/Contract_1.sol\":4494:4500  params */\n      dup2\n        /* \"src/Contract_1.sol\":4494:4511  params.amount0Min */\n      0xe0\n      add\n        /* \"src/Contract_1.sol\":4494:4515  params.amount0Min = 0 */\n      dup2\n      dup2\n      mstore\n      pop\n      pop\n        /* \"src/Contract_1.sol\":4545:4546  0 */\n      0x00\n        /* \"src/Contract_1.sol\":4525:4531  params */\n      dup2\n        /* \"src/Contract_1.sol\":4525:4542  params.amount1Min */\n      0x0100\n      add\n        /* \"src/Contract_1.sol\":4525:4546  params.amount1Min = 0 */\n      dup2\n      dup2\n      mstore\n      pop\n      pop\n        /* \"src/Contract_1.sol\":4579:4591  poolAddress_ */\n      dup2\n        /* \"src/Contract_1.sol\":4571:4597  address(poolAddress_).call */\n      0xffffffffffffffffffffffffffffffffffffffff\n      and\n        /* \"src/Contract_1.sol\":4746:4752  params */\n      dup2\n        /* \"src/Contract_1.sol\":4611:4766  abi.encodeWithSignature(... */\n      add(0x24, mload(0x40))\n      tag_272\n      swap2\n      swap1\n      tag_273\n      jump\t// in\n    tag_272:\n      mload(0x40)\n      0x20\n      dup2\n      dup4\n      sub\n      sub\n      dup2\n      mstore\n      swap1\n      0x40\n      mstore\n      and(not(0xffffffffffffffffffffffffffffffffffffffffffffffffffffffff), 0xaa88a96c00000000000000000000000000000000000000000000000000000000)\n      0x20\n      dup3\n      add\n      dup1\n      mload\n      0xffffffffffffffffffffffffffffffffffffffffffffffffffffffff\n      dup4\n      dup2\n      dup4\n      and\n      or\n      dup4\n      mstore\n      pop\n      pop\n      pop\n      pop\n        /* \"src/Contract_1.sol\":4571:4776  address(poolAddress_).call(... */\n      mload(0x40)\n      tag_274\n      swap2\n      swap1\n      tag_187\n      jump\t// in\n    tag_274:\n      0x00\n      mload(0x40)\n      dup1\n      dup4\n      sub\n      dup2\n      0x00\n      dup7\n      gas\n      call\n      swap2\n      pop\n      pop\n      returndatasize\n      dup1\n      0x00\n      dup2\n      eq\n      tag_277\n      jumpi\n      mload(0x40)\n      swap2\n      pop\n      and(add(returndatasize, 0x3f), not(0x1f))\n      dup3\n      add\n      0x40\n      mstore\n      returndatasize\n      dup3\n      mstore\n      returndatasize\n      0x00\n      0x20\n      dup5\n      add\n      returndatacopy\n      jump(tag_276)\n    tag_277:\n      0x60\n      swap2\n      pop\n    tag_276:\n      pop\n        /* \"src/Contract_1.sol\":4557:4776  (success, ) = address(poolAddress_).call(... */\n      pop\n      dup1\n      swap5\n      pop\n      pop\n        /* \"src/Contract_1.sol\":4794:4801  success */\n      dup4\n        /* \"src/Contract_1.sol\":4786:4820  require(success, \"Failed to Mint\") */\n      tag_278\n      jumpi\n      mload(0x40)\n      0x08c379a000000000000000000000000000000000000000000000000000000000\n      dup2\n      mstore\n      0x04\n      add\n      tag_279\n      swap1\n      tag_193\n      jump\t// in\n    tag_279:\n      mload(0x40)\n      dup1\n      swap2\n      sub\n      swap1\n      revert\n    tag_278:\n        /* \"src/Contract_1.sol\":3637:4827  {... */\n      pop\n      pop\n      pop\n      pop\n        /* \"src/Contract_1.sol\":3506:4827  function poolInit(... */\n      pop\n      pop\n      pop\n      pop\n      jump\t// out\n        /* \"@openzeppelin/contracts/access/Ownable.sol\":1796:1958  function _checkOwner() internal view virtual {... */\n    tag_159:\n        /* \"@openzeppelin/contracts/access/Ownable.sol\":1866:1878  _msgSender() */\n      tag_281\n        /* \"@openzeppelin/contracts/access/Ownable.sol\":1866:1876  _msgSender */\n      tag_121\n        /* \"@openzeppelin/contracts/access/Ownable.sol\":1866:1878  _msgSender() */\n      jump\t// in\n    tag_281:\n        /* \"@openzeppelin/contracts/access/Ownable.sol\":1855:1878  owner() != _msgSender() */\n      0xffffffffffffffffffffffffffffffffffffffff\n      and\n        /* \"@openzeppelin/contracts/access/Ownable.sol\":1855:1862  owner() */\n      tag_282\n        /* \"@openzeppelin/contracts/access/Ownable.sol\":1855:1860  owner */\n      tag_82\n        /* \"@openzeppelin/contracts/access/Ownable.sol\":1855:1862  owner() */\n      jump\t// in\n    tag_282:\n        /* \"@openzeppelin/contracts/access/Ownable.sol\":1855:1878  owner() != _msgSender() */\n      0xffffffffffffffffffffffffffffffffffffffff\n      and\n      eq\n        /* \"@openzeppelin/contracts/access/Ownable.sol\":1851:1952  if (owner() != _msgSender()) {... */\n      tag_283\n      jumpi\n        /* \"@openzeppelin/contracts/access/Ownable.sol\":1928:1940  _msgSender() */\n      tag_284\n        /* \"@openzeppelin/contracts/access/Ownable.sol\":1928:1938  _msgSender */\n      tag_121\n        /* \"@openzeppelin/contracts/access/Ownable.sol\":1928:1940  _msgSender() */\n      jump\t// in\n    tag_284:\n        /* \"@openzeppelin/contracts/access/Ownable.sol\":1901:1941  OwnableUnauthorizedAccount(_msgSender()) */\n      mload(0x40)\n      0x118cdaa700000000000000000000000000000000000000000000000000000000\n      dup2\n      mstore\n      0x04\n      add\n      tag_285\n      swap2\n      swap1\n      tag_49\n      jump\t// in\n    tag_285:\n      mload(0x40)\n      dup1\n      swap2\n      sub\n      swap1\n      revert\n        /* \"@openzeppelin/contracts/access/Ownable.sol\":1851:1952  if (owner() != _msgSender()) {... */\n    tag_283:\n        /* \"@openzeppelin/contracts/access/Ownable.sol\":1796:1958  function _checkOwner() internal view virtual {... */\n      jump\t// out\n        /* \"@openzeppelin/contracts/access/Ownable.sol\":2912:3099  function _transferOwnership(address newOwner) internal virtual {... */\n    tag_162:\n        /* \"@openzeppelin/contracts/access/Ownable.sol\":2985:3001  address oldOwner */\n      0x00\n        /* \"@openzeppelin/contracts/access/Ownable.sol\":3004:3010  _owner */\n      0x05\n      0x00\n      swap1\n      sload\n      swap1\n      0x0100\n      exp\n      swap1\n      div\n      0xffffffffffffffffffffffffffffffffffffffff\n      and\n        /* \"@openzeppelin/contracts/access/Ownable.sol\":2985:3010  address oldOwner = _owner */\n      swap1\n      pop\n        /* \"@openzeppelin/contracts/access/Ownable.sol\":3029:3037  newOwner */\n      dup2\n        /* \"@openzeppelin/contracts/access/Ownable.sol\":3020:3026  _owner */\n      0x05\n      0x00\n        /* \"@openzeppelin/contracts/access/Ownable.sol\":3020:3037  _owner = newOwner */\n      0x0100\n      exp\n      dup2\n      sload\n      dup2\n      0xffffffffffffffffffffffffffffffffffffffff\n      mul\n      not\n      and\n      swap1\n      dup4\n      0xffffffffffffffffffffffffffffffffffffffff\n      and\n      mul\n      or\n      swap1\n      sstore\n      pop\n        /* \"@openzeppelin/contracts/access/Ownable.sol\":3083:3091  newOwner */\n      dup2\n        /* \"@openzeppelin/contracts/access/Ownable.sol\":3052:3092  OwnershipTransferred(oldOwner, newOwner) */\n      0xffffffffffffffffffffffffffffffffffffffff\n      and\n        /* \"@openzeppelin/contracts/access/Ownable.sol\":3073:3081  oldOwner */\n      dup2\n        /* \"@openzeppelin/contracts/access/Ownable.sol\":3052:3092  OwnershipTransferred(oldOwner, newOwner) */\n      0xffffffffffffffffffffffffffffffffffffffff\n      and\n      0x8be0079c531659141344cd1fd0a4f28419497f9722a3daafe3b4186f6b6457e0\n      mload(0x40)\n      mload(0x40)\n      dup1\n      swap2\n      sub\n      swap1\n      log3\n        /* \"@openzeppelin/contracts/access/Ownable.sol\":2975:3099  {... */\n      pop\n        /* \"@openzeppelin/contracts/access/Ownable.sol\":2912:3099  function _transferOwnership(address newOwner) internal virtual {... */\n      pop\n      jump\t// out\n        /* \"@openzeppelin/contracts/token/ERC20/utils/SafeERC20.sol\":1702:1890  function safeTransferFrom(IERC20 token, address from, address to, uint256 value) internal {... */\n    tag_219:\n        /* \"@openzeppelin/contracts/token/ERC20/utils/SafeERC20.sol\":1802:1883  _callOptionalReturn(token, abi.encodeCall(token.transferFrom, (from, to, value))) */\n      tag_288\n        /* \"@openzeppelin/contracts/token/ERC20/utils/SafeERC20.sol\":1822:1827  token */\n      dup5\n        /* \"@openzeppelin/contracts/token/ERC20/utils/SafeERC20.sol\":1844:1849  token */\n      dup6\n        /* \"@openzeppelin/contracts/token/ERC20/utils/SafeERC20.sol\":1844:1862  token.transferFrom */\n      0xffffffffffffffffffffffffffffffffffffffff\n      and\n      0x23b872dd\n        /* \"@openzeppelin/contracts/token/ERC20/utils/SafeERC20.sol\":1865:1869  from */\n      dup7\n        /* \"@openzeppelin/contracts/token/ERC20/utils/SafeERC20.sol\":1871:1873  to */\n      dup7\n        /* \"@openzeppelin/contracts/token/ERC20/utils/SafeERC20.sol\":1875:1880  value */\n      dup7\n        /* \"@openzeppelin/contracts/token/ERC20/utils/SafeERC20.sol\":1829:1882  abi.encodeCall(token.transferFrom, (from, to, value)) */\n      add(0x24, mload(0x40))\n      tag_289\n      swap4\n      swap3\n      swap2\n      swap1\n      tag_290\n      jump\t// in\n    tag_289:\n      mload(0x40)\n      0x20\n      dup2\n      dup4\n      sub\n      sub\n      dup2\n      mstore\n      swap1\n      0x40\n      mstore\n      swap2\n      pop\n      0xe0\n      shl\n      0x20\n      dup3\n      add\n      dup1\n      mload\n      0xffffffffffffffffffffffffffffffffffffffffffffffffffffffff\n      dup4\n      dup2\n      dup4\n      and\n      or\n      dup4\n      mstore\n      pop\n      pop\n      pop\n      pop\n        /* \"@openzeppelin/contracts/token/ERC20/utils/SafeERC20.sol\":1802:1821  _callOptionalReturn */\n      tag_291\n        /* \"@openzeppelin/contracts/token/ERC20/utils/SafeERC20.sol\":1802:1883  _callOptionalReturn(token, abi.encodeCall(token.transferFrom, (from, to, value))) */\n      jump\t// in\n    tag_288:\n        /* \"@openzeppelin/contracts/token/ERC20/utils/SafeERC20.sol\":1702:1890  function safeTransferFrom(IERC20 token, address from, address to, uint256 value) internal {... */\n      pop\n      pop\n      pop\n      pop\n      jump\t// out\n        /* \"@openzeppelin/contracts/token/ERC20/ERC20.sol\":7721:7929  function _mint(address account, uint256 value) internal {... */\n    tag_221:\n        /* \"@openzeppelin/contracts/token/ERC20/ERC20.sol\":7810:7811  0 */\n      0x00\n        /* \"@openzeppelin/contracts/token/ERC20/ERC20.sol\":7791:7812  account == address(0) */\n      0xffffffffffffffffffffffffffffffffffffffff\n      and\n        /* \"@openzeppelin/contracts/token/ERC20/ERC20.sol\":7791:7798  account */\n      dup3\n        /* \"@openzeppelin/contracts/token/ERC20/ERC20.sol\":7791:7812  account == address(0) */\n      0xffffffffffffffffffffffffffffffffffffffff\n      and\n      sub\n        /* \"@openzeppelin/contracts/token/ERC20/ERC20.sol\":7787:7878  if (account == address(0)) {... */\n      tag_293\n      jumpi\n        /* \"@openzeppelin/contracts/token/ERC20/ERC20.sol\":7864:7865  0 */\n      0x00\n        /* \"@openzeppelin/contracts/token/ERC20/ERC20.sol\":7835:7867  ERC20InvalidReceiver(address(0)) */\n      mload(0x40)\n      0xec442f0500000000000000000000000000000000000000000000000000000000\n      dup2\n      mstore\n      0x04\n      add\n      tag_294\n      swap2\n      swap1\n      tag_49\n      jump\t// in\n    tag_294:\n      mload(0x40)\n      dup1\n      swap2\n      sub\n      swap1\n      revert\n        /* \"@openzeppelin/contracts/token/ERC20/ERC20.sol\":7787:7878  if (account == address(0)) {... */\n    tag_293:\n        /* \"@openzeppelin/contracts/token/ERC20/ERC20.sol\":7887:7922  _update(address(0), account, value) */\n      tag_295\n        /* \"@openzeppelin/contracts/token/ERC20/ERC20.sol\":7903:7904  0 */\n      0x00\n        /* \"@openzeppelin/contracts/token/ERC20/ERC20.sol\":7907:7914  account */\n      dup4\n        /* \"@openzeppelin/contracts/token/ERC20/ERC20.sol\":7916:7921  value */\n      dup4\n        /* \"@openzeppelin/contracts/token/ERC20/ERC20.sol\":7887:7894  _update */\n      tag_248\n        /* \"@openzeppelin/contracts/token/ERC20/ERC20.sol\":7887:7922  _update(address(0), account, value) */\n      jump\t// in\n    tag_295:\n        /* \"@openzeppelin/contracts/token/ERC20/ERC20.sol\":7721:7929  function _mint(address account, uint256 value) internal {... */\n      pop\n      pop\n      jump\t// out\n        /* \"@openzeppelin/contracts/token/ERC20/ERC20.sol\":9949:10381  function _approve(address owner, address spender, uint256 value, bool emitEvent) internal virtual {... */\n    tag_234:\n        /* \"@openzeppelin/contracts/token/ERC20/ERC20.sol\":10078:10079  0 */\n      0x00\n        /* \"@openzeppelin/contracts/token/ERC20/ERC20.sol\":10061:10080  owner == address(0) */\n      0xffffffffffffffffffffffffffffffffffffffff\n      and\n        /* \"@openzeppelin/contracts/token/ERC20/ERC20.sol\":10061:10066  owner */\n      dup5\n        /* \"@openzeppelin/contracts/token/ERC20/ERC20.sol\":10061:10080  owner == address(0) */\n      0xffffffffffffffffffffffffffffffffffffffff\n      and\n      sub\n        /* \"@openzeppelin/contracts/token/ERC20/ERC20.sol\":10057:10146  if (owner == address(0)) {... */\n      tag_297\n      jumpi\n        /* \"@openzeppelin/contracts/token/ERC20/ERC20.sol\":10132:10133  0 */\n      0x00\n        /* \"@openzeppelin/contracts/token/ERC20/ERC20.sol\":10103:10135  ERC20InvalidApprover(address(0)) */\n      mload(0x40)\n      0xe602df0500000000000000000000000000000000000000000000000000000000\n      dup2\n      mstore\n      0x04\n      add\n      tag_298\n      swap2\n      swap1\n      tag_49\n      jump\t// in\n    tag_298:\n      mload(0x40)\n      dup1\n      swap2\n      sub\n      swap1\n      revert\n        /* \"@openzeppelin/contracts/token/ERC20/ERC20.sol\":10057:10146  if (owner == address(0)) {... */\n    tag_297:\n        /* \"@openzeppelin/contracts/token/ERC20/ERC20.sol\":10178:10179  0 */\n      0x00\n        /* \"@openzeppelin/contracts/token/ERC20/ERC20.sol\":10159:10180  spender == address(0) */\n      0xffffffffffffffffffffffffffffffffffffffff\n      and\n        /* \"@openzeppelin/contracts/token/ERC20/ERC20.sol\":10159:10166  spender */\n      dup4\n        /* \"@openzeppelin/contracts/token/ERC20/ERC20.sol\":10159:10180  spender == address(0) */\n      0xffffffffffffffffffffffffffffffffffffffff\n      and\n      sub\n        /* \"@openzeppelin/contracts/token/ERC20/ERC20.sol\":10155:10245  if (spender == address(0)) {... */\n      tag_299\n      jumpi\n        /* \"@openzeppelin/contracts/token/ERC20/ERC20.sol\":10231:10232  0 */\n      0x00\n        /* \"@openzeppelin/contracts/token/ERC20/ERC20.sol\":10203:10234  ERC20InvalidSpender(address(0)) */\n      mload(0x40)\n      0x94280d6200000000000000000000000000000000000000000000000000000000\n      dup2\n      mstore\n      0x04\n      add\n      tag_300\n      swap2\n      swap1\n      tag_49\n      jump\t// in\n    tag_300:\n      mload(0x40)\n      dup1\n      swap2\n      sub\n      swap1\n      revert\n        /* \"@openzeppelin/contracts/token/ERC20/ERC20.sol\":10155:10245  if (spender == address(0)) {... */\n    tag_299:\n        /* \"@openzeppelin/contracts/token/ERC20/ERC20.sol\":10284:10289  value */\n      dup2\n        /* \"@openzeppelin/contracts/token/ERC20/ERC20.sol\":10254:10265  _allowances */\n      0x01\n        /* \"@openzeppelin/contracts/token/ERC20/ERC20.sol\":10254:10272  _allowances[owner] */\n      0x00\n        /* \"@openzeppelin/contracts/token/ERC20/ERC20.sol\":10266:10271  owner */\n      dup7\n        /* \"@openzeppelin/contracts/token/ERC20/ERC20.sol\":10254:10272  _allowances[owner] */\n      0xffffffffffffffffffffffffffffffffffffffff\n      and\n      0xffffffffffffffffffffffffffffffffffffffff\n      and\n      dup2\n      mstore\n      0x20\n      add\n      swap1\n      dup2\n      mstore\n      0x20\n      add\n      0x00\n      keccak256\n        /* \"@openzeppelin/contracts/token/ERC20/ERC20.sol\":10254:10281  _allowances[owner][spender] */\n      0x00\n        /* \"@openzeppelin/contracts/token/ERC20/ERC20.sol\":10273:10280  spender */\n      dup6\n        /* \"@openzeppelin/contracts/token/ERC20/ERC20.sol\":10254:10281  _allowances[owner][spender] */\n      0xffffffffffffffffffffffffffffffffffffffff\n      and\n      0xffffffffffffffffffffffffffffffffffffffff\n      and\n      dup2\n      mstore\n      0x20\n      add\n      swap1\n      dup2\n      mstore\n      0x20\n      add\n      0x00\n      keccak256\n        /* \"@openzeppelin/contracts/token/ERC20/ERC20.sol\":10254:10289  _allowances[owner][spender] = value */\n      dup2\n      swap1\n      sstore\n      pop\n        /* \"@openzeppelin/contracts/token/ERC20/ERC20.sol\":10303:10312  emitEvent */\n      dup1\n        /* \"@openzeppelin/contracts/token/ERC20/ERC20.sol\":10299:10375  if (emitEvent) {... */\n      iszero\n      tag_301\n      jumpi\n        /* \"@openzeppelin/contracts/token/ERC20/ERC20.sol\":10349:10356  spender */\n      dup3\n        /* \"@openzeppelin/contracts/token/ERC20/ERC20.sol\":10333:10364  Approval(owner, spender, value) */\n      0xffffffffffffffffffffffffffffffffffffffff\n      and\n        /* \"@openzeppelin/contracts/token/ERC20/ERC20.sol\":10342:10347  owner */\n      dup5\n        /* \"@openzeppelin/contracts/token/ERC20/ERC20.sol\":10333:10364  Approval(owner, spender, value) */\n      0xffffffffffffffffffffffffffffffffffffffff\n      and\n      0x8c5be1e5ebec7d5bd14f71427d1e84f3dd0314c0f7b2291e5b200ac8c7c3b925\n        /* \"@openzeppelin/contracts/token/ERC20/ERC20.sol\":10358:10363  value */\n      dup5\n        /* \"@openzeppelin/contracts/token/ERC20/ERC20.sol\":10333:10364  Approval(owner, spender, value) */\n      mload(0x40)\n      tag_302\n      swap2\n      swap1\n      tag_32\n      jump\t// in\n    tag_302:\n      mload(0x40)\n      dup1\n      swap2\n      sub\n      swap1\n      log3\n        /* \"@openzeppelin/contracts/token/ERC20/ERC20.sol\":10299:10375  if (emitEvent) {... */\n    tag_301:\n        /* \"@openzeppelin/contracts/token/ERC20/ERC20.sol\":9949:10381  function _approve(address owner, address spender, uint256 value, bool emitEvent) internal virtual {... */\n      pop\n      pop\n      pop\n      pop\n      jump\t// out\n        /* \"@openzeppelin/contracts/token/ERC20/ERC20.sol\":6271:7378  function _update(address from, address to, uint256 value) internal virtual {... */\n    tag_248:\n        /* \"@openzeppelin/contracts/token/ERC20/ERC20.sol\":6376:6377  0 */\n      0x00\n        /* \"@openzeppelin/contracts/token/ERC20/ERC20.sol\":6360:6378  from == address(0) */\n      0xffffffffffffffffffffffffffffffffffffffff\n      and\n        /* \"@openzeppelin/contracts/token/ERC20/ERC20.sol\":6360:6364  from */\n      dup4\n        /* \"@openzeppelin/contracts/token/ERC20/ERC20.sol\":6360:6378  from == address(0) */\n      0xffffffffffffffffffffffffffffffffffffffff\n      and\n      sub\n        /* \"@openzeppelin/contracts/token/ERC20/ERC20.sol\":6356:6896  if (from == address(0)) {... */\n      tag_304\n      jumpi\n        /* \"@openzeppelin/contracts/token/ERC20/ERC20.sol\":6512:6517  value */\n      dup1\n        /* \"@openzeppelin/contracts/token/ERC20/ERC20.sol\":6496:6508  _totalSupply */\n      0x02\n      0x00\n        /* \"@openzeppelin/contracts/token/ERC20/ERC20.sol\":6496:6517  _totalSupply += value */\n      dup3\n      dup3\n      sload\n      tag_305\n      swap2\n      swap1\n      tag_198\n      jump\t// in\n    tag_305:\n      swap3\n      pop\n      pop\n      dup2\n      swap1\n      sstore\n      pop\n        /* \"@openzeppelin/contracts/token/ERC20/ERC20.sol\":6356:6896  if (from == address(0)) {... */\n      jump(tag_306)\n    tag_304:\n        /* \"@openzeppelin/contracts/token/ERC20/ERC20.sol\":6548:6567  uint256 fromBalance */\n      0x00\n        /* \"@openzeppelin/contracts/token/ERC20/ERC20.sol\":6570:6579  _balances */\n      dup1\n        /* \"@openzeppelin/contracts/token/ERC20/ERC20.sol\":6570:6585  _balances[from] */\n      0x00\n        /* \"@openzeppelin/contracts/token/ERC20/ERC20.sol\":6580:6584  from */\n      dup6\n        /* \"@openzeppelin/contracts/token/ERC20/ERC20.sol\":6570:6585  _balances[from] */\n      0xffffffffffffffffffffffffffffffffffffffff\n      and\n      0xffffffffffffffffffffffffffffffffffffffff\n      and\n      dup2\n      mstore\n      0x20\n      add\n      swap1\n      dup2\n      mstore\n      0x20\n      add\n      0x00\n      keccak256\n      sload\n        /* \"@openzeppelin/contracts/token/ERC20/ERC20.sol\":6548:6585  uint256 fromBalance = _balances[from] */\n      swap1\n      pop\n        /* \"@openzeppelin/contracts/token/ERC20/ERC20.sol\":6617:6622  value */\n      dup2\n        /* \"@openzeppelin/contracts/token/ERC20/ERC20.sol\":6603:6614  fromBalance */\n      dup2\n        /* \"@openzeppelin/contracts/token/ERC20/ERC20.sol\":6603:6622  fromBalance < value */\n      lt\n        /* \"@openzeppelin/contracts/token/ERC20/ERC20.sol\":6599:6714  if (fromBalance < value) {... */\n      iszero\n      tag_307\n      jumpi\n        /* \"@openzeppelin/contracts/token/ERC20/ERC20.sol\":6674:6678  from */\n      dup4\n        /* \"@openzeppelin/contracts/token/ERC20/ERC20.sol\":6680:6691  fromBalance */\n      dup2\n        /* \"@openzeppelin/contracts/token/ERC20/ERC20.sol\":6693:6698  value */\n      dup4\n        /* \"@openzeppelin/contracts/token/ERC20/ERC20.sol\":6649:6699  ERC20InsufficientBalance(from, fromBalance, value) */\n      mload(0x40)\n      0xe450d38c00000000000000000000000000000000000000000000000000000000\n      dup2\n      mstore\n      0x04\n      add\n      tag_308\n      swap4\n      swap3\n      swap2\n      swap1\n      tag_240\n      jump\t// in\n    tag_308:\n      mload(0x40)\n      dup1\n      swap2\n      sub\n      swap1\n      revert\n        /* \"@openzeppelin/contracts/token/ERC20/ERC20.sol\":6599:6714  if (fromBalance < value) {... */\n    tag_307:\n        /* \"@openzeppelin/contracts/token/ERC20/ERC20.sol\":6866:6871  value */\n      dup2\n        /* \"@openzeppelin/contracts/token/ERC20/ERC20.sol\":6852:6863  fromBalance */\n      dup2\n        /* \"@openzeppelin/contracts/token/ERC20/ERC20.sol\":6852:6871  fromBalance - value */\n      sub\n        /* \"@openzeppelin/contracts/token/ERC20/ERC20.sol\":6834:6843  _balances */\n      0x00\n        /* \"@openzeppelin/contracts/token/ERC20/ERC20.sol\":6834:6849  _balances[from] */\n      dup1\n        /* \"@openzeppelin/contracts/token/ERC20/ERC20.sol\":6844:6848  from */\n      dup7\n        /* \"@openzeppelin/contracts/token/ERC20/ERC20.sol\":6834:6849  _balances[from] */\n      0xffffffffffffffffffffffffffffffffffffffff\n      and\n      0xffffffffffffffffffffffffffffffffffffffff\n      and\n      dup2\n      mstore\n      0x20\n      add\n      swap1\n      dup2\n      mstore\n      0x20\n      add\n      0x00\n      keccak256\n        /* \"@openzeppelin/contracts/token/ERC20/ERC20.sol\":6834:6871  _balances[from] = fromBalance - value */\n      dup2\n      swap1\n      sstore\n      pop\n        /* \"@openzeppelin/contracts/token/ERC20/ERC20.sol\":6534:6896  {... */\n      pop\n        /* \"@openzeppelin/contracts/token/ERC20/ERC20.sol\":6356:6896  if (from == address(0)) {... */\n    tag_306:\n        /* \"@openzeppelin/contracts/token/ERC20/ERC20.sol\":6924:6925  0 */\n      0x00\n        /* \"@openzeppelin/contracts/token/ERC20/ERC20.sol\":6910:6926  to == address(0) */\n      0xffffffffffffffffffffffffffffffffffffffff\n      and\n        /* \"@openzeppelin/contracts/token/ERC20/ERC20.sol\":6910:6912  to */\n      dup3\n        /* \"@openzeppelin/contracts/token/ERC20/ERC20.sol\":6910:6926  to == address(0) */\n      0xffffffffffffffffffffffffffffffffffffffff\n      and\n      sub\n        /* \"@openzeppelin/contracts/token/ERC20/ERC20.sol\":6906:7331  if (to == address(0)) {... */\n      tag_309\n      jumpi\n        /* \"@openzeppelin/contracts/token/ERC20/ERC20.sol\":7089:7094  value */\n      dup1\n        /* \"@openzeppelin/contracts/token/ERC20/ERC20.sol\":7073:7085  _totalSupply */\n      0x02\n      0x00\n        /* \"@openzeppelin/contracts/token/ERC20/ERC20.sol\":7073:7094  _totalSupply -= value */\n      dup3\n      dup3\n      sload\n      sub\n      swap3\n      pop\n      pop\n      dup2\n      swap1\n      sstore\n      pop\n        /* \"@openzeppelin/contracts/token/ERC20/ERC20.sol\":6906:7331  if (to == address(0)) {... */\n      jump(tag_310)\n    tag_309:\n        /* \"@openzeppelin/contracts/token/ERC20/ERC20.sol\":7301:7306  value */\n      dup1\n        /* \"@openzeppelin/contracts/token/ERC20/ERC20.sol\":7284:7293  _balances */\n      0x00\n        /* \"@openzeppelin/contracts/token/ERC20/ERC20.sol\":7284:7297  _balances[to] */\n      dup1\n        /* \"@openzeppelin/contracts/token/ERC20/ERC20.sol\":7294:7296  to */\n      dup5\n        /* \"@openzeppelin/contracts/token/ERC20/ERC20.sol\":7284:7297  _balances[to] */\n      0xffffffffffffffffffffffffffffffffffffffff\n      and\n      0xffffffffffffffffffffffffffffffffffffffff\n      and\n      dup2\n      mstore\n      0x20\n      add\n      swap1\n      dup2\n      mstore\n      0x20\n      add\n      0x00\n      keccak256\n      0x00\n        /* \"@openzeppelin/contracts/token/ERC20/ERC20.sol\":7284:7306  _balances[to] += value */\n      dup3\n      dup3\n      sload\n      add\n      swap3\n      pop\n      pop\n      dup2\n      swap1\n      sstore\n      pop\n        /* \"@openzeppelin/contracts/token/ERC20/ERC20.sol\":6906:7331  if (to == address(0)) {... */\n    tag_310:\n        /* \"@openzeppelin/contracts/token/ERC20/ERC20.sol\":7361:7363  to */\n      dup2\n        /* \"@openzeppelin/contracts/token/ERC20/ERC20.sol\":7346:7371  Transfer(from, to, value) */\n      0xffffffffffffffffffffffffffffffffffffffff\n      and\n        /* \"@openzeppelin/contracts/token/ERC20/ERC20.sol\":7355:7359  from */\n      dup4\n        /* \"@openzeppelin/contracts/token/ERC20/ERC20.sol\":7346:7371  Transfer(from, to, value) */\n      0xffffffffffffffffffffffffffffffffffffffff\n      and\n      0xddf252ad1be2c89b69c2b068fc378daa952ba7f163c4a11628f55a4df523b3ef\n        /* \"@openzeppelin/contracts/token/ERC20/ERC20.sol\":7365:7370  value */\n      dup4\n        /* \"@openzeppelin/contracts/token/ERC20/ERC20.sol\":7346:7371  Transfer(from, to, value) */\n      mload(0x40)\n      tag_311\n      swap2\n      swap1\n      tag_32\n      jump\t// in\n    tag_311:\n      mload(0x40)\n      dup1\n      swap2\n      sub\n      swap1\n      log3\n        /* \"@openzeppelin/contracts/token/ERC20/ERC20.sol\":6271:7378  function _update(address from, address to, uint256 value) internal virtual {... */\n      pop\n      pop\n      pop\n      jump\t// out\n        /* \"src/Contract_1.sol\":4838:4992  function bytesToAddress(bytes memory bys) private pure returns (address addr) {... */\n    tag_260:\n        /* \"src/Contract_1.sol\":4902:4914  address addr */\n      0x00\n        /* \"src/Contract_1.sol\":4972:4974  20 */\n      0x14\n        /* \"src/Contract_1.sol\":4967:4970  bys */\n      dup3\n        /* \"src/Contract_1.sol\":4963:4975  add(bys, 20) */\n      add\n        /* \"src/Contract_1.sol\":4957:4976  mload(add(bys, 20)) */\n      mload\n        /* \"src/Contract_1.sol\":4949:4976  addr := mload(add(bys, 20)) */\n      swap1\n      pop\n        /* \"src/Contract_1.sol\":4838:4992  function bytesToAddress(bytes memory bys) private pure returns (address addr) {... */\n      swap2\n      swap1\n      pop\n      jump\t// out\n        /* \"@openzeppelin/contracts/token/ERC20/utils/SafeERC20.sol\":4059:4688  function _callOptionalReturn(IERC20 token, bytes memory data) private {... */\n    tag_291:\n        /* \"@openzeppelin/contracts/token/ERC20/utils/SafeERC20.sol\":4478:4501  bytes memory returndata */\n      0x00\n        /* \"@openzeppelin/contracts/token/ERC20/utils/SafeERC20.sol\":4504:4537  address(token).functionCall(data) */\n      tag_314\n        /* \"@openzeppelin/contracts/token/ERC20/utils/SafeERC20.sol\":4532:4536  data */\n      dup3\n        /* \"@openzeppelin/contracts/token/ERC20/utils/SafeERC20.sol\":4512:4517  token */\n      dup5\n        /* \"@openzeppelin/contracts/token/ERC20/utils/SafeERC20.sol\":4504:4531  address(token).functionCall */\n      0xffffffffffffffffffffffffffffffffffffffff\n      and\n      tag_315\n      swap1\n        /* \"@openzeppelin/contracts/token/ERC20/utils/SafeERC20.sol\":4504:4537  address(token).functionCall(data) */\n      swap2\n      swap1\n      0xffffffff\n      and\n      jump\t// in\n    tag_314:\n        /* \"@openzeppelin/contracts/token/ERC20/utils/SafeERC20.sol\":4478:4537  bytes memory returndata = address(token).functionCall(data) */\n      swap1\n      pop\n        /* \"@openzeppelin/contracts/token/ERC20/utils/SafeERC20.sol\":4572:4573  0 */\n      0x00\n        /* \"@openzeppelin/contracts/token/ERC20/utils/SafeERC20.sol\":4551:4561  returndata */\n      dup2\n        /* \"@openzeppelin/contracts/token/ERC20/utils/SafeERC20.sol\":4551:4568  returndata.length */\n      mload\n        /* \"@openzeppelin/contracts/token/ERC20/utils/SafeERC20.sol\":4551:4573  returndata.length != 0 */\n      eq\n      iszero\n        /* \"@openzeppelin/contracts/token/ERC20/utils/SafeERC20.sol\":4551:4608  returndata.length != 0 && !abi.decode(returndata, (bool)) */\n      dup1\n      iszero\n      tag_316\n      jumpi\n      pop\n        /* \"@openzeppelin/contracts/token/ERC20/utils/SafeERC20.sol\":4589:4599  returndata */\n      dup1\n        /* \"@openzeppelin/contracts/token/ERC20/utils/SafeERC20.sol\":4578:4608  abi.decode(returndata, (bool)) */\n      dup1\n      0x20\n      add\n      swap1\n      mload\n      dup2\n      add\n      swap1\n      tag_317\n      swap2\n      swap1\n      tag_155\n      jump\t// in\n    tag_317:\n        /* \"@openzeppelin/contracts/token/ERC20/utils/SafeERC20.sol\":4577:4608  !abi.decode(returndata, (bool)) */\n      iszero\n        /* \"@openzeppelin/contracts/token/ERC20/utils/SafeERC20.sol\":4551:4608  returndata.length != 0 && !abi.decode(returndata, (bool)) */\n    tag_316:\n        /* \"@openzeppelin/contracts/token/ERC20/utils/SafeERC20.sol\":4547:4682  if (returndata.length != 0 && !abi.decode(returndata, (bool))) {... */\n      iszero\n      tag_318\n      jumpi\n        /* \"@openzeppelin/contracts/token/ERC20/utils/SafeERC20.sol\":4664:4669  token */\n      dup3\n        /* \"@openzeppelin/contracts/token/ERC20/utils/SafeERC20.sol\":4631:4671  SafeERC20FailedOperation(address(token)) */\n      mload(0x40)\n      0x5274afe700000000000000000000000000000000000000000000000000000000\n      dup2\n      mstore\n      0x04\n      add\n      tag_319\n      swap2\n      swap1\n      tag_49\n      jump\t// in\n    tag_319:\n      mload(0x40)\n      dup1\n      swap2\n      sub\n      swap1\n      revert\n        /* \"@openzeppelin/contracts/token/ERC20/utils/SafeERC20.sol\":4547:4682  if (returndata.length != 0 && !abi.decode(returndata, (bool))) {... */\n    tag_318:\n        /* \"@openzeppelin/contracts/token/ERC20/utils/SafeERC20.sol\":4129:4688  {... */\n      pop\n        /* \"@openzeppelin/contracts/token/ERC20/utils/SafeERC20.sol\":4059:4688  function _callOptionalReturn(IERC20 token, bytes memory data) private {... */\n      pop\n      pop\n      jump\t// out\n        /* \"@openzeppelin/contracts/utils/Address.sol\":2705:2856  function functionCall(address target, bytes memory data) internal returns (bytes memory) {... */\n    tag_315:\n        /* \"@openzeppelin/contracts/utils/Address.sol\":2780:2792  bytes memory */\n      0x60\n        /* \"@openzeppelin/contracts/utils/Address.sol\":2811:2849  functionCallWithValue(target, data, 0) */\n      tag_321\n        /* \"@openzeppelin/contracts/utils/Address.sol\":2833:2839  target */\n      dup4\n        /* \"@openzeppelin/contracts/utils/Address.sol\":2841:2845  data */\n      dup4\n        /* \"@openzeppelin/contracts/utils/Address.sol\":2847:2848  0 */\n      0x00\n        /* \"@openzeppelin/contracts/utils/Address.sol\":2811:2832  functionCallWithValue */\n      tag_322\n        /* \"@openzeppelin/contracts/utils/Address.sol\":2811:2849  functionCallWithValue(target, data, 0) */\n      jump\t// in\n    tag_321:\n        /* \"@openzeppelin/contracts/utils/Address.sol\":2804:2849  return functionCallWithValue(target, data, 0) */\n      swap1\n      pop\n        /* \"@openzeppelin/contracts/utils/Address.sol\":2705:2856  function functionCall(address target, bytes memory data) internal returns (bytes memory) {... */\n      swap3\n      swap2\n      pop\n      pop\n      jump\t// out\n        /* \"@openzeppelin/contracts/utils/Address.sol\":3180:3572  function functionCallWithValue(address target, bytes memory data, uint256 value) internal returns (bytes memory) {... */\n    tag_322:\n        /* \"@openzeppelin/contracts/utils/Address.sol\":3279:3291  bytes memory */\n      0x60\n        /* \"@openzeppelin/contracts/utils/Address.sol\":3331:3336  value */\n      dup2\n        /* \"@openzeppelin/contracts/utils/Address.sol\":3307:3328  address(this).balance */\n      selfbalance\n        /* \"@openzeppelin/contracts/utils/Address.sol\":3307:3336  address(this).balance < value */\n      lt\n        /* \"@openzeppelin/contracts/utils/Address.sol\":3303:3411  if (address(this).balance < value) {... */\n      iszero\n      tag_324\n      jumpi\n        /* \"@openzeppelin/contracts/utils/Address.sol\":3394:3398  this */\n      address\n        /* \"@openzeppelin/contracts/utils/Address.sol\":3359:3400  AddressInsufficientBalance(address(this)) */\n      mload(0x40)\n      0xcd78605900000000000000000000000000000000000000000000000000000000\n      dup2\n      mstore\n      0x04\n      add\n      tag_325\n      swap2\n      swap1\n      tag_49\n      jump\t// in\n    tag_325:\n      mload(0x40)\n      dup1\n      swap2\n      sub\n      swap1\n      revert\n        /* \"@openzeppelin/contracts/utils/Address.sol\":3303:3411  if (address(this).balance < value) {... */\n    tag_324:\n        /* \"@openzeppelin/contracts/utils/Address.sol\":3421:3433  bool success */\n      0x00\n        /* \"@openzeppelin/contracts/utils/Address.sol\":3435:3458  bytes memory returndata */\n      dup1\n        /* \"@openzeppelin/contracts/utils/Address.sol\":3462:3468  target */\n      dup6\n        /* \"@openzeppelin/contracts/utils/Address.sol\":3462:3473  target.call */\n      0xffffffffffffffffffffffffffffffffffffffff\n      and\n        /* \"@openzeppelin/contracts/utils/Address.sol\":3481:3486  value */\n      dup5\n        /* \"@openzeppelin/contracts/utils/Address.sol\":3488:3492  data */\n      dup7\n        /* \"@openzeppelin/contracts/utils/Address.sol\":3462:3493  target.call{value: value}(data) */\n      mload(0x40)\n      tag_326\n      swap2\n      swap1\n      tag_187\n      jump\t// in\n    tag_326:\n      0x00\n      mload(0x40)\n      dup1\n      dup4\n      sub\n      dup2\n      dup6\n      dup8\n      gas\n      call\n      swap3\n      pop\n      pop\n      pop\n      returndatasize\n      dup1\n      0x00\n      dup2\n      eq\n      tag_329\n      jumpi\n      mload(0x40)\n      swap2\n      pop\n      and(add(returndatasize, 0x3f), not(0x1f))\n      dup3\n      add\n      0x40\n      mstore\n      returndatasize\n      dup3\n      mstore\n      returndatasize\n      0x00\n      0x20\n      dup5\n      add\n      returndatacopy\n      jump(tag_328)\n    tag_329:\n      0x60\n      swap2\n      pop\n    tag_328:\n      pop\n        /* \"@openzeppelin/contracts/utils/Address.sol\":3420:3493  (bool success, bytes memory returndata) = target.call{value: value}(data) */\n      swap2\n      pop\n      swap2\n      pop\n        /* \"@openzeppelin/contracts/utils/Address.sol\":3510:3565  verifyCallResultFromTarget(target, success, returndata) */\n      tag_330\n        /* \"@openzeppelin/contracts/utils/Address.sol\":3537:3543  target */\n      dup7\n        /* \"@openzeppelin/contracts/utils/Address.sol\":3545:3552  success */\n      dup4\n        /* \"@openzeppelin/contracts/utils/Address.sol\":3554:3564  returndata */\n      dup4\n        /* \"@openzeppelin/contracts/utils/Address.sol\":3510:3536  verifyCallResultFromTarget */\n      tag_331\n        /* \"@openzeppelin/contracts/utils/Address.sol\":3510:3565  verifyCallResultFromTarget(target, success, returndata) */\n      jump\t// in\n    tag_330:\n        /* \"@openzeppelin/contracts/utils/Address.sol\":3503:3565  return verifyCallResultFromTarget(target, success, returndata) */\n      swap3\n      pop\n      pop\n      pop\n        /* \"@openzeppelin/contracts/utils/Address.sol\":3180:3572  function functionCallWithValue(address target, bytes memory data, uint256 value) internal returns (bytes memory) {... */\n      swap4\n      swap3\n      pop\n      pop\n      pop\n      jump\t// out\n        /* \"@openzeppelin/contracts/utils/Address.sol\":4625:5207  function verifyCallResultFromTarget(... */\n    tag_331:\n        /* \"@openzeppelin/contracts/utils/Address.sol\":4769:4781  bytes memory */\n      0x60\n        /* \"@openzeppelin/contracts/utils/Address.sol\":4798:4805  success */\n      dup3\n        /* \"@openzeppelin/contracts/utils/Address.sol\":4793:5201  if (!success) {... */\n      tag_333\n      jumpi\n        /* \"@openzeppelin/contracts/utils/Address.sol\":4821:4840  _revert(returndata) */\n      tag_334\n        /* \"@openzeppelin/contracts/utils/Address.sol\":4829:4839  returndata */\n      dup3\n        /* \"@openzeppelin/contracts/utils/Address.sol\":4821:4828  _revert */\n      tag_335\n        /* \"@openzeppelin/contracts/utils/Address.sol\":4821:4840  _revert(returndata) */\n      jump\t// in\n    tag_334:\n        /* \"@openzeppelin/contracts/utils/Address.sol\":4793:5201  if (!success) {... */\n      jump(tag_336)\n    tag_333:\n        /* \"@openzeppelin/contracts/utils/Address.sol\":5066:5067  0 */\n      0x00\n        /* \"@openzeppelin/contracts/utils/Address.sol\":5045:5055  returndata */\n      dup3\n        /* \"@openzeppelin/contracts/utils/Address.sol\":5045:5062  returndata.length */\n      mload\n        /* \"@openzeppelin/contracts/utils/Address.sol\":5045:5067  returndata.length == 0 */\n      eq\n        /* \"@openzeppelin/contracts/utils/Address.sol\":5045:5094  returndata.length == 0 && target.code.length == 0 */\n      dup1\n      iszero\n      tag_337\n      jumpi\n      pop\n        /* \"@openzeppelin/contracts/utils/Address.sol\":5093:5094  0 */\n      0x00\n        /* \"@openzeppelin/contracts/utils/Address.sol\":5071:5077  target */\n      dup5\n        /* \"@openzeppelin/contracts/utils/Address.sol\":5071:5089  target.code.length */\n      0xffffffffffffffffffffffffffffffffffffffff\n      and\n      extcodesize\n        /* \"@openzeppelin/contracts/utils/Address.sol\":5071:5094  target.code.length == 0 */\n      eq\n        /* \"@openzeppelin/contracts/utils/Address.sol\":5045:5094  returndata.length == 0 && target.code.length == 0 */\n    tag_337:\n        /* \"@openzeppelin/contracts/utils/Address.sol\":5041:5160  if (returndata.length == 0 && target.code.length == 0) {... */\n      iszero\n      tag_338\n      jumpi\n        /* \"@openzeppelin/contracts/utils/Address.sol\":5138:5144  target */\n      dup4\n        /* \"@openzeppelin/contracts/utils/Address.sol\":5121:5145  AddressEmptyCode(target) */\n      mload(0x40)\n      0x9996b31500000000000000000000000000000000000000000000000000000000\n      dup2\n      mstore\n      0x04\n      add\n      tag_339\n      swap2\n      swap1\n      tag_49\n      jump\t// in\n    tag_339:\n      mload(0x40)\n      dup1\n      swap2\n      sub\n      swap1\n      revert\n        /* \"@openzeppelin/contracts/utils/Address.sol\":5041:5160  if (returndata.length == 0 && target.code.length == 0) {... */\n    tag_338:\n        /* \"@openzeppelin/contracts/utils/Address.sol\":5180:5190  returndata */\n      dup2\n        /* \"@openzeppelin/contracts/utils/Address.sol\":5173:5190  return returndata */\n      swap1\n      pop\n      jump(tag_332)\n        /* \"@openzeppelin/contracts/utils/Address.sol\":4793:5201  if (!success) {... */\n    tag_336:\n        /* \"@openzeppelin/contracts/utils/Address.sol\":4625:5207  function verifyCallResultFromTarget(... */\n    tag_332:\n      swap4\n      swap3\n      pop\n      pop\n      pop\n      jump\t// out\n        /* \"@openzeppelin/contracts/utils/Address.sol\":5743:6259  function _revert(bytes memory returndata) private pure {... */\n    tag_335:\n        /* \"@openzeppelin/contracts/utils/Address.sol\":5894:5895  0 */\n      0x00\n        /* \"@openzeppelin/contracts/utils/Address.sol\":5874:5884  returndata */\n      dup2\n        /* \"@openzeppelin/contracts/utils/Address.sol\":5874:5891  returndata.length */\n      mload\n        /* \"@openzeppelin/contracts/utils/Address.sol\":5874:5895  returndata.length > 0 */\n      gt\n        /* \"@openzeppelin/contracts/utils/Address.sol\":5870:6253  if (returndata.length > 0) {... */\n      iszero\n      tag_341\n      jumpi\n        /* \"@openzeppelin/contracts/utils/Address.sol\":6102:6112  returndata */\n      dup1\n        /* \"@openzeppelin/contracts/utils/Address.sol\":6096:6113  mload(returndata) */\n      mload\n        /* \"@openzeppelin/contracts/utils/Address.sol\":6158:6173  returndata_size */\n      dup1\n        /* \"@openzeppelin/contracts/utils/Address.sol\":6145:6155  returndata */\n      dup3\n        /* \"@openzeppelin/contracts/utils/Address.sol\":6141:6143  32 */\n      0x20\n        /* \"@openzeppelin/contracts/utils/Address.sol\":6137:6156  add(32, returndata) */\n      add\n        /* \"@openzeppelin/contracts/utils/Address.sol\":6130:6174  revert(add(32, returndata), returndata_size) */\n      revert\n        /* \"@openzeppelin/contracts/utils/Address.sol\":5870:6253  if (returndata.length > 0) {... */\n    tag_341:\n        /* \"@openzeppelin/contracts/utils/Address.sol\":6225:6242  FailedInnerCall() */\n      mload(0x40)\n      0x1425ea4200000000000000000000000000000000000000000000000000000000\n      dup2\n      mstore\n      0x04\n      add\n      mload(0x40)\n      dup1\n      swap2\n      sub\n      swap1\n      revert\n    tag_271:\n      mload(0x40)\n      dup1\n      0x0120\n      add\n      0x40\n      mstore\n      dup1\n      and(0xffffffffffffffffffffffffffffffffffffffff, 0x00)\n      dup2\n      mstore\n      0x20\n      add\n      and(0xffffffffffffffffffffffffffffffffffffffff, 0x00)\n      dup2\n      mstore\n      0x20\n      add\n      and(0xffffff, 0x00)\n      dup2\n      mstore\n      0x20\n      add\n      signextend(0x02, 0x00)\n      dup2\n      mstore\n      0x20\n      add\n      signextend(0x02, 0x00)\n      dup2\n      mstore\n      0x20\n      add\n      0x00\n      dup2\n      mstore\n      0x20\n      add\n      0x00\n      dup2\n      mstore\n      0x20\n      add\n      0x00\n      dup2\n      mstore\n      0x20\n      add\n      0x00\n      dup2\n      mstore\n      pop\n      swap1\n      jump\t// out\n        /* \"#utility.yul\":7:84   */\n    tag_343:\n        /* \"#utility.yul\":44:51   */\n      0x00\n        /* \"#utility.yul\":73:78   */\n      dup2\n        /* \"#utility.yul\":62:78   */\n      swap1\n      pop\n        /* \"#utility.yul\":7:84   */\n      swap2\n      swap1\n      pop\n      jump\t// out\n        /* \"#utility.yul\":90:208   */\n    tag_344:\n        /* \"#utility.yul\":177:201   */\n      tag_414\n        /* \"#utility.yul\":195:200   */\n      dup2\n        /* \"#utility.yul\":177:201   */\n      tag_343\n      jump\t// in\n    tag_414:\n        /* \"#utility.yul\":172:175   */\n      dup3\n        /* \"#utility.yul\":165:202   */\n      mstore\n        /* \"#utility.yul\":90:208   */\n      pop\n      pop\n      jump\t// out\n        /* \"#utility.yul\":214:436   */\n    tag_32:\n        /* \"#utility.yul\":307:311   */\n      0x00\n        /* \"#utility.yul\":345:347   */\n      0x20\n        /* \"#utility.yul\":334:343   */\n      dup3\n        /* \"#utility.yul\":330:348   */\n      add\n        /* \"#utility.yul\":322:348   */\n      swap1\n      pop\n        /* \"#utility.yul\":358:429   */\n      tag_416\n        /* \"#utility.yul\":426:427   */\n      0x00\n        /* \"#utility.yul\":415:424   */\n      dup4\n        /* \"#utility.yul\":411:428   */\n      add\n        /* \"#utility.yul\":402:408   */\n      dup5\n        /* \"#utility.yul\":358:429   */\n      tag_344\n      jump\t// in\n    tag_416:\n        /* \"#utility.yul\":214:436   */\n      swap3\n      swap2\n      pop\n      pop\n      jump\t// out\n        /* \"#utility.yul\":442:541   */\n    tag_345:\n        /* \"#utility.yul\":494:500   */\n      0x00\n        /* \"#utility.yul\":528:533   */\n      dup2\n        /* \"#utility.yul\":522:534   */\n      mload\n        /* \"#utility.yul\":512:534   */\n      swap1\n      pop\n        /* \"#utility.yul\":442:541   */\n      swap2\n      swap1\n      pop\n      jump\t// out\n        /* \"#utility.yul\":547:716   */\n    tag_346:\n        /* \"#utility.yul\":631:642   */\n      0x00\n        /* \"#utility.yul\":665:671   */\n      dup3\n        /* \"#utility.yul\":660:663   */\n      dup3\n        /* \"#utility.yul\":653:672   */\n      mstore\n        /* \"#utility.yul\":705:709   */\n      0x20\n        /* \"#utility.yul\":700:703   */\n      dup3\n        /* \"#utility.yul\":696:710   */\n      add\n        /* \"#utility.yul\":681:710   */\n      swap1\n      pop\n        /* \"#utility.yul\":547:716   */\n      swap3\n      swap2\n      pop\n      pop\n      jump\t// out\n        /* \"#utility.yul\":722:968   */\n    tag_347:\n        /* \"#utility.yul\":803:804   */\n      0x00\n        /* \"#utility.yul\":813:926   */\n    tag_420:\n        /* \"#utility.yul\":827:833   */\n      dup4\n        /* \"#utility.yul\":824:825   */\n      dup2\n        /* \"#utility.yul\":821:834   */\n      lt\n        /* \"#utility.yul\":813:926   */\n      iszero\n      tag_422\n      jumpi\n        /* \"#utility.yul\":912:913   */\n      dup1\n        /* \"#utility.yul\":907:910   */\n      dup3\n        /* \"#utility.yul\":903:914   */\n      add\n        /* \"#utility.yul\":897:915   */\n      mload\n        /* \"#utility.yul\":893:894   */\n      dup2\n        /* \"#utility.yul\":888:891   */\n      dup5\n        /* \"#utility.yul\":884:895   */\n      add\n        /* \"#utility.yul\":877:916   */\n      mstore\n        /* \"#utility.yul\":849:851   */\n      0x20\n        /* \"#utility.yul\":846:847   */\n      dup2\n        /* \"#utility.yul\":842:852   */\n      add\n        /* \"#utility.yul\":837:852   */\n      swap1\n      pop\n        /* \"#utility.yul\":813:926   */\n      jump(tag_420)\n    tag_422:\n        /* \"#utility.yul\":960:961   */\n      0x00\n        /* \"#utility.yul\":951:957   */\n      dup5\n        /* \"#utility.yul\":946:949   */\n      dup5\n        /* \"#utility.yul\":942:958   */\n      add\n        /* \"#utility.yul\":935:962   */\n      mstore\n        /* \"#utility.yul\":784:968   */\n      pop\n        /* \"#utility.yul\":722:968   */\n      pop\n      pop\n      pop\n      jump\t// out\n        /* \"#utility.yul\":974:1076   */\n    tag_348:\n        /* \"#utility.yul\":1015:1021   */\n      0x00\n        /* \"#utility.yul\":1066:1068   */\n      0x1f\n        /* \"#utility.yul\":1062:1069   */\n      not\n        /* \"#utility.yul\":1057:1059   */\n      0x1f\n        /* \"#utility.yul\":1050:1055   */\n      dup4\n        /* \"#utility.yul\":1046:1060   */\n      add\n        /* \"#utility.yul\":1042:1070   */\n      and\n        /* \"#utility.yul\":1032:1070   */\n      swap1\n      pop\n        /* \"#utility.yul\":974:1076   */\n      swap2\n      swap1\n      pop\n      jump\t// out\n        /* \"#utility.yul\":1082:1459   */\n    tag_349:\n        /* \"#utility.yul\":1170:1173   */\n      0x00\n        /* \"#utility.yul\":1198:1237   */\n      tag_425\n        /* \"#utility.yul\":1231:1236   */\n      dup3\n        /* \"#utility.yul\":1198:1237   */\n      tag_345\n      jump\t// in\n    tag_425:\n        /* \"#utility.yul\":1253:1324   */\n      tag_426\n        /* \"#utility.yul\":1317:1323   */\n      dup2\n        /* \"#utility.yul\":1312:1315   */\n      dup6\n        /* \"#utility.yul\":1253:1324   */\n      tag_346\n      jump\t// in\n    tag_426:\n        /* \"#utility.yul\":1246:1324   */\n      swap4\n      pop\n        /* \"#utility.yul\":1333:1398   */\n      tag_427\n        /* \"#utility.yul\":1391:1397   */\n      dup2\n        /* \"#utility.yul\":1386:1389   */\n      dup6\n        /* \"#utility.yul\":1379:1383   */\n      0x20\n        /* \"#utility.yul\":1372:1377   */\n      dup7\n        /* \"#utility.yul\":1368:1384   */\n      add\n        /* \"#utility.yul\":1333:1398   */\n      tag_347\n      jump\t// in\n    tag_427:\n        /* \"#utility.yul\":1423:1452   */\n      tag_428\n        /* \"#utility.yul\":1445:1451   */\n      dup2\n        /* \"#utility.yul\":1423:1452   */\n      tag_348\n      jump\t// in\n    tag_428:\n        /* \"#utility.yul\":1418:1421   */\n      dup5\n        /* \"#utility.yul\":1414:1453   */\n      add\n        /* \"#utility.yul\":1407:1453   */\n      swap2\n      pop\n        /* \"#utility.yul\":1174:1459   */\n      pop\n        /* \"#utility.yul\":1082:1459   */\n      swap3\n      swap2\n      pop\n      pop\n      jump\t// out\n        /* \"#utility.yul\":1465:1778   */\n    tag_36:\n        /* \"#utility.yul\":1578:1582   */\n      0x00\n        /* \"#utility.yul\":1616:1618   */\n      0x20\n        /* \"#utility.yul\":1605:1614   */\n      dup3\n        /* \"#utility.yul\":1601:1619   */\n      add\n        /* \"#utility.yul\":1593:1619   */\n      swap1\n      pop\n        /* \"#utility.yul\":1665:1674   */\n      dup2\n        /* \"#utility.yul\":1659:1663   */\n      dup2\n        /* \"#utility.yul\":1655:1675   */\n      sub\n        /* \"#utility.yul\":1651:1652   */\n      0x00\n        /* \"#utility.yul\":1640:1649   */\n      dup4\n        /* \"#utility.yul\":1636:1653   */\n      add\n        /* \"#utility.yul\":1629:1676   */\n      mstore\n        /* \"#utility.yul\":1693:1771   */\n      tag_430\n        /* \"#utility.yul\":1766:1770   */\n      dup2\n        /* \"#utility.yul\":1757:1763   */\n      dup5\n        /* \"#utility.yul\":1693:1771   */\n      tag_349\n      jump\t// in\n    tag_430:\n        /* \"#utility.yul\":1685:1771   */\n      swap1\n      pop\n        /* \"#utility.yul\":1465:1778   */\n      swap3\n      swap2\n      pop\n      pop\n      jump\t// out\n        /* \"#utility.yul\":1865:1982   */\n    tag_351:\n        /* \"#utility.yul\":1974:1975   */\n      0x00\n        /* \"#utility.yul\":1971:1972   */\n      dup1\n        /* \"#utility.yul\":1964:1976   */\n      revert\n        /* \"#utility.yul\":2111:2237   */\n    tag_353:\n        /* \"#utility.yul\":2148:2155   */\n      0x00\n        /* \"#utility.yul\":2188:2230   */\n      0xffffffffffffffffffffffffffffffffffffffff\n        /* \"#utility.yul\":2181:2186   */\n      dup3\n        /* \"#utility.yul\":2177:2231   */\n      and\n        /* \"#utility.yul\":2166:2231   */\n      swap1\n      pop\n        /* \"#utility.yul\":2111:2237   */\n      swap2\n      swap1\n      pop\n      jump\t// out\n        /* \"#utility.yul\":2243:2339   */\n    tag_354:\n        /* \"#utility.yul\":2280:2287   */\n      0x00\n        /* \"#utility.yul\":2309:2333   */\n      tag_436\n        /* \"#utility.yul\":2327:2332   */\n      dup3\n        /* \"#utility.yul\":2309:2333   */\n      tag_353\n      jump\t// in\n    tag_436:\n        /* \"#utility.yul\":2298:2333   */\n      swap1\n      pop\n        /* \"#utility.yul\":2243:2339   */\n      swap2\n      swap1\n      pop\n      jump\t// out\n        /* \"#utility.yul\":2345:2467   */\n    tag_355:\n        /* \"#utility.yul\":2418:2442   */\n      tag_438\n        /* \"#utility.yul\":2436:2441   */\n      dup2\n        /* \"#utility.yul\":2418:2442   */\n      tag_354\n      jump\t// in\n    tag_438:\n        /* \"#utility.yul\":2411:2416   */\n      dup2\n        /* \"#utility.yul\":2408:2443   */\n      eq\n        /* \"#utility.yul\":2398:2461   */\n      tag_439\n      jumpi\n        /* \"#utility.yul\":2457:2458   */\n      0x00\n        /* \"#utility.yul\":2454:2455   */\n      dup1\n        /* \"#utility.yul\":2447:2459   */\n      revert\n        /* \"#utility.yul\":2398:2461   */\n    tag_439:\n        /* \"#utility.yul\":2345:2467   */\n      pop\n      jump\t// out\n        /* \"#utility.yul\":2473:2612   */\n    tag_356:\n        /* \"#utility.yul\":2519:2524   */\n      0x00\n        /* \"#utility.yul\":2557:2563   */\n      dup2\n        /* \"#utility.yul\":2544:2564   */\n      calldataload\n        /* \"#utility.yul\":2535:2564   */\n      swap1\n      pop\n        /* \"#utility.yul\":2573:2606   */\n      tag_441\n        /* \"#utility.yul\":2600:2605   */\n      dup2\n        /* \"#utility.yul\":2573:2606   */\n      tag_355\n      jump\t// in\n    tag_441:\n        /* \"#utility.yul\":2473:2612   */\n      swap3\n      swap2\n      pop\n      pop\n      jump\t// out\n        /* \"#utility.yul\":2618:2740   */\n    tag_357:\n        /* \"#utility.yul\":2691:2715   */\n      tag_443\n        /* \"#utility.yul\":2709:2714   */\n      dup2\n        /* \"#utility.yul\":2691:2715   */\n      tag_343\n      jump\t// in\n    tag_443:\n        /* \"#utility.yul\":2684:2689   */\n      dup2\n        /* \"#utility.yul\":2681:2716   */\n      eq\n        /* \"#utility.yul\":2671:2734   */\n      tag_444\n      jumpi\n        /* \"#utility.yul\":2730:2731   */\n      0x00\n        /* \"#utility.yul\":2727:2728   */\n      dup1\n        /* \"#utility.yul\":2720:2732   */\n      revert\n        /* \"#utility.yul\":2671:2734   */\n    tag_444:\n        /* \"#utility.yul\":2618:2740   */\n      pop\n      jump\t// out\n        /* \"#utility.yul\":2746:2885   */\n    tag_358:\n        /* \"#utility.yul\":2792:2797   */\n      0x00\n        /* \"#utility.yul\":2830:2836   */\n      dup2\n        /* \"#utility.yul\":2817:2837   */\n      calldataload\n        /* \"#utility.yul\":2808:2837   */\n      swap1\n      pop\n        /* \"#utility.yul\":2846:2879   */\n      tag_446\n        /* \"#utility.yul\":2873:2878   */\n      dup2\n        /* \"#utility.yul\":2846:2879   */\n      tag_357\n      jump\t// in\n    tag_446:\n        /* \"#utility.yul\":2746:2885   */\n      swap3\n      swap2\n      pop\n      pop\n      jump\t// out\n        /* \"#utility.yul\":2891:3365   */\n    tag_39:\n        /* \"#utility.yul\":2959:2965   */\n      0x00\n        /* \"#utility.yul\":2967:2973   */\n      dup1\n        /* \"#utility.yul\":3016:3018   */\n      0x40\n        /* \"#utility.yul\":3004:3013   */\n      dup4\n        /* \"#utility.yul\":2995:3002   */\n      dup6\n        /* \"#utility.yul\":2991:3014   */\n      sub\n        /* \"#utility.yul\":2987:3019   */\n      slt\n        /* \"#utility.yul\":2984:3103   */\n      iszero\n      tag_448\n      jumpi\n        /* \"#utility.yul\":3022:3101   */\n      tag_449\n      tag_351\n      jump\t// in\n    tag_449:\n        /* \"#utility.yul\":2984:3103   */\n    tag_448:\n        /* \"#utility.yul\":3142:3143   */\n      0x00\n        /* \"#utility.yul\":3167:3220   */\n      tag_450\n        /* \"#utility.yul\":3212:3219   */\n      dup6\n        /* \"#utility.yul\":3203:3209   */\n      dup3\n        /* \"#utility.yul\":3192:3201   */\n      dup7\n        /* \"#utility.yul\":3188:3210   */\n      add\n        /* \"#utility.yul\":3167:3220   */\n      tag_356\n      jump\t// in\n    tag_450:\n        /* \"#utility.yul\":3157:3220   */\n      swap3\n      pop\n        /* \"#utility.yul\":3113:3230   */\n      pop\n        /* \"#utility.yul\":3269:3271   */\n      0x20\n        /* \"#utility.yul\":3295:3348   */\n      tag_451\n        /* \"#utility.yul\":3340:3347   */\n      dup6\n        /* \"#utility.yul\":3331:3337   */\n      dup3\n        /* \"#utility.yul\":3320:3329   */\n      dup7\n        /* \"#utility.yul\":3316:3338   */\n      add\n        /* \"#utility.yul\":3295:3348   */\n      tag_358\n      jump\t// in\n    tag_451:\n        /* \"#utility.yul\":3285:3348   */\n      swap2\n      pop\n        /* \"#utility.yul\":3240:3358   */\n      pop\n        /* \"#utility.yul\":2891:3365   */\n      swap3\n      pop\n      swap3\n      swap1\n      pop\n      jump\t// out\n        /* \"#utility.yul\":3371:3461   */\n    tag_359:\n        /* \"#utility.yul\":3405:3412   */\n      0x00\n        /* \"#utility.yul\":3448:3453   */\n      dup2\n        /* \"#utility.yul\":3441:3454   */\n      iszero\n        /* \"#utility.yul\":3434:3455   */\n      iszero\n        /* \"#utility.yul\":3423:3455   */\n      swap1\n      pop\n        /* \"#utility.yul\":3371:3461   */\n      swap2\n      swap1\n      pop\n      jump\t// out\n        /* \"#utility.yul\":3467:3576   */\n    tag_360:\n        /* \"#utility.yul\":3548:3569   */\n      tag_454\n        /* \"#utility.yul\":3563:3568   */\n      dup2\n        /* \"#utility.yul\":3548:3569   */\n      tag_359\n      jump\t// in\n    tag_454:\n        /* \"#utility.yul\":3543:3546   */\n      dup3\n        /* \"#utility.yul\":3536:3570   */\n      mstore\n        /* \"#utility.yul\":3467:3576   */\n      pop\n      pop\n      jump\t// out\n        /* \"#utility.yul\":3582:3792   */\n    tag_42:\n        /* \"#utility.yul\":3669:3673   */\n      0x00\n        /* \"#utility.yul\":3707:3709   */\n      0x20\n        /* \"#utility.yul\":3696:3705   */\n      dup3\n        /* \"#utility.yul\":3692:3710   */\n      add\n        /* \"#utility.yul\":3684:3710   */\n      swap1\n      pop\n        /* \"#utility.yul\":3720:3785   */\n      tag_456\n        /* \"#utility.yul\":3782:3783   */\n      0x00\n        /* \"#utility.yul\":3771:3780   */\n      dup4\n        /* \"#utility.yul\":3767:3784   */\n      add\n        /* \"#utility.yul\":3758:3764   */\n      dup5\n        /* \"#utility.yul\":3720:3785   */\n      tag_360\n      jump\t// in\n    tag_456:\n        /* \"#utility.yul\":3582:3792   */\n      swap3\n      swap2\n      pop\n      pop\n      jump\t// out\n        /* \"#utility.yul\":3798:3916   */\n    tag_361:\n        /* \"#utility.yul\":3885:3909   */\n      tag_458\n        /* \"#utility.yul\":3903:3908   */\n      dup2\n        /* \"#utility.yul\":3885:3909   */\n      tag_354\n      jump\t// in\n    tag_458:\n        /* \"#utility.yul\":3880:3883   */\n      dup3\n        /* \"#utility.yul\":3873:3910   */\n      mstore\n        /* \"#utility.yul\":3798:3916   */\n      pop\n      pop\n      jump\t// out\n        /* \"#utility.yul\":3922:4144   */\n    tag_49:\n        /* \"#utility.yul\":4015:4019   */\n      0x00\n        /* \"#utility.yul\":4053:4055   */\n      0x20\n        /* \"#utility.yul\":4042:4051   */\n      dup3\n        /* \"#utility.yul\":4038:4056   */\n      add\n        /* \"#utility.yul\":4030:4056   */\n      swap1\n      pop\n        /* \"#utility.yul\":4066:4137   */\n      tag_460\n        /* \"#utility.yul\":4134:4135   */\n      0x00\n        /* \"#utility.yul\":4123:4132   */\n      dup4\n        /* \"#utility.yul\":4119:4136   */\n      add\n        /* \"#utility.yul\":4110:4116   */\n      dup5\n        /* \"#utility.yul\":4066:4137   */\n      tag_361\n      jump\t// in\n    tag_460:\n        /* \"#utility.yul\":3922:4144   */\n      swap3\n      swap2\n      pop\n      pop\n      jump\t// out\n        /* \"#utility.yul\":4150:4769   */\n    tag_52:\n        /* \"#utility.yul\":4227:4233   */\n      0x00\n        /* \"#utility.yul\":4235:4241   */\n      dup1\n        /* \"#utility.yul\":4243:4249   */\n      0x00\n        /* \"#utility.yul\":4292:4294   */\n      0x60\n        /* \"#utility.yul\":4280:4289   */\n      dup5\n        /* \"#utility.yul\":4271:4278   */\n      dup7\n        /* \"#utility.yul\":4267:4290   */\n      sub\n        /* \"#utility.yul\":4263:4295   */\n      slt\n        /* \"#utility.yul\":4260:4379   */\n      iszero\n      tag_462\n      jumpi\n        /* \"#utility.yul\":4298:4377   */\n      tag_463\n      tag_351\n      jump\t// in\n    tag_463:\n        /* \"#utility.yul\":4260:4379   */\n    tag_462:\n        /* \"#utility.yul\":4418:4419   */\n      0x00\n        /* \"#utility.yul\":4443:4496   */\n      tag_464\n        /* \"#utility.yul\":4488:4495   */\n      dup7\n        /* \"#utility.yul\":4479:4485   */\n      dup3\n        /* \"#utility.yul\":4468:4477   */\n      dup8\n        /* \"#utility.yul\":4464:4486   */\n      add\n        /* \"#utility.yul\":4443:4496   */\n      tag_356\n      jump\t// in\n    tag_464:\n        /* \"#utility.yul\":4433:4496   */\n      swap4\n      pop\n        /* \"#utility.yul\":4389:4506   */\n      pop\n        /* \"#utility.yul\":4545:4547   */\n      0x20\n        /* \"#utility.yul\":4571:4624   */\n      tag_465\n        /* \"#utility.yul\":4616:4623   */\n      dup7\n        /* \"#utility.yul\":4607:4613   */\n      dup3\n        /* \"#utility.yul\":4596:4605   */\n      dup8\n        /* \"#utility.yul\":4592:4614   */\n      add\n        /* \"#utility.yul\":4571:4624   */\n      tag_356\n      jump\t// in\n    tag_465:\n        /* \"#utility.yul\":4561:4624   */\n      swap3\n      pop\n        /* \"#utility.yul\":4516:4634   */\n      pop\n        /* \"#utility.yul\":4673:4675   */\n      0x40\n        /* \"#utility.yul\":4699:4752   */\n      tag_466\n        /* \"#utility.yul\":4744:4751   */\n      dup7\n        /* \"#utility.yul\":4735:4741   */\n      dup3\n        /* \"#utility.yul\":4724:4733   */\n      dup8\n        /* \"#utility.yul\":4720:4742   */\n      add\n        /* \"#utility.yul\":4699:4752   */\n      tag_358\n      jump\t// in\n    tag_466:\n        /* \"#utility.yul\":4689:4752   */\n      swap2\n      pop\n        /* \"#utility.yul\":4644:4762   */\n      pop\n        /* \"#utility.yul\":4150:4769   */\n      swap3\n      pop\n      swap3\n      pop\n      swap3\n      jump\t// out\n        /* \"#utility.yul\":4775:4861   */\n    tag_362:\n        /* \"#utility.yul\":4810:4817   */\n      0x00\n        /* \"#utility.yul\":4850:4854   */\n      0xff\n        /* \"#utility.yul\":4843:4848   */\n      dup3\n        /* \"#utility.yul\":4839:4855   */\n      and\n        /* \"#utility.yul\":4828:4855   */\n      swap1\n      pop\n        /* \"#utility.yul\":4775:4861   */\n      swap2\n      swap1\n      pop\n      jump\t// out\n        /* \"#utility.yul\":4867:4979   */\n    tag_363:\n        /* \"#utility.yul\":4950:4972   */\n      tag_469\n        /* \"#utility.yul\":4966:4971   */\n      dup2\n        /* \"#utility.yul\":4950:4972   */\n      tag_362\n      jump\t// in\n    tag_469:\n        /* \"#utility.yul\":4945:4948   */\n      dup3\n        /* \"#utility.yul\":4938:4973   */\n      mstore\n        /* \"#utility.yul\":4867:4979   */\n      pop\n      pop\n      jump\t// out\n        /* \"#utility.yul\":4985:5199   */\n    tag_58:\n        /* \"#utility.yul\":5074:5078   */\n      0x00\n        /* \"#utility.yul\":5112:5114   */\n      0x20\n        /* \"#utility.yul\":5101:5110   */\n      dup3\n        /* \"#utility.yul\":5097:5115   */\n      add\n        /* \"#utility.yul\":5089:5115   */\n      swap1\n      pop\n        /* \"#utility.yul\":5125:5192   */\n      tag_471\n        /* \"#utility.yul\":5189:5190   */\n      0x00\n        /* \"#utility.yul\":5178:5187   */\n      dup4\n        /* \"#utility.yul\":5174:5191   */\n      add\n        /* \"#utility.yul\":5165:5171   */\n      dup5\n        /* \"#utility.yul\":5125:5192   */\n      tag_363\n      jump\t// in\n    tag_471:\n        /* \"#utility.yul\":4985:5199   */\n      swap3\n      swap2\n      pop\n      pop\n      jump\t// out\n        /* \"#utility.yul\":5205:5534   */\n    tag_69:\n        /* \"#utility.yul\":5264:5270   */\n      0x00\n        /* \"#utility.yul\":5313:5315   */\n      0x20\n        /* \"#utility.yul\":5301:5310   */\n      dup3\n        /* \"#utility.yul\":5292:5299   */\n      dup5\n        /* \"#utility.yul\":5288:5311   */\n      sub\n        /* \"#utility.yul\":5284:5316   */\n      slt\n        /* \"#utility.yul\":5281:5400   */\n      iszero\n      tag_473\n      jumpi\n        /* \"#utility.yul\":5319:5398   */\n      tag_474\n      tag_351\n      jump\t// in\n    tag_474:\n        /* \"#utility.yul\":5281:5400   */\n    tag_473:\n        /* \"#utility.yul\":5439:5440   */\n      0x00\n        /* \"#utility.yul\":5464:5517   */\n      tag_475\n        /* \"#utility.yul\":5509:5516   */\n      dup5\n        /* \"#utility.yul\":5500:5506   */\n      dup3\n        /* \"#utility.yul\":5489:5498   */\n      dup6\n        /* \"#utility.yul\":5485:5507   */\n      add\n        /* \"#utility.yul\":5464:5517   */\n      tag_356\n      jump\t// in\n    tag_475:\n        /* \"#utility.yul\":5454:5517   */\n      swap2\n      pop\n        /* \"#utility.yul\":5410:5527   */\n      pop\n        /* \"#utility.yul\":5205:5534   */\n      swap3\n      swap2\n      pop\n      pop\n      jump\t// out\n        /* \"#utility.yul\":5540:6014   */\n    tag_99:\n        /* \"#utility.yul\":5608:5614   */\n      0x00\n        /* \"#utility.yul\":5616:5622   */\n      dup1\n        /* \"#utility.yul\":5665:5667   */\n      0x40\n        /* \"#utility.yul\":5653:5662   */\n      dup4\n        /* \"#utility.yul\":5644:5651   */\n      dup6\n        /* \"#utility.yul\":5640:5663   */\n      sub\n        /* \"#utility.yul\":5636:5668   */\n      slt\n        /* \"#utility.yul\":5633:5752   */\n      iszero\n      tag_477\n      jumpi\n        /* \"#utility.yul\":5671:5750   */\n      tag_478\n      tag_351\n      jump\t// in\n    tag_478:\n        /* \"#utility.yul\":5633:5752   */\n    tag_477:\n        /* \"#utility.yul\":5791:5792   */\n      0x00\n        /* \"#utility.yul\":5816:5869   */\n      tag_479\n        /* \"#utility.yul\":5861:5868   */\n      dup6\n        /* \"#utility.yul\":5852:5858   */\n      dup3\n        /* \"#utility.yul\":5841:5850   */\n      dup7\n        /* \"#utility.yul\":5837:5859   */\n      add\n        /* \"#utility.yul\":5816:5869   */\n      tag_356\n      jump\t// in\n    tag_479:\n        /* \"#utility.yul\":5806:5869   */\n      swap3\n      pop\n        /* \"#utility.yul\":5762:5879   */\n      pop\n        /* \"#utility.yul\":5918:5920   */\n      0x20\n        /* \"#utility.yul\":5944:5997   */\n      tag_480\n        /* \"#utility.yul\":5989:5996   */\n      dup6\n        /* \"#utility.yul\":5980:5986   */\n      dup3\n        /* \"#utility.yul\":5969:5978   */\n      dup7\n        /* \"#utility.yul\":5965:5987   */\n      add\n        /* \"#utility.yul\":5944:5997   */\n      tag_356\n      jump\t// in\n    tag_480:\n        /* \"#utility.yul\":5934:5997   */\n      swap2\n      pop\n        /* \"#utility.yul\":5889:6007   */\n      pop\n        /* \"#utility.yul\":5540:6014   */\n      swap3\n      pop\n      swap3\n      swap1\n      pop\n      jump\t// out\n        /* \"#utility.yul\":6020:6349   */\n    tag_104:\n        /* \"#utility.yul\":6079:6085   */\n      0x00\n        /* \"#utility.yul\":6128:6130   */\n      0x20\n        /* \"#utility.yul\":6116:6125   */\n      dup3\n        /* \"#utility.yul\":6107:6114   */\n      dup5\n        /* \"#utility.yul\":6103:6126   */\n      sub\n        /* \"#utility.yul\":6099:6131   */\n      slt\n        /* \"#utility.yul\":6096:6215   */\n      iszero\n      tag_482\n      jumpi\n        /* \"#utility.yul\":6134:6213   */\n      tag_483\n      tag_351\n      jump\t// in\n    tag_483:\n        /* \"#utility.yul\":6096:6215   */\n    tag_482:\n        /* \"#utility.yul\":6254:6255   */\n      0x00\n        /* \"#utility.yul\":6279:6332   */\n      tag_484\n        /* \"#utility.yul\":6324:6331   */\n      dup5\n        /* \"#utility.yul\":6315:6321   */\n      dup3\n        /* \"#utility.yul\":6304:6313   */\n      dup6\n        /* \"#utility.yul\":6300:6322   */\n      add\n        /* \"#utility.yul\":6279:6332   */\n      tag_358\n      jump\t// in\n    tag_484:\n        /* \"#utility.yul\":6269:6332   */\n      swap2\n      pop\n        /* \"#utility.yul\":6225:6342   */\n      pop\n        /* \"#utility.yul\":6020:6349   */\n      swap3\n      swap2\n      pop\n      pop\n      jump\t// out\n        /* \"#utility.yul\":6355:6535   */\n    tag_364:\n        /* \"#utility.yul\":6403:6480   */\n      0x4e487b7100000000000000000000000000000000000000000000000000000000\n        /* \"#utility.yul\":6400:6401   */\n      0x00\n        /* \"#utility.yul\":6393:6481   */\n      mstore\n        /* \"#utility.yul\":6500:6504   */\n      0x22\n        /* \"#utility.yul\":6497:6498   */\n      0x04\n        /* \"#utility.yul\":6490:6505   */\n      mstore\n        /* \"#utility.yul\":6524:6528   */\n      0x24\n        /* \"#utility.yul\":6521:6522   */\n      0x00\n        /* \"#utility.yul\":6514:6529   */\n      revert\n        /* \"#utility.yul\":6541:6861   */\n    tag_114:\n        /* \"#utility.yul\":6585:6591   */\n      0x00\n        /* \"#utility.yul\":6622:6623   */\n      0x02\n        /* \"#utility.yul\":6616:6620   */\n      dup3\n        /* \"#utility.yul\":6612:6624   */\n      div\n        /* \"#utility.yul\":6602:6624   */\n      swap1\n      pop\n        /* \"#utility.yul\":6669:6670   */\n      0x01\n        /* \"#utility.yul\":6663:6667   */\n      dup3\n        /* \"#utility.yul\":6659:6671   */\n      and\n        /* \"#utility.yul\":6690:6708   */\n      dup1\n        /* \"#utility.yul\":6680:6761   */\n      tag_487\n      jumpi\n        /* \"#utility.yul\":6746:6750   */\n      0x7f\n        /* \"#utility.yul\":6738:6744   */\n      dup3\n        /* \"#utility.yul\":6734:6751   */\n      and\n        /* \"#utility.yul\":6724:6751   */\n      swap2\n      pop\n        /* \"#utility.yul\":6680:6761   */\n    tag_487:\n        /* \"#utility.yul\":6808:6810   */\n      0x20\n        /* \"#utility.yul\":6800:6806   */\n      dup3\n        /* \"#utility.yul\":6797:6811   */\n      lt\n        /* \"#utility.yul\":6777:6795   */\n      dup2\n        /* \"#utility.yul\":6774:6812   */\n      sub\n        /* \"#utility.yul\":6771:6855   */\n      tag_488\n      jumpi\n        /* \"#utility.yul\":6827:6845   */\n      tag_489\n      tag_364\n      jump\t// in\n    tag_489:\n        /* \"#utility.yul\":6771:6855   */\n    tag_488:\n        /* \"#utility.yul\":6592:6861   */\n      pop\n        /* \"#utility.yul\":6541:6861   */\n      swap2\n      swap1\n      pop\n      jump\t// out\n        /* \"#utility.yul\":6867:7031   */\n    tag_365:\n        /* \"#utility.yul\":7007:7023   */\n      0x4e6f7420617574686f72697a6564000000000000000000000000000000000000\n        /* \"#utility.yul\":7003:7004   */\n      0x00\n        /* \"#utility.yul\":6995:7001   */\n      dup3\n        /* \"#utility.yul\":6991:7005   */\n      add\n        /* \"#utility.yul\":6984:7024   */\n      mstore\n        /* \"#utility.yul\":6867:7031   */\n      pop\n      jump\t// out\n        /* \"#utility.yul\":7037:7403   */\n    tag_366:\n        /* \"#utility.yul\":7179:7182   */\n      0x00\n        /* \"#utility.yul\":7200:7267   */\n      tag_492\n        /* \"#utility.yul\":7264:7266   */\n      0x0e\n        /* \"#utility.yul\":7259:7262   */\n      dup4\n        /* \"#utility.yul\":7200:7267   */\n      tag_346\n      jump\t// in\n    tag_492:\n        /* \"#utility.yul\":7193:7267   */\n      swap2\n      pop\n        /* \"#utility.yul\":7276:7369   */\n      tag_493\n        /* \"#utility.yul\":7365:7368   */\n      dup3\n        /* \"#utility.yul\":7276:7369   */\n      tag_365\n      jump\t// in\n    tag_493:\n        /* \"#utility.yul\":7394:7396   */\n      0x20\n        /* \"#utility.yul\":7389:7392   */\n      dup3\n        /* \"#utility.yul\":7385:7397   */\n      add\n        /* \"#utility.yul\":7378:7397   */\n      swap1\n      pop\n        /* \"#utility.yul\":7037:7403   */\n      swap2\n      swap1\n      pop\n      jump\t// out\n        /* \"#utility.yul\":7409:7828   */\n    tag_135:\n        /* \"#utility.yul\":7575:7579   */\n      0x00\n        /* \"#utility.yul\":7613:7615   */\n      0x20\n        /* \"#utility.yul\":7602:7611   */\n      dup3\n        /* \"#utility.yul\":7598:7616   */\n      add\n        /* \"#utility.yul\":7590:7616   */\n      swap1\n      pop\n        /* \"#utility.yul\":7662:7671   */\n      dup2\n        /* \"#utility.yul\":7656:7660   */\n      dup2\n        /* \"#utility.yul\":7652:7672   */\n      sub\n        /* \"#utility.yul\":7648:7649   */\n      0x00\n        /* \"#utility.yul\":7637:7646   */\n      dup4\n        /* \"#utility.yul\":7633:7650   */\n      add\n        /* \"#utility.yul\":7626:7673   */\n      mstore\n        /* \"#utility.yul\":7690:7821   */\n      tag_495\n        /* \"#utility.yul\":7816:7820   */\n      dup2\n        /* \"#utility.yul\":7690:7821   */\n      tag_366\n      jump\t// in\n    tag_495:\n        /* \"#utility.yul\":7682:7821   */\n      swap1\n      pop\n        /* \"#utility.yul\":7409:7828   */\n      swap2\n      swap1\n      pop\n      jump\t// out\n        /* \"#utility.yul\":7834:7977   */\n    tag_367:\n        /* \"#utility.yul\":7891:7896   */\n      0x00\n        /* \"#utility.yul\":7922:7928   */\n      dup2\n        /* \"#utility.yul\":7916:7929   */\n      mload\n        /* \"#utility.yul\":7907:7929   */\n      swap1\n      pop\n        /* \"#utility.yul\":7938:7971   */\n      tag_497\n        /* \"#utility.yul\":7965:7970   */\n      dup2\n        /* \"#utility.yul\":7938:7971   */\n      tag_357\n      jump\t// in\n    tag_497:\n        /* \"#utility.yul\":7834:7977   */\n      swap3\n      swap2\n      pop\n      pop\n      jump\t// out\n        /* \"#utility.yul\":7983:8334   */\n    tag_141:\n        /* \"#utility.yul\":8053:8059   */\n      0x00\n        /* \"#utility.yul\":8102:8104   */\n      0x20\n        /* \"#utility.yul\":8090:8099   */\n      dup3\n        /* \"#utility.yul\":8081:8088   */\n      dup5\n        /* \"#utility.yul\":8077:8100   */\n      sub\n        /* \"#utility.yul\":8073:8105   */\n      slt\n        /* \"#utility.yul\":8070:8189   */\n      iszero\n      tag_499\n      jumpi\n        /* \"#utility.yul\":8108:8187   */\n      tag_500\n      tag_351\n      jump\t// in\n    tag_500:\n        /* \"#utility.yul\":8070:8189   */\n    tag_499:\n        /* \"#utility.yul\":8228:8229   */\n      0x00\n        /* \"#utility.yul\":8253:8317   */\n      tag_501\n        /* \"#utility.yul\":8309:8316   */\n      dup5\n        /* \"#utility.yul\":8300:8306   */\n      dup3\n        /* \"#utility.yul\":8289:8298   */\n      dup6\n        /* \"#utility.yul\":8285:8307   */\n      add\n        /* \"#utility.yul\":8253:8317   */\n      tag_367\n      jump\t// in\n    tag_501:\n        /* \"#utility.yul\":8243:8317   */\n      swap2\n      pop\n        /* \"#utility.yul\":8199:8327   */\n      pop\n        /* \"#utility.yul\":7983:8334   */\n      swap3\n      swap2\n      pop\n      pop\n      jump\t// out\n        /* \"#utility.yul\":8340:8511   */\n    tag_368:\n        /* \"#utility.yul\":8480:8503   */\n      0x4e6f20746f6b656e7320746f2077697468647261770000000000000000000000\n        /* \"#utility.yul\":8476:8477   */\n      0x00\n        /* \"#utility.yul\":8468:8474   */\n      dup3\n        /* \"#utility.yul\":8464:8478   */\n      add\n        /* \"#utility.yul\":8457:8504   */\n      mstore\n        /* \"#utility.yul\":8340:8511   */\n      pop\n      jump\t// out\n        /* \"#utility.yul\":8517:8883   */\n    tag_369:\n        /* \"#utility.yul\":8659:8662   */\n      0x00\n        /* \"#utility.yul\":8680:8747   */\n      tag_504\n        /* \"#utility.yul\":8744:8746   */\n      0x15\n        /* \"#utility.yul\":8739:8742   */\n      dup4\n        /* \"#utility.yul\":8680:8747   */\n      tag_346\n      jump\t// in\n    tag_504:\n        /* \"#utility.yul\":8673:8747   */\n      swap2\n      pop\n        /* \"#utility.yul\":8756:8849   */\n      tag_505\n        /* \"#utility.yul\":8845:8848   */\n      dup3\n        /* \"#utility.yul\":8756:8849   */\n      tag_368\n      jump\t// in\n    tag_505:\n        /* \"#utility.yul\":8874:8876   */\n      0x20\n        /* \"#utility.yul\":8869:8872   */\n      dup3\n        /* \"#utility.yul\":8865:8877   */\n      add\n        /* \"#utility.yul\":8858:8877   */\n      swap1\n      pop\n        /* \"#utility.yul\":8517:8883   */\n      swap2\n      swap1\n      pop\n      jump\t// out\n        /* \"#utility.yul\":8889:9308   */\n    tag_144:\n        /* \"#utility.yul\":9055:9059   */\n      0x00\n        /* \"#utility.yul\":9093:9095   */\n      0x20\n        /* \"#utility.yul\":9082:9091   */\n      dup3\n        /* \"#utility.yul\":9078:9096   */\n      add\n        /* \"#utility.yul\":9070:9096   */\n      swap1\n      pop\n        /* \"#utility.yul\":9142:9151   */\n      dup2\n        /* \"#utility.yul\":9136:9140   */\n      dup2\n        /* \"#utility.yul\":9132:9152   */\n      sub\n        /* \"#utility.yul\":9128:9129   */\n      0x00\n        /* \"#utility.yul\":9117:9126   */\n      dup4\n        /* \"#utility.yul\":9113:9130   */\n      add\n        /* \"#utility.yul\":9106:9153   */\n      mstore\n        /* \"#utility.yul\":9170:9301   */\n      tag_507\n        /* \"#utility.yul\":9296:9300   */\n      dup2\n        /* \"#utility.yul\":9170:9301   */\n      tag_369\n      jump\t// in\n    tag_507:\n        /* \"#utility.yul\":9162:9301   */\n      swap1\n      pop\n        /* \"#utility.yul\":8889:9308   */\n      swap2\n      swap1\n      pop\n      jump\t// out\n        /* \"#utility.yul\":9314:9481   */\n    tag_370:\n        /* \"#utility.yul\":9454:9473   */\n      0x4e6f7420456e6f75676820537570706c79000000000000000000000000000000\n        /* \"#utility.yul\":9450:9451   */\n      0x00\n        /* \"#utility.yul\":9442:9448   */\n      dup3\n        /* \"#utility.yul\":9438:9452   */\n      add\n        /* \"#utility.yul\":9431:9474   */\n      mstore\n        /* \"#utility.yul\":9314:9481   */\n      pop\n      jump\t// out\n        /* \"#utility.yul\":9487:9853   */\n    tag_371:\n        /* \"#utility.yul\":9629:9632   */\n      0x00\n        /* \"#utility.yul\":9650:9717   */\n      tag_510\n        /* \"#utility.yul\":9714:9716   */\n      0x11\n        /* \"#utility.yul\":9709:9712   */\n      dup4\n        /* \"#utility.yul\":9650:9717   */\n      tag_346\n      jump\t// in\n    tag_510:\n        /* \"#utility.yul\":9643:9717   */\n      swap2\n      pop\n        /* \"#utility.yul\":9726:9819   */\n      tag_511\n        /* \"#utility.yul\":9815:9818   */\n      dup3\n        /* \"#utility.yul\":9726:9819   */\n      tag_370\n      jump\t// in\n    tag_511:\n        /* \"#utility.yul\":9844:9846   */\n      0x20\n        /* \"#utility.yul\":9839:9842   */\n      dup3\n        /* \"#utility.yul\":9835:9847   */\n      add\n        /* \"#utility.yul\":9828:9847   */\n      swap1\n      pop\n        /* \"#utility.yul\":9487:9853   */\n      swap2\n      swap1\n      pop\n      jump\t// out\n        /* \"#utility.yul\":9859:10278   */\n    tag_147:\n        /* \"#utility.yul\":10025:10029   */\n      0x00\n        /* \"#utility.yul\":10063:10065   */\n      0x20\n        /* \"#utility.yul\":10052:10061   */\n      dup3\n        /* \"#utility.yul\":10048:10066   */\n      add\n        /* \"#utility.yul\":10040:10066   */\n      swap1\n      pop\n        /* \"#utility.yul\":10112:10121   */\n      dup2\n        /* \"#utility.yul\":10106:10110   */\n      dup2\n        /* \"#utility.yul\":10102:10122   */\n      sub\n        /* \"#utility.yul\":10098:10099   */\n      0x00\n        /* \"#utility.yul\":10087:10096   */\n      dup4\n        /* \"#utility.yul\":10083:10100   */\n      add\n        /* \"#utility.yul\":10076:10123   */\n      mstore\n        /* \"#utility.yul\":10140:10271   */\n      tag_513\n        /* \"#utility.yul\":10266:10270   */\n      dup2\n        /* \"#utility.yul\":10140:10271   */\n      tag_371\n      jump\t// in\n    tag_513:\n        /* \"#utility.yul\":10132:10271   */\n      swap1\n      pop\n        /* \"#utility.yul\":9859:10278   */\n      swap2\n      swap1\n      pop\n      jump\t// out\n        /* \"#utility.yul\":10284:10616   */\n    tag_151:\n        /* \"#utility.yul\":10405:10409   */\n      0x00\n        /* \"#utility.yul\":10443:10445   */\n      0x40\n        /* \"#utility.yul\":10432:10441   */\n      dup3\n        /* \"#utility.yul\":10428:10446   */\n      add\n        /* \"#utility.yul\":10420:10446   */\n      swap1\n      pop\n        /* \"#utility.yul\":10456:10527   */\n      tag_515\n        /* \"#utility.yul\":10524:10525   */\n      0x00\n        /* \"#utility.yul\":10513:10522   */\n      dup4\n        /* \"#utility.yul\":10509:10526   */\n      add\n        /* \"#utility.yul\":10500:10506   */\n      dup6\n        /* \"#utility.yul\":10456:10527   */\n      tag_361\n      jump\t// in\n    tag_515:\n        /* \"#utility.yul\":10537:10609   */\n      tag_516\n        /* \"#utility.yul\":10605:10607   */\n      0x20\n        /* \"#utility.yul\":10594:10603   */\n      dup4\n        /* \"#utility.yul\":10590:10608   */\n      add\n        /* \"#utility.yul\":10581:10587   */\n      dup5\n        /* \"#utility.yul\":10537:10609   */\n      tag_344\n      jump\t// in\n    tag_516:\n        /* \"#utility.yul\":10284:10616   */\n      swap4\n      swap3\n      pop\n      pop\n      pop\n      jump\t// out\n        /* \"#utility.yul\":10622:10738   */\n    tag_372:\n        /* \"#utility.yul\":10692:10713   */\n      tag_518\n        /* \"#utility.yul\":10707:10712   */\n      dup2\n        /* \"#utility.yul\":10692:10713   */\n      tag_359\n      jump\t// in\n    tag_518:\n        /* \"#utility.yul\":10685:10690   */\n      dup2\n        /* \"#utility.yul\":10682:10714   */\n      eq\n        /* \"#utility.yul\":10672:10732   */\n      tag_519\n      jumpi\n        /* \"#utility.yul\":10728:10729   */\n      0x00\n        /* \"#utility.yul\":10725:10726   */\n      dup1\n        /* \"#utility.yul\":10718:10730   */\n      revert\n        /* \"#utility.yul\":10672:10732   */\n    tag_519:\n        /* \"#utility.yul\":10622:10738   */\n      pop\n      jump\t// out\n        /* \"#utility.yul\":10744:10881   */\n    tag_373:\n        /* \"#utility.yul\":10798:10803   */\n      0x00\n        /* \"#utility.yul\":10829:10835   */\n      dup2\n        /* \"#utility.yul\":10823:10836   */\n      mload\n        /* \"#utility.yul\":10814:10836   */\n      swap1\n      pop\n        /* \"#utility.yul\":10845:10875   */\n      tag_521\n        /* \"#utility.yul\":10869:10874   */\n      dup2\n        /* \"#utility.yul\":10845:10875   */\n      tag_372\n      jump\t// in\n    tag_521:\n        /* \"#utility.yul\":10744:10881   */\n      swap3\n      swap2\n      pop\n      pop\n      jump\t// out\n        /* \"#utility.yul\":10887:11232   */\n    tag_155:\n        /* \"#utility.yul\":10954:10960   */\n      0x00\n        /* \"#utility.yul\":11003:11005   */\n      0x20\n        /* \"#utility.yul\":10991:11000   */\n      dup3\n        /* \"#utility.yul\":10982:10989   */\n      dup5\n        /* \"#utility.yul\":10978:11001   */\n      sub\n        /* \"#utility.yul\":10974:11006   */\n      slt\n        /* \"#utility.yul\":10971:11090   */\n      iszero\n      tag_523\n      jumpi\n        /* \"#utility.yul\":11009:11088   */\n      tag_524\n      tag_351\n      jump\t// in\n    tag_524:\n        /* \"#utility.yul\":10971:11090   */\n    tag_523:\n        /* \"#utility.yul\":11129:11130   */\n      0x00\n        /* \"#utility.yul\":11154:11215   */\n      tag_525\n        /* \"#utility.yul\":11207:11214   */\n      dup5\n        /* \"#utility.yul\":11198:11204   */\n      dup3\n        /* \"#utility.yul\":11187:11196   */\n      dup6\n        /* \"#utility.yul\":11183:11205   */\n      add\n        /* \"#utility.yul\":11154:11215   */\n      tag_373\n      jump\t// in\n    tag_525:\n        /* \"#utility.yul\":11144:11215   */\n      swap2\n      pop\n        /* \"#utility.yul\":11100:11225   */\n      pop\n        /* \"#utility.yul\":10887:11232   */\n      swap3\n      swap2\n      pop\n      pop\n      jump\t// out\n        /* \"#utility.yul\":11238:11420   */\n    tag_374:\n        /* \"#utility.yul\":11378:11412   */\n      0x416d6f756e74206d7573742062652067726561746572207468616e207a65726f\n        /* \"#utility.yul\":11374:11375   */\n      0x00\n        /* \"#utility.yul\":11366:11372   */\n      dup3\n        /* \"#utility.yul\":11362:11376   */\n      add\n        /* \"#utility.yul\":11355:11413   */\n      mstore\n        /* \"#utility.yul\":11238:11420   */\n      pop\n      jump\t// out\n        /* \"#utility.yul\":11426:11792   */\n    tag_375:\n        /* \"#utility.yul\":11568:11571   */\n      0x00\n        /* \"#utility.yul\":11589:11656   */\n      tag_528\n        /* \"#utility.yul\":11653:11655   */\n      0x20\n        /* \"#utility.yul\":11648:11651   */\n      dup4\n        /* \"#utility.yul\":11589:11656   */\n      tag_346\n      jump\t// in\n    tag_528:\n        /* \"#utility.yul\":11582:11656   */\n      swap2\n      pop\n        /* \"#utility.yul\":11665:11758   */\n      tag_529\n        /* \"#utility.yul\":11754:11757   */\n      dup3\n        /* \"#utility.yul\":11665:11758   */\n      tag_374\n      jump\t// in\n    tag_529:\n        /* \"#utility.yul\":11783:11785   */\n      0x20\n        /* \"#utility.yul\":11778:11781   */\n      dup3\n        /* \"#utility.yul\":11774:11786   */\n      add\n        /* \"#utility.yul\":11767:11786   */\n      swap1\n      pop\n        /* \"#utility.yul\":11426:11792   */\n      swap2\n      swap1\n      pop\n      jump\t// out\n        /* \"#utility.yul\":11798:12217   */\n    tag_179:\n        /* \"#utility.yul\":11964:11968   */\n      0x00\n        /* \"#utility.yul\":12002:12004   */\n      0x20\n        /* \"#utility.yul\":11991:12000   */\n      dup3\n        /* \"#utility.yul\":11987:12005   */\n      add\n        /* \"#utility.yul\":11979:12005   */\n      swap1\n      pop\n        /* \"#utility.yul\":12051:12060   */\n      dup2\n        /* \"#utility.yul\":12045:12049   */\n      dup2\n        /* \"#utility.yul\":12041:12061   */\n      sub\n        /* \"#utility.yul\":12037:12038   */\n      0x00\n        /* \"#utility.yul\":12026:12035   */\n      dup4\n        /* \"#utility.yul\":12022:12039   */\n      add\n        /* \"#utility.yul\":12015:12062   */\n      mstore\n        /* \"#utility.yul\":12079:12210   */\n      tag_531\n        /* \"#utility.yul\":12205:12209   */\n      dup2\n        /* \"#utility.yul\":12079:12210   */\n      tag_375\n      jump\t// in\n    tag_531:\n        /* \"#utility.yul\":12071:12210   */\n      swap1\n      pop\n        /* \"#utility.yul\":11798:12217   */\n      swap2\n      swap1\n      pop\n      jump\t// out\n        /* \"#utility.yul\":12223:12403   */\n    tag_182:\n        /* \"#utility.yul\":12271:12348   */\n      0x4e487b7100000000000000000000000000000000000000000000000000000000\n        /* \"#utility.yul\":12268:12269   */\n      0x00\n        /* \"#utility.yul\":12261:12349   */\n      mstore\n        /* \"#utility.yul\":12368:12372   */\n      0x41\n        /* \"#utility.yul\":12365:12366   */\n      0x04\n        /* \"#utility.yul\":12358:12373   */\n      mstore\n        /* \"#utility.yul\":12392:12396   */\n      0x24\n        /* \"#utility.yul\":12389:12390   */\n      0x00\n        /* \"#utility.yul\":12382:12397   */\n      revert\n        /* \"#utility.yul\":12409:12494   */\n    tag_376:\n        /* \"#utility.yul\":12454:12461   */\n      0x00\n        /* \"#utility.yul\":12483:12488   */\n      dup2\n        /* \"#utility.yul\":12472:12488   */\n      swap1\n      pop\n        /* \"#utility.yul\":12409:12494   */\n      swap2\n      swap1\n      pop\n      jump\t// out\n        /* \"#utility.yul\":12500:12560   */\n    tag_377:\n        /* \"#utility.yul\":12528:12531   */\n      0x00\n        /* \"#utility.yul\":12549:12554   */\n      dup2\n        /* \"#utility.yul\":12542:12554   */\n      swap1\n      pop\n        /* \"#utility.yul\":12500:12560   */\n      swap2\n      swap1\n      pop\n      jump\t// out\n        /* \"#utility.yul\":12566:12720   */\n    tag_378:\n        /* \"#utility.yul\":12622:12631   */\n      0x00\n        /* \"#utility.yul\":12655:12714   */\n      tag_536\n        /* \"#utility.yul\":12671:12713   */\n      tag_537\n        /* \"#utility.yul\":12680:12712   */\n      tag_538\n        /* \"#utility.yul\":12706:12711   */\n      dup5\n        /* \"#utility.yul\":12680:12712   */\n      tag_376\n      jump\t// in\n    tag_538:\n        /* \"#utility.yul\":12671:12713   */\n      tag_377\n      jump\t// in\n    tag_537:\n        /* \"#utility.yul\":12655:12714   */\n      tag_362\n      jump\t// in\n    tag_536:\n        /* \"#utility.yul\":12642:12714   */\n      swap1\n      pop\n        /* \"#utility.yul\":12566:12720   */\n      swap2\n      swap1\n      pop\n      jump\t// out\n        /* \"#utility.yul\":12726:12869   */\n    tag_379:\n        /* \"#utility.yul\":12819:12862   */\n      tag_540\n        /* \"#utility.yul\":12856:12861   */\n      dup2\n        /* \"#utility.yul\":12819:12862   */\n      tag_378\n      jump\t// in\n    tag_540:\n        /* \"#utility.yul\":12814:12817   */\n      dup3\n        /* \"#utility.yul\":12807:12863   */\n      mstore\n        /* \"#utility.yul\":12726:12869   */\n      pop\n      pop\n      jump\t// out\n        /* \"#utility.yul\":12875:12973   */\n    tag_380:\n        /* \"#utility.yul\":12926:12932   */\n      0x00\n        /* \"#utility.yul\":12960:12965   */\n      dup2\n        /* \"#utility.yul\":12954:12966   */\n      mload\n        /* \"#utility.yul\":12944:12966   */\n      swap1\n      pop\n        /* \"#utility.yul\":12875:12973   */\n      swap2\n      swap1\n      pop\n      jump\t// out\n        /* \"#utility.yul\":12979:13147   */\n    tag_381:\n        /* \"#utility.yul\":13062:13073   */\n      0x00\n        /* \"#utility.yul\":13096:13102   */\n      dup3\n        /* \"#utility.yul\":13091:13094   */\n      dup3\n        /* \"#utility.yul\":13084:13103   */\n      mstore\n        /* \"#utility.yul\":13136:13140   */\n      0x20\n        /* \"#utility.yul\":13131:13134   */\n      dup3\n        /* \"#utility.yul\":13127:13141   */\n      add\n        /* \"#utility.yul\":13112:13141   */\n      swap1\n      pop\n        /* \"#utility.yul\":12979:13147   */\n      swap3\n      swap2\n      pop\n      pop\n      jump\t// out\n        /* \"#utility.yul\":13153:13526   */\n    tag_382:\n        /* \"#utility.yul\":13239:13242   */\n      0x00\n        /* \"#utility.yul\":13267:13305   */\n      tag_544\n        /* \"#utility.yul\":13299:13304   */\n      dup3\n        /* \"#utility.yul\":13267:13305   */\n      tag_380\n      jump\t// in\n    tag_544:\n        /* \"#utility.yul\":13321:13391   */\n      tag_545\n        /* \"#utility.yul\":13384:13390   */\n      dup2\n        /* \"#utility.yul\":13379:13382   */\n      dup6\n        /* \"#utility.yul\":13321:13391   */\n      tag_381\n      jump\t// in\n    tag_545:\n        /* \"#utility.yul\":13314:13391   */\n      swap4\n      pop\n        /* \"#utility.yul\":13400:13465   */\n      tag_546\n        /* \"#utility.yul\":13458:13464   */\n      dup2\n        /* \"#utility.yul\":13453:13456   */\n      dup6\n        /* \"#utility.yul\":13446:13450   */\n      0x20\n        /* \"#utility.yul\":13439:13444   */\n      dup7\n        /* \"#utility.yul\":13435:13451   */\n      add\n        /* \"#utility.yul\":13400:13465   */\n      tag_347\n      jump\t// in\n    tag_546:\n        /* \"#utility.yul\":13490:13519   */\n      tag_547\n        /* \"#utility.yul\":13512:13518   */\n      dup2\n        /* \"#utility.yul\":13490:13519   */\n      tag_348\n      jump\t// in\n    tag_547:\n        /* \"#utility.yul\":13485:13488   */\n      dup5\n        /* \"#utility.yul\":13481:13520   */\n      add\n        /* \"#utility.yul\":13474:13520   */\n      swap2\n      pop\n        /* \"#utility.yul\":13243:13526   */\n      pop\n        /* \"#utility.yul\":13153:13526   */\n      swap3\n      swap2\n      pop\n      pop\n      jump\t// out\n        /* \"#utility.yul\":13532:14295   */\n    tag_185:\n        /* \"#utility.yul\":13761:13765   */\n      0x00\n        /* \"#utility.yul\":13799:13802   */\n      0xa0\n        /* \"#utility.yul\":13788:13797   */\n      dup3\n        /* \"#utility.yul\":13784:13803   */\n      add\n        /* \"#utility.yul\":13776:13803   */\n      swap1\n      pop\n        /* \"#utility.yul\":13813:13884   */\n      tag_549\n        /* \"#utility.yul\":13881:13882   */\n      0x00\n        /* \"#utility.yul\":13870:13879   */\n      dup4\n        /* \"#utility.yul\":13866:13883   */\n      add\n        /* \"#utility.yul\":13857:13863   */\n      dup9\n        /* \"#utility.yul\":13813:13884   */\n      tag_361\n      jump\t// in\n    tag_549:\n        /* \"#utility.yul\":13894:13960   */\n      tag_550\n        /* \"#utility.yul\":13956:13958   */\n      0x20\n        /* \"#utility.yul\":13945:13954   */\n      dup4\n        /* \"#utility.yul\":13941:13959   */\n      add\n        /* \"#utility.yul\":13932:13938   */\n      dup8\n        /* \"#utility.yul\":13894:13960   */\n      tag_360\n      jump\t// in\n    tag_550:\n        /* \"#utility.yul\":13970:14048   */\n      tag_551\n        /* \"#utility.yul\":14044:14046   */\n      0x40\n        /* \"#utility.yul\":14033:14042   */\n      dup4\n        /* \"#utility.yul\":14029:14047   */\n      add\n        /* \"#utility.yul\":14020:14026   */\n      dup7\n        /* \"#utility.yul\":13970:14048   */\n      tag_379\n      jump\t// in\n    tag_551:\n        /* \"#utility.yul\":14058:14136   */\n      tag_552\n        /* \"#utility.yul\":14132:14134   */\n      0x60\n        /* \"#utility.yul\":14121:14130   */\n      dup4\n        /* \"#utility.yul\":14117:14135   */\n      add\n        /* \"#utility.yul\":14108:14114   */\n      dup6\n        /* \"#utility.yul\":14058:14136   */\n      tag_379\n      jump\t// in\n    tag_552:\n        /* \"#utility.yul\":14184:14193   */\n      dup2\n        /* \"#utility.yul\":14178:14182   */\n      dup2\n        /* \"#utility.yul\":14174:14194   */\n      sub\n        /* \"#utility.yul\":14168:14171   */\n      0x80\n        /* \"#utility.yul\":14157:14166   */\n      dup4\n        /* \"#utility.yul\":14153:14172   */\n      add\n        /* \"#utility.yul\":14146:14195   */\n      mstore\n        /* \"#utility.yul\":14212:14288   */\n      tag_553\n        /* \"#utility.yul\":14283:14287   */\n      dup2\n        /* \"#utility.yul\":14274:14280   */\n      dup5\n        /* \"#utility.yul\":14212:14288   */\n      tag_382\n      jump\t// in\n    tag_553:\n        /* \"#utility.yul\":14204:14288   */\n      swap1\n      pop\n        /* \"#utility.yul\":13532:14295   */\n      swap7\n      swap6\n      pop\n      pop\n      pop\n      pop\n      pop\n      pop\n      jump\t// out\n        /* \"#utility.yul\":14301:14448   */\n    tag_383:\n        /* \"#utility.yul\":14402:14413   */\n      0x00\n        /* \"#utility.yul\":14439:14442   */\n      dup2\n        /* \"#utility.yul\":14424:14442   */\n      swap1\n      pop\n        /* \"#utility.yul\":14301:14448   */\n      swap3\n      swap2\n      pop\n      pop\n      jump\t// out\n        /* \"#utility.yul\":14454:14840   */\n    tag_384:\n        /* \"#utility.yul\":14558:14561   */\n      0x00\n        /* \"#utility.yul\":14586:14624   */\n      tag_556\n        /* \"#utility.yul\":14618:14623   */\n      dup3\n        /* \"#utility.yul\":14586:14624   */\n      tag_380\n      jump\t// in\n    tag_556:\n        /* \"#utility.yul\":14640:14728   */\n      tag_557\n        /* \"#utility.yul\":14721:14727   */\n      dup2\n        /* \"#utility.yul\":14716:14719   */\n      dup6\n        /* \"#utility.yul\":14640:14728   */\n      tag_383\n      jump\t// in\n    tag_557:\n        /* \"#utility.yul\":14633:14728   */\n      swap4\n      pop\n        /* \"#utility.yul\":14737:14802   */\n      tag_558\n        /* \"#utility.yul\":14795:14801   */\n      dup2\n        /* \"#utility.yul\":14790:14793   */\n      dup6\n        /* \"#utility.yul\":14783:14787   */\n      0x20\n        /* \"#utility.yul\":14776:14781   */\n      dup7\n        /* \"#utility.yul\":14772:14788   */\n      add\n        /* \"#utility.yul\":14737:14802   */\n      tag_347\n      jump\t// in\n    tag_558:\n        /* \"#utility.yul\":14827:14833   */\n      dup1\n        /* \"#utility.yul\":14822:14825   */\n      dup5\n        /* \"#utility.yul\":14818:14834   */\n      add\n        /* \"#utility.yul\":14811:14834   */\n      swap2\n      pop\n        /* \"#utility.yul\":14562:14840   */\n      pop\n        /* \"#utility.yul\":14454:14840   */\n      swap3\n      swap2\n      pop\n      pop\n      jump\t// out\n        /* \"#utility.yul\":14846:15117   */\n    tag_187:\n        /* \"#utility.yul\":14976:14979   */\n      0x00\n        /* \"#utility.yul\":14998:15091   */\n      tag_560\n        /* \"#utility.yul\":15087:15090   */\n      dup3\n        /* \"#utility.yul\":15078:15084   */\n      dup5\n        /* \"#utility.yul\":14998:15091   */\n      tag_384\n      jump\t// in\n    tag_560:\n        /* \"#utility.yul\":14991:15091   */\n      swap2\n      pop\n        /* \"#utility.yul\":15108:15111   */\n      dup2\n        /* \"#utility.yul\":15101:15111   */\n      swap1\n      pop\n        /* \"#utility.yul\":14846:15117   */\n      swap3\n      swap2\n      pop\n      pop\n      jump\t// out\n        /* \"#utility.yul\":15123:15287   */\n    tag_385:\n        /* \"#utility.yul\":15263:15279   */\n      0x4661696c656420746f204d696e74000000000000000000000000000000000000\n        /* \"#utility.yul\":15259:15260   */\n      0x00\n        /* \"#utility.yul\":15251:15257   */\n      dup3\n        /* \"#utility.yul\":15247:15261   */\n      add\n        /* \"#utility.yul\":15240:15280   */\n      mstore\n        /* \"#utility.yul\":15123:15287   */\n      pop\n      jump\t// out\n        /* \"#utility.yul\":15293:15659   */\n    tag_386:\n        /* \"#utility.yul\":15435:15438   */\n      0x00\n        /* \"#utility.yul\":15456:15523   */\n      tag_563\n        /* \"#utility.yul\":15520:15522   */\n      0x0e\n        /* \"#utility.yul\":15515:15518   */\n      dup4\n        /* \"#utility.yul\":15456:15523   */\n      tag_346\n      jump\t// in\n    tag_563:\n        /* \"#utility.yul\":15449:15523   */\n      swap2\n      pop\n        /* \"#utility.yul\":15532:15625   */\n      tag_564\n        /* \"#utility.yul\":15621:15624   */\n      dup3\n        /* \"#utility.yul\":15532:15625   */\n      tag_385\n      jump\t// in\n    tag_564:\n        /* \"#utility.yul\":15650:15652   */\n      0x20\n        /* \"#utility.yul\":15645:15648   */\n      dup3\n        /* \"#utility.yul\":15641:15653   */\n      add\n        /* \"#utility.yul\":15634:15653   */\n      swap1\n      pop\n        /* \"#utility.yul\":15293:15659   */\n      swap2\n      swap1\n      pop\n      jump\t// out\n        /* \"#utility.yul\":15665:16084   */\n    tag_193:\n        /* \"#utility.yul\":15831:15835   */\n      0x00\n        /* \"#utility.yul\":15869:15871   */\n      0x20\n        /* \"#utility.yul\":15858:15867   */\n      dup3\n        /* \"#utility.yul\":15854:15872   */\n      add\n        /* \"#utility.yul\":15846:15872   */\n      swap1\n      pop\n        /* \"#utility.yul\":15918:15927   */\n      dup2\n        /* \"#utility.yul\":15912:15916   */\n      dup2\n        /* \"#utility.yul\":15908:15928   */\n      sub\n        /* \"#utility.yul\":15904:15905   */\n      0x00\n        /* \"#utility.yul\":15893:15902   */\n      dup4\n        /* \"#utility.yul\":15889:15906   */\n      add\n        /* \"#utility.yul\":15882:15929   */\n      mstore\n        /* \"#utility.yul\":15946:16077   */\n      tag_566\n        /* \"#utility.yul\":16072:16076   */\n      dup2\n        /* \"#utility.yul\":15946:16077   */\n      tag_386\n      jump\t// in\n    tag_566:\n        /* \"#utility.yul\":15938:16077   */\n      swap1\n      pop\n        /* \"#utility.yul\":15665:16084   */\n      swap2\n      swap1\n      pop\n      jump\t// out\n        /* \"#utility.yul\":16090:16270   */\n    tag_387:\n        /* \"#utility.yul\":16138:16215   */\n      0x4e487b7100000000000000000000000000000000000000000000000000000000\n        /* \"#utility.yul\":16135:16136   */\n      0x00\n        /* \"#utility.yul\":16128:16216   */\n      mstore\n        /* \"#utility.yul\":16235:16239   */\n      0x11\n        /* \"#utility.yul\":16232:16233   */\n      0x04\n        /* \"#utility.yul\":16225:16240   */\n      mstore\n        /* \"#utility.yul\":16259:16263   */\n      0x24\n        /* \"#utility.yul\":16256:16257   */\n      0x00\n        /* \"#utility.yul\":16249:16264   */\n      revert\n        /* \"#utility.yul\":16276:16467   */\n    tag_198:\n        /* \"#utility.yul\":16316:16319   */\n      0x00\n        /* \"#utility.yul\":16335:16355   */\n      tag_569\n        /* \"#utility.yul\":16353:16354   */\n      dup3\n        /* \"#utility.yul\":16335:16355   */\n      tag_343\n      jump\t// in\n    tag_569:\n        /* \"#utility.yul\":16330:16355   */\n      swap2\n      pop\n        /* \"#utility.yul\":16369:16389   */\n      tag_570\n        /* \"#utility.yul\":16387:16388   */\n      dup4\n        /* \"#utility.yul\":16369:16389   */\n      tag_343\n      jump\t// in\n    tag_570:\n        /* \"#utility.yul\":16364:16389   */\n      swap3\n      pop\n        /* \"#utility.yul\":16412:16413   */\n      dup3\n        /* \"#utility.yul\":16409:16410   */\n      dup3\n        /* \"#utility.yul\":16405:16414   */\n      add\n        /* \"#utility.yul\":16398:16414   */\n      swap1\n      pop\n        /* \"#utility.yul\":16433:16436   */\n      dup1\n        /* \"#utility.yul\":16430:16431   */\n      dup3\n        /* \"#utility.yul\":16427:16437   */\n      gt\n        /* \"#utility.yul\":16424:16460   */\n      iszero\n      tag_571\n      jumpi\n        /* \"#utility.yul\":16440:16458   */\n      tag_572\n      tag_387\n      jump\t// in\n    tag_572:\n        /* \"#utility.yul\":16424:16460   */\n    tag_571:\n        /* \"#utility.yul\":16276:16467   */\n      swap3\n      swap2\n      pop\n      pop\n      jump\t// out\n        /* \"#utility.yul\":16473:16643   */\n    tag_388:\n        /* \"#utility.yul\":16613:16635   */\n      0x4578636565647320746f74616c20737570706c79000000000000000000000000\n        /* \"#utility.yul\":16609:16610   */\n      0x00\n        /* \"#utility.yul\":16601:16607   */\n      dup3\n        /* \"#utility.yul\":16597:16611   */\n      add\n        /* \"#utility.yul\":16590:16636   */\n      mstore\n        /* \"#utility.yul\":16473:16643   */\n      pop\n      jump\t// out\n        /* \"#utility.yul\":16649:17015   */\n    tag_389:\n        /* \"#utility.yul\":16791:16794   */\n      0x00\n        /* \"#utility.yul\":16812:16879   */\n      tag_575\n        /* \"#utility.yul\":16876:16878   */\n      0x14\n        /* \"#utility.yul\":16871:16874   */\n      dup4\n        /* \"#utility.yul\":16812:16879   */\n      tag_346\n      jump\t// in\n    tag_575:\n        /* \"#utility.yul\":16805:16879   */\n      swap2\n      pop\n        /* \"#utility.yul\":16888:16981   */\n      tag_576\n        /* \"#utility.yul\":16977:16980   */\n      dup3\n        /* \"#utility.yul\":16888:16981   */\n      tag_388\n      jump\t// in\n    tag_576:\n        /* \"#utility.yul\":17006:17008   */\n      0x20\n        /* \"#utility.yul\":17001:17004   */\n      dup3\n        /* \"#utility.yul\":16997:17009   */\n      add\n        /* \"#utility.yul\":16990:17009   */\n      swap1\n      pop\n        /* \"#utility.yul\":16649:17015   */\n      swap2\n      swap1\n      pop\n      jump\t// out\n        /* \"#utility.yul\":17021:17440   */\n    tag_201:\n        /* \"#utility.yul\":17187:17191   */\n      0x00\n        /* \"#utility.yul\":17225:17227   */\n      0x20\n        /* \"#utility.yul\":17214:17223   */\n      dup3\n        /* \"#utility.yul\":17210:17228   */\n      add\n        /* \"#utility.yul\":17202:17228   */\n      swap1\n      pop\n        /* \"#utility.yul\":17274:17283   */\n      dup2\n        /* \"#utility.yul\":17268:17272   */\n      dup2\n        /* \"#utility.yul\":17264:17284   */\n      sub\n        /* \"#utility.yul\":17260:17261   */\n      0x00\n        /* \"#utility.yul\":17249:17258   */\n      dup4\n        /* \"#utility.yul\":17245:17262   */\n      add\n        /* \"#utility.yul\":17238:17285   */\n      mstore\n        /* \"#utility.yul\":17302:17433   */\n      tag_578\n        /* \"#utility.yul\":17428:17432   */\n      dup2\n        /* \"#utility.yul\":17302:17433   */\n      tag_389\n      jump\t// in\n    tag_578:\n        /* \"#utility.yul\":17294:17433   */\n      swap1\n      pop\n        /* \"#utility.yul\":17021:17440   */\n      swap2\n      swap1\n      pop\n      jump\t// out\n        /* \"#utility.yul\":17446:17627   */\n    tag_390:\n        /* \"#utility.yul\":17586:17619   */\n      0x45786365656473206d696e74206c696d69742070657220696e766573746f7200\n        /* \"#utility.yul\":17582:17583   */\n      0x00\n        /* \"#utility.yul\":17574:17580   */\n      dup3\n        /* \"#utility.yul\":17570:17584   */\n      add\n        /* \"#utility.yul\":17563:17620   */\n      mstore\n        /* \"#utility.yul\":17446:17627   */\n      pop\n      jump\t// out\n        /* \"#utility.yul\":17633:17999   */\n    tag_391:\n        /* \"#utility.yul\":17775:17778   */\n      0x00\n        /* \"#utility.yul\":17796:17863   */\n      tag_581\n        /* \"#utility.yul\":17860:17862   */\n      0x1f\n        /* \"#utility.yul\":17855:17858   */\n      dup4\n        /* \"#utility.yul\":17796:17863   */\n      tag_346\n      jump\t// in\n    tag_581:\n        /* \"#utility.yul\":17789:17863   */\n      swap2\n      pop\n        /* \"#utility.yul\":17872:17965   */\n      tag_582\n        /* \"#utility.yul\":17961:17964   */\n      dup3\n        /* \"#utility.yul\":17872:17965   */\n      tag_390\n      jump\t// in\n    tag_582:\n        /* \"#utility.yul\":17990:17992   */\n      0x20\n        /* \"#utility.yul\":17985:17988   */\n      dup3\n        /* \"#utility.yul\":17981:17993   */\n      add\n        /* \"#utility.yul\":17974:17993   */\n      swap1\n      pop\n        /* \"#utility.yul\":17633:17999   */\n      swap2\n      swap1\n      pop\n      jump\t// out\n        /* \"#utility.yul\":18005:18424   */\n    tag_205:\n        /* \"#utility.yul\":18171:18175   */\n      0x00\n        /* \"#utility.yul\":18209:18211   */\n      0x20\n        /* \"#utility.yul\":18198:18207   */\n      dup3\n        /* \"#utility.yul\":18194:18212   */\n      add\n        /* \"#utility.yul\":18186:18212   */\n      swap1\n      pop\n        /* \"#utility.yul\":18258:18267   */\n      dup2\n        /* \"#utility.yul\":18252:18256   */\n      dup2\n        /* \"#utility.yul\":18248:18268   */\n      sub\n        /* \"#utility.yul\":18244:18245   */\n      0x00\n        /* \"#utility.yul\":18233:18242   */\n      dup4\n        /* \"#utility.yul\":18229:18246   */\n      add\n        /* \"#utility.yul\":18222:18269   */\n      mstore\n        /* \"#utility.yul\":18286:18417   */\n      tag_584\n        /* \"#utility.yul\":18412:18416   */\n      dup2\n        /* \"#utility.yul\":18286:18417   */\n      tag_391\n      jump\t// in\n    tag_584:\n        /* \"#utility.yul\":18278:18417   */\n      swap1\n      pop\n        /* \"#utility.yul\":18005:18424   */\n      swap2\n      swap1\n      pop\n      jump\t// out\n        /* \"#utility.yul\":18430:18652   */\n    tag_392:\n        /* \"#utility.yul\":18570:18604   */\n      0x45786365656473206d696e74206c696d697420666f722074686520696e766573\n        /* \"#utility.yul\":18566:18567   */\n      0x00\n        /* \"#utility.yul\":18558:18564   */\n      dup3\n        /* \"#utility.yul\":18554:18568   */\n      add\n        /* \"#utility.yul\":18547:18605   */\n      mstore\n        /* \"#utility.yul\":18639:18644   */\n      0x746f720000000000000000000000000000000000000000000000000000000000\n        /* \"#utility.yul\":18634:18636   */\n      0x20\n        /* \"#utility.yul\":18626:18632   */\n      dup3\n        /* \"#utility.yul\":18622:18637   */\n      add\n        /* \"#utility.yul\":18615:18645   */\n      mstore\n        /* \"#utility.yul\":18430:18652   */\n      pop\n      jump\t// out\n        /* \"#utility.yul\":18658:19024   */\n    tag_393:\n        /* \"#utility.yul\":18800:18803   */\n      0x00\n        /* \"#utility.yul\":18821:18888   */\n      tag_587\n        /* \"#utility.yul\":18885:18887   */\n      0x23\n        /* \"#utility.yul\":18880:18883   */\n      dup4\n        /* \"#utility.yul\":18821:18888   */\n      tag_346\n      jump\t// in\n    tag_587:\n        /* \"#utility.yul\":18814:18888   */\n      swap2\n      pop\n        /* \"#utility.yul\":18897:18990   */\n      tag_588\n        /* \"#utility.yul\":18986:18989   */\n      dup3\n        /* \"#utility.yul\":18897:18990   */\n      tag_392\n      jump\t// in\n    tag_588:\n        /* \"#utility.yul\":19015:19017   */\n      0x40\n        /* \"#utility.yul\":19010:19013   */\n      dup3\n        /* \"#utility.yul\":19006:19018   */\n      add\n        /* \"#utility.yul\":18999:19018   */\n      swap1\n      pop\n        /* \"#utility.yul\":18658:19024   */\n      swap2\n      swap1\n      pop\n      jump\t// out\n        /* \"#utility.yul\":19030:19449   */\n    tag_209:\n        /* \"#utility.yul\":19196:19200   */\n      0x00\n        /* \"#utility.yul\":19234:19236   */\n      0x20\n        /* \"#utility.yul\":19223:19232   */\n      dup3\n        /* \"#utility.yul\":19219:19237   */\n      add\n        /* \"#utility.yul\":19211:19237   */\n      swap1\n      pop\n        /* \"#utility.yul\":19283:19292   */\n      dup2\n        /* \"#utility.yul\":19277:19281   */\n      dup2\n        /* \"#utility.yul\":19273:19293   */\n      sub\n        /* \"#utility.yul\":19269:19270   */\n      0x00\n        /* \"#utility.yul\":19258:19267   */\n      dup4\n        /* \"#utility.yul\":19254:19271   */\n      add\n        /* \"#utility.yul\":19247:19294   */\n      mstore\n        /* \"#utility.yul\":19311:19442   */\n      tag_590\n        /* \"#utility.yul\":19437:19441   */\n      dup2\n        /* \"#utility.yul\":19311:19442   */\n      tag_393\n      jump\t// in\n    tag_590:\n        /* \"#utility.yul\":19303:19442   */\n      swap1\n      pop\n        /* \"#utility.yul\":19030:19449   */\n      swap2\n      swap1\n      pop\n      jump\t// out\n        /* \"#utility.yul\":19455:19787   */\n    tag_211:\n        /* \"#utility.yul\":19576:19580   */\n      0x00\n        /* \"#utility.yul\":19614:19616   */\n      0x40\n        /* \"#utility.yul\":19603:19612   */\n      dup3\n        /* \"#utility.yul\":19599:19617   */\n      add\n        /* \"#utility.yul\":19591:19617   */\n      swap1\n      pop\n        /* \"#utility.yul\":19627:19698   */\n      tag_592\n        /* \"#utility.yul\":19695:19696   */\n      0x00\n        /* \"#utility.yul\":19684:19693   */\n      dup4\n        /* \"#utility.yul\":19680:19697   */\n      add\n        /* \"#utility.yul\":19671:19677   */\n      dup6\n        /* \"#utility.yul\":19627:19698   */\n      tag_361\n      jump\t// in\n    tag_592:\n        /* \"#utility.yul\":19708:19780   */\n      tag_593\n        /* \"#utility.yul\":19776:19778   */\n      0x20\n        /* \"#utility.yul\":19765:19774   */\n      dup4\n        /* \"#utility.yul\":19761:19779   */\n      add\n        /* \"#utility.yul\":19752:19758   */\n      dup5\n        /* \"#utility.yul\":19708:19780   */\n      tag_361\n      jump\t// in\n    tag_593:\n        /* \"#utility.yul\":19455:19787   */\n      swap4\n      swap3\n      pop\n      pop\n      pop\n      jump\t// out\n        /* \"#utility.yul\":19793:20029   */\n    tag_394:\n        /* \"#utility.yul\":19933:19967   */\n      0x596f75206d75737420617070726f76652074686520636f6e747261637420746f\n        /* \"#utility.yul\":19929:19930   */\n      0x00\n        /* \"#utility.yul\":19921:19927   */\n      dup3\n        /* \"#utility.yul\":19917:19931   */\n      add\n        /* \"#utility.yul\":19910:19968   */\n      mstore\n        /* \"#utility.yul\":20002:20021   */\n      0x2061636365737320796f75722055534454000000000000000000000000000000\n        /* \"#utility.yul\":19997:19999   */\n      0x20\n        /* \"#utility.yul\":19989:19995   */\n      dup3\n        /* \"#utility.yul\":19985:20000   */\n      add\n        /* \"#utility.yul\":19978:20022   */\n      mstore\n        /* \"#utility.yul\":19793:20029   */\n      pop\n      jump\t// out\n        /* \"#utility.yul\":20035:20401   */\n    tag_395:\n        /* \"#utility.yul\":20177:20180   */\n      0x00\n        /* \"#utility.yul\":20198:20265   */\n      tag_596\n        /* \"#utility.yul\":20262:20264   */\n      0x31\n        /* \"#utility.yul\":20257:20260   */\n      dup4\n        /* \"#utility.yul\":20198:20265   */\n      tag_346\n      jump\t// in\n    tag_596:\n        /* \"#utility.yul\":20191:20265   */\n      swap2\n      pop\n        /* \"#utility.yul\":20274:20367   */\n      tag_597\n        /* \"#utility.yul\":20363:20366   */\n      dup3\n        /* \"#utility.yul\":20274:20367   */\n      tag_394\n      jump\t// in\n    tag_597:\n        /* \"#utility.yul\":20392:20394   */\n      0x40\n        /* \"#utility.yul\":20387:20390   */\n      dup3\n        /* \"#utility.yul\":20383:20395   */\n      add\n        /* \"#utility.yul\":20376:20395   */\n      swap1\n      pop\n        /* \"#utility.yul\":20035:20401   */\n      swap2\n      swap1\n      pop\n      jump\t// out\n        /* \"#utility.yul\":20407:20826   */\n    tag_217:\n        /* \"#utility.yul\":20573:20577   */\n      0x00\n        /* \"#utility.yul\":20611:20613   */\n      0x20\n        /* \"#utility.yul\":20600:20609   */\n      dup3\n        /* \"#utility.yul\":20596:20614   */\n      add\n        /* \"#utility.yul\":20588:20614   */\n      swap1\n      pop\n        /* \"#utility.yul\":20660:20669   */\n      dup2\n        /* \"#utility.yul\":20654:20658   */\n      dup2\n        /* \"#utility.yul\":20650:20670   */\n      sub\n        /* \"#utility.yul\":20646:20647   */\n      0x00\n        /* \"#utility.yul\":20635:20644   */\n      dup4\n        /* \"#utility.yul\":20631:20648   */\n      add\n        /* \"#utility.yul\":20624:20671   */\n      mstore\n        /* \"#utility.yul\":20688:20819   */\n      tag_599\n        /* \"#utility.yul\":20814:20818   */\n      dup2\n        /* \"#utility.yul\":20688:20819   */\n      tag_395\n      jump\t// in\n    tag_599:\n        /* \"#utility.yul\":20680:20819   */\n      swap1\n      pop\n        /* \"#utility.yul\":20407:20826   */\n      swap2\n      swap1\n      pop\n      jump\t// out\n        /* \"#utility.yul\":20832:21274   */\n    tag_240:\n        /* \"#utility.yul\":20981:20985   */\n      0x00\n        /* \"#utility.yul\":21019:21021   */\n      0x60\n        /* \"#utility.yul\":21008:21017   */\n      dup3\n        /* \"#utility.yul\":21004:21022   */\n      add\n        /* \"#utility.yul\":20996:21022   */\n      swap1\n      pop\n        /* \"#utility.yul\":21032:21103   */\n      tag_601\n        /* \"#utility.yul\":21100:21101   */\n      0x00\n        /* \"#utility.yul\":21089:21098   */\n      dup4\n        /* \"#utility.yul\":21085:21102   */\n      add\n        /* \"#utility.yul\":21076:21082   */\n      dup7\n        /* \"#utility.yul\":21032:21103   */\n      tag_361\n      jump\t// in\n    tag_601:\n        /* \"#utility.yul\":21113:21185   */\n      tag_602\n        /* \"#utility.yul\":21181:21183   */\n      0x20\n        /* \"#utility.yul\":21170:21179   */\n      dup4\n        /* \"#utility.yul\":21166:21184   */\n      add\n        /* \"#utility.yul\":21157:21163   */\n      dup6\n        /* \"#utility.yul\":21113:21185   */\n      tag_344\n      jump\t// in\n    tag_602:\n        /* \"#utility.yul\":21195:21267   */\n      tag_603\n        /* \"#utility.yul\":21263:21265   */\n      0x40\n        /* \"#utility.yul\":21252:21261   */\n      dup4\n        /* \"#utility.yul\":21248:21266   */\n      add\n        /* \"#utility.yul\":21239:21245   */\n      dup5\n        /* \"#utility.yul\":21195:21267   */\n      tag_344\n      jump\t// in\n    tag_603:\n        /* \"#utility.yul\":20832:21274   */\n      swap5\n      swap4\n      pop\n      pop\n      pop\n      pop\n      jump\t// out\n        /* \"#utility.yul\":21280:21371   */\n    tag_396:\n        /* \"#utility.yul\":21316:21323   */\n      0x00\n        /* \"#utility.yul\":21356:21364   */\n      0xffffff\n        /* \"#utility.yul\":21349:21354   */\n      dup3\n        /* \"#utility.yul\":21345:21365   */\n      and\n        /* \"#utility.yul\":21334:21365   */\n      swap1\n      pop\n        /* \"#utility.yul\":21280:21371   */\n      swap2\n      swap1\n      pop\n      jump\t// out\n        /* \"#utility.yul\":21377:21492   */\n    tag_397:\n        /* \"#utility.yul\":21462:21485   */\n      tag_606\n        /* \"#utility.yul\":21479:21484   */\n      dup2\n        /* \"#utility.yul\":21462:21485   */\n      tag_396\n      jump\t// in\n    tag_606:\n        /* \"#utility.yul\":21457:21460   */\n      dup3\n        /* \"#utility.yul\":21450:21486   */\n      mstore\n        /* \"#utility.yul\":21377:21492   */\n      pop\n      pop\n      jump\t// out\n        /* \"#utility.yul\":21498:21936   */\n    tag_251:\n        /* \"#utility.yul\":21645:21649   */\n      0x00\n        /* \"#utility.yul\":21683:21685   */\n      0x60\n        /* \"#utility.yul\":21672:21681   */\n      dup3\n        /* \"#utility.yul\":21668:21686   */\n      add\n        /* \"#utility.yul\":21660:21686   */\n      swap1\n      pop\n        /* \"#utility.yul\":21696:21767   */\n      tag_608\n        /* \"#utility.yul\":21764:21765   */\n      0x00\n        /* \"#utility.yul\":21753:21762   */\n      dup4\n        /* \"#utility.yul\":21749:21766   */\n      add\n        /* \"#utility.yul\":21740:21746   */\n      dup7\n        /* \"#utility.yul\":21696:21767   */\n      tag_361\n      jump\t// in\n    tag_608:\n        /* \"#utility.yul\":21777:21849   */\n      tag_609\n        /* \"#utility.yul\":21845:21847   */\n      0x20\n        /* \"#utility.yul\":21834:21843   */\n      dup4\n        /* \"#utility.yul\":21830:21848   */\n      add\n        /* \"#utility.yul\":21821:21827   */\n      dup6\n        /* \"#utility.yul\":21777:21849   */\n      tag_361\n      jump\t// in\n    tag_609:\n        /* \"#utility.yul\":21859:21929   */\n      tag_610\n        /* \"#utility.yul\":21925:21927   */\n      0x40\n        /* \"#utility.yul\":21914:21923   */\n      dup4\n        /* \"#utility.yul\":21910:21928   */\n      add\n        /* \"#utility.yul\":21901:21907   */\n      dup5\n        /* \"#utility.yul\":21859:21929   */\n      tag_397\n      jump\t// in\n    tag_610:\n        /* \"#utility.yul\":21498:21936   */\n      swap5\n      swap4\n      pop\n      pop\n      pop\n      pop\n      jump\t// out\n        /* \"#utility.yul\":21942:22114   */\n    tag_398:\n        /* \"#utility.yul\":22082:22106   */\n      0x4661696c656420746f2066696e6420466163746f727900000000000000000000\n        /* \"#utility.yul\":22078:22079   */\n      0x00\n        /* \"#utility.yul\":22070:22076   */\n      dup3\n        /* \"#utility.yul\":22066:22080   */\n      add\n        /* \"#utility.yul\":22059:22107   */\n      mstore\n        /* \"#utility.yul\":21942:22114   */\n      pop\n      jump\t// out\n        /* \"#utility.yul\":22120:22486   */\n    tag_399:\n        /* \"#utility.yul\":22262:22265   */\n      0x00\n        /* \"#utility.yul\":22283:22350   */\n      tag_613\n        /* \"#utility.yul\":22347:22349   */\n      0x16\n        /* \"#utility.yul\":22342:22345   */\n      dup4\n        /* \"#utility.yul\":22283:22350   */\n      tag_346\n      jump\t// in\n    tag_613:\n        /* \"#utility.yul\":22276:22350   */\n      swap2\n      pop\n        /* \"#utility.yul\":22359:22452   */\n      tag_614\n        /* \"#utility.yul\":22448:22451   */\n      dup3\n        /* \"#utility.yul\":22359:22452   */\n      tag_398\n      jump\t// in\n    tag_614:\n        /* \"#utility.yul\":22477:22479   */\n      0x20\n        /* \"#utility.yul\":22472:22475   */\n      dup3\n        /* \"#utility.yul\":22468:22480   */\n      add\n        /* \"#utility.yul\":22461:22480   */\n      swap1\n      pop\n        /* \"#utility.yul\":22120:22486   */\n      swap2\n      swap1\n      pop\n      jump\t// out\n        /* \"#utility.yul\":22492:22911   */\n    tag_258:\n        /* \"#utility.yul\":22658:22662   */\n      0x00\n        /* \"#utility.yul\":22696:22698   */\n      0x20\n        /* \"#utility.yul\":22685:22694   */\n      dup3\n        /* \"#utility.yul\":22681:22699   */\n      add\n        /* \"#utility.yul\":22673:22699   */\n      swap1\n      pop\n        /* \"#utility.yul\":22745:22754   */\n      dup2\n        /* \"#utility.yul\":22739:22743   */\n      dup2\n        /* \"#utility.yul\":22735:22755   */\n      sub\n        /* \"#utility.yul\":22731:22732   */\n      0x00\n        /* \"#utility.yul\":22720:22729   */\n      dup4\n        /* \"#utility.yul\":22716:22733   */\n      add\n        /* \"#utility.yul\":22709:22756   */\n      mstore\n        /* \"#utility.yul\":22773:22904   */\n      tag_616\n        /* \"#utility.yul\":22899:22903   */\n      dup2\n        /* \"#utility.yul\":22773:22904   */\n      tag_399\n      jump\t// in\n    tag_616:\n        /* \"#utility.yul\":22765:22904   */\n      swap1\n      pop\n        /* \"#utility.yul\":22492:22911   */\n      swap2\n      swap1\n      pop\n      jump\t// out\n        /* \"#utility.yul\":22917:23007   */\n    tag_400:\n        /* \"#utility.yul\":22967:22974   */\n      0x00\n        /* \"#utility.yul\":22996:23001   */\n      dup2\n        /* \"#utility.yul\":22985:23001   */\n      swap1\n      pop\n        /* \"#utility.yul\":22917:23007   */\n      swap2\n      swap1\n      pop\n      jump\t// out\n        /* \"#utility.yul\":23013:23179   */\n    tag_401:\n        /* \"#utility.yul\":23075:23084   */\n      0x00\n        /* \"#utility.yul\":23108:23173   */\n      tag_619\n        /* \"#utility.yul\":23125:23172   */\n      tag_620\n        /* \"#utility.yul\":23134:23171   */\n      tag_621\n        /* \"#utility.yul\":23165:23170   */\n      dup5\n        /* \"#utility.yul\":23134:23171   */\n      tag_400\n      jump\t// in\n    tag_621:\n        /* \"#utility.yul\":23125:23172   */\n      tag_377\n      jump\t// in\n    tag_620:\n        /* \"#utility.yul\":23108:23173   */\n      tag_396\n      jump\t// in\n    tag_619:\n        /* \"#utility.yul\":23095:23173   */\n      swap1\n      pop\n        /* \"#utility.yul\":23013:23179   */\n      swap2\n      swap1\n      pop\n      jump\t// out\n        /* \"#utility.yul\":23185:23340   */\n    tag_402:\n        /* \"#utility.yul\":23284:23333   */\n      tag_623\n        /* \"#utility.yul\":23327:23332   */\n      dup2\n        /* \"#utility.yul\":23284:23333   */\n      tag_401\n      jump\t// in\n    tag_623:\n        /* \"#utility.yul\":23279:23282   */\n      dup3\n        /* \"#utility.yul\":23272:23334   */\n      mstore\n        /* \"#utility.yul\":23185:23340   */\n      pop\n      pop\n      jump\t// out\n        /* \"#utility.yul\":23346:23592   */\n    tag_262:\n        /* \"#utility.yul\":23451:23455   */\n      0x00\n        /* \"#utility.yul\":23489:23491   */\n      0x20\n        /* \"#utility.yul\":23478:23487   */\n      dup3\n        /* \"#utility.yul\":23474:23492   */\n      add\n        /* \"#utility.yul\":23466:23492   */\n      swap1\n      pop\n        /* \"#utility.yul\":23502:23585   */\n      tag_625\n        /* \"#utility.yul\":23582:23583   */\n      0x00\n        /* \"#utility.yul\":23571:23580   */\n      dup4\n        /* \"#utility.yul\":23567:23584   */\n      add\n        /* \"#utility.yul\":23558:23564   */\n      dup5\n        /* \"#utility.yul\":23502:23585   */\n      tag_402\n      jump\t// in\n    tag_625:\n        /* \"#utility.yul\":23346:23592   */\n      swap3\n      swap2\n      pop\n      pop\n      jump\t// out\n        /* \"#utility.yul\":23598:23773   */\n    tag_403:\n        /* \"#utility.yul\":23738:23765   */\n      0x4661696c656420746f20506f6f6c20696e697469616c697a6500000000000000\n        /* \"#utility.yul\":23734:23735   */\n      0x00\n        /* \"#utility.yul\":23726:23732   */\n      dup3\n        /* \"#utility.yul\":23722:23736   */\n      add\n        /* \"#utility.yul\":23715:23766   */\n      mstore\n        /* \"#utility.yul\":23598:23773   */\n      pop\n      jump\t// out\n        /* \"#utility.yul\":23779:24145   */\n    tag_404:\n        /* \"#utility.yul\":23921:23924   */\n      0x00\n        /* \"#utility.yul\":23942:24009   */\n      tag_628\n        /* \"#utility.yul\":24006:24008   */\n      0x19\n        /* \"#utility.yul\":24001:24004   */\n      dup4\n        /* \"#utility.yul\":23942:24009   */\n      tag_346\n      jump\t// in\n    tag_628:\n        /* \"#utility.yul\":23935:24009   */\n      swap2\n      pop\n        /* \"#utility.yul\":24018:24111   */\n      tag_629\n        /* \"#utility.yul\":24107:24110   */\n      dup3\n        /* \"#utility.yul\":24018:24111   */\n      tag_403\n      jump\t// in\n    tag_629:\n        /* \"#utility.yul\":24136:24138   */\n      0x20\n        /* \"#utility.yul\":24131:24134   */\n      dup3\n        /* \"#utility.yul\":24127:24139   */\n      add\n        /* \"#utility.yul\":24120:24139   */\n      swap1\n      pop\n        /* \"#utility.yul\":23779:24145   */\n      swap2\n      swap1\n      pop\n      jump\t// out\n        /* \"#utility.yul\":24151:24570   */\n    tag_269:\n        /* \"#utility.yul\":24317:24321   */\n      0x00\n        /* \"#utility.yul\":24355:24357   */\n      0x20\n        /* \"#utility.yul\":24344:24353   */\n      dup3\n        /* \"#utility.yul\":24340:24358   */\n      add\n        /* \"#utility.yul\":24332:24358   */\n      swap1\n      pop\n        /* \"#utility.yul\":24404:24413   */\n      dup2\n        /* \"#utility.yul\":24398:24402   */\n      dup2\n        /* \"#utility.yul\":24394:24414   */\n      sub\n        /* \"#utility.yul\":24390:24391   */\n      0x00\n        /* \"#utility.yul\":24379:24388   */\n      dup4\n        /* \"#utility.yul\":24375:24392   */\n      add\n        /* \"#utility.yul\":24368:24415   */\n      mstore\n        /* \"#utility.yul\":24432:24563   */\n      tag_631\n        /* \"#utility.yul\":24558:24562   */\n      dup2\n        /* \"#utility.yul\":24432:24563   */\n      tag_404\n      jump\t// in\n    tag_631:\n        /* \"#utility.yul\":24424:24563   */\n      swap1\n      pop\n        /* \"#utility.yul\":24151:24570   */\n      swap2\n      swap1\n      pop\n      jump\t// out\n        /* \"#utility.yul\":24576:24684   */\n    tag_405:\n        /* \"#utility.yul\":24653:24677   */\n      tag_633\n        /* \"#utility.yul\":24671:24676   */\n      dup2\n        /* \"#utility.yul\":24653:24677   */\n      tag_354\n      jump\t// in\n    tag_633:\n        /* \"#utility.yul\":24648:24651   */\n      dup3\n        /* \"#utility.yul\":24641:24678   */\n      mstore\n        /* \"#utility.yul\":24576:24684   */\n      pop\n      pop\n      jump\t// out\n        /* \"#utility.yul\":24690:24795   */\n    tag_406:\n        /* \"#utility.yul\":24765:24788   */\n      tag_635\n        /* \"#utility.yul\":24782:24787   */\n      dup2\n        /* \"#utility.yul\":24765:24788   */\n      tag_396\n      jump\t// in\n    tag_635:\n        /* \"#utility.yul\":24760:24763   */\n      dup3\n        /* \"#utility.yul\":24753:24789   */\n      mstore\n        /* \"#utility.yul\":24690:24795   */\n      pop\n      pop\n      jump\t// out\n        /* \"#utility.yul\":24801:24891   */\n    tag_407:\n        /* \"#utility.yul\":24836:24843   */\n      0x00\n        /* \"#utility.yul\":24879:24884   */\n      dup2\n        /* \"#utility.yul\":24876:24877   */\n      0x02\n        /* \"#utility.yul\":24865:24885   */\n      signextend\n        /* \"#utility.yul\":24854:24885   */\n      swap1\n      pop\n        /* \"#utility.yul\":24801:24891   */\n      swap2\n      swap1\n      pop\n      jump\t// out\n        /* \"#utility.yul\":24897:24999   */\n    tag_408:\n        /* \"#utility.yul\":24970:24992   */\n      tag_638\n        /* \"#utility.yul\":24986:24991   */\n      dup2\n        /* \"#utility.yul\":24970:24992   */\n      tag_407\n      jump\t// in\n    tag_638:\n        /* \"#utility.yul\":24965:24968   */\n      dup3\n        /* \"#utility.yul\":24958:24993   */\n      mstore\n        /* \"#utility.yul\":24897:24999   */\n      pop\n      pop\n      jump\t// out\n        /* \"#utility.yul\":25005:25113   */\n    tag_409:\n        /* \"#utility.yul\":25082:25106   */\n      tag_640\n        /* \"#utility.yul\":25100:25105   */\n      dup2\n        /* \"#utility.yul\":25082:25106   */\n      tag_343\n      jump\t// in\n    tag_640:\n        /* \"#utility.yul\":25077:25080   */\n      dup3\n        /* \"#utility.yul\":25070:25107   */\n      mstore\n        /* \"#utility.yul\":25005:25113   */\n      pop\n      pop\n      jump\t// out\n        /* \"#utility.yul\":25183:26955   */\n    tag_410:\n        /* \"#utility.yul\":25336:25342   */\n      0x0120\n        /* \"#utility.yul\":25331:25334   */\n      dup3\n        /* \"#utility.yul\":25327:25343   */\n      add\n        /* \"#utility.yul\":25427:25431   */\n      0x00\n        /* \"#utility.yul\":25420:25425   */\n      dup3\n        /* \"#utility.yul\":25416:25432   */\n      add\n        /* \"#utility.yul\":25410:25433   */\n      mload\n        /* \"#utility.yul\":25446:25509   */\n      tag_642\n        /* \"#utility.yul\":25503:25507   */\n      0x00\n        /* \"#utility.yul\":25498:25501   */\n      dup6\n        /* \"#utility.yul\":25494:25508   */\n      add\n        /* \"#utility.yul\":25480:25492   */\n      dup3\n        /* \"#utility.yul\":25446:25509   */\n      tag_405\n      jump\t// in\n    tag_642:\n        /* \"#utility.yul\":25353:25519   */\n      pop\n        /* \"#utility.yul\":25603:25607   */\n      0x20\n        /* \"#utility.yul\":25596:25601   */\n      dup3\n        /* \"#utility.yul\":25592:25608   */\n      add\n        /* \"#utility.yul\":25586:25609   */\n      mload\n        /* \"#utility.yul\":25622:25685   */\n      tag_643\n        /* \"#utility.yul\":25679:25683   */\n      0x20\n        /* \"#utility.yul\":25674:25677   */\n      dup6\n        /* \"#utility.yul\":25670:25684   */\n      add\n        /* \"#utility.yul\":25656:25668   */\n      dup3\n        /* \"#utility.yul\":25622:25685   */\n      tag_405\n      jump\t// in\n    tag_643:\n        /* \"#utility.yul\":25529:25695   */\n      pop\n        /* \"#utility.yul\":25776:25780   */\n      0x40\n        /* \"#utility.yul\":25769:25774   */\n      dup3\n        /* \"#utility.yul\":25765:25781   */\n      add\n        /* \"#utility.yul\":25759:25782   */\n      mload\n        /* \"#utility.yul\":25795:25856   */\n      tag_644\n        /* \"#utility.yul\":25850:25854   */\n      0x40\n        /* \"#utility.yul\":25845:25848   */\n      dup6\n        /* \"#utility.yul\":25841:25855   */\n      add\n        /* \"#utility.yul\":25827:25839   */\n      dup3\n        /* \"#utility.yul\":25795:25856   */\n      tag_406\n      jump\t// in\n    tag_644:\n        /* \"#utility.yul\":25705:25866   */\n      pop\n        /* \"#utility.yul\":25953:25957   */\n      0x60\n        /* \"#utility.yul\":25946:25951   */\n      dup3\n        /* \"#utility.yul\":25942:25958   */\n      add\n        /* \"#utility.yul\":25936:25959   */\n      mload\n        /* \"#utility.yul\":25972:26031   */\n      tag_645\n        /* \"#utility.yul\":26025:26029   */\n      0x60\n        /* \"#utility.yul\":26020:26023   */\n      dup6\n        /* \"#utility.yul\":26016:26030   */\n      add\n        /* \"#utility.yul\":26002:26014   */\n      dup3\n        /* \"#utility.yul\":25972:26031   */\n      tag_408\n      jump\t// in\n    tag_645:\n        /* \"#utility.yul\":25876:26041   */\n      pop\n        /* \"#utility.yul\":26128:26132   */\n      0x80\n        /* \"#utility.yul\":26121:26126   */\n      dup3\n        /* \"#utility.yul\":26117:26133   */\n      add\n        /* \"#utility.yul\":26111:26134   */\n      mload\n        /* \"#utility.yul\":26147:26206   */\n      tag_646\n        /* \"#utility.yul\":26200:26204   */\n      0x80\n        /* \"#utility.yul\":26195:26198   */\n      dup6\n        /* \"#utility.yul\":26191:26205   */\n      add\n        /* \"#utility.yul\":26177:26189   */\n      dup3\n        /* \"#utility.yul\":26147:26206   */\n      tag_408\n      jump\t// in\n    tag_646:\n        /* \"#utility.yul\":26051:26216   */\n      pop\n        /* \"#utility.yul\":26308:26312   */\n      0xa0\n        /* \"#utility.yul\":26301:26306   */\n      dup3\n        /* \"#utility.yul\":26297:26313   */\n      add\n        /* \"#utility.yul\":26291:26314   */\n      mload\n        /* \"#utility.yul\":26327:26390   */\n      tag_647\n        /* \"#utility.yul\":26384:26388   */\n      0xa0\n        /* \"#utility.yul\":26379:26382   */\n      dup6\n        /* \"#utility.yul\":26375:26389   */\n      add\n        /* \"#utility.yul\":26361:26373   */\n      dup3\n        /* \"#utility.yul\":26327:26390   */\n      tag_409\n      jump\t// in\n    tag_647:\n        /* \"#utility.yul\":26226:26400   */\n      pop\n        /* \"#utility.yul\":26492:26496   */\n      0xc0\n        /* \"#utility.yul\":26485:26490   */\n      dup3\n        /* \"#utility.yul\":26481:26497   */\n      add\n        /* \"#utility.yul\":26475:26498   */\n      mload\n        /* \"#utility.yul\":26511:26574   */\n      tag_648\n        /* \"#utility.yul\":26568:26572   */\n      0xc0\n        /* \"#utility.yul\":26563:26566   */\n      dup6\n        /* \"#utility.yul\":26559:26573   */\n      add\n        /* \"#utility.yul\":26545:26557   */\n      dup3\n        /* \"#utility.yul\":26511:26574   */\n      tag_409\n      jump\t// in\n    tag_648:\n        /* \"#utility.yul\":26410:26584   */\n      pop\n        /* \"#utility.yul\":26672:26676   */\n      0xe0\n        /* \"#utility.yul\":26665:26670   */\n      dup3\n        /* \"#utility.yul\":26661:26677   */\n      add\n        /* \"#utility.yul\":26655:26678   */\n      mload\n        /* \"#utility.yul\":26691:26754   */\n      tag_649\n        /* \"#utility.yul\":26748:26752   */\n      0xe0\n        /* \"#utility.yul\":26743:26746   */\n      dup6\n        /* \"#utility.yul\":26739:26753   */\n      add\n        /* \"#utility.yul\":26725:26737   */\n      dup3\n        /* \"#utility.yul\":26691:26754   */\n      tag_409\n      jump\t// in\n    tag_649:\n        /* \"#utility.yul\":26594:26764   */\n      pop\n        /* \"#utility.yul\":26852:26858   */\n      0x0100\n        /* \"#utility.yul\":26845:26850   */\n      dup3\n        /* \"#utility.yul\":26841:26859   */\n      add\n        /* \"#utility.yul\":26835:26860   */\n      mload\n        /* \"#utility.yul\":26873:26938   */\n      tag_650\n        /* \"#utility.yul\":26930:26936   */\n      0x0100\n        /* \"#utility.yul\":26925:26928   */\n      dup6\n        /* \"#utility.yul\":26921:26937   */\n      add\n        /* \"#utility.yul\":26907:26919   */\n      dup3\n        /* \"#utility.yul\":26873:26938   */\n      tag_409\n      jump\t// in\n    tag_650:\n        /* \"#utility.yul\":26774:26948   */\n      pop\n        /* \"#utility.yul\":25305:26955   */\n      pop\n        /* \"#utility.yul\":25183:26955   */\n      pop\n      pop\n      jump\t// out\n        /* \"#utility.yul\":26961:27296   */\n    tag_273:\n        /* \"#utility.yul\":27110:27114   */\n      0x00\n        /* \"#utility.yul\":27148:27151   */\n      0x0120\n        /* \"#utility.yul\":27137:27146   */\n      dup3\n        /* \"#utility.yul\":27133:27152   */\n      add\n        /* \"#utility.yul\":27125:27152   */\n      swap1\n      pop\n        /* \"#utility.yul\":27162:27289   */\n      tag_652\n        /* \"#utility.yul\":27286:27287   */\n      0x00\n        /* \"#utility.yul\":27275:27284   */\n      dup4\n        /* \"#utility.yul\":27271:27288   */\n      add\n        /* \"#utility.yul\":27262:27268   */\n      dup5\n        /* \"#utility.yul\":27162:27289   */\n      tag_410\n      jump\t// in\n    tag_652:\n        /* \"#utility.yul\":26961:27296   */\n      swap3\n      swap2\n      pop\n      pop\n      jump\t// out\n        /* \"#utility.yul\":27302:27744   */\n    tag_290:\n        /* \"#utility.yul\":27451:27455   */\n      0x00\n        /* \"#utility.yul\":27489:27491   */\n      0x60\n        /* \"#utility.yul\":27478:27487   */\n      dup3\n        /* \"#utility.yul\":27474:27492   */\n      add\n        /* \"#utility.yul\":27466:27492   */\n      swap1\n      pop\n        /* \"#utility.yul\":27502:27573   */\n      tag_654\n        /* \"#utility.yul\":27570:27571   */\n      0x00\n        /* \"#utility.yul\":27559:27568   */\n      dup4\n        /* \"#utility.yul\":27555:27572   */\n      add\n        /* \"#utility.yul\":27546:27552   */\n      dup7\n        /* \"#utility.yul\":27502:27573   */\n      tag_361\n      jump\t// in\n    tag_654:\n        /* \"#utility.yul\":27583:27655   */\n      tag_655\n        /* \"#utility.yul\":27651:27653   */\n      0x20\n        /* \"#utility.yul\":27640:27649   */\n      dup4\n        /* \"#utility.yul\":27636:27654   */\n      add\n        /* \"#utility.yul\":27627:27633   */\n      dup6\n        /* \"#utility.yul\":27583:27655   */\n      tag_361\n      jump\t// in\n    tag_655:\n        /* \"#utility.yul\":27665:27737   */\n      tag_656\n        /* \"#utility.yul\":27733:27735   */\n      0x40\n        /* \"#utility.yul\":27722:27731   */\n      dup4\n        /* \"#utility.yul\":27718:27736   */\n      add\n        /* \"#utility.yul\":27709:27715   */\n      dup5\n        /* \"#utility.yul\":27665:27737   */\n      tag_344\n      jump\t// in\n    tag_656:\n        /* \"#utility.yul\":27302:27744   */\n      swap5\n      swap4\n      pop\n      pop\n      pop\n      pop\n      jump\t// out\n\n    auxdata: 0xa2646970667358221220c2358b6fd3cf22d51e92175cc2637cd2fe48a6795ac106f28445a30051600b4a64736f6c63430008180033\n}\n",
				"bytecode": {
					"linkReferences": {},
					"object": "608060405234801562000010575f80fd5b5060405162003771380380620037718339818101604052810190620000369190620005e9565b816040518060400160405280600981526020017f4e5a4620546f6b656e00000000000000000000000000000000000000000000008152506040518060400160405280600381526020017f4e5a4600000000000000000000000000000000000000000000000000000000008152508160039081620000b4919062000892565b508060049081620000c6919062000892565b5050505f73ffffffffffffffffffffffffffffffffffffffff168173ffffffffffffffffffffffffffffffffffffffff16036200013c575f6040517f1e4fbdf700000000000000000000000000000000000000000000000000000000815260040162000133919062000987565b60405180910390fd5b6200014d816200021360201b60201c565b508160065f6101000a81548173ffffffffffffffffffffffffffffffffffffffff021916908373ffffffffffffffffffffffffffffffffffffffff1602179055508060085f6101000a81548173ffffffffffffffffffffffffffffffffffffffff021916908373ffffffffffffffffffffffffffffffffffffffff1602179055506200020b60065f9054906101000a900473ffffffffffffffffffffffffffffffffffffffff1669d3c21bcecceda1000000620002d660201b60201c565b505062000a70565b5f60055f9054906101000a900473ffffffffffffffffffffffffffffffffffffffff1690508160055f6101000a81548173ffffffffffffffffffffffffffffffffffffffff021916908373ffffffffffffffffffffffffffffffffffffffff1602179055508173ffffffffffffffffffffffffffffffffffffffff168173ffffffffffffffffffffffffffffffffffffffff167f8be0079c531659141344cd1fd0a4f28419497f9722a3daafe3b4186f6b6457e060405160405180910390a35050565b5f73ffffffffffffffffffffffffffffffffffffffff168273ffffffffffffffffffffffffffffffffffffffff160362000349575f6040517fec442f0500000000000000000000000000000000000000000000000000000000815260040162000340919062000987565b60405180910390fd5b6200035c5f83836200036060201b60201c565b5050565b5f73ffffffffffffffffffffffffffffffffffffffff168373ffffffffffffffffffffffffffffffffffffffff1603620003b4578060025f828254620003a79190620009cf565b9250508190555062000485565b5f805f8573ffffffffffffffffffffffffffffffffffffffff1673ffffffffffffffffffffffffffffffffffffffff1681526020019081526020015f205490508181101562000440578381836040517fe450d38c000000000000000000000000000000000000000000000000000000008152600401620004379392919062000a1a565b60405180910390fd5b8181035f808673ffffffffffffffffffffffffffffffffffffffff1673ffffffffffffffffffffffffffffffffffffffff1681526020019081526020015f2081905550505b5f73ffffffffffffffffffffffffffffffffffffffff168273ffffffffffffffffffffffffffffffffffffffff1603620004ce578060025f828254039250508190555062000518565b805f808473ffffffffffffffffffffffffffffffffffffffff1673ffffffffffffffffffffffffffffffffffffffff1681526020019081526020015f205f82825401925050819055505b8173ffffffffffffffffffffffffffffffffffffffff168373ffffffffffffffffffffffffffffffffffffffff167fddf252ad1be2c89b69c2b068fc378daa952ba7f163c4a11628f55a4df523b3ef8360405162000577919062000a55565b60405180910390a3505050565b5f80fd5b5f73ffffffffffffffffffffffffffffffffffffffff82169050919050565b5f620005b38262000588565b9050919050565b620005c581620005a7565b8114620005d0575f80fd5b50565b5f81519050620005e381620005ba565b92915050565b5f806040838503121562000602576200060162000584565b5b5f6200061185828601620005d3565b92505060206200062485828601620005d3565b9150509250929050565b5f81519050919050565b7f4e487b71000000000000000000000000000000000000000000000000000000005f52604160045260245ffd5b7f4e487b71000000000000000000000000000000000000000000000000000000005f52602260045260245ffd5b5f6002820490506001821680620006aa57607f821691505b602082108103620006c057620006bf62000665565b5b50919050565b5f819050815f5260205f209050919050565b5f6020601f8301049050919050565b5f82821b905092915050565b5f60088302620007247fffffffffffffffffffffffffffffffffffffffffffffffffffffffffffffffff82620006e7565b620007308683620006e7565b95508019841693508086168417925050509392505050565b5f819050919050565b5f819050919050565b5f6200077a620007746200076e8462000748565b62000751565b62000748565b9050919050565b5f819050919050565b62000795836200075a565b620007ad620007a48262000781565b848454620006f3565b825550505050565b5f90565b620007c3620007b5565b620007d08184846200078a565b505050565b5b81811015620007f757620007eb5f82620007b9565b600181019050620007d6565b5050565b601f82111562000846576200081081620006c6565b6200081b84620006d8565b810160208510156200082b578190505b620008436200083a85620006d8565b830182620007d5565b50505b505050565b5f82821c905092915050565b5f620008685f19846008026200084b565b1980831691505092915050565b5f62000882838362000857565b9150826002028217905092915050565b6200089d826200062e565b67ffffffffffffffff811115620008b957620008b862000638565b5b620008c5825462000692565b620008d2828285620007fb565b5f60209050601f83116001811462000908575f8415620008f3578287015190505b620008ff858262000875565b8655506200096e565b601f1984166200091886620006c6565b5f5b8281101562000941578489015182556001820191506020850194506020810190506200091a565b868310156200096157848901516200095d601f89168262000857565b8355505b6001600288020188555050505b505050505050565b6200098181620005a7565b82525050565b5f6020820190506200099c5f83018462000976565b92915050565b7f4e487b71000000000000000000000000000000000000000000000000000000005f52601160045260245ffd5b5f620009db8262000748565b9150620009e88362000748565b925082820190508082111562000a035762000a02620009a2565b5b92915050565b62000a148162000748565b82525050565b5f60608201905062000a2f5f83018662000976565b62000a3e602083018562000a09565b62000a4d604083018462000a09565b949350505050565b5f60208201905062000a6a5f83018462000a09565b92915050565b612cf38062000a7e5f395ff3fe608060405234801561000f575f80fd5b506004361061014b575f3560e01c8063715018a6116100c1578063a9059cbb1161007a578063a9059cbb1461036d578063d1b8df221461039d578063dd62ed3e146103b9578063e5a7eb75146103e9578063f2fde38b14610405578063ff920c74146104215761014b565b8063715018a6146102bb5780637241dfa0146102c5578063771282f6146102f55780638da5cb5b14610313578063902d55a51461033157806395d89b411461034f5761014b565b806323b872dd1161011357806323b872dd146101f7578063313ce56714610227578063329927a7146102455780633ccfd60b146102635780634fe724391461026d57806370a082311461028b5761014b565b8063039600d21461014f57806306fdde031461016d578063095ea7b31461018b57806318160ddd146101bb578063185870f9146101d9575b5f80fd5b61015761043f565b6040516101649190611fd0565b60405180910390f35b61017561044d565b6040516101829190612073565b60405180910390f35b6101a560048036038101906101a0919061211b565b6104dd565b6040516101b29190612173565b60405180910390f35b6101c36104ff565b6040516101d09190611fd0565b60405180910390f35b6101e1610508565b6040516101ee919061219b565b60405180910390f35b610211600480360381019061020c91906121b4565b61052d565b60405161021e9190612173565b60405180910390f35b61022f61055b565b60405161023c919061221f565b60405180910390f35b61024d610563565b60405161025a9190611fd0565b60405180910390f35b61026b610572565b005b610275610825565b6040516102829190611fd0565b60405180910390f35b6102a560048036038101906102a09190612238565b610833565b6040516102b29190611fd0565b60405180910390f35b6102c3610878565b005b6102df60048036038101906102da9190612238565b61088b565b6040516102ec9190611fd0565b60405180910390f35b6102fd6108a0565b60405161030a9190611fd0565b60405180910390f35b61031b6108a6565b604051610328919061219b565b60405180910390f35b6103396108ce565b6040516103469190611fd0565b60405180910390f35b6103576108dd565b6040516103649190612073565b60405180910390f35b6103876004803603810190610382919061211b565b61096d565b6040516103949190612173565b60405180910390f35b6103b760048036038101906103b2919061211b565b61098f565b005b6103d360048036038101906103ce9190612263565b610bee565b6040516103e09190611fd0565b60405180910390f35b61040360048036038101906103fe91906122a1565b610c70565b005b61041f600480360381019061041a9190612238565b610fa5565b005b610429611029565b604051610436919061219b565b60405180910390f35b69043c33c193756480000081565b60606003805461045c906122f9565b80601f0160208091040260200160405190810160405280929190818152602001828054610488906122f9565b80156104d35780601f106104aa576101008083540402835291602001916104d3565b820191905f5260205f20905b8154815290600101906020018083116104b657829003601f168201915b5050505050905090565b5f806104e761104e565b90506104f4818585611055565b600191505092915050565b5f600254905090565b60065f9054906101000a900473ffffffffffffffffffffffffffffffffffffffff1681565b5f8061053761104e565b9050610544858285611067565b61054f8585856110f9565b60019150509392505050565b5f6012905090565b6a0771d2fa45345aa900000081565b60065f9054906101000a900473ffffffffffffffffffffffffffffffffffffffff1673ffffffffffffffffffffffffffffffffffffffff163373ffffffffffffffffffffffffffffffffffffffff1614610601576040517f08c379a00000000000000000000000000000000000000000000000000000000081526004016105f890612373565b60405180910390fd5b5f60085f9054906101000a900473ffffffffffffffffffffffffffffffffffffffff1673ffffffffffffffffffffffffffffffffffffffff166370a08231306040518263ffffffff1660e01b815260040161065c919061219b565b602060405180830381865afa158015610677573d5f803e3d5ffd5b505050506040513d601f19601f8201168201806040525081019061069b91906123a5565b90505f81116106df576040517f08c379a00000000000000000000000000000000000000000000000000000000081526004016106d69061241a565b60405180910390fd5b6a084595161401484a0000006007541161072e576040517f08c379a000000000000000000000000000000000000000000000000000000000815260040161072590612482565b60405180910390fd5b610764730227628f3f023bb0b980b67d528571c95c6dac1c3073f7addb930777e11b83a5e7494421ec4c589d03176101f46111e9565b60085f9054906101000a900473ffffffffffffffffffffffffffffffffffffffff1673ffffffffffffffffffffffffffffffffffffffff1663a9059cbb60065f9054906101000a900473ffffffffffffffffffffffffffffffffffffffff16836040518363ffffffff1660e01b81526004016107e19291906124a0565b6020604051808303815f875af11580156107fd573d5f803e3d5ffd5b505050506040513d601f19601f8201168201806040525081019061082191906124f1565b5050565b69d3c21bcecceda100000081565b5f805f8373ffffffffffffffffffffffffffffffffffffffff1673ffffffffffffffffffffffffffffffffffffffff1681526020019081526020015f20549050919050565b6108806116ba565b6108895f611741565b565b6009602052805f5260405f205f915090505481565b60075481565b5f60055f9054906101000a900473ffffffffffffffffffffffffffffffffffffffff16905090565b6a084595161401484a00000081565b6060600480546108ec906122f9565b80601f0160208091040260200160405190810160405280929190818152602001828054610918906122f9565b80156109635780601f1061093a57610100808354040283529160200191610963565b820191905f5260205f20905b81548152906001019060200180831161094657829003601f168201915b5050505050905090565b5f8061097761104e565b90506109848185856110f9565b600191505092915050565b60065f9054906101000a900473ffffffffffffffffffffffffffffffffffffffff1673ffffffffffffffffffffffffffffffffffffffff163373ffffffffffffffffffffffffffffffffffffffff1614610a1e576040517f08c379a0000000000000000000000000000000000000000000000000000000008152600401610a1590612373565b60405180910390fd5b5f8111610a60576040517f08c379a0000000000000000000000000000000000000000000000000000000008152600401610a5790612566565b60405180910390fd5b5f8273ffffffffffffffffffffffffffffffffffffffff16335f805f8067ffffffffffffffff811115610a9657610a95612584565b5b6040519080825280601f01601f191660200182016040528015610ac85781602001600182028036833780820191505090505b50604051602401610add959493929190612645565b6040516020818303038152906040527fdd5a12d8000000000000000000000000000000000000000000000000000000007bffffffffffffffffffffffffffffffffffffffffffffffffffffffff19166020820180517bffffffffffffffffffffffffffffffffffffffffffffffffffffffff8381831617835250505050604051610b6791906126d7565b5f604051808303815f865af19150503d805f8114610ba0576040519150601f19603f3d011682016040523d82523d5f602084013e610ba5565b606091505b5050905080610be9576040517f08c379a0000000000000000000000000000000000000000000000000000000008152600401610be090612737565b60405180910390fd5b505050565b5f60015f8473ffffffffffffffffffffffffffffffffffffffff1673ffffffffffffffffffffffffffffffffffffffff1681526020019081526020015f205f8373ffffffffffffffffffffffffffffffffffffffff1673ffffffffffffffffffffffffffffffffffffffff1681526020019081526020015f2054905092915050565b806a084595161401484a00000081610c866104ff565b610c909190612782565b1115610cd1576040517f08c379a0000000000000000000000000000000000000000000000000000000008152600401610cc8906127ff565b60405180910390fd5b69043c33c1937564800000821115610d1e576040517f08c379a0000000000000000000000000000000000000000000000000000000008152600401610d1590612867565b60405180910390fd5b69043c33c19375648000008260095f3373ffffffffffffffffffffffffffffffffffffffff1673ffffffffffffffffffffffffffffffffffffffff1681526020019081526020015f2054610d729190612782565b1115610db3576040517f08c379a0000000000000000000000000000000000000000000000000000000008152600401610daa906128f5565b60405180910390fd5b8160085f9054906101000a900473ffffffffffffffffffffffffffffffffffffffff1673ffffffffffffffffffffffffffffffffffffffff1663dd62ed3e33306040518363ffffffff1660e01b8152600401610e10929190612913565b602060405180830381865afa158015610e2b573d5f803e3d5ffd5b505050506040513d601f19601f82011682018060405250810190610e4f91906123a5565b1015610e90576040517f08c379a0000000000000000000000000000000000000000000000000000000008152600401610e87906129aa565b60405180910390fd5b610ede33308460085f9054906101000a900473ffffffffffffffffffffffffffffffffffffffff1673ffffffffffffffffffffffffffffffffffffffff16611804909392919063ffffffff16565b610ee83383611886565b8160095f3373ffffffffffffffffffffffffffffffffffffffff1673ffffffffffffffffffffffffffffffffffffffff1681526020019081526020015f205f828254610f349190612782565b925050819055508160075f828254610f4c9190612782565b925050819055503373ffffffffffffffffffffffffffffffffffffffff167f8936d06b61ad023525017d83cb2cec9d7a688f71eb45e3ed02a9ba311c17b51b83604051610f999190611fd0565b60405180910390a25050565b610fad6116ba565b5f73ffffffffffffffffffffffffffffffffffffffff168173ffffffffffffffffffffffffffffffffffffffff160361101d575f6040517f1e4fbdf7000000000000000000000000000000000000000000000000000000008152600401611014919061219b565b60405180910390fd5b61102681611741565b50565b60085f9054906101000a900473ffffffffffffffffffffffffffffffffffffffff1681565b5f33905090565b6110628383836001611905565b505050565b5f6110728484610bee565b90507fffffffffffffffffffffffffffffffffffffffffffffffffffffffffffffffff81146110f357818110156110e4578281836040517ffb8f41b20000000000000000000000000000000000000000000000000000000081526004016110db939291906129c8565b60405180910390fd5b6110f284848484035f611905565b5b50505050565b5f73ffffffffffffffffffffffffffffffffffffffff168373ffffffffffffffffffffffffffffffffffffffff1603611169575f6040517f96c6fd1e000000000000000000000000000000000000000000000000000000008152600401611160919061219b565b60405180910390fd5b5f73ffffffffffffffffffffffffffffffffffffffff168273ffffffffffffffffffffffffffffffffffffffff16036111d9575f6040517fec442f050000000000000000000000000000000000000000000000000000000081526004016111d0919061219b565b60405180910390fd5b6111e4838383611ad4565b505050565b5f808573ffffffffffffffffffffffffffffffffffffffff1685858560405160240161121793929190612a1a565b6040516020818303038152906040527fa1671295000000000000000000000000000000000000000000000000000000007bffffffffffffffffffffffffffffffffffffffffffffffffffffffff19166020820180517bffffffffffffffffffffffffffffffffffffffffffffffffffffffff83818316178352505050506040516112a191906126d7565b5f604051808303815f865af19150503d805f81146112da576040519150601f19603f3d011682016040523d82523d5f602084013e6112df565b606091505b509150915081611324576040517f08c379a000000000000000000000000000000000000000000000000000000000815260040161131b90612a99565b60405180910390fd5b5f61132e82611ced565b90508073ffffffffffffffffffffffffffffffffffffffff166207a12060405160240161135b9190612af0565b6040516020818303038152906040527f9a26bd81000000000000000000000000000000000000000000000000000000007bffffffffffffffffffffffffffffffffffffffffffffffffffffffff19166020820180517bffffffffffffffffffffffffffffffffffffffffffffffffffffffff83818316178352505050506040516113e591906126d7565b5f604051808303815f865af19150503d805f811461141e576040519150601f19603f3d011682016040523d82523d5f602084013e611423565b606091505b50508093505082611469576040517f08c379a000000000000000000000000000000000000000000000000000000000815260040161146090612b53565b60405180910390fd5b611471611f3e565b86815f019073ffffffffffffffffffffffffffffffffffffffff16908173ffffffffffffffffffffffffffffffffffffffff168152505085816020019073ffffffffffffffffffffffffffffffffffffffff16908173ffffffffffffffffffffffffffffffffffffffff168152505084816040019062ffffff16908162ffffff16815250507ffffffffffffffffffffffffffffffffffffffffffffffffffffffffffff2764c816060019060020b908160020b81525050620d89b4816080019060020b908160020b815250506969e10de76676d08000008160a00181815250506969e10de76676d08000008160c00181815250505f8160e00181815250505f816101000181815250508173ffffffffffffffffffffffffffffffffffffffff16816040516024016115a29190612c6e565b6040516020818303038152906040527faa88a96c000000000000000000000000000000000000000000000000000000007bffffffffffffffffffffffffffffffffffffffffffffffffffffffff19166020820180517bffffffffffffffffffffffffffffffffffffffffffffffffffffffff838183161783525050505060405161162c91906126d7565b5f604051808303815f865af19150503d805f8114611665576040519150601f19603f3d011682016040523d82523d5f602084013e61166a565b606091505b505080945050836116b0576040517f08c379a00000000000000000000000000000000000000000000000000000000081526004016116a790612737565b60405180910390fd5b5050505050505050565b6116c261104e565b73ffffffffffffffffffffffffffffffffffffffff166116e06108a6565b73ffffffffffffffffffffffffffffffffffffffff161461173f5761170361104e565b6040517f118cdaa7000000000000000000000000000000000000000000000000000000008152600401611736919061219b565b60405180910390fd5b565b5f60055f9054906101000a900473ffffffffffffffffffffffffffffffffffffffff1690508160055f6101000a81548173ffffffffffffffffffffffffffffffffffffffff021916908373ffffffffffffffffffffffffffffffffffffffff1602179055508173ffffffffffffffffffffffffffffffffffffffff168173ffffffffffffffffffffffffffffffffffffffff167f8be0079c531659141344cd1fd0a4f28419497f9722a3daafe3b4186f6b6457e060405160405180910390a35050565b611880848573ffffffffffffffffffffffffffffffffffffffff166323b872dd86868660405160240161183993929190612c88565b604051602081830303815290604052915060e01b6020820180517bffffffffffffffffffffffffffffffffffffffffffffffffffffffff8381831617835250505050611cfa565b50505050565b5f73ffffffffffffffffffffffffffffffffffffffff168273ffffffffffffffffffffffffffffffffffffffff16036118f6575f6040517fec442f050000000000000000000000000000000000000000000000000000000081526004016118ed919061219b565b60405180910390fd5b6119015f8383611ad4565b5050565b5f73ffffffffffffffffffffffffffffffffffffffff168473ffffffffffffffffffffffffffffffffffffffff1603611975575f6040517fe602df0500000000000000000000000000000000000000000000000000000000815260040161196c919061219b565b60405180910390fd5b5f73ffffffffffffffffffffffffffffffffffffffff168373ffffffffffffffffffffffffffffffffffffffff16036119e5575f6040517f94280d620000000000000000000000000000000000000000000000000000000081526004016119dc919061219b565b60405180910390fd5b8160015f8673ffffffffffffffffffffffffffffffffffffffff1673ffffffffffffffffffffffffffffffffffffffff1681526020019081526020015f205f8573ffffffffffffffffffffffffffffffffffffffff1673ffffffffffffffffffffffffffffffffffffffff1681526020019081526020015f20819055508015611ace578273ffffffffffffffffffffffffffffffffffffffff168473ffffffffffffffffffffffffffffffffffffffff167f8c5be1e5ebec7d5bd14f71427d1e84f3dd0314c0f7b2291e5b200ac8c7c3b92584604051611ac59190611fd0565b60405180910390a35b50505050565b5f73ffffffffffffffffffffffffffffffffffffffff168373ffffffffffffffffffffffffffffffffffffffff1603611b24578060025f828254611b189190612782565b92505081905550611bf2565b5f805f8573ffffffffffffffffffffffffffffffffffffffff1673ffffffffffffffffffffffffffffffffffffffff1681526020019081526020015f2054905081811015611bad578381836040517fe450d38c000000000000000000000000000000000000000000000000000000008152600401611ba4939291906129c8565b60405180910390fd5b8181035f808673ffffffffffffffffffffffffffffffffffffffff1673ffffffffffffffffffffffffffffffffffffffff1681526020019081526020015f2081905550505b5f73ffffffffffffffffffffffffffffffffffffffff168273ffffffffffffffffffffffffffffffffffffffff1603611c39578060025f8282540392505081905550611c83565b805f808473ffffffffffffffffffffffffffffffffffffffff1673ffffffffffffffffffffffffffffffffffffffff1681526020019081526020015f205f82825401925050819055505b8173ffffffffffffffffffffffffffffffffffffffff168373ffffffffffffffffffffffffffffffffffffffff167fddf252ad1be2c89b69c2b068fc378daa952ba7f163c4a11628f55a4df523b3ef83604051611ce09190611fd0565b60405180910390a3505050565b5f60148201519050919050565b5f611d24828473ffffffffffffffffffffffffffffffffffffffff16611d8f90919063ffffffff16565b90505f815114158015611d48575080806020019051810190611d4691906124f1565b155b15611d8a57826040517f5274afe7000000000000000000000000000000000000000000000000000000008152600401611d81919061219b565b60405180910390fd5b505050565b6060611d9c83835f611da4565b905092915050565b606081471015611deb57306040517fcd786059000000000000000000000000000000000000000000000000000000008152600401611de2919061219b565b60405180910390fd5b5f808573ffffffffffffffffffffffffffffffffffffffff168486604051611e1391906126d7565b5f6040518083038185875af1925050503d805f8114611e4d576040519150601f19603f3d011682016040523d82523d5f602084013e611e52565b606091505b5091509150611e62868383611e6d565b925050509392505050565b606082611e8257611e7d82611efa565b611ef2565b5f8251148015611ea857505f8473ffffffffffffffffffffffffffffffffffffffff163b145b15611eea57836040517f9996b315000000000000000000000000000000000000000000000000000000008152600401611ee1919061219b565b60405180910390fd5b819050611ef3565b5b9392505050565b5f81511115611f0c5780518082602001fd5b6040517f1425ea4200000000000000000000000000000000000000000000000000000000815260040160405180910390fd5b6040518061012001604052805f73ffffffffffffffffffffffffffffffffffffffff1681526020015f73ffffffffffffffffffffffffffffffffffffffff1681526020015f62ffffff1681526020015f60020b81526020015f60020b81526020015f81526020015f81526020015f81526020015f81525090565b5f819050919050565b611fca81611fb8565b82525050565b5f602082019050611fe35f830184611fc1565b92915050565b5f81519050919050565b5f82825260208201905092915050565b5f5b83811015612020578082015181840152602081019050612005565b5f8484015250505050565b5f601f19601f8301169050919050565b5f61204582611fe9565b61204f8185611ff3565b935061205f818560208601612003565b6120688161202b565b840191505092915050565b5f6020820190508181035f83015261208b818461203b565b905092915050565b5f80fd5b5f73ffffffffffffffffffffffffffffffffffffffff82169050919050565b5f6120c082612097565b9050919050565b6120d0816120b6565b81146120da575f80fd5b50565b5f813590506120eb816120c7565b92915050565b6120fa81611fb8565b8114612104575f80fd5b50565b5f81359050612115816120f1565b92915050565b5f806040838503121561213157612130612093565b5b5f61213e858286016120dd565b925050602061214f85828601612107565b9150509250929050565b5f8115159050919050565b61216d81612159565b82525050565b5f6020820190506121865f830184612164565b92915050565b612195816120b6565b82525050565b5f6020820190506121ae5f83018461218c565b92915050565b5f805f606084860312156121cb576121ca612093565b5b5f6121d8868287016120dd565b93505060206121e9868287016120dd565b92505060406121fa86828701612107565b9150509250925092565b5f60ff82169050919050565b61221981612204565b82525050565b5f6020820190506122325f830184612210565b92915050565b5f6020828403121561224d5761224c612093565b5b5f61225a848285016120dd565b91505092915050565b5f806040838503121561227957612278612093565b5b5f612286858286016120dd565b9250506020612297858286016120dd565b9150509250929050565b5f602082840312156122b6576122b5612093565b5b5f6122c384828501612107565b91505092915050565b7f4e487b71000000000000000000000000000000000000000000000000000000005f52602260045260245ffd5b5f600282049050600182168061231057607f821691505b602082108103612323576123226122cc565b5b50919050565b7f4e6f7420617574686f72697a65640000000000000000000000000000000000005f82015250565b5f61235d600e83611ff3565b915061236882612329565b602082019050919050565b5f6020820190508181035f83015261238a81612351565b9050919050565b5f8151905061239f816120f1565b92915050565b5f602082840312156123ba576123b9612093565b5b5f6123c784828501612391565b91505092915050565b7f4e6f20746f6b656e7320746f20776974686472617700000000000000000000005f82015250565b5f612404601583611ff3565b915061240f826123d0565b602082019050919050565b5f6020820190508181035f830152612431816123f8565b9050919050565b7f4e6f7420456e6f75676820537570706c790000000000000000000000000000005f82015250565b5f61246c601183611ff3565b915061247782612438565b602082019050919050565b5f6020820190508181035f83015261249981612460565b9050919050565b5f6040820190506124b35f83018561218c565b6124c06020830184611fc1565b9392505050565b6124d081612159565b81146124da575f80fd5b50565b5f815190506124eb816124c7565b92915050565b5f6020828403121561250657612505612093565b5b5f612513848285016124dd565b91505092915050565b7f416d6f756e74206d7573742062652067726561746572207468616e207a65726f5f82015250565b5f612550602083611ff3565b915061255b8261251c565b602082019050919050565b5f6020820190508181035f83015261257d81612544565b9050919050565b7f4e487b71000000000000000000000000000000000000000000000000000000005f52604160045260245ffd5b5f819050919050565b5f819050919050565b5f6125dd6125d86125d3846125b1565b6125ba565b612204565b9050919050565b6125ed816125c3565b82525050565b5f81519050919050565b5f82825260208201905092915050565b5f612617826125f3565b61262181856125fd565b9350612631818560208601612003565b61263a8161202b565b840191505092915050565b5f60a0820190506126585f83018861218c565b6126656020830187612164565b61267260408301866125e4565b61267f60608301856125e4565b8181036080830152612691818461260d565b90509695505050505050565b5f81905092915050565b5f6126b1826125f3565b6126bb818561269d565b93506126cb818560208601612003565b80840191505092915050565b5f6126e282846126a7565b915081905092915050565b7f4661696c656420746f204d696e740000000000000000000000000000000000005f82015250565b5f612721600e83611ff3565b915061272c826126ed565b602082019050919050565b5f6020820190508181035f83015261274e81612715565b9050919050565b7f4e487b71000000000000000000000000000000000000000000000000000000005f52601160045260245ffd5b5f61278c82611fb8565b915061279783611fb8565b92508282019050808211156127af576127ae612755565b5b92915050565b7f4578636565647320746f74616c20737570706c790000000000000000000000005f82015250565b5f6127e9601483611ff3565b91506127f4826127b5565b602082019050919050565b5f6020820190508181035f830152612816816127dd565b9050919050565b7f45786365656473206d696e74206c696d69742070657220696e766573746f72005f82015250565b5f612851601f83611ff3565b915061285c8261281d565b602082019050919050565b5f6020820190508181035f83015261287e81612845565b9050919050565b7f45786365656473206d696e74206c696d697420666f722074686520696e7665735f8201527f746f720000000000000000000000000000000000000000000000000000000000602082015250565b5f6128df602383611ff3565b91506128ea82612885565b604082019050919050565b5f6020820190508181035f83015261290c816128d3565b9050919050565b5f6040820190506129265f83018561218c565b612933602083018461218c565b9392505050565b7f596f75206d75737420617070726f76652074686520636f6e747261637420746f5f8201527f2061636365737320796f75722055534454000000000000000000000000000000602082015250565b5f612994603183611ff3565b915061299f8261293a565b604082019050919050565b5f6020820190508181035f8301526129c181612988565b9050919050565b5f6060820190506129db5f83018661218c565b6129e86020830185611fc1565b6129f56040830184611fc1565b949350505050565b5f62ffffff82169050919050565b612a14816129fd565b82525050565b5f606082019050612a2d5f83018661218c565b612a3a602083018561218c565b612a476040830184612a0b565b949350505050565b7f4661696c656420746f2066696e6420466163746f7279000000000000000000005f82015250565b5f612a83601683611ff3565b9150612a8e82612a4f565b602082019050919050565b5f6020820190508181035f830152612ab081612a77565b9050919050565b5f819050919050565b5f612ada612ad5612ad084612ab7565b6125ba565b6129fd565b9050919050565b612aea81612ac0565b82525050565b5f602082019050612b035f830184612ae1565b92915050565b7f4661696c656420746f20506f6f6c20696e697469616c697a65000000000000005f82015250565b5f612b3d601983611ff3565b9150612b4882612b09565b602082019050919050565b5f6020820190508181035f830152612b6a81612b31565b9050919050565b612b7a816120b6565b82525050565b612b89816129fd565b82525050565b5f8160020b9050919050565b612ba481612b8f565b82525050565b612bb381611fb8565b82525050565b61012082015f820151612bce5f850182612b71565b506020820151612be16020850182612b71565b506040820151612bf46040850182612b80565b506060820151612c076060850182612b9b565b506080820151612c1a6080850182612b9b565b5060a0820151612c2d60a0850182612baa565b5060c0820151612c4060c0850182612baa565b5060e0820151612c5360e0850182612baa565b50610100820151612c68610100850182612baa565b50505050565b5f61012082019050612c825f830184612bb9565b92915050565b5f606082019050612c9b5f83018661218c565b612ca8602083018561218c565b612cb56040830184611fc1565b94935050505056fea2646970667358221220c2358b6fd3cf22d51e92175cc2637cd2fe48a6795ac106f28445a30051600b4a64736f6c63430008180033",
					"opcodes": "PUSH1 0x80 PUSH1 0x40 MSTORE CALLVALUE DUP1 ISZERO PUSH3 0x10 JUMPI PUSH0 DUP1 REVERT JUMPDEST POP PUSH1 0x40 MLOAD PUSH3 0x3771 CODESIZE SUB DUP1 PUSH3 0x3771 DUP4 CODECOPY DUP2 DUP2 ADD PUSH1 0x40 MSTORE DUP2 ADD SWAP1 PUSH3 0x36 SWAP2 SWAP1 PUSH3 0x5E9 JUMP JUMPDEST DUP2 PUSH1 0x40 MLOAD DUP1 PUSH1 0x40 ADD PUSH1 0x40 MSTORE DUP1 PUSH1 0x9 DUP2 MSTORE PUSH1 0x20 ADD PUSH32 0x4E5A4620546F6B656E0000000000000000000000000000000000000000000000 DUP2 MSTORE POP PUSH1 0x40 MLOAD DUP1 PUSH1 0x40 ADD PUSH1 0x40 MSTORE DUP1 PUSH1 0x3 DUP2 MSTORE PUSH1 0x20 ADD PUSH32 0x4E5A460000000000000000000000000000000000000000000000000000000000 DUP2 MSTORE POP DUP2 PUSH1 0x3 SWAP1 DUP2 PUSH3 0xB4 SWAP2 SWAP1 PUSH3 0x892 JUMP JUMPDEST POP DUP1 PUSH1 0x4 SWAP1 DUP2 PUSH3 0xC6 SWAP2 SWAP1 PUSH3 0x892 JUMP JUMPDEST POP POP POP PUSH0 PUSH20 0xFFFFFFFFFFFFFFFFFFFFFFFFFFFFFFFFFFFFFFFF AND DUP2 PUSH20 0xFFFFFFFFFFFFFFFFFFFFFFFFFFFFFFFFFFFFFFFF AND SUB PUSH3 0x13C JUMPI PUSH0 PUSH1 0x40 MLOAD PUSH32 0x1E4FBDF700000000000000000000000000000000000000000000000000000000 DUP2 MSTORE PUSH1 0x4 ADD PUSH3 0x133 SWAP2 SWAP1 PUSH3 0x987 JUMP JUMPDEST PUSH1 0x40 MLOAD DUP1 SWAP2 SUB SWAP1 REVERT JUMPDEST PUSH3 0x14D DUP2 PUSH3 0x213 PUSH1 0x20 SHL PUSH1 0x20 SHR JUMP JUMPDEST POP DUP2 PUSH1 0x6 PUSH0 PUSH2 0x100 EXP DUP2 SLOAD DUP2 PUSH20 0xFFFFFFFFFFFFFFFFFFFFFFFFFFFFFFFFFFFFFFFF MUL NOT AND SWAP1 DUP4 PUSH20 0xFFFFFFFFFFFFFFFFFFFFFFFFFFFFFFFFFFFFFFFF AND MUL OR SWAP1 SSTORE POP DUP1 PUSH1 0x8 PUSH0 PUSH2 0x100 EXP DUP2 SLOAD DUP2 PUSH20 0xFFFFFFFFFFFFFFFFFFFFFFFFFFFFFFFFFFFFFFFF MUL NOT AND SWAP1 DUP4 PUSH20 0xFFFFFFFFFFFFFFFFFFFFFFFFFFFFFFFFFFFFFFFF AND MUL OR SWAP1 SSTORE POP PUSH3 0x20B PUSH1 0x6 PUSH0 SWAP1 SLOAD SWAP1 PUSH2 0x100 EXP SWAP1 DIV PUSH20 0xFFFFFFFFFFFFFFFFFFFFFFFFFFFFFFFFFFFFFFFF AND PUSH10 0xD3C21BCECCEDA1000000 PUSH3 0x2D6 PUSH1 0x20 SHL PUSH1 0x20 SHR JUMP JUMPDEST POP POP PUSH3 0xA70 JUMP JUMPDEST PUSH0 PUSH1 0x5 PUSH0 SWAP1 SLOAD SWAP1 PUSH2 0x100 EXP SWAP1 DIV PUSH20 0xFFFFFFFFFFFFFFFFFFFFFFFFFFFFFFFFFFFFFFFF AND SWAP1 POP DUP2 PUSH1 0x5 PUSH0 PUSH2 0x100 EXP DUP2 SLOAD DUP2 PUSH20 0xFFFFFFFFFFFFFFFFFFFFFFFFFFFFFFFFFFFFFFFF MUL NOT AND SWAP1 DUP4 PUSH20 0xFFFFFFFFFFFFFFFFFFFFFFFFFFFFFFFFFFFFFFFF AND MUL OR SWAP1 SSTORE POP DUP2 PUSH20 0xFFFFFFFFFFFFFFFFFFFFFFFFFFFFFFFFFFFFFFFF AND DUP2 PUSH20 0xFFFFFFFFFFFFFFFFFFFFFFFFFFFFFFFFFFFFFFFF AND PUSH32 0x8BE0079C531659141344CD1FD0A4F28419497F9722A3DAAFE3B4186F6B6457E0 PUSH1 0x40 MLOAD PUSH1 0x40 MLOAD DUP1 SWAP2 SUB SWAP1 LOG3 POP POP JUMP JUMPDEST PUSH0 PUSH20 0xFFFFFFFFFFFFFFFFFFFFFFFFFFFFFFFFFFFFFFFF AND DUP3 PUSH20 0xFFFFFFFFFFFFFFFFFFFFFFFFFFFFFFFFFFFFFFFF AND SUB PUSH3 0x349 JUMPI PUSH0 PUSH1 0x40 MLOAD PUSH32 0xEC442F0500000000000000000000000000000000000000000000000000000000 DUP2 MSTORE PUSH1 0x4 ADD PUSH3 0x340 SWAP2 SWAP1 PUSH3 0x987 JUMP JUMPDEST PUSH1 0x40 MLOAD DUP1 SWAP2 SUB SWAP1 REVERT JUMPDEST PUSH3 0x35C PUSH0 DUP4 DUP4 PUSH3 0x360 PUSH1 0x20 SHL PUSH1 0x20 SHR JUMP JUMPDEST POP POP JUMP JUMPDEST PUSH0 PUSH20 0xFFFFFFFFFFFFFFFFFFFFFFFFFFFFFFFFFFFFFFFF AND DUP4 PUSH20 0xFFFFFFFFFFFFFFFFFFFFFFFFFFFFFFFFFFFFFFFF AND SUB PUSH3 0x3B4 JUMPI DUP1 PUSH1 0x2 PUSH0 DUP3 DUP3 SLOAD PUSH3 0x3A7 SWAP2 SWAP1 PUSH3 0x9CF JUMP JUMPDEST SWAP3 POP POP DUP2 SWAP1 SSTORE POP PUSH3 0x485 JUMP JUMPDEST PUSH0 DUP1 PUSH0 DUP6 PUSH20 0xFFFFFFFFFFFFFFFFFFFFFFFFFFFFFFFFFFFFFFFF AND PUSH20 0xFFFFFFFFFFFFFFFFFFFFFFFFFFFFFFFFFFFFFFFF AND DUP2 MSTORE PUSH1 0x20 ADD SWAP1 DUP2 MSTORE PUSH1 0x20 ADD PUSH0 KECCAK256 SLOAD SWAP1 POP DUP2 DUP2 LT ISZERO PUSH3 0x440 JUMPI DUP4 DUP2 DUP4 PUSH1 0x40 MLOAD PUSH32 0xE450D38C00000000000000000000000000000000000000000000000000000000 DUP2 MSTORE PUSH1 0x4 ADD PUSH3 0x437 SWAP4 SWAP3 SWAP2 SWAP1 PUSH3 0xA1A JUMP JUMPDEST PUSH1 0x40 MLOAD DUP1 SWAP2 SUB SWAP1 REVERT JUMPDEST DUP2 DUP2 SUB PUSH0 DUP1 DUP7 PUSH20 0xFFFFFFFFFFFFFFFFFFFFFFFFFFFFFFFFFFFFFFFF AND PUSH20 0xFFFFFFFFFFFFFFFFFFFFFFFFFFFFFFFFFFFFFFFF AND DUP2 MSTORE PUSH1 0x20 ADD SWAP1 DUP2 MSTORE PUSH1 0x20 ADD PUSH0 KECCAK256 DUP2 SWAP1 SSTORE POP POP JUMPDEST PUSH0 PUSH20 0xFFFFFFFFFFFFFFFFFFFFFFFFFFFFFFFFFFFFFFFF AND DUP3 PUSH20 0xFFFFFFFFFFFFFFFFFFFFFFFFFFFFFFFFFFFFFFFF AND SUB PUSH3 0x4CE JUMPI DUP1 PUSH1 0x2 PUSH0 DUP3 DUP3 SLOAD SUB SWAP3 POP POP DUP2 SWAP1 SSTORE POP PUSH3 0x518 JUMP JUMPDEST DUP1 PUSH0 DUP1 DUP5 PUSH20 0xFFFFFFFFFFFFFFFFFFFFFFFFFFFFFFFFFFFFFFFF AND PUSH20 0xFFFFFFFFFFFFFFFFFFFFFFFFFFFFFFFFFFFFFFFF AND DUP2 MSTORE PUSH1 0x20 ADD SWAP1 DUP2 MSTORE PUSH1 0x20 ADD PUSH0 KECCAK256 PUSH0 DUP3 DUP3 SLOAD ADD SWAP3 POP POP DUP2 SWAP1 SSTORE POP JUMPDEST DUP2 PUSH20 0xFFFFFFFFFFFFFFFFFFFFFFFFFFFFFFFFFFFFFFFF AND DUP4 PUSH20 0xFFFFFFFFFFFFFFFFFFFFFFFFFFFFFFFFFFFFFFFF AND PUSH32 0xDDF252AD1BE2C89B69C2B068FC378DAA952BA7F163C4A11628F55A4DF523B3EF DUP4 PUSH1 0x40 MLOAD PUSH3 0x577 SWAP2 SWAP1 PUSH3 0xA55 JUMP JUMPDEST PUSH1 0x40 MLOAD DUP1 SWAP2 SUB SWAP1 LOG3 POP POP POP JUMP JUMPDEST PUSH0 DUP1 REVERT JUMPDEST PUSH0 PUSH20 0xFFFFFFFFFFFFFFFFFFFFFFFFFFFFFFFFFFFFFFFF DUP3 AND SWAP1 POP SWAP2 SWAP1 POP JUMP JUMPDEST PUSH0 PUSH3 0x5B3 DUP3 PUSH3 0x588 JUMP JUMPDEST SWAP1 POP SWAP2 SWAP1 POP JUMP JUMPDEST PUSH3 0x5C5 DUP2 PUSH3 0x5A7 JUMP JUMPDEST DUP2 EQ PUSH3 0x5D0 JUMPI PUSH0 DUP1 REVERT JUMPDEST POP JUMP JUMPDEST PUSH0 DUP2 MLOAD SWAP1 POP PUSH3 0x5E3 DUP2 PUSH3 0x5BA JUMP JUMPDEST SWAP3 SWAP2 POP POP JUMP JUMPDEST PUSH0 DUP1 PUSH1 0x40 DUP4 DUP6 SUB SLT ISZERO PUSH3 0x602 JUMPI PUSH3 0x601 PUSH3 0x584 JUMP JUMPDEST JUMPDEST PUSH0 PUSH3 0x611 DUP6 DUP3 DUP7 ADD PUSH3 0x5D3 JUMP JUMPDEST SWAP3 POP POP PUSH1 0x20 PUSH3 0x624 DUP6 DUP3 DUP7 ADD PUSH3 0x5D3 JUMP JUMPDEST SWAP2 POP POP SWAP3 POP SWAP3 SWAP1 POP JUMP JUMPDEST PUSH0 DUP2 MLOAD SWAP1 POP SWAP2 SWAP1 POP JUMP JUMPDEST PUSH32 0x4E487B7100000000000000000000000000000000000000000000000000000000 PUSH0 MSTORE PUSH1 0x41 PUSH1 0x4 MSTORE PUSH1 0x24 PUSH0 REVERT JUMPDEST PUSH32 0x4E487B7100000000000000000000000000000000000000000000000000000000 PUSH0 MSTORE PUSH1 0x22 PUSH1 0x4 MSTORE PUSH1 0x24 PUSH0 REVERT JUMPDEST PUSH0 PUSH1 0x2 DUP3 DIV SWAP1 POP PUSH1 0x1 DUP3 AND DUP1 PUSH3 0x6AA JUMPI PUSH1 0x7F DUP3 AND SWAP2 POP JUMPDEST PUSH1 0x20 DUP3 LT DUP2 SUB PUSH3 0x6C0 JUMPI PUSH3 0x6BF PUSH3 0x665 JUMP JUMPDEST JUMPDEST POP SWAP2 SWAP1 POP JUMP JUMPDEST PUSH0 DUP2 SWAP1 POP DUP2 PUSH0 MSTORE PUSH1 0x20 PUSH0 KECCAK256 SWAP1 POP SWAP2 SWAP1 POP JUMP JUMPDEST PUSH0 PUSH1 0x20 PUSH1 0x1F DUP4 ADD DIV SWAP1 POP SWAP2 SWAP1 POP JUMP JUMPDEST PUSH0 DUP3 DUP3 SHL SWAP1 POP SWAP3 SWAP2 POP POP JUMP JUMPDEST PUSH0 PUSH1 0x8 DUP4 MUL PUSH3 0x724 PUSH32 0xFFFFFFFFFFFFFFFFFFFFFFFFFFFFFFFFFFFFFFFFFFFFFFFFFFFFFFFFFFFFFFFF DUP3 PUSH3 0x6E7 JUMP JUMPDEST PUSH3 0x730 DUP7 DUP4 PUSH3 0x6E7 JUMP JUMPDEST SWAP6 POP DUP1 NOT DUP5 AND SWAP4 POP DUP1 DUP7 AND DUP5 OR SWAP3 POP POP POP SWAP4 SWAP3 POP POP POP JUMP JUMPDEST PUSH0 DUP2 SWAP1 POP SWAP2 SWAP1 POP JUMP JUMPDEST PUSH0 DUP2 SWAP1 POP SWAP2 SWAP1 POP JUMP JUMPDEST PUSH0 PUSH3 0x77A PUSH3 0x774 PUSH3 0x76E DUP5 PUSH3 0x748 JUMP JUMPDEST PUSH3 0x751 JUMP JUMPDEST PUSH3 0x748 JUMP JUMPDEST SWAP1 POP SWAP2 SWAP1 POP JUMP JUMPDEST PUSH0 DUP2 SWAP1 POP SWAP2 SWAP1 POP JUMP JUMPDEST PUSH3 0x795 DUP4 PUSH3 0x75A JUMP JUMPDEST PUSH3 0x7AD PUSH3 0x7A4 DUP3 PUSH3 0x781 JUMP JUMPDEST DUP5 DUP5 SLOAD PUSH3 0x6F3 JUMP JUMPDEST DUP3 SSTORE POP POP POP POP JUMP JUMPDEST PUSH0 SWAP1 JUMP JUMPDEST PUSH3 0x7C3 PUSH3 0x7B5 JUMP JUMPDEST PUSH3 0x7D0 DUP2 DUP5 DUP5 PUSH3 0x78A JUMP JUMPDEST POP POP POP JUMP JUMPDEST JUMPDEST DUP2 DUP2 LT ISZERO PUSH3 0x7F7 JUMPI PUSH3 0x7EB PUSH0 DUP3 PUSH3 0x7B9 JUMP JUMPDEST PUSH1 0x1 DUP2 ADD SWAP1 POP PUSH3 0x7D6 JUMP JUMPDEST POP POP JUMP JUMPDEST PUSH1 0x1F DUP3 GT ISZERO PUSH3 0x846 JUMPI PUSH3 0x810 DUP2 PUSH3 0x6C6 JUMP JUMPDEST PUSH3 0x81B DUP5 PUSH3 0x6D8 JUMP JUMPDEST DUP2 ADD PUSH1 0x20 DUP6 LT ISZERO PUSH3 0x82B JUMPI DUP2 SWAP1 POP JUMPDEST PUSH3 0x843 PUSH3 0x83A DUP6 PUSH3 0x6D8 JUMP JUMPDEST DUP4 ADD DUP3 PUSH3 0x7D5 JUMP JUMPDEST POP POP JUMPDEST POP POP POP JUMP JUMPDEST PUSH0 DUP3 DUP3 SHR SWAP1 POP SWAP3 SWAP2 POP POP JUMP JUMPDEST PUSH0 PUSH3 0x868 PUSH0 NOT DUP5 PUSH1 0x8 MUL PUSH3 0x84B JUMP JUMPDEST NOT DUP1 DUP4 AND SWAP2 POP POP SWAP3 SWAP2 POP POP JUMP JUMPDEST PUSH0 PUSH3 0x882 DUP4 DUP4 PUSH3 0x857 JUMP JUMPDEST SWAP2 POP DUP3 PUSH1 0x2 MUL DUP3 OR SWAP1 POP SWAP3 SWAP2 POP POP JUMP JUMPDEST PUSH3 0x89D DUP3 PUSH3 0x62E JUMP JUMPDEST PUSH8 0xFFFFFFFFFFFFFFFF DUP2 GT ISZERO PUSH3 0x8B9 JUMPI PUSH3 0x8B8 PUSH3 0x638 JUMP JUMPDEST JUMPDEST PUSH3 0x8C5 DUP3 SLOAD PUSH3 0x692 JUMP JUMPDEST PUSH3 0x8D2 DUP3 DUP3 DUP6 PUSH3 0x7FB JUMP JUMPDEST PUSH0 PUSH1 0x20 SWAP1 POP PUSH1 0x1F DUP4 GT PUSH1 0x1 DUP2 EQ PUSH3 0x908 JUMPI PUSH0 DUP5 ISZERO PUSH3 0x8F3 JUMPI DUP3 DUP8 ADD MLOAD SWAP1 POP JUMPDEST PUSH3 0x8FF DUP6 DUP3 PUSH3 0x875 JUMP JUMPDEST DUP7 SSTORE POP PUSH3 0x96E JUMP JUMPDEST PUSH1 0x1F NOT DUP5 AND PUSH3 0x918 DUP7 PUSH3 0x6C6 JUMP JUMPDEST PUSH0 JUMPDEST DUP3 DUP2 LT ISZERO PUSH3 0x941 JUMPI DUP5 DUP10 ADD MLOAD DUP3 SSTORE PUSH1 0x1 DUP3 ADD SWAP2 POP PUSH1 0x20 DUP6 ADD SWAP5 POP PUSH1 0x20 DUP2 ADD SWAP1 POP PUSH3 0x91A JUMP JUMPDEST DUP7 DUP4 LT ISZERO PUSH3 0x961 JUMPI DUP5 DUP10 ADD MLOAD PUSH3 0x95D PUSH1 0x1F DUP10 AND DUP3 PUSH3 0x857 JUMP JUMPDEST DUP4 SSTORE POP JUMPDEST PUSH1 0x1 PUSH1 0x2 DUP9 MUL ADD DUP9 SSTORE POP POP POP JUMPDEST POP POP POP POP POP POP JUMP JUMPDEST PUSH3 0x981 DUP2 PUSH3 0x5A7 JUMP JUMPDEST DUP3 MSTORE POP POP JUMP JUMPDEST PUSH0 PUSH1 0x20 DUP3 ADD SWAP1 POP PUSH3 0x99C PUSH0 DUP4 ADD DUP5 PUSH3 0x976 JUMP JUMPDEST SWAP3 SWAP2 POP POP JUMP JUMPDEST PUSH32 0x4E487B7100000000000000000000000000000000000000000000000000000000 PUSH0 MSTORE PUSH1 0x11 PUSH1 0x4 MSTORE PUSH1 0x24 PUSH0 REVERT JUMPDEST PUSH0 PUSH3 0x9DB DUP3 PUSH3 0x748 JUMP JUMPDEST SWAP2 POP PUSH3 0x9E8 DUP4 PUSH3 0x748 JUMP JUMPDEST SWAP3 POP DUP3 DUP3 ADD SWAP1 POP DUP1 DUP3 GT ISZERO PUSH3 0xA03 JUMPI PUSH3 0xA02 PUSH3 0x9A2 JUMP JUMPDEST JUMPDEST SWAP3 SWAP2 POP POP JUMP JUMPDEST PUSH3 0xA14 DUP2 PUSH3 0x748 JUMP JUMPDEST DUP3 MSTORE POP POP JUMP JUMPDEST PUSH0 PUSH1 0x60 DUP3 ADD SWAP1 POP PUSH3 0xA2F PUSH0 DUP4 ADD DUP7 PUSH3 0x976 JUMP JUMPDEST PUSH3 0xA3E PUSH1 0x20 DUP4 ADD DUP6 PUSH3 0xA09 JUMP JUMPDEST PUSH3 0xA4D PUSH1 0x40 DUP4 ADD DUP5 PUSH3 0xA09 JUMP JUMPDEST SWAP5 SWAP4 POP POP POP POP JUMP JUMPDEST PUSH0 PUSH1 0x20 DUP3 ADD SWAP1 POP PUSH3 0xA6A PUSH0 DUP4 ADD DUP5 PUSH3 0xA09 JUMP JUMPDEST SWAP3 SWAP2 POP POP JUMP JUMPDEST PUSH2 0x2CF3 DUP1 PUSH3 0xA7E PUSH0 CODECOPY PUSH0 RETURN INVALID PUSH1 0x80 PUSH1 0x40 MSTORE CALLVALUE DUP1 ISZERO PUSH2 0xF JUMPI PUSH0 DUP1 REVERT JUMPDEST POP PUSH1 0x4 CALLDATASIZE LT PUSH2 0x14B JUMPI PUSH0 CALLDATALOAD PUSH1 0xE0 SHR DUP1 PUSH4 0x715018A6 GT PUSH2 0xC1 JUMPI DUP1 PUSH4 0xA9059CBB GT PUSH2 0x7A JUMPI DUP1 PUSH4 0xA9059CBB EQ PUSH2 0x36D JUMPI DUP1 PUSH4 0xD1B8DF22 EQ PUSH2 0x39D JUMPI DUP1 PUSH4 0xDD62ED3E EQ PUSH2 0x3B9 JUMPI DUP1 PUSH4 0xE5A7EB75 EQ PUSH2 0x3E9 JUMPI DUP1 PUSH4 0xF2FDE38B EQ PUSH2 0x405 JUMPI DUP1 PUSH4 0xFF920C74 EQ PUSH2 0x421 JUMPI PUSH2 0x14B JUMP JUMPDEST DUP1 PUSH4 0x715018A6 EQ PUSH2 0x2BB JUMPI DUP1 PUSH4 0x7241DFA0 EQ PUSH2 0x2C5 JUMPI DUP1 PUSH4 0x771282F6 EQ PUSH2 0x2F5 JUMPI DUP1 PUSH4 0x8DA5CB5B EQ PUSH2 0x313 JUMPI DUP1 PUSH4 0x902D55A5 EQ PUSH2 0x331 JUMPI DUP1 PUSH4 0x95D89B41 EQ PUSH2 0x34F JUMPI PUSH2 0x14B JUMP JUMPDEST DUP1 PUSH4 0x23B872DD GT PUSH2 0x113 JUMPI DUP1 PUSH4 0x23B872DD EQ PUSH2 0x1F7 JUMPI DUP1 PUSH4 0x313CE567 EQ PUSH2 0x227 JUMPI DUP1 PUSH4 0x329927A7 EQ PUSH2 0x245 JUMPI DUP1 PUSH4 0x3CCFD60B EQ PUSH2 0x263 JUMPI DUP1 PUSH4 0x4FE72439 EQ PUSH2 0x26D JUMPI DUP1 PUSH4 0x70A08231 EQ PUSH2 0x28B JUMPI PUSH2 0x14B JUMP JUMPDEST DUP1 PUSH4 0x39600D2 EQ PUSH2 0x14F JUMPI DUP1 PUSH4 0x6FDDE03 EQ PUSH2 0x16D JUMPI DUP1 PUSH4 0x95EA7B3 EQ PUSH2 0x18B JUMPI DUP1 PUSH4 0x18160DDD EQ PUSH2 0x1BB JUMPI DUP1 PUSH4 0x185870F9 EQ PUSH2 0x1D9 JUMPI JUMPDEST PUSH0 DUP1 REVERT JUMPDEST PUSH2 0x157 PUSH2 0x43F JUMP JUMPDEST PUSH1 0x40 MLOAD PUSH2 0x164 SWAP2 SWAP1 PUSH2 0x1FD0 JUMP JUMPDEST PUSH1 0x40 MLOAD DUP1 SWAP2 SUB SWAP1 RETURN JUMPDEST PUSH2 0x175 PUSH2 0x44D JUMP JUMPDEST PUSH1 0x40 MLOAD PUSH2 0x182 SWAP2 SWAP1 PUSH2 0x2073 JUMP JUMPDEST PUSH1 0x40 MLOAD DUP1 SWAP2 SUB SWAP1 RETURN JUMPDEST PUSH2 0x1A5 PUSH1 0x4 DUP1 CALLDATASIZE SUB DUP2 ADD SWAP1 PUSH2 0x1A0 SWAP2 SWAP1 PUSH2 0x211B JUMP JUMPDEST PUSH2 0x4DD JUMP JUMPDEST PUSH1 0x40 MLOAD PUSH2 0x1B2 SWAP2 SWAP1 PUSH2 0x2173 JUMP JUMPDEST PUSH1 0x40 MLOAD DUP1 SWAP2 SUB SWAP1 RETURN JUMPDEST PUSH2 0x1C3 PUSH2 0x4FF JUMP JUMPDEST PUSH1 0x40 MLOAD PUSH2 0x1D0 SWAP2 SWAP1 PUSH2 0x1FD0 JUMP JUMPDEST PUSH1 0x40 MLOAD DUP1 SWAP2 SUB SWAP1 RETURN JUMPDEST PUSH2 0x1E1 PUSH2 0x508 JUMP JUMPDEST PUSH1 0x40 MLOAD PUSH2 0x1EE SWAP2 SWAP1 PUSH2 0x219B JUMP JUMPDEST PUSH1 0x40 MLOAD DUP1 SWAP2 SUB SWAP1 RETURN JUMPDEST PUSH2 0x211 PUSH1 0x4 DUP1 CALLDATASIZE SUB DUP2 ADD SWAP1 PUSH2 0x20C SWAP2 SWAP1 PUSH2 0x21B4 JUMP JUMPDEST PUSH2 0x52D JUMP JUMPDEST PUSH1 0x40 MLOAD PUSH2 0x21E SWAP2 SWAP1 PUSH2 0x2173 JUMP JUMPDEST PUSH1 0x40 MLOAD DUP1 SWAP2 SUB SWAP1 RETURN JUMPDEST PUSH2 0x22F PUSH2 0x55B JUMP JUMPDEST PUSH1 0x40 MLOAD PUSH2 0x23C SWAP2 SWAP1 PUSH2 0x221F JUMP JUMPDEST PUSH1 0x40 MLOAD DUP1 SWAP2 SUB SWAP1 RETURN JUMPDEST PUSH2 0x24D PUSH2 0x563 JUMP JUMPDEST PUSH1 0x40 MLOAD PUSH2 0x25A SWAP2 SWAP1 PUSH2 0x1FD0 JUMP JUMPDEST PUSH1 0x40 MLOAD DUP1 SWAP2 SUB SWAP1 RETURN JUMPDEST PUSH2 0x26B PUSH2 0x572 JUMP JUMPDEST STOP JUMPDEST PUSH2 0x275 PUSH2 0x825 JUMP JUMPDEST PUSH1 0x40 MLOAD PUSH2 0x282 SWAP2 SWAP1 PUSH2 0x1FD0 JUMP JUMPDEST PUSH1 0x40 MLOAD DUP1 SWAP2 SUB SWAP1 RETURN JUMPDEST PUSH2 0x2A5 PUSH1 0x4 DUP1 CALLDATASIZE SUB DUP2 ADD SWAP1 PUSH2 0x2A0 SWAP2 SWAP1 PUSH2 0x2238 JUMP JUMPDEST PUSH2 0x833 JUMP JUMPDEST PUSH1 0x40 MLOAD PUSH2 0x2B2 SWAP2 SWAP1 PUSH2 0x1FD0 JUMP JUMPDEST PUSH1 0x40 MLOAD DUP1 SWAP2 SUB SWAP1 RETURN JUMPDEST PUSH2 0x2C3 PUSH2 0x878 JUMP JUMPDEST STOP JUMPDEST PUSH2 0x2DF PUSH1 0x4 DUP1 CALLDATASIZE SUB DUP2 ADD SWAP1 PUSH2 0x2DA SWAP2 SWAP1 PUSH2 0x2238 JUMP JUMPDEST PUSH2 0x88B JUMP JUMPDEST PUSH1 0x40 MLOAD PUSH2 0x2EC SWAP2 SWAP1 PUSH2 0x1FD0 JUMP JUMPDEST PUSH1 0x40 MLOAD DUP1 SWAP2 SUB SWAP1 RETURN JUMPDEST PUSH2 0x2FD PUSH2 0x8A0 JUMP JUMPDEST PUSH1 0x40 MLOAD PUSH2 0x30A SWAP2 SWAP1 PUSH2 0x1FD0 JUMP JUMPDEST PUSH1 0x40 MLOAD DUP1 SWAP2 SUB SWAP1 RETURN JUMPDEST PUSH2 0x31B PUSH2 0x8A6 JUMP JUMPDEST PUSH1 0x40 MLOAD PUSH2 0x328 SWAP2 SWAP1 PUSH2 0x219B JUMP JUMPDEST PUSH1 0x40 MLOAD DUP1 SWAP2 SUB SWAP1 RETURN JUMPDEST PUSH2 0x339 PUSH2 0x8CE JUMP JUMPDEST PUSH1 0x40 MLOAD PUSH2 0x346 SWAP2 SWAP1 PUSH2 0x1FD0 JUMP JUMPDEST PUSH1 0x40 MLOAD DUP1 SWAP2 SUB SWAP1 RETURN JUMPDEST PUSH2 0x357 PUSH2 0x8DD JUMP JUMPDEST PUSH1 0x40 MLOAD PUSH2 0x364 SWAP2 SWAP1 PUSH2 0x2073 JUMP JUMPDEST PUSH1 0x40 MLOAD DUP1 SWAP2 SUB SWAP1 RETURN JUMPDEST PUSH2 0x387 PUSH1 0x4 DUP1 CALLDATASIZE SUB DUP2 ADD SWAP1 PUSH2 0x382 SWAP2 SWAP1 PUSH2 0x211B JUMP JUMPDEST PUSH2 0x96D JUMP JUMPDEST PUSH1 0x40 MLOAD PUSH2 0x394 SWAP2 SWAP1 PUSH2 0x2173 JUMP JUMPDEST PUSH1 0x40 MLOAD DUP1 SWAP2 SUB SWAP1 RETURN JUMPDEST PUSH2 0x3B7 PUSH1 0x4 DUP1 CALLDATASIZE SUB DUP2 ADD SWAP1 PUSH2 0x3B2 SWAP2 SWAP1 PUSH2 0x211B JUMP JUMPDEST PUSH2 0x98F JUMP JUMPDEST STOP JUMPDEST PUSH2 0x3D3 PUSH1 0x4 DUP1 CALLDATASIZE SUB DUP2 ADD SWAP1 PUSH2 0x3CE SWAP2 SWAP1 PUSH2 0x2263 JUMP JUMPDEST PUSH2 0xBEE JUMP JUMPDEST PUSH1 0x40 MLOAD PUSH2 0x3E0 SWAP2 SWAP1 PUSH2 0x1FD0 JUMP JUMPDEST PUSH1 0x40 MLOAD DUP1 SWAP2 SUB SWAP1 RETURN JUMPDEST PUSH2 0x403 PUSH1 0x4 DUP1 CALLDATASIZE SUB DUP2 ADD SWAP1 PUSH2 0x3FE SWAP2 SWAP1 PUSH2 0x22A1 JUMP JUMPDEST PUSH2 0xC70 JUMP JUMPDEST STOP JUMPDEST PUSH2 0x41F PUSH1 0x4 DUP1 CALLDATASIZE SUB DUP2 ADD SWAP1 PUSH2 0x41A SWAP2 SWAP1 PUSH2 0x2238 JUMP JUMPDEST PUSH2 0xFA5 JUMP JUMPDEST STOP JUMPDEST PUSH2 0x429 PUSH2 0x1029 JUMP JUMPDEST PUSH1 0x40 MLOAD PUSH2 0x436 SWAP2 SWAP1 PUSH2 0x219B JUMP JUMPDEST PUSH1 0x40 MLOAD DUP1 SWAP2 SUB SWAP1 RETURN JUMPDEST PUSH10 0x43C33C1937564800000 DUP2 JUMP JUMPDEST PUSH1 0x60 PUSH1 0x3 DUP1 SLOAD PUSH2 0x45C SWAP1 PUSH2 0x22F9 JUMP JUMPDEST DUP1 PUSH1 0x1F ADD PUSH1 0x20 DUP1 SWAP2 DIV MUL PUSH1 0x20 ADD PUSH1 0x40 MLOAD SWAP1 DUP2 ADD PUSH1 0x40 MSTORE DUP1 SWAP3 SWAP2 SWAP1 DUP2 DUP2 MSTORE PUSH1 0x20 ADD DUP3 DUP1 SLOAD PUSH2 0x488 SWAP1 PUSH2 0x22F9 JUMP JUMPDEST DUP1 ISZERO PUSH2 0x4D3 JUMPI DUP1 PUSH1 0x1F LT PUSH2 0x4AA JUMPI PUSH2 0x100 DUP1 DUP4 SLOAD DIV MUL DUP4 MSTORE SWAP2 PUSH1 0x20 ADD SWAP2 PUSH2 0x4D3 JUMP JUMPDEST DUP3 ADD SWAP2 SWAP1 PUSH0 MSTORE PUSH1 0x20 PUSH0 KECCAK256 SWAP1 JUMPDEST DUP2 SLOAD DUP2 MSTORE SWAP1 PUSH1 0x1 ADD SWAP1 PUSH1 0x20 ADD DUP1 DUP4 GT PUSH2 0x4B6 JUMPI DUP3 SWAP1 SUB PUSH1 0x1F AND DUP3 ADD SWAP2 JUMPDEST POP POP POP POP POP SWAP1 POP SWAP1 JUMP JUMPDEST PUSH0 DUP1 PUSH2 0x4E7 PUSH2 0x104E JUMP JUMPDEST SWAP1 POP PUSH2 0x4F4 DUP2 DUP6 DUP6 PUSH2 0x1055 JUMP JUMPDEST PUSH1 0x1 SWAP2 POP POP SWAP3 SWAP2 POP POP JUMP JUMPDEST PUSH0 PUSH1 0x2 SLOAD SWAP1 POP SWAP1 JUMP JUMPDEST PUSH1 0x6 PUSH0 SWAP1 SLOAD SWAP1 PUSH2 0x100 EXP SWAP1 DIV PUSH20 0xFFFFFFFFFFFFFFFFFFFFFFFFFFFFFFFFFFFFFFFF AND DUP2 JUMP JUMPDEST PUSH0 DUP1 PUSH2 0x537 PUSH2 0x104E JUMP JUMPDEST SWAP1 POP PUSH2 0x544 DUP6 DUP3 DUP6 PUSH2 0x1067 JUMP JUMPDEST PUSH2 0x54F DUP6 DUP6 DUP6 PUSH2 0x10F9 JUMP JUMPDEST PUSH1 0x1 SWAP2 POP POP SWAP4 SWAP3 POP POP POP JUMP JUMPDEST PUSH0 PUSH1 0x12 SWAP1 POP SWAP1 JUMP JUMPDEST PUSH11 0x771D2FA45345AA9000000 DUP2 JUMP JUMPDEST PUSH1 0x6 PUSH0 SWAP1 SLOAD SWAP1 PUSH2 0x100 EXP SWAP1 DIV PUSH20 0xFFFFFFFFFFFFFFFFFFFFFFFFFFFFFFFFFFFFFFFF AND PUSH20 0xFFFFFFFFFFFFFFFFFFFFFFFFFFFFFFFFFFFFFFFF AND CALLER PUSH20 0xFFFFFFFFFFFFFFFFFFFFFFFFFFFFFFFFFFFFFFFF AND EQ PUSH2 0x601 JUMPI PUSH1 0x40 MLOAD PUSH32 0x8C379A000000000000000000000000000000000000000000000000000000000 DUP2 MSTORE PUSH1 0x4 ADD PUSH2 0x5F8 SWAP1 PUSH2 0x2373 JUMP JUMPDEST PUSH1 0x40 MLOAD DUP1 SWAP2 SUB SWAP1 REVERT JUMPDEST PUSH0 PUSH1 0x8 PUSH0 SWAP1 SLOAD SWAP1 PUSH2 0x100 EXP SWAP1 DIV PUSH20 0xFFFFFFFFFFFFFFFFFFFFFFFFFFFFFFFFFFFFFFFF AND PUSH20 0xFFFFFFFFFFFFFFFFFFFFFFFFFFFFFFFFFFFFFFFF AND PUSH4 0x70A08231 ADDRESS PUSH1 0x40 MLOAD DUP3 PUSH4 0xFFFFFFFF AND PUSH1 0xE0 SHL DUP2 MSTORE PUSH1 0x4 ADD PUSH2 0x65C SWAP2 SWAP1 PUSH2 0x219B JUMP JUMPDEST PUSH1 0x20 PUSH1 0x40 MLOAD DUP1 DUP4 SUB DUP2 DUP7 GAS STATICCALL ISZERO DUP1 ISZERO PUSH2 0x677 JUMPI RETURNDATASIZE PUSH0 DUP1 RETURNDATACOPY RETURNDATASIZE PUSH0 REVERT JUMPDEST POP POP POP POP PUSH1 0x40 MLOAD RETURNDATASIZE PUSH1 0x1F NOT PUSH1 0x1F DUP3 ADD AND DUP3 ADD DUP1 PUSH1 0x40 MSTORE POP DUP2 ADD SWAP1 PUSH2 0x69B SWAP2 SWAP1 PUSH2 0x23A5 JUMP JUMPDEST SWAP1 POP PUSH0 DUP2 GT PUSH2 0x6DF JUMPI PUSH1 0x40 MLOAD PUSH32 0x8C379A000000000000000000000000000000000000000000000000000000000 DUP2 MSTORE PUSH1 0x4 ADD PUSH2 0x6D6 SWAP1 PUSH2 0x241A JUMP JUMPDEST PUSH1 0x40 MLOAD DUP1 SWAP2 SUB SWAP1 REVERT JUMPDEST PUSH11 0x84595161401484A000000 PUSH1 0x7 SLOAD GT PUSH2 0x72E JUMPI PUSH1 0x40 MLOAD PUSH32 0x8C379A000000000000000000000000000000000000000000000000000000000 DUP2 MSTORE PUSH1 0x4 ADD PUSH2 0x725 SWAP1 PUSH2 0x2482 JUMP JUMPDEST PUSH1 0x40 MLOAD DUP1 SWAP2 SUB SWAP1 REVERT JUMPDEST PUSH2 0x764 PUSH20 0x227628F3F023BB0B980B67D528571C95C6DAC1C ADDRESS PUSH20 0xF7ADDB930777E11B83A5E7494421EC4C589D0317 PUSH2 0x1F4 PUSH2 0x11E9 JUMP JUMPDEST PUSH1 0x8 PUSH0 SWAP1 SLOAD SWAP1 PUSH2 0x100 EXP SWAP1 DIV PUSH20 0xFFFFFFFFFFFFFFFFFFFFFFFFFFFFFFFFFFFFFFFF AND PUSH20 0xFFFFFFFFFFFFFFFFFFFFFFFFFFFFFFFFFFFFFFFF AND PUSH4 0xA9059CBB PUSH1 0x6 PUSH0 SWAP1 SLOAD SWAP1 PUSH2 0x100 EXP SWAP1 DIV PUSH20 0xFFFFFFFFFFFFFFFFFFFFFFFFFFFFFFFFFFFFFFFF AND DUP4 PUSH1 0x40 MLOAD DUP4 PUSH4 0xFFFFFFFF AND PUSH1 0xE0 SHL DUP2 MSTORE PUSH1 0x4 ADD PUSH2 0x7E1 SWAP3 SWAP2 SWAP1 PUSH2 0x24A0 JUMP JUMPDEST PUSH1 0x20 PUSH1 0x40 MLOAD DUP1 DUP4 SUB DUP2 PUSH0 DUP8 GAS CALL ISZERO DUP1 ISZERO PUSH2 0x7FD JUMPI RETURNDATASIZE PUSH0 DUP1 RETURNDATACOPY RETURNDATASIZE PUSH0 REVERT JUMPDEST POP POP POP POP PUSH1 0x40 MLOAD RETURNDATASIZE PUSH1 0x1F NOT PUSH1 0x1F DUP3 ADD AND DUP3 ADD DUP1 PUSH1 0x40 MSTORE POP DUP2 ADD SWAP1 PUSH2 0x821 SWAP2 SWAP1 PUSH2 0x24F1 JUMP JUMPDEST POP POP JUMP JUMPDEST PUSH10 0xD3C21BCECCEDA1000000 DUP2 JUMP JUMPDEST PUSH0 DUP1 PUSH0 DUP4 PUSH20 0xFFFFFFFFFFFFFFFFFFFFFFFFFFFFFFFFFFFFFFFF AND PUSH20 0xFFFFFFFFFFFFFFFFFFFFFFFFFFFFFFFFFFFFFFFF AND DUP2 MSTORE PUSH1 0x20 ADD SWAP1 DUP2 MSTORE PUSH1 0x20 ADD PUSH0 KECCAK256 SLOAD SWAP1 POP SWAP2 SWAP1 POP JUMP JUMPDEST PUSH2 0x880 PUSH2 0x16BA JUMP JUMPDEST PUSH2 0x889 PUSH0 PUSH2 0x1741 JUMP JUMPDEST JUMP JUMPDEST PUSH1 0x9 PUSH1 0x20 MSTORE DUP1 PUSH0 MSTORE PUSH1 0x40 PUSH0 KECCAK256 PUSH0 SWAP2 POP SWAP1 POP SLOAD DUP2 JUMP JUMPDEST PUSH1 0x7 SLOAD DUP2 JUMP JUMPDEST PUSH0 PUSH1 0x5 PUSH0 SWAP1 SLOAD SWAP1 PUSH2 0x100 EXP SWAP1 DIV PUSH20 0xFFFFFFFFFFFFFFFFFFFFFFFFFFFFFFFFFFFFFFFF AND SWAP1 POP SWAP1 JUMP JUMPDEST PUSH11 0x84595161401484A000000 DUP2 JUMP JUMPDEST PUSH1 0x60 PUSH1 0x4 DUP1 SLOAD PUSH2 0x8EC SWAP1 PUSH2 0x22F9 JUMP JUMPDEST DUP1 PUSH1 0x1F ADD PUSH1 0x20 DUP1 SWAP2 DIV MUL PUSH1 0x20 ADD PUSH1 0x40 MLOAD SWAP1 DUP2 ADD PUSH1 0x40 MSTORE DUP1 SWAP3 SWAP2 SWAP1 DUP2 DUP2 MSTORE PUSH1 0x20 ADD DUP3 DUP1 SLOAD PUSH2 0x918 SWAP1 PUSH2 0x22F9 JUMP JUMPDEST DUP1 ISZERO PUSH2 0x963 JUMPI DUP1 PUSH1 0x1F LT PUSH2 0x93A JUMPI PUSH2 0x100 DUP1 DUP4 SLOAD DIV MUL DUP4 MSTORE SWAP2 PUSH1 0x20 ADD SWAP2 PUSH2 0x963 JUMP JUMPDEST DUP3 ADD SWAP2 SWAP1 PUSH0 MSTORE PUSH1 0x20 PUSH0 KECCAK256 SWAP1 JUMPDEST DUP2 SLOAD DUP2 MSTORE SWAP1 PUSH1 0x1 ADD SWAP1 PUSH1 0x20 ADD DUP1 DUP4 GT PUSH2 0x946 JUMPI DUP3 SWAP1 SUB PUSH1 0x1F AND DUP3 ADD SWAP2 JUMPDEST POP POP POP POP POP SWAP1 POP SWAP1 JUMP JUMPDEST PUSH0 DUP1 PUSH2 0x977 PUSH2 0x104E JUMP JUMPDEST SWAP1 POP PUSH2 0x984 DUP2 DUP6 DUP6 PUSH2 0x10F9 JUMP JUMPDEST PUSH1 0x1 SWAP2 POP POP SWAP3 SWAP2 POP POP JUMP JUMPDEST PUSH1 0x6 PUSH0 SWAP1 SLOAD SWAP1 PUSH2 0x100 EXP SWAP1 DIV PUSH20 0xFFFFFFFFFFFFFFFFFFFFFFFFFFFFFFFFFFFFFFFF AND PUSH20 0xFFFFFFFFFFFFFFFFFFFFFFFFFFFFFFFFFFFFFFFF AND CALLER PUSH20 0xFFFFFFFFFFFFFFFFFFFFFFFFFFFFFFFFFFFFFFFF AND EQ PUSH2 0xA1E JUMPI PUSH1 0x40 MLOAD PUSH32 0x8C379A000000000000000000000000000000000000000000000000000000000 DUP2 MSTORE PUSH1 0x4 ADD PUSH2 0xA15 SWAP1 PUSH2 0x2373 JUMP JUMPDEST PUSH1 0x40 MLOAD DUP1 SWAP2 SUB SWAP1 REVERT JUMPDEST PUSH0 DUP2 GT PUSH2 0xA60 JUMPI PUSH1 0x40 MLOAD PUSH32 0x8C379A000000000000000000000000000000000000000000000000000000000 DUP2 MSTORE PUSH1 0x4 ADD PUSH2 0xA57 SWAP1 PUSH2 0x2566 JUMP JUMPDEST PUSH1 0x40 MLOAD DUP1 SWAP2 SUB SWAP1 REVERT JUMPDEST PUSH0 DUP3 PUSH20 0xFFFFFFFFFFFFFFFFFFFFFFFFFFFFFFFFFFFFFFFF AND CALLER PUSH0 DUP1 PUSH0 DUP1 PUSH8 0xFFFFFFFFFFFFFFFF DUP2 GT ISZERO PUSH2 0xA96 JUMPI PUSH2 0xA95 PUSH2 0x2584 JUMP JUMPDEST JUMPDEST PUSH1 0x40 MLOAD SWAP1 DUP1 DUP3 MSTORE DUP1 PUSH1 0x1F ADD PUSH1 0x1F NOT AND PUSH1 0x20 ADD DUP3 ADD PUSH1 0x40 MSTORE DUP1 ISZERO PUSH2 0xAC8 JUMPI DUP2 PUSH1 0x20 ADD PUSH1 0x1 DUP3 MUL DUP1 CALLDATASIZE DUP4 CALLDATACOPY DUP1 DUP3 ADD SWAP2 POP POP SWAP1 POP JUMPDEST POP PUSH1 0x40 MLOAD PUSH1 0x24 ADD PUSH2 0xADD SWAP6 SWAP5 SWAP4 SWAP3 SWAP2 SWAP1 PUSH2 0x2645 JUMP JUMPDEST PUSH1 0x40 MLOAD PUSH1 0x20 DUP2 DUP4 SUB SUB DUP2 MSTORE SWAP1 PUSH1 0x40 MSTORE PUSH32 0xDD5A12D800000000000000000000000000000000000000000000000000000000 PUSH28 0xFFFFFFFFFFFFFFFFFFFFFFFFFFFFFFFFFFFFFFFFFFFFFFFFFFFFFFFF NOT AND PUSH1 0x20 DUP3 ADD DUP1 MLOAD PUSH28 0xFFFFFFFFFFFFFFFFFFFFFFFFFFFFFFFFFFFFFFFFFFFFFFFFFFFFFFFF DUP4 DUP2 DUP4 AND OR DUP4 MSTORE POP POP POP POP PUSH1 0x40 MLOAD PUSH2 0xB67 SWAP2 SWAP1 PUSH2 0x26D7 JUMP JUMPDEST PUSH0 PUSH1 0x40 MLOAD DUP1 DUP4 SUB DUP2 PUSH0 DUP7 GAS CALL SWAP2 POP POP RETURNDATASIZE DUP1 PUSH0 DUP2 EQ PUSH2 0xBA0 JUMPI PUSH1 0x40 MLOAD SWAP2 POP PUSH1 0x1F NOT PUSH1 0x3F RETURNDATASIZE ADD AND DUP3 ADD PUSH1 0x40 MSTORE RETURNDATASIZE DUP3 MSTORE RETURNDATASIZE PUSH0 PUSH1 0x20 DUP5 ADD RETURNDATACOPY PUSH2 0xBA5 JUMP JUMPDEST PUSH1 0x60 SWAP2 POP JUMPDEST POP POP SWAP1 POP DUP1 PUSH2 0xBE9 JUMPI PUSH1 0x40 MLOAD PUSH32 0x8C379A000000000000000000000000000000000000000000000000000000000 DUP2 MSTORE PUSH1 0x4 ADD PUSH2 0xBE0 SWAP1 PUSH2 0x2737 JUMP JUMPDEST PUSH1 0x40 MLOAD DUP1 SWAP2 SUB SWAP1 REVERT JUMPDEST POP POP POP JUMP JUMPDEST PUSH0 PUSH1 0x1 PUSH0 DUP5 PUSH20 0xFFFFFFFFFFFFFFFFFFFFFFFFFFFFFFFFFFFFFFFF AND PUSH20 0xFFFFFFFFFFFFFFFFFFFFFFFFFFFFFFFFFFFFFFFF AND DUP2 MSTORE PUSH1 0x20 ADD SWAP1 DUP2 MSTORE PUSH1 0x20 ADD PUSH0 KECCAK256 PUSH0 DUP4 PUSH20 0xFFFFFFFFFFFFFFFFFFFFFFFFFFFFFFFFFFFFFFFF AND PUSH20 0xFFFFFFFFFFFFFFFFFFFFFFFFFFFFFFFFFFFFFFFF AND DUP2 MSTORE PUSH1 0x20 ADD SWAP1 DUP2 MSTORE PUSH1 0x20 ADD PUSH0 KECCAK256 SLOAD SWAP1 POP SWAP3 SWAP2 POP POP JUMP JUMPDEST DUP1 PUSH11 0x84595161401484A000000 DUP2 PUSH2 0xC86 PUSH2 0x4FF JUMP JUMPDEST PUSH2 0xC90 SWAP2 SWAP1 PUSH2 0x2782 JUMP JUMPDEST GT ISZERO PUSH2 0xCD1 JUMPI PUSH1 0x40 MLOAD PUSH32 0x8C379A000000000000000000000000000000000000000000000000000000000 DUP2 MSTORE PUSH1 0x4 ADD PUSH2 0xCC8 SWAP1 PUSH2 0x27FF JUMP JUMPDEST PUSH1 0x40 MLOAD DUP1 SWAP2 SUB SWAP1 REVERT JUMPDEST PUSH10 0x43C33C1937564800000 DUP3 GT ISZERO PUSH2 0xD1E JUMPI PUSH1 0x40 MLOAD PUSH32 0x8C379A000000000000000000000000000000000000000000000000000000000 DUP2 MSTORE PUSH1 0x4 ADD PUSH2 0xD15 SWAP1 PUSH2 0x2867 JUMP JUMPDEST PUSH1 0x40 MLOAD DUP1 SWAP2 SUB SWAP1 REVERT JUMPDEST PUSH10 0x43C33C1937564800000 DUP3 PUSH1 0x9 PUSH0 CALLER PUSH20 0xFFFFFFFFFFFFFFFFFFFFFFFFFFFFFFFFFFFFFFFF AND PUSH20 0xFFFFFFFFFFFFFFFFFFFFFFFFFFFFFFFFFFFFFFFF AND DUP2 MSTORE PUSH1 0x20 ADD SWAP1 DUP2 MSTORE PUSH1 0x20 ADD PUSH0 KECCAK256 SLOAD PUSH2 0xD72 SWAP2 SWAP1 PUSH2 0x2782 JUMP JUMPDEST GT ISZERO PUSH2 0xDB3 JUMPI PUSH1 0x40 MLOAD PUSH32 0x8C379A000000000000000000000000000000000000000000000000000000000 DUP2 MSTORE PUSH1 0x4 ADD PUSH2 0xDAA SWAP1 PUSH2 0x28F5 JUMP JUMPDEST PUSH1 0x40 MLOAD DUP1 SWAP2 SUB SWAP1 REVERT JUMPDEST DUP2 PUSH1 0x8 PUSH0 SWAP1 SLOAD SWAP1 PUSH2 0x100 EXP SWAP1 DIV PUSH20 0xFFFFFFFFFFFFFFFFFFFFFFFFFFFFFFFFFFFFFFFF AND PUSH20 0xFFFFFFFFFFFFFFFFFFFFFFFFFFFFFFFFFFFFFFFF AND PUSH4 0xDD62ED3E CALLER ADDRESS PUSH1 0x40 MLOAD DUP4 PUSH4 0xFFFFFFFF AND PUSH1 0xE0 SHL DUP2 MSTORE PUSH1 0x4 ADD PUSH2 0xE10 SWAP3 SWAP2 SWAP1 PUSH2 0x2913 JUMP JUMPDEST PUSH1 0x20 PUSH1 0x40 MLOAD DUP1 DUP4 SUB DUP2 DUP7 GAS STATICCALL ISZERO DUP1 ISZERO PUSH2 0xE2B JUMPI RETURNDATASIZE PUSH0 DUP1 RETURNDATACOPY RETURNDATASIZE PUSH0 REVERT JUMPDEST POP POP POP POP PUSH1 0x40 MLOAD RETURNDATASIZE PUSH1 0x1F NOT PUSH1 0x1F DUP3 ADD AND DUP3 ADD DUP1 PUSH1 0x40 MSTORE POP DUP2 ADD SWAP1 PUSH2 0xE4F SWAP2 SWAP1 PUSH2 0x23A5 JUMP JUMPDEST LT ISZERO PUSH2 0xE90 JUMPI PUSH1 0x40 MLOAD PUSH32 0x8C379A000000000000000000000000000000000000000000000000000000000 DUP2 MSTORE PUSH1 0x4 ADD PUSH2 0xE87 SWAP1 PUSH2 0x29AA JUMP JUMPDEST PUSH1 0x40 MLOAD DUP1 SWAP2 SUB SWAP1 REVERT JUMPDEST PUSH2 0xEDE CALLER ADDRESS DUP5 PUSH1 0x8 PUSH0 SWAP1 SLOAD SWAP1 PUSH2 0x100 EXP SWAP1 DIV PUSH20 0xFFFFFFFFFFFFFFFFFFFFFFFFFFFFFFFFFFFFFFFF AND PUSH20 0xFFFFFFFFFFFFFFFFFFFFFFFFFFFFFFFFFFFFFFFF AND PUSH2 0x1804 SWAP1 SWAP4 SWAP3 SWAP2 SWAP1 PUSH4 0xFFFFFFFF AND JUMP JUMPDEST PUSH2 0xEE8 CALLER DUP4 PUSH2 0x1886 JUMP JUMPDEST DUP2 PUSH1 0x9 PUSH0 CALLER PUSH20 0xFFFFFFFFFFFFFFFFFFFFFFFFFFFFFFFFFFFFFFFF AND PUSH20 0xFFFFFFFFFFFFFFFFFFFFFFFFFFFFFFFFFFFFFFFF AND DUP2 MSTORE PUSH1 0x20 ADD SWAP1 DUP2 MSTORE PUSH1 0x20 ADD PUSH0 KECCAK256 PUSH0 DUP3 DUP3 SLOAD PUSH2 0xF34 SWAP2 SWAP1 PUSH2 0x2782 JUMP JUMPDEST SWAP3 POP POP DUP2 SWAP1 SSTORE POP DUP2 PUSH1 0x7 PUSH0 DUP3 DUP3 SLOAD PUSH2 0xF4C SWAP2 SWAP1 PUSH2 0x2782 JUMP JUMPDEST SWAP3 POP POP DUP2 SWAP1 SSTORE POP CALLER PUSH20 0xFFFFFFFFFFFFFFFFFFFFFFFFFFFFFFFFFFFFFFFF AND PUSH32 0x8936D06B61AD023525017D83CB2CEC9D7A688F71EB45E3ED02A9BA311C17B51B DUP4 PUSH1 0x40 MLOAD PUSH2 0xF99 SWAP2 SWAP1 PUSH2 0x1FD0 JUMP JUMPDEST PUSH1 0x40 MLOAD DUP1 SWAP2 SUB SWAP1 LOG2 POP POP JUMP JUMPDEST PUSH2 0xFAD PUSH2 0x16BA JUMP JUMPDEST PUSH0 PUSH20 0xFFFFFFFFFFFFFFFFFFFFFFFFFFFFFFFFFFFFFFFF AND DUP2 PUSH20 0xFFFFFFFFFFFFFFFFFFFFFFFFFFFFFFFFFFFFFFFF AND SUB PUSH2 0x101D JUMPI PUSH0 PUSH1 0x40 MLOAD PUSH32 0x1E4FBDF700000000000000000000000000000000000000000000000000000000 DUP2 MSTORE PUSH1 0x4 ADD PUSH2 0x1014 SWAP2 SWAP1 PUSH2 0x219B JUMP JUMPDEST PUSH1 0x40 MLOAD DUP1 SWAP2 SUB SWAP1 REVERT JUMPDEST PUSH2 0x1026 DUP2 PUSH2 0x1741 JUMP JUMPDEST POP JUMP JUMPDEST PUSH1 0x8 PUSH0 SWAP1 SLOAD SWAP1 PUSH2 0x100 EXP SWAP1 DIV PUSH20 0xFFFFFFFFFFFFFFFFFFFFFFFFFFFFFFFFFFFFFFFF AND DUP2 JUMP JUMPDEST PUSH0 CALLER SWAP1 POP SWAP1 JUMP JUMPDEST PUSH2 0x1062 DUP4 DUP4 DUP4 PUSH1 0x1 PUSH2 0x1905 JUMP JUMPDEST POP POP POP JUMP JUMPDEST PUSH0 PUSH2 0x1072 DUP5 DUP5 PUSH2 0xBEE JUMP JUMPDEST SWAP1 POP PUSH32 0xFFFFFFFFFFFFFFFFFFFFFFFFFFFFFFFFFFFFFFFFFFFFFFFFFFFFFFFFFFFFFFFF DUP2 EQ PUSH2 0x10F3 JUMPI DUP2 DUP2 LT ISZERO PUSH2 0x10E4 JUMPI DUP3 DUP2 DUP4 PUSH1 0x40 MLOAD PUSH32 0xFB8F41B200000000000000000000000000000000000000000000000000000000 DUP2 MSTORE PUSH1 0x4 ADD PUSH2 0x10DB SWAP4 SWAP3 SWAP2 SWAP1 PUSH2 0x29C8 JUMP JUMPDEST PUSH1 0x40 MLOAD DUP1 SWAP2 SUB SWAP1 REVERT JUMPDEST PUSH2 0x10F2 DUP5 DUP5 DUP5 DUP5 SUB PUSH0 PUSH2 0x1905 JUMP JUMPDEST JUMPDEST POP POP POP POP JUMP JUMPDEST PUSH0 PUSH20 0xFFFFFFFFFFFFFFFFFFFFFFFFFFFFFFFFFFFFFFFF AND DUP4 PUSH20 0xFFFFFFFFFFFFFFFFFFFFFFFFFFFFFFFFFFFFFFFF AND SUB PUSH2 0x1169 JUMPI PUSH0 PUSH1 0x40 MLOAD PUSH32 0x96C6FD1E00000000000000000000000000000000000000000000000000000000 DUP2 MSTORE PUSH1 0x4 ADD PUSH2 0x1160 SWAP2 SWAP1 PUSH2 0x219B JUMP JUMPDEST PUSH1 0x40 MLOAD DUP1 SWAP2 SUB SWAP1 REVERT JUMPDEST PUSH0 PUSH20 0xFFFFFFFFFFFFFFFFFFFFFFFFFFFFFFFFFFFFFFFF AND DUP3 PUSH20 0xFFFFFFFFFFFFFFFFFFFFFFFFFFFFFFFFFFFFFFFF AND SUB PUSH2 0x11D9 JUMPI PUSH0 PUSH1 0x40 MLOAD PUSH32 0xEC442F0500000000000000000000000000000000000000000000000000000000 DUP2 MSTORE PUSH1 0x4 ADD PUSH2 0x11D0 SWAP2 SWAP1 PUSH2 0x219B JUMP JUMPDEST PUSH1 0x40 MLOAD DUP1 SWAP2 SUB SWAP1 REVERT JUMPDEST PUSH2 0x11E4 DUP4 DUP4 DUP4 PUSH2 0x1AD4 JUMP JUMPDEST POP POP POP JUMP JUMPDEST PUSH0 DUP1 DUP6 PUSH20 0xFFFFFFFFFFFFFFFFFFFFFFFFFFFFFFFFFFFFFFFF AND DUP6 DUP6 DUP6 PUSH1 0x40 MLOAD PUSH1 0x24 ADD PUSH2 0x1217 SWAP4 SWAP3 SWAP2 SWAP1 PUSH2 0x2A1A JUMP JUMPDEST PUSH1 0x40 MLOAD PUSH1 0x20 DUP2 DUP4 SUB SUB DUP2 MSTORE SWAP1 PUSH1 0x40 MSTORE PUSH32 0xA167129500000000000000000000000000000000000000000000000000000000 PUSH28 0xFFFFFFFFFFFFFFFFFFFFFFFFFFFFFFFFFFFFFFFFFFFFFFFFFFFFFFFF NOT AND PUSH1 0x20 DUP3 ADD DUP1 MLOAD PUSH28 0xFFFFFFFFFFFFFFFFFFFFFFFFFFFFFFFFFFFFFFFFFFFFFFFFFFFFFFFF DUP4 DUP2 DUP4 AND OR DUP4 MSTORE POP POP POP POP PUSH1 0x40 MLOAD PUSH2 0x12A1 SWAP2 SWAP1 PUSH2 0x26D7 JUMP JUMPDEST PUSH0 PUSH1 0x40 MLOAD DUP1 DUP4 SUB DUP2 PUSH0 DUP7 GAS CALL SWAP2 POP POP RETURNDATASIZE DUP1 PUSH0 DUP2 EQ PUSH2 0x12DA JUMPI PUSH1 0x40 MLOAD SWAP2 POP PUSH1 0x1F NOT PUSH1 0x3F RETURNDATASIZE ADD AND DUP3 ADD PUSH1 0x40 MSTORE RETURNDATASIZE DUP3 MSTORE RETURNDATASIZE PUSH0 PUSH1 0x20 DUP5 ADD RETURNDATACOPY PUSH2 0x12DF JUMP JUMPDEST PUSH1 0x60 SWAP2 POP JUMPDEST POP SWAP2 POP SWAP2 POP DUP2 PUSH2 0x1324 JUMPI PUSH1 0x40 MLOAD PUSH32 0x8C379A000000000000000000000000000000000000000000000000000000000 DUP2 MSTORE PUSH1 0x4 ADD PUSH2 0x131B SWAP1 PUSH2 0x2A99 JUMP JUMPDEST PUSH1 0x40 MLOAD DUP1 SWAP2 SUB SWAP1 REVERT JUMPDEST PUSH0 PUSH2 0x132E DUP3 PUSH2 0x1CED JUMP JUMPDEST SWAP1 POP DUP1 PUSH20 0xFFFFFFFFFFFFFFFFFFFFFFFFFFFFFFFFFFFFFFFF AND PUSH3 0x7A120 PUSH1 0x40 MLOAD PUSH1 0x24 ADD PUSH2 0x135B SWAP2 SWAP1 PUSH2 0x2AF0 JUMP JUMPDEST PUSH1 0x40 MLOAD PUSH1 0x20 DUP2 DUP4 SUB SUB DUP2 MSTORE SWAP1 PUSH1 0x40 MSTORE PUSH32 0x9A26BD8100000000000000000000000000000000000000000000000000000000 PUSH28 0xFFFFFFFFFFFFFFFFFFFFFFFFFFFFFFFFFFFFFFFFFFFFFFFFFFFFFFFF NOT AND PUSH1 0x20 DUP3 ADD DUP1 MLOAD PUSH28 0xFFFFFFFFFFFFFFFFFFFFFFFFFFFFFFFFFFFFFFFFFFFFFFFFFFFFFFFF DUP4 DUP2 DUP4 AND OR DUP4 MSTORE POP POP POP POP PUSH1 0x40 MLOAD PUSH2 0x13E5 SWAP2 SWAP1 PUSH2 0x26D7 JUMP JUMPDEST PUSH0 PUSH1 0x40 MLOAD DUP1 DUP4 SUB DUP2 PUSH0 DUP7 GAS CALL SWAP2 POP POP RETURNDATASIZE DUP1 PUSH0 DUP2 EQ PUSH2 0x141E JUMPI PUSH1 0x40 MLOAD SWAP2 POP PUSH1 0x1F NOT PUSH1 0x3F RETURNDATASIZE ADD AND DUP3 ADD PUSH1 0x40 MSTORE RETURNDATASIZE DUP3 MSTORE RETURNDATASIZE PUSH0 PUSH1 0x20 DUP5 ADD RETURNDATACOPY PUSH2 0x1423 JUMP JUMPDEST PUSH1 0x60 SWAP2 POP JUMPDEST POP POP DUP1 SWAP4 POP POP DUP3 PUSH2 0x1469 JUMPI PUSH1 0x40 MLOAD PUSH32 0x8C379A000000000000000000000000000000000000000000000000000000000 DUP2 MSTORE PUSH1 0x4 ADD PUSH2 0x1460 SWAP1 PUSH2 0x2B53 JUMP JUMPDEST PUSH1 0x40 MLOAD DUP1 SWAP2 SUB SWAP1 REVERT JUMPDEST PUSH2 0x1471 PUSH2 0x1F3E JUMP JUMPDEST DUP7 DUP2 PUSH0 ADD SWAP1 PUSH20 0xFFFFFFFFFFFFFFFFFFFFFFFFFFFFFFFFFFFFFFFF AND SWAP1 DUP2 PUSH20 0xFFFFFFFFFFFFFFFFFFFFFFFFFFFFFFFFFFFFFFFF AND DUP2 MSTORE POP POP DUP6 DUP2 PUSH1 0x20 ADD SWAP1 PUSH20 0xFFFFFFFFFFFFFFFFFFFFFFFFFFFFFFFFFFFFFFFF AND SWAP1 DUP2 PUSH20 0xFFFFFFFFFFFFFFFFFFFFFFFFFFFFFFFFFFFFFFFF AND DUP2 MSTORE POP POP DUP5 DUP2 PUSH1 0x40 ADD SWAP1 PUSH3 0xFFFFFF AND SWAP1 DUP2 PUSH3 0xFFFFFF AND DUP2 MSTORE POP POP PUSH32 0xFFFFFFFFFFFFFFFFFFFFFFFFFFFFFFFFFFFFFFFFFFFFFFFFFFFFFFFFFFF2764C DUP2 PUSH1 0x60 ADD SWAP1 PUSH1 0x2 SIGNEXTEND SWAP1 DUP2 PUSH1 0x2 SIGNEXTEND DUP2 MSTORE POP POP PUSH3 0xD89B4 DUP2 PUSH1 0x80 ADD SWAP1 PUSH1 0x2 SIGNEXTEND SWAP1 DUP2 PUSH1 0x2 SIGNEXTEND DUP2 MSTORE POP POP PUSH10 0x69E10DE76676D0800000 DUP2 PUSH1 0xA0 ADD DUP2 DUP2 MSTORE POP POP PUSH10 0x69E10DE76676D0800000 DUP2 PUSH1 0xC0 ADD DUP2 DUP2 MSTORE POP POP PUSH0 DUP2 PUSH1 0xE0 ADD DUP2 DUP2 MSTORE POP POP PUSH0 DUP2 PUSH2 0x100 ADD DUP2 DUP2 MSTORE POP POP DUP2 PUSH20 0xFFFFFFFFFFFFFFFFFFFFFFFFFFFFFFFFFFFFFFFF AND DUP2 PUSH1 0x40 MLOAD PUSH1 0x24 ADD PUSH2 0x15A2 SWAP2 SWAP1 PUSH2 0x2C6E JUMP JUMPDEST PUSH1 0x40 MLOAD PUSH1 0x20 DUP2 DUP4 SUB SUB DUP2 MSTORE SWAP1 PUSH1 0x40 MSTORE PUSH32 0xAA88A96C00000000000000000000000000000000000000000000000000000000 PUSH28 0xFFFFFFFFFFFFFFFFFFFFFFFFFFFFFFFFFFFFFFFFFFFFFFFFFFFFFFFF NOT AND PUSH1 0x20 DUP3 ADD DUP1 MLOAD PUSH28 0xFFFFFFFFFFFFFFFFFFFFFFFFFFFFFFFFFFFFFFFFFFFFFFFFFFFFFFFF DUP4 DUP2 DUP4 AND OR DUP4 MSTORE POP POP POP POP PUSH1 0x40 MLOAD PUSH2 0x162C SWAP2 SWAP1 PUSH2 0x26D7 JUMP JUMPDEST PUSH0 PUSH1 0x40 MLOAD DUP1 DUP4 SUB DUP2 PUSH0 DUP7 GAS CALL SWAP2 POP POP RETURNDATASIZE DUP1 PUSH0 DUP2 EQ PUSH2 0x1665 JUMPI PUSH1 0x40 MLOAD SWAP2 POP PUSH1 0x1F NOT PUSH1 0x3F RETURNDATASIZE ADD AND DUP3 ADD PUSH1 0x40 MSTORE RETURNDATASIZE DUP3 MSTORE RETURNDATASIZE PUSH0 PUSH1 0x20 DUP5 ADD RETURNDATACOPY PUSH2 0x166A JUMP JUMPDEST PUSH1 0x60 SWAP2 POP JUMPDEST POP POP DUP1 SWAP5 POP POP DUP4 PUSH2 0x16B0 JUMPI PUSH1 0x40 MLOAD PUSH32 0x8C379A000000000000000000000000000000000000000000000000000000000 DUP2 MSTORE PUSH1 0x4 ADD PUSH2 0x16A7 SWAP1 PUSH2 0x2737 JUMP JUMPDEST PUSH1 0x40 MLOAD DUP1 SWAP2 SUB SWAP1 REVERT JUMPDEST POP POP POP POP POP POP POP POP JUMP JUMPDEST PUSH2 0x16C2 PUSH2 0x104E JUMP JUMPDEST PUSH20 0xFFFFFFFFFFFFFFFFFFFFFFFFFFFFFFFFFFFFFFFF AND PUSH2 0x16E0 PUSH2 0x8A6 JUMP JUMPDEST PUSH20 0xFFFFFFFFFFFFFFFFFFFFFFFFFFFFFFFFFFFFFFFF AND EQ PUSH2 0x173F JUMPI PUSH2 0x1703 PUSH2 0x104E JUMP JUMPDEST PUSH1 0x40 MLOAD PUSH32 0x118CDAA700000000000000000000000000000000000000000000000000000000 DUP2 MSTORE PUSH1 0x4 ADD PUSH2 0x1736 SWAP2 SWAP1 PUSH2 0x219B JUMP JUMPDEST PUSH1 0x40 MLOAD DUP1 SWAP2 SUB SWAP1 REVERT JUMPDEST JUMP JUMPDEST PUSH0 PUSH1 0x5 PUSH0 SWAP1 SLOAD SWAP1 PUSH2 0x100 EXP SWAP1 DIV PUSH20 0xFFFFFFFFFFFFFFFFFFFFFFFFFFFFFFFFFFFFFFFF AND SWAP1 POP DUP2 PUSH1 0x5 PUSH0 PUSH2 0x100 EXP DUP2 SLOAD DUP2 PUSH20 0xFFFFFFFFFFFFFFFFFFFFFFFFFFFFFFFFFFFFFFFF MUL NOT AND SWAP1 DUP4 PUSH20 0xFFFFFFFFFFFFFFFFFFFFFFFFFFFFFFFFFFFFFFFF AND MUL OR SWAP1 SSTORE POP DUP2 PUSH20 0xFFFFFFFFFFFFFFFFFFFFFFFFFFFFFFFFFFFFFFFF AND DUP2 PUSH20 0xFFFFFFFFFFFFFFFFFFFFFFFFFFFFFFFFFFFFFFFF AND PUSH32 0x8BE0079C531659141344CD1FD0A4F28419497F9722A3DAAFE3B4186F6B6457E0 PUSH1 0x40 MLOAD PUSH1 0x40 MLOAD DUP1 SWAP2 SUB SWAP1 LOG3 POP POP JUMP JUMPDEST PUSH2 0x1880 DUP5 DUP6 PUSH20 0xFFFFFFFFFFFFFFFFFFFFFFFFFFFFFFFFFFFFFFFF AND PUSH4 0x23B872DD DUP7 DUP7 DUP7 PUSH1 0x40 MLOAD PUSH1 0x24 ADD PUSH2 0x1839 SWAP4 SWAP3 SWAP2 SWAP1 PUSH2 0x2C88 JUMP JUMPDEST PUSH1 0x40 MLOAD PUSH1 0x20 DUP2 DUP4 SUB SUB DUP2 MSTORE SWAP1 PUSH1 0x40 MSTORE SWAP2 POP PUSH1 0xE0 SHL PUSH1 0x20 DUP3 ADD DUP1 MLOAD PUSH28 0xFFFFFFFFFFFFFFFFFFFFFFFFFFFFFFFFFFFFFFFFFFFFFFFFFFFFFFFF DUP4 DUP2 DUP4 AND OR DUP4 MSTORE POP POP POP POP PUSH2 0x1CFA JUMP JUMPDEST POP POP POP POP JUMP JUMPDEST PUSH0 PUSH20 0xFFFFFFFFFFFFFFFFFFFFFFFFFFFFFFFFFFFFFFFF AND DUP3 PUSH20 0xFFFFFFFFFFFFFFFFFFFFFFFFFFFFFFFFFFFFFFFF AND SUB PUSH2 0x18F6 JUMPI PUSH0 PUSH1 0x40 MLOAD PUSH32 0xEC442F0500000000000000000000000000000000000000000000000000000000 DUP2 MSTORE PUSH1 0x4 ADD PUSH2 0x18ED SWAP2 SWAP1 PUSH2 0x219B JUMP JUMPDEST PUSH1 0x40 MLOAD DUP1 SWAP2 SUB SWAP1 REVERT JUMPDEST PUSH2 0x1901 PUSH0 DUP4 DUP4 PUSH2 0x1AD4 JUMP JUMPDEST POP POP JUMP JUMPDEST PUSH0 PUSH20 0xFFFFFFFFFFFFFFFFFFFFFFFFFFFFFFFFFFFFFFFF AND DUP5 PUSH20 0xFFFFFFFFFFFFFFFFFFFFFFFFFFFFFFFFFFFFFFFF AND SUB PUSH2 0x1975 JUMPI PUSH0 PUSH1 0x40 MLOAD PUSH32 0xE602DF0500000000000000000000000000000000000000000000000000000000 DUP2 MSTORE PUSH1 0x4 ADD PUSH2 0x196C SWAP2 SWAP1 PUSH2 0x219B JUMP JUMPDEST PUSH1 0x40 MLOAD DUP1 SWAP2 SUB SWAP1 REVERT JUMPDEST PUSH0 PUSH20 0xFFFFFFFFFFFFFFFFFFFFFFFFFFFFFFFFFFFFFFFF AND DUP4 PUSH20 0xFFFFFFFFFFFFFFFFFFFFFFFFFFFFFFFFFFFFFFFF AND SUB PUSH2 0x19E5 JUMPI PUSH0 PUSH1 0x40 MLOAD PUSH32 0x94280D6200000000000000000000000000000000000000000000000000000000 DUP2 MSTORE PUSH1 0x4 ADD PUSH2 0x19DC SWAP2 SWAP1 PUSH2 0x219B JUMP JUMPDEST PUSH1 0x40 MLOAD DUP1 SWAP2 SUB SWAP1 REVERT JUMPDEST DUP2 PUSH1 0x1 PUSH0 DUP7 PUSH20 0xFFFFFFFFFFFFFFFFFFFFFFFFFFFFFFFFFFFFFFFF AND PUSH20 0xFFFFFFFFFFFFFFFFFFFFFFFFFFFFFFFFFFFFFFFF AND DUP2 MSTORE PUSH1 0x20 ADD SWAP1 DUP2 MSTORE PUSH1 0x20 ADD PUSH0 KECCAK256 PUSH0 DUP6 PUSH20 0xFFFFFFFFFFFFFFFFFFFFFFFFFFFFFFFFFFFFFFFF AND PUSH20 0xFFFFFFFFFFFFFFFFFFFFFFFFFFFFFFFFFFFFFFFF AND DUP2 MSTORE PUSH1 0x20 ADD SWAP1 DUP2 MSTORE PUSH1 0x20 ADD PUSH0 KECCAK256 DUP2 SWAP1 SSTORE POP DUP1 ISZERO PUSH2 0x1ACE JUMPI DUP3 PUSH20 0xFFFFFFFFFFFFFFFFFFFFFFFFFFFFFFFFFFFFFFFF AND DUP5 PUSH20 0xFFFFFFFFFFFFFFFFFFFFFFFFFFFFFFFFFFFFFFFF AND PUSH32 0x8C5BE1E5EBEC7D5BD14F71427D1E84F3DD0314C0F7B2291E5B200AC8C7C3B925 DUP5 PUSH1 0x40 MLOAD PUSH2 0x1AC5 SWAP2 SWAP1 PUSH2 0x1FD0 JUMP JUMPDEST PUSH1 0x40 MLOAD DUP1 SWAP2 SUB SWAP1 LOG3 JUMPDEST POP POP POP POP JUMP JUMPDEST PUSH0 PUSH20 0xFFFFFFFFFFFFFFFFFFFFFFFFFFFFFFFFFFFFFFFF AND DUP4 PUSH20 0xFFFFFFFFFFFFFFFFFFFFFFFFFFFFFFFFFFFFFFFF AND SUB PUSH2 0x1B24 JUMPI DUP1 PUSH1 0x2 PUSH0 DUP3 DUP3 SLOAD PUSH2 0x1B18 SWAP2 SWAP1 PUSH2 0x2782 JUMP JUMPDEST SWAP3 POP POP DUP2 SWAP1 SSTORE POP PUSH2 0x1BF2 JUMP JUMPDEST PUSH0 DUP1 PUSH0 DUP6 PUSH20 0xFFFFFFFFFFFFFFFFFFFFFFFFFFFFFFFFFFFFFFFF AND PUSH20 0xFFFFFFFFFFFFFFFFFFFFFFFFFFFFFFFFFFFFFFFF AND DUP2 MSTORE PUSH1 0x20 ADD SWAP1 DUP2 MSTORE PUSH1 0x20 ADD PUSH0 KECCAK256 SLOAD SWAP1 POP DUP2 DUP2 LT ISZERO PUSH2 0x1BAD JUMPI DUP4 DUP2 DUP4 PUSH1 0x40 MLOAD PUSH32 0xE450D38C00000000000000000000000000000000000000000000000000000000 DUP2 MSTORE PUSH1 0x4 ADD PUSH2 0x1BA4 SWAP4 SWAP3 SWAP2 SWAP1 PUSH2 0x29C8 JUMP JUMPDEST PUSH1 0x40 MLOAD DUP1 SWAP2 SUB SWAP1 REVERT JUMPDEST DUP2 DUP2 SUB PUSH0 DUP1 DUP7 PUSH20 0xFFFFFFFFFFFFFFFFFFFFFFFFFFFFFFFFFFFFFFFF AND PUSH20 0xFFFFFFFFFFFFFFFFFFFFFFFFFFFFFFFFFFFFFFFF AND DUP2 MSTORE PUSH1 0x20 ADD SWAP1 DUP2 MSTORE PUSH1 0x20 ADD PUSH0 KECCAK256 DUP2 SWAP1 SSTORE POP POP JUMPDEST PUSH0 PUSH20 0xFFFFFFFFFFFFFFFFFFFFFFFFFFFFFFFFFFFFFFFF AND DUP3 PUSH20 0xFFFFFFFFFFFFFFFFFFFFFFFFFFFFFFFFFFFFFFFF AND SUB PUSH2 0x1C39 JUMPI DUP1 PUSH1 0x2 PUSH0 DUP3 DUP3 SLOAD SUB SWAP3 POP POP DUP2 SWAP1 SSTORE POP PUSH2 0x1C83 JUMP JUMPDEST DUP1 PUSH0 DUP1 DUP5 PUSH20 0xFFFFFFFFFFFFFFFFFFFFFFFFFFFFFFFFFFFFFFFF AND PUSH20 0xFFFFFFFFFFFFFFFFFFFFFFFFFFFFFFFFFFFFFFFF AND DUP2 MSTORE PUSH1 0x20 ADD SWAP1 DUP2 MSTORE PUSH1 0x20 ADD PUSH0 KECCAK256 PUSH0 DUP3 DUP3 SLOAD ADD SWAP3 POP POP DUP2 SWAP1 SSTORE POP JUMPDEST DUP2 PUSH20 0xFFFFFFFFFFFFFFFFFFFFFFFFFFFFFFFFFFFFFFFF AND DUP4 PUSH20 0xFFFFFFFFFFFFFFFFFFFFFFFFFFFFFFFFFFFFFFFF AND PUSH32 0xDDF252AD1BE2C89B69C2B068FC378DAA952BA7F163C4A11628F55A4DF523B3EF DUP4 PUSH1 0x40 MLOAD PUSH2 0x1CE0 SWAP2 SWAP1 PUSH2 0x1FD0 JUMP JUMPDEST PUSH1 0x40 MLOAD DUP1 SWAP2 SUB SWAP1 LOG3 POP POP POP JUMP JUMPDEST PUSH0 PUSH1 0x14 DUP3 ADD MLOAD SWAP1 POP SWAP2 SWAP1 POP JUMP JUMPDEST PUSH0 PUSH2 0x1D24 DUP3 DUP5 PUSH20 0xFFFFFFFFFFFFFFFFFFFFFFFFFFFFFFFFFFFFFFFF AND PUSH2 0x1D8F SWAP1 SWAP2 SWAP1 PUSH4 0xFFFFFFFF AND JUMP JUMPDEST SWAP1 POP PUSH0 DUP2 MLOAD EQ ISZERO DUP1 ISZERO PUSH2 0x1D48 JUMPI POP DUP1 DUP1 PUSH1 0x20 ADD SWAP1 MLOAD DUP2 ADD SWAP1 PUSH2 0x1D46 SWAP2 SWAP1 PUSH2 0x24F1 JUMP JUMPDEST ISZERO JUMPDEST ISZERO PUSH2 0x1D8A JUMPI DUP3 PUSH1 0x40 MLOAD PUSH32 0x5274AFE700000000000000000000000000000000000000000000000000000000 DUP2 MSTORE PUSH1 0x4 ADD PUSH2 0x1D81 SWAP2 SWAP1 PUSH2 0x219B JUMP JUMPDEST PUSH1 0x40 MLOAD DUP1 SWAP2 SUB SWAP1 REVERT JUMPDEST POP POP POP JUMP JUMPDEST PUSH1 0x60 PUSH2 0x1D9C DUP4 DUP4 PUSH0 PUSH2 0x1DA4 JUMP JUMPDEST SWAP1 POP SWAP3 SWAP2 POP POP JUMP JUMPDEST PUSH1 0x60 DUP2 SELFBALANCE LT ISZERO PUSH2 0x1DEB JUMPI ADDRESS PUSH1 0x40 MLOAD PUSH32 0xCD78605900000000000000000000000000000000000000000000000000000000 DUP2 MSTORE PUSH1 0x4 ADD PUSH2 0x1DE2 SWAP2 SWAP1 PUSH2 0x219B JUMP JUMPDEST PUSH1 0x40 MLOAD DUP1 SWAP2 SUB SWAP1 REVERT JUMPDEST PUSH0 DUP1 DUP6 PUSH20 0xFFFFFFFFFFFFFFFFFFFFFFFFFFFFFFFFFFFFFFFF AND DUP5 DUP7 PUSH1 0x40 MLOAD PUSH2 0x1E13 SWAP2 SWAP1 PUSH2 0x26D7 JUMP JUMPDEST PUSH0 PUSH1 0x40 MLOAD DUP1 DUP4 SUB DUP2 DUP6 DUP8 GAS CALL SWAP3 POP POP POP RETURNDATASIZE DUP1 PUSH0 DUP2 EQ PUSH2 0x1E4D JUMPI PUSH1 0x40 MLOAD SWAP2 POP PUSH1 0x1F NOT PUSH1 0x3F RETURNDATASIZE ADD AND DUP3 ADD PUSH1 0x40 MSTORE RETURNDATASIZE DUP3 MSTORE RETURNDATASIZE PUSH0 PUSH1 0x20 DUP5 ADD RETURNDATACOPY PUSH2 0x1E52 JUMP JUMPDEST PUSH1 0x60 SWAP2 POP JUMPDEST POP SWAP2 POP SWAP2 POP PUSH2 0x1E62 DUP7 DUP4 DUP4 PUSH2 0x1E6D JUMP JUMPDEST SWAP3 POP POP POP SWAP4 SWAP3 POP POP POP JUMP JUMPDEST PUSH1 0x60 DUP3 PUSH2 0x1E82 JUMPI PUSH2 0x1E7D DUP3 PUSH2 0x1EFA JUMP JUMPDEST PUSH2 0x1EF2 JUMP JUMPDEST PUSH0 DUP3 MLOAD EQ DUP1 ISZERO PUSH2 0x1EA8 JUMPI POP PUSH0 DUP5 PUSH20 0xFFFFFFFFFFFFFFFFFFFFFFFFFFFFFFFFFFFFFFFF AND EXTCODESIZE EQ JUMPDEST ISZERO PUSH2 0x1EEA JUMPI DUP4 PUSH1 0x40 MLOAD PUSH32 0x9996B31500000000000000000000000000000000000000000000000000000000 DUP2 MSTORE PUSH1 0x4 ADD PUSH2 0x1EE1 SWAP2 SWAP1 PUSH2 0x219B JUMP JUMPDEST PUSH1 0x40 MLOAD DUP1 SWAP2 SUB SWAP1 REVERT JUMPDEST DUP2 SWAP1 POP PUSH2 0x1EF3 JUMP JUMPDEST JUMPDEST SWAP4 SWAP3 POP POP POP JUMP JUMPDEST PUSH0 DUP2 MLOAD GT ISZERO PUSH2 0x1F0C JUMPI DUP1 MLOAD DUP1 DUP3 PUSH1 0x20 ADD REVERT JUMPDEST PUSH1 0x40 MLOAD PUSH32 0x1425EA4200000000000000000000000000000000000000000000000000000000 DUP2 MSTORE PUSH1 0x4 ADD PUSH1 0x40 MLOAD DUP1 SWAP2 SUB SWAP1 REVERT JUMPDEST PUSH1 0x40 MLOAD DUP1 PUSH2 0x120 ADD PUSH1 0x40 MSTORE DUP1 PUSH0 PUSH20 0xFFFFFFFFFFFFFFFFFFFFFFFFFFFFFFFFFFFFFFFF AND DUP2 MSTORE PUSH1 0x20 ADD PUSH0 PUSH20 0xFFFFFFFFFFFFFFFFFFFFFFFFFFFFFFFFFFFFFFFF AND DUP2 MSTORE PUSH1 0x20 ADD PUSH0 PUSH3 0xFFFFFF AND DUP2 MSTORE PUSH1 0x20 ADD PUSH0 PUSH1 0x2 SIGNEXTEND DUP2 MSTORE PUSH1 0x20 ADD PUSH0 PUSH1 0x2 SIGNEXTEND DUP2 MSTORE PUSH1 0x20 ADD PUSH0 DUP2 MSTORE PUSH1 0x20 ADD PUSH0 DUP2 MSTORE PUSH1 0x20 ADD PUSH0 DUP2 MSTORE PUSH1 0x20 ADD PUSH0 DUP2 MSTORE POP SWAP1 JUMP JUMPDEST PUSH0 DUP2 SWAP1 POP SWAP2 SWAP1 POP JUMP JUMPDEST PUSH2 0x1FCA DUP2 PUSH2 0x1FB8 JUMP JUMPDEST DUP3 MSTORE POP POP JUMP JUMPDEST PUSH0 PUSH1 0x20 DUP3 ADD SWAP1 POP PUSH2 0x1FE3 PUSH0 DUP4 ADD DUP5 PUSH2 0x1FC1 JUMP JUMPDEST SWAP3 SWAP2 POP POP JUMP JUMPDEST PUSH0 DUP2 MLOAD SWAP1 POP SWAP2 SWAP1 POP JUMP JUMPDEST PUSH0 DUP3 DUP3 MSTORE PUSH1 0x20 DUP3 ADD SWAP1 POP SWAP3 SWAP2 POP POP JUMP JUMPDEST PUSH0 JUMPDEST DUP4 DUP2 LT ISZERO PUSH2 0x2020 JUMPI DUP1 DUP3 ADD MLOAD DUP2 DUP5 ADD MSTORE PUSH1 0x20 DUP2 ADD SWAP1 POP PUSH2 0x2005 JUMP JUMPDEST PUSH0 DUP5 DUP5 ADD MSTORE POP POP POP POP JUMP JUMPDEST PUSH0 PUSH1 0x1F NOT PUSH1 0x1F DUP4 ADD AND SWAP1 POP SWAP2 SWAP1 POP JUMP JUMPDEST PUSH0 PUSH2 0x2045 DUP3 PUSH2 0x1FE9 JUMP JUMPDEST PUSH2 0x204F DUP2 DUP6 PUSH2 0x1FF3 JUMP JUMPDEST SWAP4 POP PUSH2 0x205F DUP2 DUP6 PUSH1 0x20 DUP7 ADD PUSH2 0x2003 JUMP JUMPDEST PUSH2 0x2068 DUP2 PUSH2 0x202B JUMP JUMPDEST DUP5 ADD SWAP2 POP POP SWAP3 SWAP2 POP POP JUMP JUMPDEST PUSH0 PUSH1 0x20 DUP3 ADD SWAP1 POP DUP2 DUP2 SUB PUSH0 DUP4 ADD MSTORE PUSH2 0x208B DUP2 DUP5 PUSH2 0x203B JUMP JUMPDEST SWAP1 POP SWAP3 SWAP2 POP POP JUMP JUMPDEST PUSH0 DUP1 REVERT JUMPDEST PUSH0 PUSH20 0xFFFFFFFFFFFFFFFFFFFFFFFFFFFFFFFFFFFFFFFF DUP3 AND SWAP1 POP SWAP2 SWAP1 POP JUMP JUMPDEST PUSH0 PUSH2 0x20C0 DUP3 PUSH2 0x2097 JUMP JUMPDEST SWAP1 POP SWAP2 SWAP1 POP JUMP JUMPDEST PUSH2 0x20D0 DUP2 PUSH2 0x20B6 JUMP JUMPDEST DUP2 EQ PUSH2 0x20DA JUMPI PUSH0 DUP1 REVERT JUMPDEST POP JUMP JUMPDEST PUSH0 DUP2 CALLDATALOAD SWAP1 POP PUSH2 0x20EB DUP2 PUSH2 0x20C7 JUMP JUMPDEST SWAP3 SWAP2 POP POP JUMP JUMPDEST PUSH2 0x20FA DUP2 PUSH2 0x1FB8 JUMP JUMPDEST DUP2 EQ PUSH2 0x2104 JUMPI PUSH0 DUP1 REVERT JUMPDEST POP JUMP JUMPDEST PUSH0 DUP2 CALLDATALOAD SWAP1 POP PUSH2 0x2115 DUP2 PUSH2 0x20F1 JUMP JUMPDEST SWAP3 SWAP2 POP POP JUMP JUMPDEST PUSH0 DUP1 PUSH1 0x40 DUP4 DUP6 SUB SLT ISZERO PUSH2 0x2131 JUMPI PUSH2 0x2130 PUSH2 0x2093 JUMP JUMPDEST JUMPDEST PUSH0 PUSH2 0x213E DUP6 DUP3 DUP7 ADD PUSH2 0x20DD JUMP JUMPDEST SWAP3 POP POP PUSH1 0x20 PUSH2 0x214F DUP6 DUP3 DUP7 ADD PUSH2 0x2107 JUMP JUMPDEST SWAP2 POP POP SWAP3 POP SWAP3 SWAP1 POP JUMP JUMPDEST PUSH0 DUP2 ISZERO ISZERO SWAP1 POP SWAP2 SWAP1 POP JUMP JUMPDEST PUSH2 0x216D DUP2 PUSH2 0x2159 JUMP JUMPDEST DUP3 MSTORE POP POP JUMP JUMPDEST PUSH0 PUSH1 0x20 DUP3 ADD SWAP1 POP PUSH2 0x2186 PUSH0 DUP4 ADD DUP5 PUSH2 0x2164 JUMP JUMPDEST SWAP3 SWAP2 POP POP JUMP JUMPDEST PUSH2 0x2195 DUP2 PUSH2 0x20B6 JUMP JUMPDEST DUP3 MSTORE POP POP JUMP JUMPDEST PUSH0 PUSH1 0x20 DUP3 ADD SWAP1 POP PUSH2 0x21AE PUSH0 DUP4 ADD DUP5 PUSH2 0x218C JUMP JUMPDEST SWAP3 SWAP2 POP POP JUMP JUMPDEST PUSH0 DUP1 PUSH0 PUSH1 0x60 DUP5 DUP7 SUB SLT ISZERO PUSH2 0x21CB JUMPI PUSH2 0x21CA PUSH2 0x2093 JUMP JUMPDEST JUMPDEST PUSH0 PUSH2 0x21D8 DUP7 DUP3 DUP8 ADD PUSH2 0x20DD JUMP JUMPDEST SWAP4 POP POP PUSH1 0x20 PUSH2 0x21E9 DUP7 DUP3 DUP8 ADD PUSH2 0x20DD JUMP JUMPDEST SWAP3 POP POP PUSH1 0x40 PUSH2 0x21FA DUP7 DUP3 DUP8 ADD PUSH2 0x2107 JUMP JUMPDEST SWAP2 POP POP SWAP3 POP SWAP3 POP SWAP3 JUMP JUMPDEST PUSH0 PUSH1 0xFF DUP3 AND SWAP1 POP SWAP2 SWAP1 POP JUMP JUMPDEST PUSH2 0x2219 DUP2 PUSH2 0x2204 JUMP JUMPDEST DUP3 MSTORE POP POP JUMP JUMPDEST PUSH0 PUSH1 0x20 DUP3 ADD SWAP1 POP PUSH2 0x2232 PUSH0 DUP4 ADD DUP5 PUSH2 0x2210 JUMP JUMPDEST SWAP3 SWAP2 POP POP JUMP JUMPDEST PUSH0 PUSH1 0x20 DUP3 DUP5 SUB SLT ISZERO PUSH2 0x224D JUMPI PUSH2 0x224C PUSH2 0x2093 JUMP JUMPDEST JUMPDEST PUSH0 PUSH2 0x225A DUP5 DUP3 DUP6 ADD PUSH2 0x20DD JUMP JUMPDEST SWAP2 POP POP SWAP3 SWAP2 POP POP JUMP JUMPDEST PUSH0 DUP1 PUSH1 0x40 DUP4 DUP6 SUB SLT ISZERO PUSH2 0x2279 JUMPI PUSH2 0x2278 PUSH2 0x2093 JUMP JUMPDEST JUMPDEST PUSH0 PUSH2 0x2286 DUP6 DUP3 DUP7 ADD PUSH2 0x20DD JUMP JUMPDEST SWAP3 POP POP PUSH1 0x20 PUSH2 0x2297 DUP6 DUP3 DUP7 ADD PUSH2 0x20DD JUMP JUMPDEST SWAP2 POP POP SWAP3 POP SWAP3 SWAP1 POP JUMP JUMPDEST PUSH0 PUSH1 0x20 DUP3 DUP5 SUB SLT ISZERO PUSH2 0x22B6 JUMPI PUSH2 0x22B5 PUSH2 0x2093 JUMP JUMPDEST JUMPDEST PUSH0 PUSH2 0x22C3 DUP5 DUP3 DUP6 ADD PUSH2 0x2107 JUMP JUMPDEST SWAP2 POP POP SWAP3 SWAP2 POP POP JUMP JUMPDEST PUSH32 0x4E487B7100000000000000000000000000000000000000000000000000000000 PUSH0 MSTORE PUSH1 0x22 PUSH1 0x4 MSTORE PUSH1 0x24 PUSH0 REVERT JUMPDEST PUSH0 PUSH1 0x2 DUP3 DIV SWAP1 POP PUSH1 0x1 DUP3 AND DUP1 PUSH2 0x2310 JUMPI PUSH1 0x7F DUP3 AND SWAP2 POP JUMPDEST PUSH1 0x20 DUP3 LT DUP2 SUB PUSH2 0x2323 JUMPI PUSH2 0x2322 PUSH2 0x22CC JUMP JUMPDEST JUMPDEST POP SWAP2 SWAP1 POP JUMP JUMPDEST PUSH32 0x4E6F7420617574686F72697A6564000000000000000000000000000000000000 PUSH0 DUP3 ADD MSTORE POP JUMP JUMPDEST PUSH0 PUSH2 0x235D PUSH1 0xE DUP4 PUSH2 0x1FF3 JUMP JUMPDEST SWAP2 POP PUSH2 0x2368 DUP3 PUSH2 0x2329 JUMP JUMPDEST PUSH1 0x20 DUP3 ADD SWAP1 POP SWAP2 SWAP1 POP JUMP JUMPDEST PUSH0 PUSH1 0x20 DUP3 ADD SWAP1 POP DUP2 DUP2 SUB PUSH0 DUP4 ADD MSTORE PUSH2 0x238A DUP2 PUSH2 0x2351 JUMP JUMPDEST SWAP1 POP SWAP2 SWAP1 POP JUMP JUMPDEST PUSH0 DUP2 MLOAD SWAP1 POP PUSH2 0x239F DUP2 PUSH2 0x20F1 JUMP JUMPDEST SWAP3 SWAP2 POP POP JUMP JUMPDEST PUSH0 PUSH1 0x20 DUP3 DUP5 SUB SLT ISZERO PUSH2 0x23BA JUMPI PUSH2 0x23B9 PUSH2 0x2093 JUMP JUMPDEST JUMPDEST PUSH0 PUSH2 0x23C7 DUP5 DUP3 DUP6 ADD PUSH2 0x2391 JUMP JUMPDEST SWAP2 POP POP SWAP3 SWAP2 POP POP JUMP JUMPDEST PUSH32 0x4E6F20746F6B656E7320746F2077697468647261770000000000000000000000 PUSH0 DUP3 ADD MSTORE POP JUMP JUMPDEST PUSH0 PUSH2 0x2404 PUSH1 0x15 DUP4 PUSH2 0x1FF3 JUMP JUMPDEST SWAP2 POP PUSH2 0x240F DUP3 PUSH2 0x23D0 JUMP JUMPDEST PUSH1 0x20 DUP3 ADD SWAP1 POP SWAP2 SWAP1 POP JUMP JUMPDEST PUSH0 PUSH1 0x20 DUP3 ADD SWAP1 POP DUP2 DUP2 SUB PUSH0 DUP4 ADD MSTORE PUSH2 0x2431 DUP2 PUSH2 0x23F8 JUMP JUMPDEST SWAP1 POP SWAP2 SWAP1 POP JUMP JUMPDEST PUSH32 0x4E6F7420456E6F75676820537570706C79000000000000000000000000000000 PUSH0 DUP3 ADD MSTORE POP JUMP JUMPDEST PUSH0 PUSH2 0x246C PUSH1 0x11 DUP4 PUSH2 0x1FF3 JUMP JUMPDEST SWAP2 POP PUSH2 0x2477 DUP3 PUSH2 0x2438 JUMP JUMPDEST PUSH1 0x20 DUP3 ADD SWAP1 POP SWAP2 SWAP1 POP JUMP JUMPDEST PUSH0 PUSH1 0x20 DUP3 ADD SWAP1 POP DUP2 DUP2 SUB PUSH0 DUP4 ADD MSTORE PUSH2 0x2499 DUP2 PUSH2 0x2460 JUMP JUMPDEST SWAP1 POP SWAP2 SWAP1 POP JUMP JUMPDEST PUSH0 PUSH1 0x40 DUP3 ADD SWAP1 POP PUSH2 0x24B3 PUSH0 DUP4 ADD DUP6 PUSH2 0x218C JUMP JUMPDEST PUSH2 0x24C0 PUSH1 0x20 DUP4 ADD DUP5 PUSH2 0x1FC1 JUMP JUMPDEST SWAP4 SWAP3 POP POP POP JUMP JUMPDEST PUSH2 0x24D0 DUP2 PUSH2 0x2159 JUMP JUMPDEST DUP2 EQ PUSH2 0x24DA JUMPI PUSH0 DUP1 REVERT JUMPDEST POP JUMP JUMPDEST PUSH0 DUP2 MLOAD SWAP1 POP PUSH2 0x24EB DUP2 PUSH2 0x24C7 JUMP JUMPDEST SWAP3 SWAP2 POP POP JUMP JUMPDEST PUSH0 PUSH1 0x20 DUP3 DUP5 SUB SLT ISZERO PUSH2 0x2506 JUMPI PUSH2 0x2505 PUSH2 0x2093 JUMP JUMPDEST JUMPDEST PUSH0 PUSH2 0x2513 DUP5 DUP3 DUP6 ADD PUSH2 0x24DD JUMP JUMPDEST SWAP2 POP POP SWAP3 SWAP2 POP POP JUMP JUMPDEST PUSH32 0x416D6F756E74206D7573742062652067726561746572207468616E207A65726F PUSH0 DUP3 ADD MSTORE POP JUMP JUMPDEST PUSH0 PUSH2 0x2550 PUSH1 0x20 DUP4 PUSH2 0x1FF3 JUMP JUMPDEST SWAP2 POP PUSH2 0x255B DUP3 PUSH2 0x251C JUMP JUMPDEST PUSH1 0x20 DUP3 ADD SWAP1 POP SWAP2 SWAP1 POP JUMP JUMPDEST PUSH0 PUSH1 0x20 DUP3 ADD SWAP1 POP DUP2 DUP2 SUB PUSH0 DUP4 ADD MSTORE PUSH2 0x257D DUP2 PUSH2 0x2544 JUMP JUMPDEST SWAP1 POP SWAP2 SWAP1 POP JUMP JUMPDEST PUSH32 0x4E487B7100000000000000000000000000000000000000000000000000000000 PUSH0 MSTORE PUSH1 0x41 PUSH1 0x4 MSTORE PUSH1 0x24 PUSH0 REVERT JUMPDEST PUSH0 DUP2 SWAP1 POP SWAP2 SWAP1 POP JUMP JUMPDEST PUSH0 DUP2 SWAP1 POP SWAP2 SWAP1 POP JUMP JUMPDEST PUSH0 PUSH2 0x25DD PUSH2 0x25D8 PUSH2 0x25D3 DUP5 PUSH2 0x25B1 JUMP JUMPDEST PUSH2 0x25BA JUMP JUMPDEST PUSH2 0x2204 JUMP JUMPDEST SWAP1 POP SWAP2 SWAP1 POP JUMP JUMPDEST PUSH2 0x25ED DUP2 PUSH2 0x25C3 JUMP JUMPDEST DUP3 MSTORE POP POP JUMP JUMPDEST PUSH0 DUP2 MLOAD SWAP1 POP SWAP2 SWAP1 POP JUMP JUMPDEST PUSH0 DUP3 DUP3 MSTORE PUSH1 0x20 DUP3 ADD SWAP1 POP SWAP3 SWAP2 POP POP JUMP JUMPDEST PUSH0 PUSH2 0x2617 DUP3 PUSH2 0x25F3 JUMP JUMPDEST PUSH2 0x2621 DUP2 DUP6 PUSH2 0x25FD JUMP JUMPDEST SWAP4 POP PUSH2 0x2631 DUP2 DUP6 PUSH1 0x20 DUP7 ADD PUSH2 0x2003 JUMP JUMPDEST PUSH2 0x263A DUP2 PUSH2 0x202B JUMP JUMPDEST DUP5 ADD SWAP2 POP POP SWAP3 SWAP2 POP POP JUMP JUMPDEST PUSH0 PUSH1 0xA0 DUP3 ADD SWAP1 POP PUSH2 0x2658 PUSH0 DUP4 ADD DUP9 PUSH2 0x218C JUMP JUMPDEST PUSH2 0x2665 PUSH1 0x20 DUP4 ADD DUP8 PUSH2 0x2164 JUMP JUMPDEST PUSH2 0x2672 PUSH1 0x40 DUP4 ADD DUP7 PUSH2 0x25E4 JUMP JUMPDEST PUSH2 0x267F PUSH1 0x60 DUP4 ADD DUP6 PUSH2 0x25E4 JUMP JUMPDEST DUP2 DUP2 SUB PUSH1 0x80 DUP4 ADD MSTORE PUSH2 0x2691 DUP2 DUP5 PUSH2 0x260D JUMP JUMPDEST SWAP1 POP SWAP7 SWAP6 POP POP POP POP POP POP JUMP JUMPDEST PUSH0 DUP2 SWAP1 POP SWAP3 SWAP2 POP POP JUMP JUMPDEST PUSH0 PUSH2 0x26B1 DUP3 PUSH2 0x25F3 JUMP JUMPDEST PUSH2 0x26BB DUP2 DUP6 PUSH2 0x269D JUMP JUMPDEST SWAP4 POP PUSH2 0x26CB DUP2 DUP6 PUSH1 0x20 DUP7 ADD PUSH2 0x2003 JUMP JUMPDEST DUP1 DUP5 ADD SWAP2 POP POP SWAP3 SWAP2 POP POP JUMP JUMPDEST PUSH0 PUSH2 0x26E2 DUP3 DUP5 PUSH2 0x26A7 JUMP JUMPDEST SWAP2 POP DUP2 SWAP1 POP SWAP3 SWAP2 POP POP JUMP JUMPDEST PUSH32 0x4661696C656420746F204D696E74000000000000000000000000000000000000 PUSH0 DUP3 ADD MSTORE POP JUMP JUMPDEST PUSH0 PUSH2 0x2721 PUSH1 0xE DUP4 PUSH2 0x1FF3 JUMP JUMPDEST SWAP2 POP PUSH2 0x272C DUP3 PUSH2 0x26ED JUMP JUMPDEST PUSH1 0x20 DUP3 ADD SWAP1 POP SWAP2 SWAP1 POP JUMP JUMPDEST PUSH0 PUSH1 0x20 DUP3 ADD SWAP1 POP DUP2 DUP2 SUB PUSH0 DUP4 ADD MSTORE PUSH2 0x274E DUP2 PUSH2 0x2715 JUMP JUMPDEST SWAP1 POP SWAP2 SWAP1 POP JUMP JUMPDEST PUSH32 0x4E487B7100000000000000000000000000000000000000000000000000000000 PUSH0 MSTORE PUSH1 0x11 PUSH1 0x4 MSTORE PUSH1 0x24 PUSH0 REVERT JUMPDEST PUSH0 PUSH2 0x278C DUP3 PUSH2 0x1FB8 JUMP JUMPDEST SWAP2 POP PUSH2 0x2797 DUP4 PUSH2 0x1FB8 JUMP JUMPDEST SWAP3 POP DUP3 DUP3 ADD SWAP1 POP DUP1 DUP3 GT ISZERO PUSH2 0x27AF JUMPI PUSH2 0x27AE PUSH2 0x2755 JUMP JUMPDEST JUMPDEST SWAP3 SWAP2 POP POP JUMP JUMPDEST PUSH32 0x4578636565647320746F74616C20737570706C79000000000000000000000000 PUSH0 DUP3 ADD MSTORE POP JUMP JUMPDEST PUSH0 PUSH2 0x27E9 PUSH1 0x14 DUP4 PUSH2 0x1FF3 JUMP JUMPDEST SWAP2 POP PUSH2 0x27F4 DUP3 PUSH2 0x27B5 JUMP JUMPDEST PUSH1 0x20 DUP3 ADD SWAP1 POP SWAP2 SWAP1 POP JUMP JUMPDEST PUSH0 PUSH1 0x20 DUP3 ADD SWAP1 POP DUP2 DUP2 SUB PUSH0 DUP4 ADD MSTORE PUSH2 0x2816 DUP2 PUSH2 0x27DD JUMP JUMPDEST SWAP1 POP SWAP2 SWAP1 POP JUMP JUMPDEST PUSH32 0x45786365656473206D696E74206C696D69742070657220696E766573746F7200 PUSH0 DUP3 ADD MSTORE POP JUMP JUMPDEST PUSH0 PUSH2 0x2851 PUSH1 0x1F DUP4 PUSH2 0x1FF3 JUMP JUMPDEST SWAP2 POP PUSH2 0x285C DUP3 PUSH2 0x281D JUMP JUMPDEST PUSH1 0x20 DUP3 ADD SWAP1 POP SWAP2 SWAP1 POP JUMP JUMPDEST PUSH0 PUSH1 0x20 DUP3 ADD SWAP1 POP DUP2 DUP2 SUB PUSH0 DUP4 ADD MSTORE PUSH2 0x287E DUP2 PUSH2 0x2845 JUMP JUMPDEST SWAP1 POP SWAP2 SWAP1 POP JUMP JUMPDEST PUSH32 0x45786365656473206D696E74206C696D697420666F722074686520696E766573 PUSH0 DUP3 ADD MSTORE PUSH32 0x746F720000000000000000000000000000000000000000000000000000000000 PUSH1 0x20 DUP3 ADD MSTORE POP JUMP JUMPDEST PUSH0 PUSH2 0x28DF PUSH1 0x23 DUP4 PUSH2 0x1FF3 JUMP JUMPDEST SWAP2 POP PUSH2 0x28EA DUP3 PUSH2 0x2885 JUMP JUMPDEST PUSH1 0x40 DUP3 ADD SWAP1 POP SWAP2 SWAP1 POP JUMP JUMPDEST PUSH0 PUSH1 0x20 DUP3 ADD SWAP1 POP DUP2 DUP2 SUB PUSH0 DUP4 ADD MSTORE PUSH2 0x290C DUP2 PUSH2 0x28D3 JUMP JUMPDEST SWAP1 POP SWAP2 SWAP1 POP JUMP JUMPDEST PUSH0 PUSH1 0x40 DUP3 ADD SWAP1 POP PUSH2 0x2926 PUSH0 DUP4 ADD DUP6 PUSH2 0x218C JUMP JUMPDEST PUSH2 0x2933 PUSH1 0x20 DUP4 ADD DUP5 PUSH2 0x218C JUMP JUMPDEST SWAP4 SWAP3 POP POP POP JUMP JUMPDEST PUSH32 0x596F75206D75737420617070726F76652074686520636F6E747261637420746F PUSH0 DUP3 ADD MSTORE PUSH32 0x2061636365737320796F75722055534454000000000000000000000000000000 PUSH1 0x20 DUP3 ADD MSTORE POP JUMP JUMPDEST PUSH0 PUSH2 0x2994 PUSH1 0x31 DUP4 PUSH2 0x1FF3 JUMP JUMPDEST SWAP2 POP PUSH2 0x299F DUP3 PUSH2 0x293A JUMP JUMPDEST PUSH1 0x40 DUP3 ADD SWAP1 POP SWAP2 SWAP1 POP JUMP JUMPDEST PUSH0 PUSH1 0x20 DUP3 ADD SWAP1 POP DUP2 DUP2 SUB PUSH0 DUP4 ADD MSTORE PUSH2 0x29C1 DUP2 PUSH2 0x2988 JUMP JUMPDEST SWAP1 POP SWAP2 SWAP1 POP JUMP JUMPDEST PUSH0 PUSH1 0x60 DUP3 ADD SWAP1 POP PUSH2 0x29DB PUSH0 DUP4 ADD DUP7 PUSH2 0x218C JUMP JUMPDEST PUSH2 0x29E8 PUSH1 0x20 DUP4 ADD DUP6 PUSH2 0x1FC1 JUMP JUMPDEST PUSH2 0x29F5 PUSH1 0x40 DUP4 ADD DUP5 PUSH2 0x1FC1 JUMP JUMPDEST SWAP5 SWAP4 POP POP POP POP JUMP JUMPDEST PUSH0 PUSH3 0xFFFFFF DUP3 AND SWAP1 POP SWAP2 SWAP1 POP JUMP JUMPDEST PUSH2 0x2A14 DUP2 PUSH2 0x29FD JUMP JUMPDEST DUP3 MSTORE POP POP JUMP JUMPDEST PUSH0 PUSH1 0x60 DUP3 ADD SWAP1 POP PUSH2 0x2A2D PUSH0 DUP4 ADD DUP7 PUSH2 0x218C JUMP JUMPDEST PUSH2 0x2A3A PUSH1 0x20 DUP4 ADD DUP6 PUSH2 0x218C JUMP JUMPDEST PUSH2 0x2A47 PUSH1 0x40 DUP4 ADD DUP5 PUSH2 0x2A0B JUMP JUMPDEST SWAP5 SWAP4 POP POP POP POP JUMP JUMPDEST PUSH32 0x4661696C656420746F2066696E6420466163746F727900000000000000000000 PUSH0 DUP3 ADD MSTORE POP JUMP JUMPDEST PUSH0 PUSH2 0x2A83 PUSH1 0x16 DUP4 PUSH2 0x1FF3 JUMP JUMPDEST SWAP2 POP PUSH2 0x2A8E DUP3 PUSH2 0x2A4F JUMP JUMPDEST PUSH1 0x20 DUP3 ADD SWAP1 POP SWAP2 SWAP1 POP JUMP JUMPDEST PUSH0 PUSH1 0x20 DUP3 ADD SWAP1 POP DUP2 DUP2 SUB PUSH0 DUP4 ADD MSTORE PUSH2 0x2AB0 DUP2 PUSH2 0x2A77 JUMP JUMPDEST SWAP1 POP SWAP2 SWAP1 POP JUMP JUMPDEST PUSH0 DUP2 SWAP1 POP SWAP2 SWAP1 POP JUMP JUMPDEST PUSH0 PUSH2 0x2ADA PUSH2 0x2AD5 PUSH2 0x2AD0 DUP5 PUSH2 0x2AB7 JUMP JUMPDEST PUSH2 0x25BA JUMP JUMPDEST PUSH2 0x29FD JUMP JUMPDEST SWAP1 POP SWAP2 SWAP1 POP JUMP JUMPDEST PUSH2 0x2AEA DUP2 PUSH2 0x2AC0 JUMP JUMPDEST DUP3 MSTORE POP POP JUMP JUMPDEST PUSH0 PUSH1 0x20 DUP3 ADD SWAP1 POP PUSH2 0x2B03 PUSH0 DUP4 ADD DUP5 PUSH2 0x2AE1 JUMP JUMPDEST SWAP3 SWAP2 POP POP JUMP JUMPDEST PUSH32 0x4661696C656420746F20506F6F6C20696E697469616C697A6500000000000000 PUSH0 DUP3 ADD MSTORE POP JUMP JUMPDEST PUSH0 PUSH2 0x2B3D PUSH1 0x19 DUP4 PUSH2 0x1FF3 JUMP JUMPDEST SWAP2 POP PUSH2 0x2B48 DUP3 PUSH2 0x2B09 JUMP JUMPDEST PUSH1 0x20 DUP3 ADD SWAP1 POP SWAP2 SWAP1 POP JUMP JUMPDEST PUSH0 PUSH1 0x20 DUP3 ADD SWAP1 POP DUP2 DUP2 SUB PUSH0 DUP4 ADD MSTORE PUSH2 0x2B6A DUP2 PUSH2 0x2B31 JUMP JUMPDEST SWAP1 POP SWAP2 SWAP1 POP JUMP JUMPDEST PUSH2 0x2B7A DUP2 PUSH2 0x20B6 JUMP JUMPDEST DUP3 MSTORE POP POP JUMP JUMPDEST PUSH2 0x2B89 DUP2 PUSH2 0x29FD JUMP JUMPDEST DUP3 MSTORE POP POP JUMP JUMPDEST PUSH0 DUP2 PUSH1 0x2 SIGNEXTEND SWAP1 POP SWAP2 SWAP1 POP JUMP JUMPDEST PUSH2 0x2BA4 DUP2 PUSH2 0x2B8F JUMP JUMPDEST DUP3 MSTORE POP POP JUMP JUMPDEST PUSH2 0x2BB3 DUP2 PUSH2 0x1FB8 JUMP JUMPDEST DUP3 MSTORE POP POP JUMP JUMPDEST PUSH2 0x120 DUP3 ADD PUSH0 DUP3 ADD MLOAD PUSH2 0x2BCE PUSH0 DUP6 ADD DUP3 PUSH2 0x2B71 JUMP JUMPDEST POP PUSH1 0x20 DUP3 ADD MLOAD PUSH2 0x2BE1 PUSH1 0x20 DUP6 ADD DUP3 PUSH2 0x2B71 JUMP JUMPDEST POP PUSH1 0x40 DUP3 ADD MLOAD PUSH2 0x2BF4 PUSH1 0x40 DUP6 ADD DUP3 PUSH2 0x2B80 JUMP JUMPDEST POP PUSH1 0x60 DUP3 ADD MLOAD PUSH2 0x2C07 PUSH1 0x60 DUP6 ADD DUP3 PUSH2 0x2B9B JUMP JUMPDEST POP PUSH1 0x80 DUP3 ADD MLOAD PUSH2 0x2C1A PUSH1 0x80 DUP6 ADD DUP3 PUSH2 0x2B9B JUMP JUMPDEST POP PUSH1 0xA0 DUP3 ADD MLOAD PUSH2 0x2C2D PUSH1 0xA0 DUP6 ADD DUP3 PUSH2 0x2BAA JUMP JUMPDEST POP PUSH1 0xC0 DUP3 ADD MLOAD PUSH2 0x2C40 PUSH1 0xC0 DUP6 ADD DUP3 PUSH2 0x2BAA JUMP JUMPDEST POP PUSH1 0xE0 DUP3 ADD MLOAD PUSH2 0x2C53 PUSH1 0xE0 DUP6 ADD DUP3 PUSH2 0x2BAA JUMP JUMPDEST POP PUSH2 0x100 DUP3 ADD MLOAD PUSH2 0x2C68 PUSH2 0x100 DUP6 ADD DUP3 PUSH2 0x2BAA JUMP JUMPDEST POP POP POP POP JUMP JUMPDEST PUSH0 PUSH2 0x120 DUP3 ADD SWAP1 POP PUSH2 0x2C82 PUSH0 DUP4 ADD DUP5 PUSH2 0x2BB9 JUMP JUMPDEST SWAP3 SWAP2 POP POP JUMP JUMPDEST PUSH0 PUSH1 0x60 DUP3 ADD SWAP1 POP PUSH2 0x2C9B PUSH0 DUP4 ADD DUP7 PUSH2 0x218C JUMP JUMPDEST PUSH2 0x2CA8 PUSH1 0x20 DUP4 ADD DUP6 PUSH2 0x218C JUMP JUMPDEST PUSH2 0x2CB5 PUSH1 0x40 DUP4 ADD DUP5 PUSH2 0x1FC1 JUMP JUMPDEST SWAP5 SWAP4 POP POP POP POP JUMP INVALID LOG2 PUSH5 0x6970667358 0x22 SLT KECCAK256 0xC2 CALLDATALOAD DUP12 PUSH16 0xD3CF22D51E92175CC2637CD2FE48A679 GAS 0xC1 MOD CALLCODE DUP5 GASLIMIT LOG3 STOP MLOAD PUSH1 0xB BLOBBASEFEE PUSH5 0x736F6C6343 STOP ADDMOD XOR STOP CALLER "
				},
				"gasEstimates": {
					"creation": {
						"codeDepositCost": "2301400",
						"executionCost": "infinite",
						"totalCost": "infinite"
					},
					"external": {
						"DEVELOPER_SUPPLY()": "436",
						"INVESTOR_SUPPLY()": "392",
						"MINT_LIMIT_PER_INVESTOR()": "349",
						"TOTAL_SUPPLY()": "436",
						"USDTAddress()": "2640",
						"allowance(address,address)": "infinite",
						"approve(address,uint256)": "infinite",
						"balanceOf(address)": "2962",
						"buyBack(address,uint256)": "infinite",
						"currentSupply()": "2492",
						"decimals()": "383",
						"developerWallet()": "2620",
						"mintInvestor(uint256)": "infinite",
						"mintedTokens(address)": "2847",
						"name()": "infinite",
						"owner()": "2604",
						"renounceOwnership()": "infinite",
						"symbol()": "infinite",
						"totalSupply()": "2522",
						"transfer(address,uint256)": "infinite",
						"transferFrom(address,address,uint256)": "infinite",
						"transferOwnership(address)": "infinite",
						"withdraw()": "infinite"
					},
					"internal": {
						"bytesToAddress(bytes memory)": "infinite",
						"poolInit(address,address,address,uint24)": "infinite"
					}
				},
				"methodIdentifiers": {
					"DEVELOPER_SUPPLY()": "4fe72439",
					"INVESTOR_SUPPLY()": "329927a7",
					"MINT_LIMIT_PER_INVESTOR()": "039600d2",
					"TOTAL_SUPPLY()": "902d55a5",
					"USDTAddress()": "ff920c74",
					"allowance(address,address)": "dd62ed3e",
					"approve(address,uint256)": "095ea7b3",
					"balanceOf(address)": "70a08231",
					"buyBack(address,uint256)": "d1b8df22",
					"currentSupply()": "771282f6",
					"decimals()": "313ce567",
					"developerWallet()": "185870f9",
					"mintInvestor(uint256)": "e5a7eb75",
					"mintedTokens(address)": "7241dfa0",
					"name()": "06fdde03",
					"owner()": "8da5cb5b",
					"renounceOwnership()": "715018a6",
					"symbol()": "95d89b41",
					"totalSupply()": "18160ddd",
					"transfer(address,uint256)": "a9059cbb",
					"transferFrom(address,address,uint256)": "23b872dd",
					"transferOwnership(address)": "f2fde38b",
					"withdraw()": "3ccfd60b"
				}
			},
			"storageLayout": {
				"storage": [
					{
						"astId": 307,
						"contract": "src/Contract_1.sol:NZFToken",
						"label": "_balances",
						"offset": 0,
						"slot": "0",
						"type": "t_mapping(t_address,t_uint256)"
					},
					{
						"astId": 313,
						"contract": "src/Contract_1.sol:NZFToken",
						"label": "_allowances",
						"offset": 0,
						"slot": "1",
						"type": "t_mapping(t_address,t_mapping(t_address,t_uint256))"
					},
					{
						"astId": 315,
						"contract": "src/Contract_1.sol:NZFToken",
						"label": "_totalSupply",
						"offset": 0,
						"slot": "2",
						"type": "t_uint256"
					},
					{
						"astId": 317,
						"contract": "src/Contract_1.sol:NZFToken",
						"label": "_name",
						"offset": 0,
						"slot": "3",
						"type": "t_string_storage"
					},
					{
						"astId": 319,
						"contract": "src/Contract_1.sol:NZFToken",
						"label": "_symbol",
						"offset": 0,
						"slot": "4",
						"type": "t_string_storage"
					},
					{
						"astId": 8,
						"contract": "src/Contract_1.sol:NZFToken",
						"label": "_owner",
						"offset": 0,
						"slot": "5",
						"type": "t_address"
					},
					{
						"astId": 1579,
						"contract": "src/Contract_1.sol:NZFToken",
						"label": "developerWallet",
						"offset": 0,
						"slot": "6",
						"type": "t_address"
					},
					{
						"astId": 1581,
						"contract": "src/Contract_1.sol:NZFToken",
						"label": "currentSupply",
						"offset": 0,
						"slot": "7",
						"type": "t_uint256"
					},
					{
						"astId": 1583,
						"contract": "src/Contract_1.sol:NZFToken",
						"label": "USDTAddress",
						"offset": 0,
						"slot": "8",
						"type": "t_address"
					},
					{
						"astId": 1587,
						"contract": "src/Contract_1.sol:NZFToken",
						"label": "mintedTokens",
						"offset": 0,
						"slot": "9",
						"type": "t_mapping(t_address,t_uint256)"
					}
				],
				"types": {
					"t_address": {
						"encoding": "inplace",
						"label": "address",
						"numberOfBytes": "20"
					},
					"t_mapping(t_address,t_mapping(t_address,t_uint256))": {
						"encoding": "mapping",
						"key": "t_address",
						"label": "mapping(address => mapping(address => uint256))",
						"numberOfBytes": "32",
						"value": "t_mapping(t_address,t_uint256)"
					},
					"t_mapping(t_address,t_uint256)": {
						"encoding": "mapping",
						"key": "t_address",
						"label": "mapping(address => uint256)",
						"numberOfBytes": "32",
						"value": "t_uint256"
					},
					"t_string_storage": {
						"encoding": "bytes",
						"label": "string",
						"numberOfBytes": "32"
					},
					"t_uint256": {
						"encoding": "inplace",
						"label": "uint256",
						"numberOfBytes": "32"
					}
				}
			},
			"userdoc": {
				"kind": "user",
				"methods": {},
				"version": 1
			}
		}
	}
}